:100000000C9494010C94BC010C94BC010C94BC01A4
:100010000C94BC010C94BC010C94BC010C94BC016C
:100020000C94BC010C94BC010C9497210C941B22E1
:100030000C94BC010C94BC010C94BC010C94BC014C
:100040000C94BC010C9460190C94BC010C94BC0180
:100050000C94BE010C94BC010C94BC010C9459236B
:100060000C94BC010C94E31D0C94311E0C94BC0147
:100070000C94BC010C94F5030C94BC010C94BC01D1
:100080000C94BC010C94BC010C94BC010C94BC01FC
:100090000C94BC010C94BC010C94BC010C94BC01EC
:1000A0000C94BC010C94BC010C94BC013B085A0894
:1000B00013093B085A0813096309CD09771C7B1CF7
:1000C0007F1C831C871C8B1C8F1C931C94249724DF
:1000D0008A248E24B824B824B8249B249F24A324E3
:1000E000A924AD24B824B324080B000202020100A5
:1000F000090400000102020000052400100105248B
:1001000001010104240206052406000107058103FC
:1001100010004009040100020A0000000705020265
:100120004000000705830240000004030904220385
:10013000410072006400750069006E006F002000CD
:100140004C0065006F006E006100720064006F007B
:100150001803410072006400750069006E006F00B2
:1001600020004C004C00430012010002000000403F
:100170004123368000010102000112010002020049
:1001800000404123368000010102000100C180814E
:10019000C100000000240027002A002D00300000CC
:1001A000000000250028002B002E00310000000078
:1001B000002300260029002C002F0004040404045E
:1001C00003040502020202040302020202060606FA
:1001D000060606040402020204040802011040801C
:1001E000401020408040800802040180402010021E
:1001F000011080102040400000000200080E0000A6
:10020000030401000B0000000000000000000000DB
:100210000000000000070605040100080A0B0C0D91
:100220000905010902A1010901A1008501050919BA
:1002300001290315002501950375018102950175BA
:1002400005810305010930093109381581257F75BC
:100250000895038106C0C005010906A101850205B4
:100260000719E029E7150025017501950881029518
:1002700001750881039506750815002565050719A0
:100280000029658100C00904020001030000000983
:1002900021010100012265000705840340000100DF
:1002A000000000000000002A2B28000000000000D1
:1002B0000000000000000000000000000000002C12
:1002C0009EB4A0A1A2A434A6A7A5AE362D37382788
:1002D0001E1F20212223242526B333B62EB7B89F14
:1002E0008485868788898A8B8C8D8E8F9091929356
:1002F0009495969798999A9B9C9D2F3130A3AD35F4
:100300000405060708090A0B0C0D0E0F1011121335
:100310001415161718191A1B1C1DAFB1B0B5000023
:100320001A1D981FF520262511241FBECFEFDAE0F5
:10033000DEBFCDBF11E0A0E0B1E0E2E3F1E502C035
:1003400005900D92A43CB107D9F714E0A4ECB1E0FC
:1003500001C01D92A037B107E1F713E0C8E2D3E076
:1003600004C02297FE010E946B28C032D107C9F752
:100370000E94EE1F0C9497280C9400001F920F927D
:100380000FB60F9211248F939F9380918B029091BF
:100390008C02019690938C0280938B0280918B0249
:1003A00090918C02892B29F480918D028F5F80932C
:1003B0008D029F918F910F900FBE0F901F901895F7
:1003C000609184007091850020918B0230918C02A5
:1003D000E0918D0280918400909185008627972777
:1003E00097FDEECF80918B0290918C0228173907F0
:1003F00039F780918D02E81719F740E050E0FFE0EF
:10040000220F331F441F551FFA95D1F78E2F90E00E
:10041000A0E0B0E0BB278695B795AA279927882743
:10042000282B392B4A2B5B2B76956795CB01A0E0C7
:10043000B0E0282B392B4A2B5B2BB901CA01089558
:10044000AF92BF92CF92DF92EF92FF920F931F93E2
:1004500028EE33E040E050E00E94D6275B016C01BB
:100460000E94E0017B018C010E94E0016E197F096E
:10047000800B910B6A157B058C059D05A8F31F91D8
:100480000F91FF90EF90DF90CF90BF90AF900895C5
:1004900091E0982721F0913021F45D9A08955D98BC
:1004A00008958BB190E289278BB90895EF92FF925E
:1004B0000F931F937B018C0180914B0390914C0310
:1004C000A0914D03B0914E038E199F09A00BB10B63
:1004D000181619061A061B060CF450C080914F031B
:1004E000882321F5E0915003EF5FE370E093500320
:1004F000FF27E7FDF095E257FD4F8081992787FDA3
:100500009095880F991F80934F0380E492E4AFE0A9
:10051000B0E0E80EF91E0A1F1B1FE0924B03F09299
:100520004C0300934D0310934E0328C081508093D9
:100530004F0381700E944802E0915003FF27E7FDBE
:10054000F095EE0FFF1FEE56FD4F80819181AA2797
:1005500097FDA095BA2F2AE0880F991FAA1FBB1FED
:100560002A95D1F78E0D9F1DA01FB11F80934B03BD
:1005700090934C03A0934D03B0934E031F910F91A2
:10058000FF90EF9008959A01AB01882311F0589ADB
:10059000599A1092B90060E074E284EF90E00E94F2
:1005A000F5272051304040405040569547953795AB
:1005B00027952093B80008952FEF30E011C0211542
:1005C000310561F41092BC0080919A0290919B02D7
:1005D000019690939B0280939A0208952150304097
:1005E0008091BC0087FFEBCF0895FF920F931F937C
:1005F000F82E0CEB10E084EAF80180830E94DC0204
:10060000F092BB0084E8F80180830E94DC021F9115
:100610000F91FF9008958093BB0084E88093BC0005
:100620000E94DC0208951F93182F882311F484E898
:1006300001C084EC8093BC000E94DC029091BB005E
:10064000112319F484E98093BC00892F1F91089528
:100650000F931F93162F042F880F0E94F502812FEE
:100660000E940B03802F0E940B0384E98093BC003F
:100670001F910F9108950F931F93182F062F880F26
:100680000E94F502802F0E940B03110F812F8160C1
:100690000E94F50280E00E9413031F910F910895BC
:1006A0001F93CF93DF93EB01142F880F81600E947B
:1006B000F50208C0115080E011160CF481E00E9490
:1006C000130389931123B1F7DF91CF911F910895FF
:1006D000DF92EF92FF920F931F93E82EF62E8A017E
:1006E000D22E880F0E94F5028F2D0E940B038E2DB3
:1006F000B8014D2D0E9450031F910F91FF90EF9074
:10070000DF90089588E66BE640E80E94280362E3E4
:1007100070E080E090E00E94200288E66BE643E013
:100720000E94280340911D01415088E66AE10E9421
:10073000280388E66BE148E10E94280388E665E724
:100740000E943B0390E08E77883609F491E0892F70
:100750000895A6E0B0E0EFEAF3E00C943C288C01A9
:100760007B016A0188E663E4AE014F5F5F4F26E0DC
:100770000E946803998180E02A8130E0822B932BCC
:10078000F801918380839B8180E02C8130E0822B73
:10079000932BF701918380839D8180E02E8130E04F
:1007A000822B932BF601918380832696E8E00C94AC
:1007B0005828282F17C0E22FF0E0EE0FFF1FE45655
:1007C000FD4F80819181892B61F080917C00887F31
:1007D000822B80937C0080917A00806480937A00E1
:1007E00008952F5F263038F308951F920F920FB6A9
:1007F0000F9211242F933F934F935F936F937F93A7
:100800008F939F93AF93BF93EF93FF9380917C005F
:100810008770E82FF0E0EE0FFF1FE456FD4F0190C8
:10082000F081E02D9091790090838F5F0E94D90331
:10083000FF91EF91BF91AF919F918F917F916F91B8
:100840005F914F913F912F910F900FBE0F901F908E
:100850001895ECE9F2E040E050E061E070E0808162
:100860009181892B79F087B1DB01042E02C0AA0F98
:10087000BB1F0A94E2F79D012095822387B988B1B6
:10088000282328B94F5F5F4F32964630510539F71C
:1008900080E680937C0010927B008FE880937A0042
:1008A00080E00E94D9030895CF93DF93EB01DA0132
:1008B000FC0140E050E061E070E080819181892B93
:1008C00079F03881CB01042E02C0880F991F0A9459
:1008D000E2F7282F2095232328832C91822B8C93B9
:1008E0004F5F5F4F32964830510539F7DF91CF9116
:1008F000089588EA92E064E270E045E250E00E94E8
:10090000540488EB92E067E270E048E250E00E9415
:10091000540488EC92E06AE270E04BE250E00E94FE
:100920005404089560E070E040E050E0A1E0B0E0E1
:10093000362FFA01E855FD4F0190F081E02D3097F8
:1009400051F023B1CD01062E02C0880F991F0A94E1
:10095000E2F728232083FA01E854FD4F0190F0814B
:10096000E02D309751F026B1CD01032E02C0880F43
:10097000991F0A94E2F728232083FA01E853FD4FD8
:100980000190F081E02D309749F029B1CD0102C0EE
:10099000880F991F3A95E2F7282320836F5F7F4FD6
:1009A0004E5F5F4F4031510519F60895A6E0B0E063
:1009B000ECEDF4E00C9432287A8369831C012B015E
:1009C0009E838D839B012A5F3F4F3C832B83ED8168
:1009D000FE810681178180819181081B190B3801E6
:1009E000882477FC8094982CF10182899389A489CA
:1009F000B589860D971DA81DB91D268D378D40A17F
:100A000051A1AA24BB246501A21AB30AC40AD50ABB
:100A10008A159B05AC05BD054CF05C016D012817DE
:100A200039074A075B0714F459016A01F101A28AE8
:100A3000B38AC48AD58AED81FE8184859585AA27EB
:100A400097FDA095BA2FA4019301281B390B4A0BDF
:100A50005B0BCA01B90115870487F201248535852E
:100A6000442737FD4095542F0E94D6277B018C01E7
:100A700032E015950795F794E7943A95D1F7F2018E
:100A800020813181442737FD4095542FC401B301A3
:100A90000E94D62723E095958795779567952A95A7
:100AA000D1F7E60EF71E081F191FF20126813781C4
:100AB000442737FD4095542FC601B5010E94D62723
:100AC000B6E09595879577956795BA95D1F7E60E37
:100AD000F71E081F191FE981FA81028804C01595C5
:100AE0000795F794E7940A94D2F7ED81FE81F3A677
:100AF000E2A63296FE83ED8324E030E0220E331E20
:100B000042E050E0440E551E8B819C8148165906E8
:100B100009F05DCF2696E2E10C944E28A6E0B0E005
:100B2000E4E9F5E00C944228CE010196BE016D5F28
:100B30007F4FAE014B5F5F4F0E94A903EB81FC81A9
:100B4000AA27BB27AE1BBF0BB093FF01A093FE01EA
:100B500069817A8144275527461B570B5093010220
:100B6000409300022D813E813093030220930202C4
:100B700080912E0290912F0283309105A9F084304C
:100B800091051CF4029771F506C084309105C9F0F7
:100B9000059741F51FC03093010220930002709326
:100BA0000302609302021EC088279927821B930BC1
:100BB000909301028093000250930302409302023B
:100BC00011C05093FF014093FE01F0930102E093A6
:100BD000000208C07093FF016093FE01B093010210
:100BE000A09300022696E2E00C945E2881E040E8A3
:100BF0005AE166E070E00E94C3020E9482038823EB
:100C000049F485E08093900288EC90E090939702FD
:100C10008093960208950F931F93CF93DF93FC0167
:100C20001082772767FD709572836183DC01EC0188
:100C300040E050E00FEF1FE760E070E80CC0129654
:100C40001C930E9311971A967C936E9319971F8697
:100C5000188A198A1A8A9A014F5F5F4F1296249652
:100C6000818192812817390754F314A613A6DF91C6
:100C7000CF911F910F910895A0E0B0E0E2E4F6E07B
:100C80000C943A287C018C01EB01F70160E070E0E4
:100C90002BC02181328188819981281739070CF472
:100CA000C901928381832185328588819981821748
:100CB00093070CF4C90192878187299139914427C0
:100CC00037FD4095542FD8011F96AD90BD90CD9023
:100CD000DC905297A20EB31EC41ED51E1F96AD9275
:100CE000BD92CD92DC9252979B016F5F7F4F3296FF
:100CF0000C5F1F4FD70111968D919C911297281769
:100D000039073CF2CDB7DEB7EAE00C945628A0E0F4
:100D1000B0E0EDE8F6E00C943C28EC017C0143E205
:100D2000C42ED12CC80ED91E00E010E011C02BA596
:100D30003CA5442737FD4095542FF70167857089FE
:100D4000818992890E941728F601219331936F01BE
:100D500098010F5F1F4F84E090E0E80EF91E898133
:100D60009A81281739071CF3CDB7DEB7E8E00C9459
:100D70005828CF93DF93FC01EB0161817281A0E0E1
:100D800040E050E00DC08385948523813481821B2F
:100D9000930B8C179D070CF4AF5F4F5F5F4F32963C
:100DA0004617570784F320E08A2F992787FD9095EF
:100DB0008617970709F421E0822FDF91CF910895DC
:100DC000AAE0B0E0E6EEF6E00C9440288C018091B9
:100DD000C4019091C5019A8389838091C801909143
:100DE000C9019C838B838091CA019091CB019E8322
:100DF0008D838091C6019091C70198878F838091E0
:100E0000D2019091D3019A878987C801BE016F5F93
:100E10007F4F0E943C06F80183A594A5019694A7F4
:100E200083A78436910581F5C80164E170E00E94D2
:100E3000B906882329F1C8010E948706F80183A119
:100E400094A1909314018093130185A196A190938E
:100E500016018093150187A190A5909318018093A6
:100E6000170181A592A590931A018093190183A57A
:100E700094A590931C0180931B0181E0808304C0A2
:100E8000C80164E00E940B062A96E4E00C945C28FA
:100E9000A6E0B0E0EEE4F7E00C9440288C018091ED
:100EA000FE019091FF019A838983809100029091C5
:100EB00001029C838B8380910202909103029E83A6
:100EC0008D83C801BE016F5F7F4F0E943C06F80111
:100ED00083A594A5019694A783A78C52914021F5F0
:100EE000C80162E370E00E94B9068823C9F0C80116
:100EF0000E948706F80183A194A19093F901809341
:100F0000F80185A196A19093FB018093FA0187A136
:100F100090A59093FD018093FC0181E0808304C043
:100F2000C80163E00E940B062696E4E00C945C285E
:100F300020910301309104018091030190910401FB
:100F40002817390721F43093C5012093C40120915B
:100F50000501309106018091050190910601281745
:100F6000390721F43093C9012093C801209107016A
:100F700030910801809107019091080128173907E5
:100F800021F43093CB012093CA0120910B013091C1
:100F90000C0180910B0190910C012817390721F465
:100FA0003093CD012093CC0120910D0130910E01A1
:100FB00080910D0190910E012817390721F430938B
:100FC000CF012093CE0120910F013091100180912B
:100FD0000F01909110012817390721F43093D101A6
:100FE0002093D001209111013091120180911101C3
:100FF000909112012817390721F43093D3012093DF
:10100000D201809163029091640205974CF4809123
:10101000C4019091C5019093C7018093C6010895C2
:101020002091090130910A018091090190910A01F2
:101030002817390721F43093C7012093C60108957A
:10104000A0E0B0E0E6E2F8E00C943828EC018090F3
:10105000630290906402F4013297E830F10508F0E1
:10106000D2C1EA5AFF4F688179814091C401509101
:10107000C5010C946928640F751F7093EB01609390
:10108000EA01888199812091C6013091C701820FC0
:10109000931F9093F1018093F0018A819B812091AD
:1010A000C8013091C901820F931F9093ED01809385
:1010B000EC019DC17A01E60EF71EF092EB01E09281
:1010C000EA01A090C601B090C701088119810A0DFC
:1010D0001B1D1093F1010093F001A0911301B09139
:1010E00014016A01CA1ADB0A488159814C0D5D1D41
:1010F000E0911501F09116018091C8019091C9010C
:101100008E1B9F0B2A813B81820F931FBA0175951D
:10111000679523E0559547952A95E1F7640F751F6C
:101120009C013595279543E0959587954A95E1F77C
:10113000280F391FE60FF71FE20FF31FF093ED01A1
:10114000E093EC016A0F7B1F621B730B7093EF013E
:101150006093EE012091CA013091CB0186E08816A0
:10116000910409F059C0E4E0223E3E0774F029578B
:101170003540273C310518F082E090E002C081E064
:1011800090E0029709F03FC11CC0C6018A199B0973
:101190002091190130911A01820F931F959587951F
:1011A00084529A4F9093EB018093EA018C5D9540B5
:1011B0002CED35E0281B390B3093F1012093F00121
:1011C00022C1209102016A817B81E091D601F091D8
:1011D000D7016E0F7F1F882777FD8095982F30E00D
:1011E00020583040442737FD4095542F0E94D62781
:1011F00047E095958795779567954A95D1F7E60EDF
:10120000F71EF092EB01E092EA01061B170B109318
:10121000F1010093F001F7C07093EB016093EA01D4
:101220008C819D81EAC0640F751F7093EB01609300
:10123000EA01888199812091C6013091C701820F0E
:10124000931F9093F1018093F001A0911501B0914B
:1012500016014091C8015091C9014A1B5B0B8A815C
:101260009B81480F591FE0911701F091180180915F
:10127000CA019091CB018E1B9F0B2C813D81820F67
:10128000931FBC017595679523E0959587952A95E1
:10129000E1F7680F791F9A013595279583E05595F9
:1012A00047958A95E1F7240F351FCB01820F931FD5
:1012B0008A0F9B1F9093ED018093EC012E0F3F1F2F
:1012C000261B370B65C020911301309114010A8150
:1012D0001B818091D6019091D701080F191FAC8115
:1012E000BD818091D8019091D901A80FB91F80913B
:1012F000090190910A018C54944097FF03C0E0E0EB
:10130000F0E016C08091090190910A018C5494403C
:1013100095958795855F91401CF0E4EFF1E008C05A
:10132000E0910901F0910A01EC54F440F595E7953C
:1013300044525A4F421B530B460F571FB801640FBC
:10134000751F9F012A1B3B0B37FF02C020E030E0D6
:10135000CB01821B930B9093EB018093EA01260F44
:10136000371F3093ED012093EC019A01201B310BC4
:10137000AF014A0F5B1F57FF02C040E050E0CA01B7
:10138000820F931F9093F1018093F001241B350B82
:101390003093EF012093EE0136C0640F751F7093F8
:1013A000EB016093EA01888199812091C601309117
:1013B000C701820F931F9093F1018093F0018A81FE
:1013C0009B812091C8013091C901820F931F909396
:1013D000ED018093EC018091D2019091D3012A819B
:1013E0003B81821B930B9093F5018093F4018C81D8
:1013F0009D812091CA013091CB01820F931F909360
:10140000EF018093EE018091D0019091D1019093F2
:10141000F3018093F20189E08816910441F08091F4
:10142000D2019091D3019093F5018093F4018091C2
:10143000CE019091CF019093F7018093F601CDB743
:10144000DEB7ECE00C945428AAE0B0E0EAE2FAE05F
:101450000C94402880912102909122020397A9F5D3
:10146000FE0131968AE0DF011D928A95E9F7CF01EE
:101470000E942008A9E8B1E00AE012E044E152E04D
:101480006D917C911197F80120813181FB01808160
:101490009181281739070CF4C901F80191838083E1
:1014A000FA0120813181FB018081918182179307AC
:1014B0000CF4C901FA0181939193AF0112960E5F6A
:1014C0001F4FF1E0A339BF07D9F684E092E00E94F4
:1014D00020088091630290916402099711F074E0F2
:1014E00001C075E060E080E090E0FC01E757FE4F4E
:1014F000A081B1814D915C911197FC01E65FFD4F98
:101500000190F081E02D4E175F0754F0FC01EC5E76
:10151000FD4F20813181FA01241735070CF4F901C0
:10152000ED93FC936F5F02966717FCF22A96E4E056
:101530000C945C288091DA02882309F050C081E085
:101540008093DA028FEF8093D9022FB7F8948091BD
:10155000EA019091EB019093DD018093DC01809191
:10156000EC019091ED019093DF018093DE01809179
:10157000EE019091EF019093E1018093E001809161
:10158000F0019091F1019093E3018093E201809149
:10159000F2019091F3019093E5018093E401809131
:1015A000F4019091F5019093E7018093E601809119
:1015B000F6019091F7019093E9018093E801809101
:1015C0006F00826080936F00B19A80918400909147
:1015D0008500049690938900809388002FBF08951A
:1015E000FC0181E08183808385E0828316821582FD
:1015F0001086178208959C0144E0813B940714F4FF
:1016000090E00DC0845195408159914010F491E0D3
:1016100006C02850374014F49FEF06C092E06623BE
:1016200019F082E0891B982F892F0895CF93DF93BB
:10163000EC018A818B838091C4019091C5016D81F9
:101640000E94FB0A87FF88838091C8019091C9019D
:101650006E810E94FB0A87FF89838F81882351F462
:101660008881882329F0823029F481E08D831882D3
:1016700081E08F838885882361F48981882319F02C
:10168000823039F404C081E08E8382E0898381E076
:10169000888738813F5F898123E08202C00111245D
:1016A000380F3A839B8180E0391729F081E09295C9
:1016B000907F932B9C83DF91CF910895282F30E06A
:1016C0003F6F220F331FEFB7F89480918400909101
:1016D0008500AC01405C5F4FBC016D5D7A4F80912D
:1016E000840090918500DA01A81BB90B1A161B061D
:1016F000B4F320FF02C03F9801C03F9A4617570736
:1017000029F03695279545575F4FE9CFEFBF0895EC
:10171000EFB7F894379B49C016C0209184003091F0
:1017200085002058314C04C08FEF9FEF379B0BC0D2
:101730008091840090918500B901681B790B161681
:10174000170614F4F1CFAC0141505040CA01019684
:101750001816190614F34F5F5F4F19F420E030E8B4
:1017600026C08091840090918500AC0140565F4F67
:1017700020E030E0BC0163597B4F80918400909160
:101780008500DA01A81BB90B1A161B06B4F386B143
:101790003695279590E080789070282B392B461746
:1017A000570729F045575F4FE8CF20E030E4EFBFFF
:1017B000C9010895EF92FF920F931F93CF93DF9388
:1017C000E82E192F062FF62E84E20E945E0B802F42
:1017D0000E945E0B2E2D312FC901EC0104C08991AE
:1017E000F80E0E945E0B9E012E192017C4F38F2D58
:1017F00081950E945E0BCDB7DEB7E6E00C945A28C7
:101800008F929F92AF92BF92CF92DF92FF920F93EF
:101810001F93CF93DF934C015A01C0E0D0E0C62E56
:10182000DD24C7FCD09402C0812F182FC5010E946F
:10183000880B9C018070907C892B69F5822FC130C8
:10184000D10559F0C230D105A1F0209779F72432A3
:1018500059F7812FC1E0D0E0E8CF90E0C816D90653
:1018600014F4812F15C0F22E822F00E0C2E0D0E0E8
:10187000DCCFF20E812F8150112331F0F401E00F03
:10188000F11D20830F5FD1CFFF2011F481E004C050
:10189000C0E0D0E0CACF80E0DF91CF911F910F91DF
:1018A000FF90DF90CF90BF90AF909F908F90089562
:1018B000A0E0B0E0EEE5FCE00C943C2800E0CCEDCC
:1018C000D5E03DC110924A0320932D0330932E039F
:1018D00040932F035093300380914A03882319F4D7
:1018E0001F3009F06FC1E82FFF27E7FDF095EF5C8F
:1018F000FC4F10838F5F80934A0389310CF41FC122
:1019000080914903882311F010924A03E091650207
:10191000F09166024091330350E0942F8827209184
:10192000320330E0822B932B9770969587958351E5
:101930009C4F91838083E0916702F091680220912F
:10194000340330E0C90165E0880F991F6A95E1F71B
:1019500003E0569547950A95E1F7842B952B9770F0
:101960009695879583519C4F91838083E09169027E
:10197000F0916A024091360350E08091350390E087
:10198000880F991F880F991F76E0369527957A95CD
:10199000E1F7822B932B9A01322F2227330F330F3B
:1019A000822B932B97709695879583519C4F9183AB
:1019B0008083E0916B02F0916C022091370330E05C
:1019C000C9019695982F882797958795569547959D
:1019D000842B952B97709695879583519C4F918377
:1019E0008083E0916D02F0916E024091380350E0E7
:1019F000CA0174E0880F991F7A95E1F764E0369583
:101A000027956A95E1F7822B932B9770969587958A
:101A100083519C4F91838083E0916F02F09170021B
:101A200060913A0370E08091390390E0880F991F2C
:101A3000440F452F441F550B5195842B952B9B012B
:101A4000322F2227330F822B932B977096958795F1
:101A500083519C4F91838083E0917102F0917202D7
:101A600020913B0330E0C90106E0880F991F0A95D9
:101A7000E1F77695679576956795862B972B977006
:101A80009695879583519C4F91838083E091730253
:101A9000F091740280913C0390E073E0880F991FED
:101AA0007A95E1F765E0369527956A95E1F7822BFF
:101AB000932B9695879583519C4F91838083A5E6C0
:101AC000B2E0ED91FC911197808191818C5D954000
:101AD0008CF42081318180819181AE01481B590BAA
:101AE000CA019595879595958795281B390B318364
:101AF00020830EC020813181808191818C5D954051
:101B00009595879595958795820F931F91838083EF
:101B1000129652E0A537B507A1F620E030E0F901B2
:101B2000EC5EFC4FD901AF5CBC4F8C9180832F5F82
:101B30003F4F2931310599F710924A0301E0E091B6
:101B40004601F0914701A081B18114962D913C91FD
:101B50001597CF01F9010995892BA1F180914A03CD
:101B6000893184F5A0914601B0914701ED91FC9136
:101B700011970680F781E02DCD010995182F0E945D
:101B8000E0019B01AC0160931003709311038093FB
:101B900012039093130380912D0390912E03A09133
:101BA0002F03B091300369017A01C81AD90AEA0AF1
:101BB000FB0AD701C60189589341A040B0400CF000
:101BC00081CE82CE802FCDB7DEB7E8E00C945828C6
:101BD000CF93DF93C0917502D0917602209709F4DC
:101BE0005FC068817981882777FD8095982F0E9452
:101BF000BF262DEC3CEC4CEC5FE30E94732720E009
:101C000030E040EB54E40E94282620E030E040E041
:101C100050E00E948D2688231CF460E070E036C0FE
:101C200068817981882777FD8095982F0E94BF264B
:101C30002DEC3CEC4CEC5FE30E94732720E030E09D
:101C400040EB54E40E94282620E030EE4FEF54E4AD
:101C50000E946F2718161CF46FEF77E017C0688199
:101C60007981882777FD8095982F0E94BF262DECDB
:101C70003CEC4CEC5FE30E94732720E030E040EB4B
:101C800054E40E9428260E949126777060931503E1
:101C9000972F977080911603887F892B8093160366
:101CA000C0917702D0917802209709F46FC06881C3
:101CB0007981882777FD8095982F0E94BF262DEC8B
:101CC0003CEC4CEC5FE30E94732720E030E040EBFB
:101CD00054E40E94282620E030E040E050E00E94DA
:101CE0008D2688231CF460E070E036C0688179811D
:101CF000882777FD8095982F0E94BF262DEC3CEC1D
:101D00004CEC5FE30E94732720E030E040EB54E4AA
:101D10000E94282620E030EE4FEF54E40E946F2707
:101D200018161CF46FEF77E017C068817981882757
:101D300077FD8095982F0E94BF262DEC3CEC4CEC53
:101D40005FE30E94732720E030E040EB54E40E9400
:101D500028260E9491267770962F990F990F990F38
:101D6000809116038770892B80931603262F229566
:101D70002695277080911703807C972F9770990F75
:101D8000990F990F822B892B80931703C0917902A9
:101D9000D0917A02209709F475C0688179818827EB
:101DA00077FD8095982F0E94BF262DEC3CEC4CECE3
:101DB0005FE30E94732720E030E040EB54E40E9490
:101DC000282620E030E040E050E00E948D26882365
:101DD0001CF460E070E036C068817981882777FD67
:101DE0008095982F0E94BF262DEC3CEC4CEC5FE3D5
:101DF0000E94732720E030E040EB54E40E94282644
:101E000020E030EE4FEF54E40E946F2718161CF4C8
:101E10006FEF77E017C068817981882777FD80951B
:101E2000982F0E94BF262DEC3CEC4CEC5FE30E9407
:101E3000732720E030E040EB54E40E9428260E9403
:101E400091267770962F9295990F990F907C80919B
:101E500017038F73892B80931703972F9295990FF0
:101E6000990F907C862F86958695892B80931803F1
:101E7000972F969596959170809119038E7F892B57
:101E800080931903C0917B02D0917C02209709F4C2
:101E90006BC068817981882777FD8095982F0E9493
:101EA000BF262DEC3CEC4CEC5FE30E94732720E056
:101EB00030E040EB54E40E94282620E030E040E08F
:101EC00050E00E948D2688231CF460E070E036C04C
:101ED00068817981882777FD8095982F0E94BF2699
:101EE0002DEC3CEC4CEC5FE30E94732720E030E0EB
:101EF00040EB54E40E94282620E030EE4FEF54E4FB
:101F00000E946F2718161CF46FEF77E017C06881E6
:101F10007981882777FD8095982F0E94BF262DEC28
:101F20003CEC4CEC5FE30E94732720E030E040EB98
:101F300054E40E9428260E9491267770962F990FCC
:101F4000809119038170892B80931903262F221FFA
:101F50002227221F80911A03807F972F9770990F55
:101F6000822B892B80931A03C0917D02D0917E022F
:101F7000209709F46CC068817981882777FD809566
:101F8000982F0E94BF262DEC3CEC4CEC5FE30E94A6
:101F9000732720E030E040EB54E40E94282620E044
:101FA00030E040E050E00E948D2688231CF460E081
:101FB00070E036C068817981882777FD8095982FF9
:101FC0000E94BF262DEC3CEC4CEC5FE30E94732793
:101FD00020E030E040EB54E40E94282620E030EE80
:101FE0004FEF54E40E946F2718161CF46FEF77E050
:101FF00017C068817981882777FD8095982F0E9486
:10200000BF262DEC3CEC4CEC5FE30E94732720E0F4
:1020100030E040EB54E40E9428260E94912677701D
:10202000962F9295907F80911A038F70892B8093C1
:102030001A03262F22952F7080911B038078972FEB
:1020400097709295907F822B892B80931B03C09170
:102050007F02D0918002209709F471C06881798154
:10206000882777FD8095982F0E94BF262DEC3CECA9
:102070004CEC5FE30E94732720E030E040EB54E437
:102080000E94282620E030E040E050E00E948D26AB
:1020900088231CF460E070E036C06881798188276D
:1020A00077FD8095982F0E94BF262DEC3CEC4CECE0
:1020B0005FE30E94732720E030E040EB54E40E948D
:1020C000282620E030EE4FEF54E40E946F271816C8
:1020D0001CF46FEF77E017C068817981882777FD5E
:1020E0008095982F0E94BF262DEC3CEC4CEC5FE3D2
:1020F0000E94732720E030E040EB54E40E94282641
:102100000E9491267770962F9795992797958091A1
:102110001B038F77892B80931B03972F9795992704
:102120009795862F8695892B80931C03972F9695DC
:10213000937080911D038C7F892B80931D03C09128
:102140008102D0918202209709F46EC06881798162
:10215000882777FD8095982F0E94BF262DEC3CECB8
:102160004CEC5FE30E94732720E030E040EB54E446
:102170000E94282620E030E040E050E00E948D26BA
:1021800088231CF460E070E036C06881798188277C
:1021900077FD8095982F0E94BF262DEC3CEC4CECEF
:1021A0005FE30E94732720E030E040EB54E40E949C
:1021B000282620E030EE4FEF54E40E946F271816D7
:1021C0001CF46FEF77E017C068817981882777FD6D
:1021D0008095982F0E94BF262DEC3CEC4CEC5FE3E1
:1021E0000E94732720E030E040EB54E40E94282650
:1021F0000E9491267770962F990F990F80911D0359
:102200008370892B80931D03262F22952695269572
:10221000237080911E03807E972F9770990F990FDE
:10222000822B892B80931E03C0918302D09184025C
:10223000209709F46AC068817981882777FD8095A5
:10224000982F0E94BF262DEC3CEC4CEC5FE30E94E3
:10225000732720E030E040EB54E40E94282620E081
:1022600030E040E050E00E948D2688231CF460E0BE
:1022700070E036C068817981882777FD8095982F36
:102280000E94BF262DEC3CEC4CEC5FE30E947327D0
:1022900020E030E040EB54E40E94282620E030EEBD
:1022A0004FEF54E40E946F2718161CF46FEF77E08D
:1022B00017C068817981882777FD8095982F0E94C3
:1022C000BF262DEC3CEC4CEC5FE30E94732720E032
:1022D00030E040EB54E40E9428260E94912677705B
:1022E000962F9295990F907E80911E038F71892B66
:1022F00080931E03972F9295990F907E862F869537
:1023000086958695892B80931F0385E993E064E188
:1023100073E049E150E00E940120DF91CF910895E0
:10232000809146019091470140EA56E861E070E0F3
:102330002EE20E946C1E08951F93CF93DF93EC0151
:10234000142F45E450E00E946F288881811711F016
:102350008FEF12C090E020E030E0FE01E20FF31FAB
:102360008081980F2F5F3F4F25343105B1F79923B6
:1023700011F480E001C08EEFDF91CF911F9108959D
:10238000DC0190E020E030E0FD01E20FF31F8081EE
:10239000980F2F5F3F4F24343105B1F7AC5BBF4F2F
:1023A00091959C93A454B040CD0145E450E00E9427
:1023B0007F280895A1E1B0E0E0EEF1E10C9432282D
:1023C0001C0181E089838FE192E09B838A830296DE
:1023D0009D838C830D969F838E8302969987888731
:1023E00002969B878A8702969D878C8702969F8795
:1023F0008E87CE010196998B888BD0901F02DD0CC1
:10240000CC246624EE24FF248701F0E88F2EFAE125
:102410009F2EF6E0AF2EB12CE2E07E2E2C010E9422
:10242000E0019B01AC01DC01CB018E199F09A00BDF
:10243000B10B88169906AA06BB060CF051C01714FA
:1024400024F5872D992787FD9095FC01E170F070A8
:1024500080FD03C088E097E002C08CED95E090938A
:10246000ED018093EC018CED95E09093EB0180936E
:10247000EA01EE0FFF1FEE0FFF1FEF58FE4F8080A7
:102480009180A280B3807A9429C0DD2039F11D1497
:1024900024F46CE271E0A1E003C064ED7EEFAFEFE5
:1024A0008D2D992787FD9095FC01E170F07080FFDC
:1024B00003C08CED95E003C0CB0184529A4F9093FA
:1024C000EB018093EA01EE0FFF1FEE0FFF1FEF58A5
:1024D000FE4F80809180A280B380DA1A79018A0150
:1024E0000E94580C882319F091E09093D8028091B3
:1024F000D802882329F01092D8020E94980702C0BF
:10250000662041F08091DA02882309F08CC00E9495
:102510009A0A6624772009F082CFC1010E94160B27
:10252000882309F47CCFF1018481843561F08535FD
:1025300020F4823509F063C013C0863559F0883520
:1025400009F05DC02AC0F1E0FC1514F0CC2470C085
:10255000CA946EC085E08C150CF468C0C39468C042
:10256000AC2DBB27A7FDB095FD01EE0FFF1FE40DBD
:10257000F51D0180F281E02D8081282F332727FD72
:1025800030952F5F3F4FA758BE4F8C91992787FDFD
:10259000909582179307F4F41CC0AC2DBB27A7FDC0
:1025A000B095FD01EE0FFF1FE40DF51D0180F281D6
:1025B000E02D8081282F332727FD30952150304092
:1025C000AF57BE4F8C91992787FD909528173907F3
:1025D0000CF49C01208320E08C2D992787FD909599
:1025E000FC01EE0FFF1FE40DF51D0180F281E02DCF
:1025F000D080DD0C222319F00196782E770C89818A
:10260000823009F00CCF8EE192E060E070E00E9431
:10261000C0118EE192E060E071E00E94C01161960D
:10262000E2E10C944E286624639474CFB7E0CB2E7D
:1026300021E0D2CFA2E9B0E0E0E2F3E10C9432284D
:102640000E94E0011B012C01DE011196E3E6F1E09E
:1026500086E001900D928150E1F78E010D5E1F4FD3
:10266000C8010E94F00A4CE1E42EF12CEC0EFD1E94
:10267000C70164E00E940B0639E4C32ED12CCC0EB6
:10268000DD1EC60163E00E940B0620920C0330920F
:102690000D0340920E0350920F03C557DF4F28825F
:1026A00039824A825B82CB58D040C957DF4F28829B
:1026B00039824A825B82C758D040CD57DF4F28828B
:1026C00039824A825B82C358D04042013101C158ED
:1026D000DF4F288239824A825B82CF57D040EB9607
:1026E0002CAE3DAE4EAE5FAEEB97EF961FAEEF97C2
:1026F000EE961FAEEE97ED961FAEED9721E0EC96AD
:102700002FAFEC97C157DF4FE882CF58D040C0576A
:10271000DF4FF882C059D040CF56DF4F0883C159F0
:10272000D040CE56DF4F1883C259D0400E94E001FE
:102730005B016C010E9456020E94580C8823B9F17B
:102740008091870290918802A0918902B0918A02BB
:10275000883E33E0930730E0A30730E0B30731F061
:10276000805D9740A040B040F9F40EC0EE965FAD9A
:10277000EE97552329F461E0EE966FAFEE9717C000
:1027800071E07093D8020CC0EE968FADEE978F5F1C
:10279000EE968FAFEE97833054F091E09093D8028D
:1027A000EE961FAEEE9703C0A1E0A093D8028091F1
:1027B000D8028823A1F4D601C501C557DF4F28816F
:1027C00039814A815B81CB58D040821B930BA40B8B
:1027D000B50B81539547A040B0400CF442C0109215
:1027E000D8020E9498078C8D882369F0C557DF4F67
:1027F000A882B982CA82DB82CB58D04041E0EF96F2
:102800004FAFEF972EC0C157DF4F8881CF58D040D0
:10281000C057DF4F9881C059D0400E94E0062A96E9
:102820008FAD2A97882311F492E001C090E020E058
:102830008C8D882309F421E0920F90938F0268EC2D
:1028400070E07093950260939402C557DF4FA882A1
:10285000B982CA82DB82CB58D04071E0EF967FAF5D
:10286000EF978091DA02882379F5EF968FADEF9795
:10287000882351F1A6019501C957DF4F68817981FD
:102880008A819B81C758D040261B370B480B590BB8
:102890008091870290918802A0918902B0918A026A
:1028A00082179307A407B5077CF40E94240A0E94AC
:1028B000E80DC957DF4FA882B982CA82DB82C758A8
:1028C000D040EF961FAEEF97D601C501CD57DF4F31
:1028D000288139814A815B81C358D040821B930B88
:1028E000A40BB50B81519742A040B04054F10E9417
:1028F0008E052A968FAD2A978823D9F4CE01875B5F
:102900009F4F0E9448072A968FAD2A97882311F47B
:1029100092E001C090E020E08C8D882309F421E052
:10292000920F90938F0248EC50E0509395024093A1
:102930009402CD57DF4FA882B982CA82DB82C35886
:10294000D040EC965FADEC97552309F456C0CF56B6
:10295000DF4F8881C159D040CE56DF4F9881C25990
:10296000D0400E94160B882309F447C0ED966FAD46
:10297000ED97E62FFF27E7FDF095E65AFE4F9F897A
:102980008081981721F0ED961FAEED9707C0ED9668
:102990007FADED977F5FED967FAFED97ED968FADB5
:1029A000ED97E82FFF27E7FDF095E65AFE4F80816F
:1029B0008F3F81F4CE0143960E94DA112EE088E128
:1029C00090E00FB6F894A895809360000FBE209316
:1029D0006000FFCFD601C50182199309A409B5098A
:1029E000815C914EA44EB04024F0EC961FAEEC9763
:1029F00004C0F1E0EC96FFAFEC978C8D882329F0B2
:102A00002A968FAD2A978823C9F58091C6019091A7
:102A1000C7012091C4013091C501820F931F2091FD
:102A2000190130911A01821B930B209113013091EF
:102A30001401821B930B959587959093D5018093F4
:102A4000D4018091C8019091C90120911501309164
:102A50001601821B930B9093D7018093D60180912E
:102A6000CA019091CB012091170130911801821B6E
:102A7000930B9093D9018093D80158CED601C5010C
:102A800086199709A809B90981519742A040B04019
:102A90000CF434C3809185029091860281309105B7
:102AA00059F48091CC019091CD01865F95400CF056
:102AB000A3C080E090E00DC0892B09F09DC08091FB
:102AC000CC019091CD01875296400CF495C081E0E5
:102AD00090E09093860280938502892B11F084E028
:102AE00001C080E080938F0268EC70E070939502E3
:102AF000609394021092ED021092EE021092EF0297
:102B00001092F0021092F9021092FA021092FB0257
:102B10001092FC021092F1021092F2021092F30253
:102B20001092F4021092FD021092FE021092FF0227
:102B3000109200031092F5021092F6021092F70222
:102B40001092F802109201031092020310920303F4
:102B5000109204038091360290913702029709F097
:102B60004BC0D601C501EB962CAD3DAD4EAD5FAD72
:102B7000EB97821B930BA40BB50B8152914AA74094
:102B8000B0401CF0E7961FAEE797E7964FADE7978A
:102B90004F5FE7964FAFE797433044F18091C40110
:102BA0009091C50190931401809313018091C80105
:102BB0009091C90190931601809315018091CA01EB
:102BC0009091CB0190931801809317018091C601D9
:102BD0009091C70190931A01809319018091D201BD
:102BE0009091D30190931C0180931B01EB96ACAEA6
:102BF000BDAECEAEDFAEEB974091C6015091C7019E
:102C00008091C4019091C501480F591F809119010D
:102C100090911A01481B590B809113019091140156
:102C2000481B590B559547955093D5014093D401B6
:102C3000E091C801F091C9018091150190911601B0
:102C4000E81BF90BF093D701E093D601A091CA01DC
:102C5000B091CB018091170190911801A81BB90B7D
:102C6000B093D901A093D8018091D2019091D30162
:102C700020911B0130911C01821B930B9093DB016F
:102C80008093DA01809130028150282F332727FD6D
:102C90003095CA0157FF04C088279927841B950BDC
:102CA000022E02C0880F991F0A94E2F761E0813971
:102CB000960714F080E991E060E971E0681B790BF8
:102CC00078876F83CF01F7FF04C0882799278E1B71
:102CD0009F0B022E02C0880F991F0A94E2F771E041
:102CE0008139970714F080E991E060E971E0681B91
:102CF000790B7A876987CD01B7FF04C088279927A8
:102D00008A1B9B0BBC0102C0660F771F2A95E2F756
:102D100081E06139780714F060E971E010E9612E13
:102D200011E0712E661A770A7C866B868091CC0141
:102D30009091CD0125E0833C92074CF403EC15E023
:102D4000081B190B31E00139130794F00BC066E042
:102D5000883296071CF400E010E00AC077E086385D
:102D600097071CF000E911E003C08C01055F1540D6
:102D7000809085029090860281E08816910459F037
:102D80008114910409F050C0809134029091350271
:102D9000029709F049C0809132029A01082E02C0C0
:102DA000220F331F0A94E2F73E872D87082E02C0B8
:102DB000EE0FFF1F0A94E2F7F88BEF87AD0102C018
:102DC000440F551F8A95E2F75A8B498B89819A8166
:102DD00097FD05C088279927821B930B01C0C90165
:102DE0009093DC028093DB028B819C812F85388954
:102DF00097FD05C088279927821B930B01C0C90145
:102E00009093DE028093DD028D819E8197FD03C049
:102E1000509541955F4F5093E0024093DF0291E05F
:102E20008916910471F055C01092DC021092DB02F9
:102E30001092DE021092DD021092E0021092DF0288
:102E400048C06F817885882777FD8095982F24EF7B
:102E50003FEB40E050E00E94D627F9E0959587953A
:102E600077956795FA95D1F76093F9027093FA0216
:102E70008093FB029093FC0269857A85882777FD11
:102E80008095982F0E94D627E9E0959587957795AC
:102E90006795EA95D1F76093FD027093FE028093E7
:102EA000FF0290930003B301882777FD8095982F48
:102EB0000E94D62739E095958795779567953A953D
:102EC000D1F76093010370930203809303039093FF
:102ED00004032091FE013091FF018091F80190914F
:102EE000F901281B390BA0E220303A0714F02FEF2C
:102EF0003FE1C901B0EE20303B0714F480E090EED2
:102F00009093E2028093E10220910002309101024D
:102F10008091FA019091FB01281B390BE0E22030EF
:102F20003E0714F02FEF3FE1C901F0EE20303F07DC
:102F300014F480E090EE9093E4028093E3022091F9
:102F40000202309103028091FC019091FD01281B47
:102F5000390B40E22030340714F02FEF3FE1C90174
:102F600050EE2030350714F480E090EE9093E602A6
:102F70008093E502892819F06EE472E002C06BE3E9
:102F800072E08BED92E00E94D604EE24FF2438011B
:102F9000882477FC8094982C87010C5F1D4FE1E01A
:102FA000F0E0EC0FFD1FEE0DFF1D608171818827A1
:102FB00077FD8095982FF701E552FD4F22A533A5A7
:102FC000442737FD4095542F0E94D62727E095953A
:102FD0008795779567952A95D1F7E7E0F0E0EC0FB4
:102FE000FD1FEE0DFF1D20813181442737FD4095E7
:102FF000542F0E94D6279B01AC01B9E05595479507
:1030000037952795BA95D1F7C401B3010E94D62709
:10301000A9E09595879577956795AA95D1F7D801F9
:103020006D937C93E2E0F0E0EE0EFF1EF6E0EF160B
:10303000F10409F0B1CF20910B0312160CF05CC023
:1030400080910C0390910D03A0910E03B0910F039A
:10305000B601A501481B590B6A0B7B0BDB01CA01AA
:1030600081549D40A340B0405CF0215020930B035D
:10307000A0920C03B0920D03C0920E03D0920F03E6
:1030800080910B03992787FD909540910402509100
:103090000502BC016170707080FF03C026E930E05A
:1030A00002C02AE63FEF240F351F3093050220931C
:1030B000040240910602509107026115710519F052
:1030C00026E930E002C02AE63FEF240F351F309397
:1030D0000702209306022091080230910902672B13
:1030E00019F48AE69FEF02C086E990E0820F931FF1
:1030F000909309028093080235014601D601C5016B
:10310000C158DF4F288139814A815B81CF57D04038
:10311000821B930BA40BB50B8C59914AA740B0406E
:103120000CF404CB80913802803839F4809100018E
:10313000282F30E02058304004C0282F332727FDA7
:10314000309580913902803839F480910101482FFF
:1031500050E04058504004C0482F552747FD509537
:1031600080913A02803831F48091020190E08058D9
:10317000904003C0992787FD90953A8329835C830B
:103180004B839E838D83295F3F4F2F30310510F491
:103190001A8219828B819C8107960F9710F41C82EA
:1031A0001B828D819E8107960F9710F41E821D82CF
:1031B00080E00E94D903C158DF4FA882B982CA8239
:1031C000DB82CF57D040B2CAA6E6B0E0EAEEF8E123
:1031D0000C943C281092800081E0809381003F98FD
:1031E000479848E552E000E06E010894C11CD11CEC
:1031F00062E0E62EF12CEC0EFD1EC60166E60E9492
:10320000000C882309F441C089818230A9F0833001
:1032100018F4813029F406C08330B1F08430E9F02D
:1032200010E026C0C70160E870E048E050E00E946E
:103230006F2810E069E01DC0C70160E870E048E059
:1032400050E00E947F2813C0C70160E070E04CE0AE
:103250000E949C1110E066E40CC0C70160E070E0C1
:103260000E94C011C70160E071E00E94C01111E02E
:1032700061E0898180688983C6010E94DA0B01E0E0
:1032800044EF51E0112309F4B8CF802FCA59DF4F22
:10329000E8E00C945828CF93DF93C0E0D0E0FE0123
:1032A000E25CFE4F808187FD04C0808161E00E9466
:1032B00041242196C830D10591F7DF91CF9108952F
:1032C0001F920F920FB60F9211240F931F932F93FB
:1032D0003F934F935F936F937F938F939F93AF939E
:1032E000BF93EF93FF938091D90287FD42C0E09195
:1032F000D902FF27E7FDF095E25CFE4F808160E098
:103300000E94B92436C08091D9028F5F8093D90280
:10331000E091D902FF27E7FDF095E25CFE4F808146
:1033200087FD27C00091840010918500E091D902AB
:10333000FF27E7FDF095E25CFE4F808161E00E948F
:10334000B924E091D902FF27E7FDF095EE0FFF1FAA
:10335000E25DFE4F0190F081E02D80819181029726
:10336000880F991F800F911F909389008093880088
:103370000BC08091D902873034F21092DA0280912A
:103380006F008D7F80936F00FF91EF91BF91AF91A0
:103390009F918F917F916F915F914F913F912F916D
:1033A0001F910F910F900FBE0F901F901895A0E0E6
:1033B000B0E0EDEDF9E10C943C28182F062F862F94
:1033C00061E00E944124812F60E00E944124812F0E
:1033D00061E00E94B9246AE070E080E090E00E9421
:1033E0002002C0E0D0E0812F992787FD9095FC0155
:1033F000E554FE4FE491F0E0EE0FFF1FE355FE4F62
:10340000C590D49087529E4FFC018491E82EFF24F2
:10341000CE018170182F802F612F0E94B924F601F0
:10342000808120E030E090E08E219F21892B11F0F7
:1034300021E030E0812F992787FD909528173907E3
:1034400011F010E005C02196C830D10509F711E050
:10345000802F60E00E944124812FCDB7DEB7E8E0E5
:103460000C945828A4E9B0E0E8E3FAE10C9436287B
:10347000559A80916C0490916D04009711F09C0115
:1034800002C020E734E0CE010196821B930B803806
:1034900091054CF484E1809390028EE190E090934A
:1034A00097028093960281E090E0909320028093AF
:1034B0001F0220E8209338022093390220933A0219
:1034C000909322028093210287E080936102109200
:1034D0002302E9E6F1E054E2C52E52E0D52ED601F2
:1034E00081918D9321E0E137F207D1F742E050E07E
:1034F00050932D0240932C0221E030E030932F02B4
:1035000020932E02309331022093300283E090E02A
:103510009093330280933202309335022093340229
:10352000509337024093360284EF91E090933C022F
:1035300080933B0210924202109241029093480203
:103540008093470290933E0280933D021092440282
:103550001092430290934A02809349029093400252
:1035600080933F02109246021092450290934C02C3
:1035700080934B0228E020934D0290934F0280935A
:103580004E02909355028093540290935B02809375
:103590005A02909351028093500290935702809365
:1035A000560290935D0280935C0290935302809345
:1035B0005202909359028093580290935F02809335
:1035C0005E022093600285E066E00E94D71988239E
:1035D00011F400E001C007E0CE01039660E870E05E
:1035E00048E050E00E946F28002361F48B81833013
:1035F00049F48C819D81AE81BF818E549146AC4B44
:10360000B04071F083E08B838EE491E6ACEBB0E0E8
:103610008C839D83AE83BF83188619861A860860C3
:10362000CE010B9660E070E04CE00E949C1187FD9B
:103630000260CE01805B9F4F60E071E04CE00E9431
:103640009C1187FD046083E080930B03E02EFF2430
:10365000C701867090708230910531F084309105F9
:1036600079F0892B81F119C08E01005B1F4FC801D1
:1036700060E070E00E94C01188858F5F88870BC072
:103680008E01055F1F4FC80160E071E00E94C0110C
:1036900089858F5F8987C80118C08CE080931E02DE
:1036A0008EE192E060E070E00E94C0118EE192E055
:1036B00060E071E00E94C0118A858F5F8A8789E08F
:1036C00080930B030AC0CE010B96AEE1B2E0FC0181
:1036D00085E401900D928150E1F7C7018E709070E2
:1036E000892B41F0CE01039660E870E048E050E09D
:1036F0000E947F28E0FE0AC082E00E94480264E641
:1037000070E080E090E00E94C723F6CF0E94E418AA
:10371000882361F02EE088E190E00FB6F894A89538
:10372000809360000FBE20936000FFCF1092800056
:1037300082E08093810081E080936F0085B5887F6F
:1037400085BD0E94901180912102909122028230C9
:10375000910519F18330910524F4019709F05BC0BC
:1037600007C08330910571F1049709F054C03FC040
:1037700080E090E048EE53E020ED37E0FC01E65FAA
:10378000FD4F51834083FC01EC5EFD4F318320836C
:1037900002968A30910591F73EC080E090E04CE4BB
:1037A00054E02CE637E0FC01E65FFD4F5183408397
:1037B000FC01EC5EFD4F3183208302968A30910537
:1037C00091F729C080E090E042EE54E026ED36E02B
:1037D000FC01E65FFD4F51834083FC01EC5EFD4F31
:1037E0003183208302968A30910591F714C080E0DE
:1037F00090E044E853E024E338E0FC01E65FFD4F4D
:1038000051834083FC01EC5EFD4F3183208302969F
:103810008A30910591F780912302992787FD909531
:1038200028EE33E0FC01E29FC001E39F900DF29F80
:10383000900D1124AA2797FDA095BA2F8093870297
:1038400090938802A0938902B0938A0280916102CA
:10385000877080931D0125E632E0A4E2B2E0ED918D
:10386000FF27E7FDF095EE0FFF1FE25EFE4F808120
:103870009181F901819391939F01F2E0AC32BF07EE
:1038800071F720E030E0F901E85BFE4F8081F9013B
:10389000E25CFE4F80832F5F3F4F2830310599F760
:1038A000A5E7B2E094EF692E91E0792E86EF882E9D
:1038B00081E0982E00EFA02E01E0B02E1CECE12E4E
:1038C00011E0F12E0AEE11E062EF71E04CEE51E0F2
:1038D0002EEE31E0F6018081E82FFF27E7FDF0951D
:1038E000E830F10520F5E25AFF4F0C946928119653
:1038F0003C932E931FC011965C934E931BC0119660
:103900007C936E9317C011961C930E9313C011965F
:10391000FC92EE920FC01196BC92AE920BC0119623
:103920009C928E9207C011967C926E9203C0119663
:103930001C921E920894C11CD11C1296FCE2CF1658
:10394000F2E0DF0639F60E9479040E949204809129
:103950001F0290912002909364028093630201976A
:1039600031F482E090E0909364028093630280914E
:10397000630280938E0288E592E090939302809395
:1039800092020E9429040E944B190E94F6050E948F
:1039900098070E94240ACC56DF4FEEE00C94522880
:1039A000209191033091920380919303909194031D
:1039B000281B390B2F733070C90108952091910392
:1039C00030919203809193039091940328173907C3
:1039D00019F42FEF3FEF09C0E0919303F0919403A6
:1039E000EF5AFC4F8081282F30E0C90108952091C3
:1039F000910330919203809193039091940328173F
:103A0000390719F42FEF3FEF13C0E0919303F091C2
:103A10009403EF5AFC4F208180919303909194037B
:103A200001968F739070909394038093930330E08A
:103A3000C9010895109298031092970388EE93E0BD
:103A4000A0E0B0E08093990390939A03A0939B0326
:103A5000B0939C0387E991E090939603809395033C
:103A60000895A1E0B0E0E7E3FDE10C9440288C016B
:103A7000698380915701882369F083E0BE016F5FFD
:103A80007F4F41E050E00E9414211816190614F4EB
:103A90009C0107C081E090E0F8019383828320E0DD
:103AA00030E0C9012196E4E00C945C2883E00E9498
:103AB000EB200895CF93DF9312C082E00E9466202E
:103AC0002FEF8F3F9207C9F0E0919103F09192039D
:103AD000EF5AFC4F8083D0939203C0939103C0911F
:103AE0009103D09192032196CF73D070809193036C
:103AF00090919403C817D90701F7DF91CF910895EA
:103B0000FC0180818E5F808380E868EE70E042E493
:103B100050E00E9492200895FC0181819081913AA9
:103B200059F4813209F04CC080E060E571E047E073
:103B300050E00E94922042C0913209F041C0803290
:103B400039F480E591E067E070E00E94D62036C04D
:103B5000823209F035C082818093570180915001F3
:103B600090915101A0915201B0915301805B94401A
:103B7000A040B04019F58091570180FD12C087E741
:103B800097E790930108809300082BE088E190E08C
:103B90000FB6F894A895809360000FBE2093600044
:103BA0000DC088E10FB6F894809360001092600019
:103BB0000FBEA895109201081092000881E00895A8
:103BC00080E0089508951F920F920FB60F9211246E
:103BD0002F933F934F938F939F93EF93FF938091F6
:103BE000C80082FD1DC04091CE002091E3033091BA
:103BF000E4032F5F3F4F2F7330708091E503909166
:103C0000E6032817390771F0E091E303F091E4032C
:103C1000ED55FC4F40833093E4032093E30302C04F
:103C20008091CE00FF91EF919F918F914F913F91A5
:103C30002F910F900FBE0F901F901895E0913704B1
:103C4000F0913804E05CFF4F8191919120813181A6
:103C5000821B930B8F739070892B11F00E94E21DD1
:103C600008951F920F920FB60F9211242F933F9336
:103C70008F939F93EF93FF93209127043091280413
:103C80008091290490912A042817390731F48091F2
:103C9000C9008F7D8093C90014C0E0912904F09180
:103CA0002A04E951FC4F20818091290490912A0433
:103CB00001968F73907090932A0480932904209327
:103CC000CE00FF91EF919F918F913F912F910F9097
:103CD0000FBE0F901F901895A0E0B0E0E2E7FEE164
:103CE0000C943A28EC017A018B01C22EDD2440307D
:103CF00081EE580780E0680780E0780711F0DD2446
:103D0000D39471E0A72EB12CEC89FD89DD2069F0F8
:103D1000C50108A002C0880F991F0A94E2F78083AA
:103D200060E079E08DE390E005C0108260E874E81F
:103D30008EE190E0A80197010E94F52721503040C4
:103D400040405040569547953795279580E1203063
:103D5000380720F0DD2011F0DD24D6CFE889F9897D
:103D60003083EA89FB892083E88DF98DC082EE8952
:103D7000FF89408121E030E0C9010C8C02C0880F2E
:103D8000991F0A94E2F7482B4083EE89FF8940810E
:103D9000C9010D8C02C0880F991F0A94E2F7482BC5
:103DA0004083EE89FF894081C9010E8C02C0880FD3
:103DB000991F0A94E2F7482B4083EE89FF8980819E
:103DC0000F8C02C0220F331F0A94E2F7209528239C
:103DD0002083CDB7DEB7EAE00C945628DC011C96B0
:103DE000ED91FC911D97E05CFF4F21913191808115
:103DF0009181281B390B2F733070C9010895DC01A4
:103E00001C96ED91FC911D97E05CFF4F2081318164
:103E1000E054F040DF01AE5BBF4F8D919C91119754
:103E20002817390719F42FEF3FEF07C08D919C91A8
:103E3000E80FF91F8081282F30E0C9010895DC01C7
:103E40001C96ED91FC911D97E05CFF4F2081318124
:103E5000E054F040DF01AE5BBF4F8D919C91119714
:103E60002817390719F42FEF3FEF10C08D919C915F
:103E70001197E80FF91F20818D919C911197019660
:103E80008F73907011969C938E9330E0C9010895C2
:103E9000DC0191968C919197882339F05496ED919D
:103EA000FC915597808186FFF9CF91961C920895D9
:103EB000CF93DF93EC01EE85FF85E05CFF4F20811F
:103EC0003181E054F0402F5F3F4F2F733070DF019E
:103ED000AE5BBF4F8D919C91119728173907D1F395
:103EE000E05CFF4F80819181E054F040E80FF91FC2
:103EF0006083EE85FF85E05CFF4F31832083EE8990
:103F0000FF89208181E090E00F8C02C0880F991F0B
:103F10000A94E2F7282B208381E089A3EC89FD89AC
:103F200080818064808381E090E0DF91CF9108956B
:103F300010922E0410922D0488EE93E0A0E0B0E0E1
:103F400080932F0490933004A0933104B0933204F3
:103F500089EA91E090932C0480932B0483EA93E008
:103F6000909338048093370487EE93E090933A045B
:103F7000809339048DEC90E090933C0480933B0453
:103F80008CEC90E090933E0480933D0488EC90E0AC
:103F90009093400480933F0489EC90E09093420416
:103FA000809341048AEC90E090934404809343040E
:103FB0008EEC90E0909346048093450484E08093D7
:103FC000470483E08093480487E08093490485E0B8
:103FD00080934A0481E080934B040895CF93DF934C
:103FE0000E94EB2385E594E00E94F6200E94321A9D
:103FF000CEE1DEE10E941A132097E1F30E941E1E1B
:10400000F9CFA0E0B0E0E7E0F0E20C943C287C01BE
:104010006B018A01C0E0D0E00FC0D6016D916D0147
:10402000D701ED91FC910190F081E02DC701099538
:10403000C80FD91F015010400115110571F7CE01AD
:10404000CDB7DEB7E8E00C945828FC0104C080919D
:10405000F100819361506623D1F7289884E680931C
:104060004E040895282F80914F048823C1F057FFF4
:104070001AC015C0289890934E048091F100819346
:10408000E217F307B9F74115510539F08091F200B5
:10409000882319F48BE68093E800AFBF02C04FEF8E
:1040A0005FEFCA010895AFB7F89427702093E90035
:1040B0008091F200282F30E0241735070CF4A90175
:1040C000FB019B01240F311D94E6DACFA1E0B0E0A3
:1040D000ECE6F0E20C944228BE016F5F7F4F41E0B6
:1040E00050E00E943220019719F02FEF3FEF03C0FC
:1040F0008981282F30E0C9012196E2E00C945E28E6
:104100002FB7F89487708093E9008091E80085FDCF
:1041100002C090E004C08091F20090E4981B2FBF91
:10412000892F0895FF920F931F93F82E142F052FB8
:104130004091520450915304212F302FC901DC01CA
:10414000FB016EEF29C0F7FE02C0949101C090817F
:10415000209150043091510424173507ACF480911C
:10416000E8008570E1F38091E80082FF03C02FEF43
:104170003FEF17C09093F100C90101968F739070C3
:10418000892B11F46093E8002F5F3F4F3093510467
:1041900020935004119731961097A9F6812F902FF4
:1041A0009C01C9011F910F91FF9008950F931F93D8
:1041B0009C01162F072F8091E80082FFFCCFC901D8
:1041C000612F0E9425208BEF8093E800812F902F94
:1041D0001F910F9108958093E9008091F200882348
:1041E00019F08AE38093E8000895089510924F042F
:1041F00081E08093D70080EA8093D80082E189BD76
:1042000009B400FEFDCF61E070E080E090E00E9424
:10421000C72380E98093D8008CE08093E20010925D
:10422000E000559A209A0895A0E0B0E0EAE1F1E2BA
:104230000C943628E82E942E852E80914F048823E6
:1042400009F18B01242F352FC901EC016AEFF62EFD
:1042500057E0752E7E208E2D90E040E2A42EB12CEA
:10426000A822B9223AE3632E20E4C22ED12CC82220
:10427000D9224CC08E2D0E948020282F882361F4E3
:10428000FA9419F42FEF3FEF4CC061E070E080E04A
:1042900090E00E94C7233AC090E0C817D9070CF4F9
:1042A0002C2FC21BD1094FB7F8947092E900A114CA
:1042B000B10421F406C01092F10021502223D9F755
:1042C00019C0E7FC03C0F801922F10C0C801322FBB
:1042D00006C0FC010196E491E093F10031503323D4
:1042E000C1F706C081918093F10091509923D1F7D5
:1042F000020F111D8091E80085FF05C0209729F469
:10430000C114D10411F06092E8004FBF209709F06A
:10431000B1CF5D9884E680934D04292D382DC901D5
:104320009C01C901CDB7DEB7EEE00C9452281F9274
:104330000F920FB60F9211242F933F934F935F93D9
:104340006F937F938F939F93AF93BF93EF93FF935D
:104350008091E1001092E100982F83FF0FC010922E
:10436000E90081E08093EB001092EC0082E38093FF
:10437000ED0010924F0488E08093F00092FF34C06B
:1043800083E08093E9008091F200882319F08AE3AA
:104390008093E8008FB7F89492E09093E9009091B1
:1043A000F2008FBF992321F085E993E00E945A1D06
:1043B00080914D04882351F080914D048150809369
:1043C0004D0480914D04882309F45D9A80914E0438
:1043D000882351F080914E04815080934E04809147
:1043E0004E04882309F4289AFF91EF91BF91AF9171
:1043F0009F918F917F916F915F914F913F912F91FD
:104400000F900FBE0F901F901895A1E0B0E0EBE069
:10441000F2E20C94402819828E010F5F1F4FC801F1
:104420000E94801DC8010E941C26898190E021966F
:10443000E4E00C945C281F920F920FB60F921124A7
:10444000EF92FF921F932F933F934F935F936F933E
:104450007F938F939F93AF93BF93EF93FF93DF93DC
:10446000CF93CDB7DEB76197DEBFCDBF1092E90025
:104470008091E80083FF04C1CE01019668E00E94AC
:10448000252082EF8093E800998197FF05C08091F5
:10449000E80080FFFCCF03C08EEF8093E800292F57
:1044A00030E0C90180769070892B09F0C2C08A8102
:1044B000882329F41092F1001092F100D6C08130C7
:1044C00009F4D3C0833009F4D0C0853049F4809119
:1044D000E80080FFFCCF8B8180688093E300C5C03B
:1044E000863009F07CC01C81EF80F8841230C1F561
:1044F0001092E9001092510410925004109253044B
:10450000109252040E94052299E0FE013996DF01C3
:10451000292F1D922A95E9F799871A8791E09E879E
:1045200090E8988B9AEF998B209150043091510428
:10453000275F3F4F3C872B878D871092E9001092B1
:10454000510410925004F0925304E092520480E01F
:10455000BF0149E050E00E9492200E94052285C0E0
:104560001092E9001092510410925004F0925304FA
:10457000E0925204123241F482E290E00E9414264A
:10458000892B09F476C071C0113079F488E0E816FF
:10459000F10419F481E08093540480915404882339
:1045A00009F06BC0E8E6F1E013C0133009F061C018
:1045B0008B81882319F4EAE2F1E00AC0823019F411
:1045C000EEE2F1E005C0813009F053C0E0E5F1E032
:1045D000449180E8BF0150E00E94922046C087309D
:1045E00009F447C0883021F481E08093F1003DC098
:1045F0008930D9F523703070232BD9F5EDE8F1E03F
:1046000091E031E026E39093E9003093EB00849150
:104610008093EC002093ED009F5F3196953099F7E1
:104620008EE78093EA001092EA008B8180934F041A
:104630001CC08F8198851092E9001092510410924D
:10464000500490935304809352048D81882329F45D
:10465000CE0101960E948C1D06C0823051F4CE011D
:1046600001960E94EC24882321F08EEF8093E800CD
:1046700007C081E28093EB0003C0EAE7F1E0A8CF36
:104680006196DEBFCDBFCF91DF91FF91EF91BF91DA
:10469000AF919F918F917F916F915F914F913F91DA
:1046A0002F911F91FF90EF900F900FBE0F901F90D2
:1046B00018951F920F920FB60F9211242F933F93CC
:1046C0008F939F93AF93BF9380915A0490915B0413
:1046D000A0915C04B0915D0430915E040196A11D2F
:1046E000B11D232F2D5F2D3720F02D570196A11DD1
:1046F000B11D20935E0480935A0490935B04A093B1
:104700005C04B0935D048091560490915704A0918D
:104710005804B09159040196A11DB11D809356040F
:1047200090935704A0935804B0935904BF91AF914C
:104730009F918F913F912F910F900FBE0F901F90DF
:1047400018959FB7F89420915604309157044091E2
:1047500058045091590486B5A89B06C08F3F21F09C
:104760002F5F3F4F4F4F5F4F9FBF542F432F322F2D
:104770002227280F311D411D511D82E0220F331FBA
:10478000441F551F8A95D1F7B901CA010895EF92C8
:10479000FF920F931F93CF93DF937B018C010E94B5
:1047A000A123EB010EC00E94A1236C1B7D0B685E50
:1047B0007340C8F30894E108F10801091109C851D0
:1047C000DC4FE114F1040105110569F7CDB7DEB73F
:1047D000E6E00C945A28789484B5826084BD84B550
:1047E000816084BD85B5826085BD85B5816085BDEC
:1047F000EEE6F0E0808181608083E1E8F0E0108205
:10480000808182608083808181608083E0E8F0E045
:10481000808181608083E1E9F0E080818260808333
:10482000808181608083E0E9F0E080818160808325
:10483000E1ECF0E08081846080838081826080830D
:10484000808181608083E3ECF0E0808181608083FF
:10485000E0ECF0E0808182608083E2ECF0E0808137
:1048600081608083EAE7F0E08081846080838081DA
:104870008260808380818160808380818068808382
:104880000895CF93DF93482F50E0CA0187529E4F7F
:10489000FC01349145545E4FFA018491882369F1FB
:1048A00090E0880F991FFC01EF56FE4FA591B4913F
:1048B000FC01E156FE4FC591D491662351F42FB708
:1048C000F8948C91932F909589238C9388818923D8
:1048D0000BC0623061F42FB7F8948C91932F9095B0
:1048E00089238C938881832B88832FBF06C09FB731
:1048F000F8948C91832B8C939FBFDF91CF91089577
:1049000090E0FC013197EE30F10590F5EA59FF4F48
:104910000C946928809180008F7703C0809180007B
:104920008F7D80938000089584B58F7702C084B511
:104930008F7D84BD0895809190008F7707C080910E
:1049400090008F7D03C080919000877F80939000BE
:1049500008958091C0008F7703C08091C0008F7D43
:104960008093C00008958091C200877F8093C20029
:104970000895FF920F931F93F62E482F50E0CA011F
:1049800089509E4FFC012491CA0187529E4FFC0121
:10499000149145545E4FFA0104910023C9F022237B
:1049A00019F0822F0E948024E02FF0E0EE0FFF1F0D
:1049B000E156FE4FA591B4919FB7F894FF2021F4E2
:1049C0008C911095812302C08C91812B8C939FBF79
:1049D0001F910F91FF900895FC0191818081813A90
:1049E00031F4913089F080E0933089F40DC0813248
:1049F00069F49B3021F482818093580105C09A307C
:104A000029F482818093590181E0089580E008951E
:104A1000EF92FF920F931F938C01E62EDC01ED9134
:104A2000FC910480F581E02D0995F82ED801ED91D7
:104A3000FC910680F781E02DC8016E2D09958F2D20
:104A400090E01F910F91FF90EF90089510925F04F6
:104A5000109263041092620489EB91E090936104D8
:104A6000809360040895A1E0B0E0E9E3F5E20C94DE
:104A70003E2889838B017A0184E0BE016F5F7F4FFE
:104A800041E050E00E94142184E4B801A7010E9493
:104A900014212196E6E00C945A2882E048E050E088
:104AA0000E9433250895FC01168217821086118614
:104AB0001286138614823496BF010E944D250895F4
:104AC000DC01683810F0685829C0E62FF0E067FF75
:104AD00013C0E058F04081E090E002C0880F991FB9
:104AE000EA95E2F7809514962C9114972823149652
:104AF0002C93149760E012C0E156FD4F6491662339
:104B000019F420E030E01DC067FF08C014968C91B6
:104B100014978D7F14968C9314976F77FD0190E016
:104B2000662321F08681861709F416829F5F3196ED
:104B30009630B1F7CD011496BD010E944D2521E0BC
:104B400030E0C9010895CF93DF93DC01683810F09D
:104B5000685825C0E62FF0E067FF12C0E058F0402B
:104B600081E090E002C0880F991FEA95E2F7149661
:104B70002C911497282B14962C93149760E00FC057
:104B8000E156FD4F64916623D9F167FF08C0149682
:104B90008C911497826014968C9314976F77169665
:104BA0008C9116978617A9F117968C9117978617EF
:104BB00081F118968C911897861759F119968C9156
:104BC0001997861731F11A968C911A97861709F161
:104BD0001B968C911B978617E1F0ED01E0E0F0E069
:104BE0009E2F8E81882321F4EA0FFB1F668306C067
:104BF0009F5F31962196E630F10591F7963049F4A2
:104C000081E090E013969C938E93129720E030E021
:104C100007C0CD011496BD010E944D2521E030E072
:104C2000C901DF91CF91089580E861E272E045E625
:104C300050E00E9492200895FC0180818F5F808364
:104C400080E866E872E049E150E00E949220089511
:104C50005058BB27AA270ED008C1F9D030F0FED09B
:104C600020F031F49F3F11F41EF4EEC00EF4E095F5
:104C7000E7FBE4C0E92F0AD180F3BA176207730794
:104C80008407950718F071F49EF522C10EF4E095A3
:104C90000B2EBA2FA02D0B01B90190010C01CA01F6
:104CA000A0011124FF27591B99F0593F50F4503EA1
:104CB00068F11A16F040A22F232F342F4427585F93
:104CC000F3CF469537952795A795F0405395C9F7AB
:104CD0007EF41F16BA0B620B730B840BBAF0915063
:104CE000A1F0FF0FBB1F661F771F881FC2F70EC002
:104CF000BA0F621F731F841F48F4879577956795D5
:104D0000B795F7959E3F08F0B3CF9395880F08F0BD
:104D10009927EE0F9795879508956CD008F481E058
:104D20000895BCD088F09F5790F0B92F9927B751BC
:104D3000A0F0D1F0660F771F881F991F1AF0BA955F
:104D4000C9F712C0B13081F0C3D0B1E00895C0C03E
:104D5000672F782F8827B85F39F0B93FCCF3869555
:104D600077956795B395D9F73EF4909580957095B2
:104D700061957F4F8F4F9F4F0895E89409C097FB2F
:104D80003EF490958095709561957F4F8F4F9F4F22
:104D90009923A9F0F92F96E9BB279395F695879566
:104DA00077956795B795F111F8CFFAF4BB0F11F429
:104DB00060FF1BC06F5F7F4F8F4F9F4F16C08823D0
:104DC00011F096E911C0772321F09EE8872F762F06
:104DD00005C0662371F096E8862F70E060E02AF047
:104DE0009A95660F771F881FDAF7880F9695879533
:104DF00097F90895990F0008550FAA0BE0E8FEEF08
:104E000016161706E807F907C0F012161306E4078E
:104E1000F50798F0621B730B840B950B39F40A2687
:104E200061F0232B242B252B21F408950A2609F465
:104E3000A140A6958FEF811D811D089597F99F6769
:104E400080E870E060E008959FEF80EC0895002412
:104E50000A941616170618060906089500240A94DF
:104E600012161306140605060895092E0394000C65
:104E700011F4882352F0BB0F40F4BF2B11F460FFF4
:104E800004C06F5F7F4F8F4F9F4F089557FD90581D
:104E9000440F551F59F05F3F71F04795880F97FBFE
:104EA000991F61F09F3F79F08795089512161306B8
:104EB0001406551FF2CF4695F1DF08C016161706E7
:104EC0001806991FF1CF869571056105089408951C
:104ED000E894BB2766277727CB0197F908958ADFE7
:104EE00008F48FEF08950BD0C0CFB1DF28F0B6DF04
:104EF00018F0952309F0A2CFA7CF1124EACFC6DF7F
:104F0000A0F3959FD1F3950F50E0551F629FF001DC
:104F1000729FBB27F00DB11D639FAA27F00DB11D35
:104F2000AA1F649F6627B00DA11D661F829F2227BE
:104F3000B00DA11D621F739FB00DA11D621F839F45
:104F4000A00D611D221F749F3327A00D611D231F1B
:104F5000849F600D211D822F762F6A2F11249F5769
:104F600050408AF0E1F088234AF0EE0FFF1FBB1F8C
:104F7000661F771F881F91505040A9F79E3F51052B
:104F800070F05CCFA6CF5F3FECF3983EDCF38695E4
:104F900077956795B795F795E7959F5FC1F7FE2BD6
:104FA000880F911D9695879597F90895629FD00176
:104FB000739FF001829FE00DF11D649FE00DF11DD4
:104FC000929FF00D839FF00D749FF00D659FF00D83
:104FD0009927729FB00DE11DF91F639FB00DE11D70
:104FE000F91FBD01CF0111240895A1E21A2EAA1BB9
:104FF000BB1BFD010DC0AA1FBB1FEE1FFF1FA21789
:10500000B307E407F50720F0A21BB30BE40BF50B85
:10501000661F771F881F991F1A9469F7609570950E
:10502000809590959B01AC01BD01CF01089597FB40
:10503000092E05260ED057FD04D0D7DF0AD0001C5C
:1050400038F450954095309521953F4F4F4F5F4F25
:105050000895F6F790958095709561957F4F8F4FE5
:105060009F4F08952F923F924F925F926F927F923F
:105070008F929F92AF92BF92CF92DF92EF92FF9268
:105080000F931F93CF93DF93CDB7DEB7CA1BDB0B14
:105090000FB6F894DEBF0FBECDBF09942A883988B9
:1050A00048885F846E847D848C849B84AA84B984C0
:1050B000C884DF80EE80FD800C811B81AA81B981CC
:1050C000CE0FD11D0FB6F894DEBF0FBECDBFED01E0
:1050D0000895EE0FFF1F0590F491E02D0994DC0177
:1050E000CB01FC01F999FECF06C0F2BDE1BDF89AF3
:1050F000319600B40D9241505040B8F70895DC014C
:10510000CB0103C02D910E948A2841505040D0F716
:105110000895262FF999FECF1FBA92BD81BD20BDFB
:105120000FB6F894FA9AF99A0FBE01960895F8947A
:02513000FFCFAF
:10513200FFFFFFDC05DC05DC05DC05E803DC05E838
:1051420003DC05DC05DC05DC05DC05DC0506070106
:1051520005010F0103010B0109010D011101DC0120
:10516200E201DE01E601E001E401E8010000090DCF
:105172000A060BFFFFFF2B04090D0A060B05FFFFB2
:1051820000E1000000000000010178899887788919
:105192009887FF00000000000003010200040506DA
:1051A20007A0860100801A06000503050304020217
:1051B200020101010101010101EA01EC01EE01F02C
:1051C20001F40100000000311D0120D01CF71CDE9B
:1051D2001C561D5A1D00000000581F0120EE1E1F04
:1051E2001FFF1E481F0000000008250120A32560A4
:0451F200255325001C
:00000001FF
