:100000000C9469000C9486000C9486000C949B035D
:100010000C9486000C9425040C9486000C948600A5
:100020000C9486000C9486000C9486000C94C613E5
:100030000C9486000C9488000C9486000C94860026
:100040000C9404170C9486000C9486000C94860083
:100050000C9486000C94BA020C9486000C948600D2
:100060000C9486000C94860030085208130930085E
:10007000520813095C09CB09000000002400270086
:100080002A0000000000250028002B0000000000CE
:1000900023002600290004040404040404040202CA
:1000A00002020202030303030303010204081020F7
:1000B0004080010204081020010204081020000002
:1000C0000007000201000003040600000000000019
:1000D000000011241FBECFEFD4E0DEBFCDBF11E082
:1000E000A0E0B1E0E6E6F2E302C005900D92AA3B83
:1000F000B107D9F713E0AAEBB1E001C01D92A4301B
:10010000B107E1F70E94F5160C9431190C94000028
:100110001F920F920FB60F9211248F939F9380918D
:100120006502909166020196909366028093650243
:100130008091650290916602892B29F48091670273
:100140008F5F809367029F918F910F900FBE0F90EA
:100150001F90189560918400709185002091650230
:1001600030916602E0916702809184009091850051
:100170008627972797FDEECF8091650290916602C2
:100180002817390739F780916702E81719F740E017
:1001900050E0FFE0220F331F441F551FFA95D1F79F
:1001A0008E2F90E0A0E0B0E0BB278695B795AA27F8
:1001B00099278827282B392B4A2B5B2B7695679517
:1001C000CB01A0E0B0E0282B392B4A2B5B2BB901E7
:1001D000CA010895AF92BF92CF92DF92EF92FF9241
:1001E0000F931F9328EE33E040E050E00E94701818
:1001F0005B016C010E94AA007B018C010E94AA0095
:100200006E197F09800B910B6A157B058C059D0586
:10021000A8F31F910F91FF90EF90DF90CF90BF90C8
:10022000AF900895882321F0813021F42D9A08950C
:100230002D98089585B190E2892785B90895EF92A8
:10024000FF920F931F937B018C018091F10290919B
:10025000F202A091F302B091F4028E199F09A00B53
:10026000B10B181619061A061B060CF450C0809123
:10027000F502882321F5E091F602EF5FE370E09349
:10028000F602FF27E7FDF095E859FD4F8081992799
:1002900087FD9095880F991F8093F50280E492E482
:1002A000AFE0B0E0E80EF91E0A1F1B1FE092F1025A
:1002B000F092F2020093F3021093F40228C08150EE
:1002C0008093F50281700E941201E091F602FF27EF
:1002D000E7FDF095EE0FFF1FE459FD4F80819181FE
:1002E000AA2797FDA095BA2F2AE0880F991FAA1F69
:1002F000BB1F2A95D1F78E0D9F1DA01FB11F8093A4
:10030000F1029093F202A093F302B093F4021F91D2
:100310000F91FF90EF9008959A01AB01882311F09F
:10032000459A449A1092B90060E074E284EF90E03C
:100330000E948F18205130404040504056954795BC
:10034000379527952093B80008952FEF30E011C01E
:100350002115310561F41092BC00809174029091D6
:10036000750201969093750280937402089521504E
:1003700030408091BC0087FFEBCF0895FF920F9330
:100380001F93F82E0CEB10E084EAF80180830E94A2
:10039000A501F092BB0084E8F80180830E94A501CA
:1003A0001F910F91FF9008958093BB0084E8809384
:1003B000BC000E94A50108951F93182F882311F4F3
:1003C00084E801C084EC8093BC000E94A501909158
:1003D000BB00112319F484E98093BC00892F1F917D
:1003E00008950F931F93162F042F880F0E94BE01AC
:1003F000812F0E94D401802F0E94D40184E9809330
:10040000BC001F910F9108950F931F93182F062F73
:10041000880F0E94BE01802F0E94D401110F812FEE
:1004200081600E94BE0180E00E94DC011F910F915B
:1004300008951F93CF93DF93EB01142F880F8160F2
:100440000E94BE0108C0115080E011160CF481E03A
:100450000E94DC0189931123B1F7DF91CF911F91A5
:100460000895DF92EF92FF920F931F93E82EF62EDE
:100470008A01D22E880F0E94BE018F2D0E94D401C6
:100480008E2DB8014D2D0E9419021F910F91FF90E2
:10049000EF90DF90089588E66EE340E80E94F10156
:1004A00062E370E080E090E00E94EA0088E66EE39C
:1004B00043E00E94F10140911B014150486188E6F0
:1004C00066E10E94F10188E660E00E94040290E08B
:1004D0008E77883609F491E0892F0895A6E0B0E080
:1004E000E4E7F2E00C94D6188C017B016A0188E6FF
:1004F0006DE1AE014F5F5F4F26E00E9431029981AE
:1005000080E02A8130E0822B932BF8019183808355
:100510009B8180E02C8130E0822B932BF70191832B
:1005200080839D8180E02E8130E0822B932BF60129
:10053000918380832696E8E00C94F218282F17C048
:10054000E22FF0E0EE0FFF1FE45DFE4F808191810E
:10055000892B61F080917C00887F822B80937C00C6
:1005600080917A00806480937A0008952F5F26300E
:1005700038F308951F920F920FB60F9211242F9304
:100580003F934F935F936F937F938F939F93AF931B
:10059000BF93EF93FF9380917C008770E82FF0E08A
:1005A000EE0FFF1FE45DFE4F0190F081E02D909172
:1005B000790090838F5F0E949E02FF91EF91BF911F
:1005C000AF919F918F917F916F915F914F913F91EB
:1005D0002F910F900FBE0F901F901895ECE2F1E055
:1005E00040E050E061E070E080819181892B79F0FA
:1005F00087B1DB01042E02C0AA0FBB1F0A94E2F7E9
:100600009D012095822387B988B1282328B94F5F9F
:100610005F4F32964630510539F780E680937C0073
:1006200010927B008FE880937A0080E00E949E0207
:100630000895CF93DF93EB01DA01FC0140E050E035
:1006400061E070E080819181892B79F03881CB0164
:10065000042E02C0880F991F0A94E2F7282F2095D4
:10066000232328832C91822B8C934F5F5F4F3296EC
:100670004830510539F7DF91CF91089586E792E030
:1006800064E270E045E250E00E94190388E391E0E3
:1006900067E270E048E250E00E94190388E491E0CC
:1006A0006AE270E04BE250E00E941903089560E0B6
:1006B00070E040E050E0A1E0B0E0362FFA01EA58E7
:1006C000FD4F0190F081E02D309751F023B1CD0125
:1006D000062E02C0880F991F0A94E2F72823208370
:1006E000FA01E85CFE4F0190F081E02D309751F067
:1006F00026B1CD01032E02C0880F991F0A94E2F79C
:1007000028232083FA01E85BFE4F0190F081E02D61
:10071000309749F029B1CD0102C0880F991F3A9551
:10072000E2F7282320836F5F7F4F4E5F5F4F40319A
:10073000510519F608951F920F920FB60F921124CA
:10074000AF92BF92CF92DF92EF92FF920F931F93DF
:100750002F933F934F935F936F937F938F939F93C9
:10076000AF93BF93CF93DF93EF93FF9300918400F8
:10077000109185008091E00293B19093E00278940B
:10078000292F282780958923A8E5B1E0E1EEF2E042
:1007900060E070E0C22EDD24E82EFF2421E0CD9140
:1007A000DC911197209779F1C601062E02C095952C
:1007B00087950A94E2F780FF26C0C701062E02C083
:1007C000959587950A94E2F780FF03C01183008313
:1007D0001AC080819181A801481B590B56954795F5
:1007E0008CE7A82E8CEFB82EA40EB51E81EBA816B0
:1007F00084E0B80640F459834883809197026817D3
:1008000011F4209386026F5F7F4F12963296683004
:10081000710529F6FF91EF91DF91CF91BF91AF91D3
:100820009F918F917F916F915F914F913F912F9108
:100830001F910F91FF90EF90DF90CF90BF90AF90FE
:100840000F900FBE0F901F9018951F920F920FB62A
:100850000F921124CF92DF92EF92FF920F931F938A
:100860002F933F934F935F936F937F938F939F93B8
:10087000AF93BF93CF93DF93EF93FF93E090840008
:10088000F09085008091CF0299B19093CF02789437
:10089000292F282780958923A7E8B2E0E0EDF2E030
:1008A00060E070E0C22EDD24082F10E0CD91DC91D5
:1008B0001197209721F1C601062E02C095958795C4
:1008C0000A94E2F780FF1BC0C801062E02C095956E
:1008D00087950A94E2F780FF03C0F182E0820FC09F
:1008E00080819181A701481B590B56954795CA01F4
:1008F00084589340815B944010F4598348836F5F20
:100900007F4F129632966830710581F6FF91EF9114
:10091000DF91CF91BF91AF919F918F917F916F9117
:100920005F914F913F912F911F910F91FF90EF9009
:10093000DF90CF900F900FBE0F901F901895809171
:100940006800816080936800E8E5F1E040E050E0F5
:1009500061E070E080819181892BA1F020916B0092
:10096000CB01042E02C0880F991F0A94E2F7282BAE
:1009700020936B0034B1282F2095232324B925B16F
:10098000822B85B94F5F5F4F32964830510511F782
:1009900081E0809397028091680084608093680072
:1009A000E7E8F2E040E050E061E070E080819181B2
:1009B000892BA1F020916D00CB01042E02C0880F7D
:1009C000991F0A94E2F7282B20936D003AB1282F43
:1009D000209523232AB92BB1822B8BB94F5F5F4F10
:1009E00032964830510511F70895A6E0B0E0EBEFDC
:1009F000F4E00C94CC187A8369831C012B019E834C
:100A00008D839B012A5F3F4F3C832B83ED81FE81C9
:100A10000681178180819181081B190B3801882478
:100A200077FC8094982CF10182899389A489B589F7
:100A3000860D971DA81DB91D268D378D40A151A18A
:100A4000AA24BB246501A21AB30AC40AD50A8A15CE
:100A50009B05AC05BD054CF05C016D0128173907FD
:100A60004A075B0714F459016A01F101A28AB38AAB
:100A7000C48AD58AED81FE8184859585AA2797FD54
:100A8000A095BA2FA4019301281B390B4A0B5B0BCD
:100A9000CA01B90115870487F201248535854427E9
:100AA00037FD4095542F0E9470187B018C0152E055
:100AB00015950795F794E7945A95D1F7F20120819F
:100AC0003181442737FD4095542FC401B3010E9462
:100AD000701843E095958795779567954A95D1F776
:100AE000E60EF71E081F191FF201268137814427E1
:100AF00037FD4095542FC601B5010E94701836E0AD
:100B000095958795779567953A95D1F7E60EF71EF7
:100B1000081F191FE981FA81028804C015950795FD
:100B2000F794E7940A94D2F7ED81FE81F3A6E2A64A
:100B30003296FE83ED8324E030E0220E331E42E045
:100B400050E0440E551E8B819C814816590609F0D1
:100B50005DCF2696E2E10C94E818A6E0B0E0E3EB66
:100B6000F5E00C94DC18CE010196BE016D5F7F4F5D
:100B7000AE014B5F5F4F0E946E028B819C81909310
:100B8000F9018093F80149815A815093FB01409308
:100B9000FA012D813E813093FD012093FC0180916B
:100BA0002802909129028230910519F00397D1F41F
:100BB0000DC03093FB012093FA0188279927841BED
:100BC000950B9093FD018093FC010CC08827992719
:100BD000821B930B9093FB018093FA015093FD01CC
:100BE0004093FC012696E2E00C94F81881E040E87E
:100BF0005AE166E070E00E948C010E944B0288235B
:100C000049F485E080936A0288EC90E09093710249
:100C10008093700208950F931F93CF93DF93FC018D
:100C20001082772767FD709572836183DC01EC0188
:100C300040E050E00FEF1FE760E070E80CC0129654
:100C40001C930E9311971A967C936E9319971F8697
:100C5000188A198A1A8A9A014F5F5F4F1296249652
:100C6000818192812817390754F314A613A6DF91C6
:100C7000CF911F910F910895A0E0B0E0E2E4F6E07B
:100C80000C94D4187C018C01EB01F70160E070E05A
:100C90002BC02181328188819981281739070CF472
:100CA000C901928381832185328588819981821748
:100CB00093070CF4C90192878187299139914427C0
:100CC00037FD4095542FD8011F96AD90BD90CD9023
:100CD000DC905297A20EB31EC41ED51E1F96AD9275
:100CE000BD92CD92DC9252979B016F5F7F4F3296FF
:100CF0000C5F1F4FD70111968D919C911297281769
:100D000039073CF2CDB7DEB7EAE00C94F018A0E06A
:100D1000B0E0EDE8F6E00C94D618EC017C0163E25B
:100D2000C62ED12CC80ED91E00E010E011C02BA594
:100D30003CA5442737FD4095542FF70167857089FE
:100D4000818992890E94B118F601219331936F0134
:100D500098010F5F1F4F84E090E0E80EF91E898133
:100D60009A81281739071CF3CDB7DEB7E8E00C9459
:100D7000F218CF93DF93FC01EB0161817281A0E057
:100D800040E050E00DC08385948523813481821B2F
:100D9000930B8C179D070CF4AF5F4F5F5F4F32963C
:100DA0004617570784F320E08A2F992787FD9095EF
:100DB0008617970709F421E0822FDF91CF910895DC
:100DC000A8E0B0E0E6EEF6E00C94DA188C01809131
:100DD000BA019091BB019A8389838091BE01909161
:100DE000BF019C838B838091C0019091C1019E8340
:100DF0008D838091BC019091BD0198878F83C8013C
:100E0000BE016F5F7F4F0E943C06F80183A594A549
:100E1000019694A783A78436910551F5C80164E132
:100E200070E00E94B9068823F9F0C8010E94870685
:100E3000F80183A194A1909314018093130185A1DB
:100E400096A1909316018093150187A190A5909388
:100E500018018093170181A592A590931A018093A0
:100E6000190181E0808304C0C80164E00E940B0680
:100E70002896E4E00C94F618A6E0B0E0E2E4F7E08F
:100E80000C94DA188C018091F8019091F9019A8301
:100E900089838091FA019091FB019C838B838091DF
:100EA000FC019091FD019E838D83C801BE016F5F9F
:100EB0007F4F0E943C06F80183A594A5019694A754
:100EC00083A78C52914021F5C80162E370E00E9433
:100ED000B9068823C9F0C8010E948706F80183A1DA
:100EE00094A19093F3018093F20185A196A1909330
:100EF000F5018093F40187A190A59093F701809369
:100F0000F60181E0808304C0C80163E00E940B0603
:100F10002696E4E00C94F618209103013091040128
:100F200080910301909104012817390721F430932F
:100F3000BB012093BA0120910501309106018091F7
:100F40000501909106012817390721F43093BF015C
:100F50002093BE0120910701309108018091070183
:100F6000909108012817390721F43093C10120938B
:100F7000C00120910B0130910C0180910B019091E7
:100F80000C012817390721F43093C3012093C201C3
:100F900020910D0130910E0180910D0190910E0173
:100FA0002817390721F43093C5012093C4012091FB
:100FB0000F013091100180910F01909110012817BD
:100FC000390721F43093C7012093C6012091110104
:100FD0003091120180911101909112012817390767
:100FE00021F43093C9012093C80180915D02909152
:100FF0005E0205974CF48091BA019091BB019093E9
:10100000BD018093BC0108952091090130910A012E
:101010008091090190910A012817390721F4309332
:10102000BD012093BC010895A0E0B0E0EAE1F8E042
:101030000C94D618DC01C0905D02D0905E02F601DF
:101040003297E830F10508F0E3C1EC5CFF4F6D9199
:101050007C9111970091BA011091BB010C94031976
:10106000600F711F7093E5016093E4018D919C9175
:1010700011972091BC013091BD01820F931F909375
:10108000EB018093EA0112968D919C911397209128
:10109000BE013091BF01820F931F9093E7018093AF
:1010A000E601A8C17801E60EF71EF092E501E09294
:1010B000E401E091BC01F091BD01CD91DC9111976B
:1010C000CE0FDF1FD093EB01C093EA014091CA011C
:1010D0005091CB0144525A4F8D919C911197480FDA
:1010E000591F12966D917C9113978091BE0190913A
:1010F000BF01680F791FCB01840F951F9C013595A7
:101100002795359527953595279595958795280F9A
:10111000391F275731403093E7012093E601461BE2
:10112000570BCA0133E0959587953A95E1F75595A8
:101130004795840F951F84529A4F9093E9018093AD
:10114000E8012091C0013091C10146E0C416D104EC
:1011500009F060C084E0223E380774F0295735401A
:10116000273C310518F082E090E002C081E090E079
:10117000029709F04DC121C08091190190911A0187
:10118000800F911F8E1B9F0B209113013091140132
:10119000821B930B9595879584529A4F9093E50106
:1011A0008093E4018C5D95402CED35E0281B390BD4
:1011B0003093EB012093EA012BC12091020112969A
:1011C0006D917C911397E091CC01F091CD016E0F60
:1011D0007F1F882777FD8095982F30E0205830407A
:1011E000442737FD4095542F0E947018A7E095952D
:1011F000879577956795AA95D1F7E60EF71EF09239
:10120000E501E092E401C61BD70BD093EB01C0933C
:10121000EA01FEC09093E5018093E40114968D915C
:101220009C911597EFC0600F711F7093E50160935B
:10123000E4018D919C9111972091BC013091BD01E9
:10124000820F931F9093EB018093EA0112966D91A8
:101250007C9113978091BE019091BF01680F791F17
:1012600014964D915C9115978091C0019091C101A8
:10127000480F591FCA01860F971F9C01F3E035954F
:101280002795FA95E1F795958795280F391F2757E8
:1012900031403093E7012093E601461B570BCA010A
:1012A000B3E095958795BA95E1F755954795840FE5
:1012B000951F84529A4FA8C02091130130911401B8
:1012C0001296CD91DC9113978091CC019091CD0134
:1012D000C80FD91F14960D90BC91A02D8091CE01FE
:1012E0009091CF01A80FB91F8091090190910A0137
:1012F0008C54944097FF03C040E050E016C08091AA
:10130000090190910A018C54944095958795855FC9
:1013100091401CF044EF51E008C040910901509108
:101320000A014C54544055954795F801E452FA4F40
:10133000E21BF30BE60FF71FBE016E0F7F1F9A0132
:101340002A1B3B0B37FF02C020E030E0CB01821BA1
:10135000930B9093E5018093E401260F371F3093A0
:10136000E7012093E601BF016C1B7D0B9A012A0F58
:101370003B1F37FF02C020E030E0C901860F971FF6
:101380009093EB018093EA01621B730B7093E90168
:101390006093E8013DC0600F711F7093E501609399
:1013A000E4018D919C9111972091BC013091BD0178
:1013B000820F931F9093EB018093EA0112968D9117
:1013C0009C9113972091BE013091BF01820F931F12
:1013D0009093E7018093E6018091C8019091C90143
:1013E00012962D913C911397821B930B9093EF01D2
:1013F0008093EE0114968D919C9115972091C001D8
:101400003091C101820F931F9093E9018093E8010D
:101410008091C6019091C7019093ED018093EC01FA
:1014200089E0C816D10441F08091C8019091C901AA
:101430009093EF018093EE018091C4019091C501DA
:101440009093F1018093F001CDB7DEB7E8E00C9402
:10145000F218AAE0B0E0EFE2FAE00C94DA1880911A
:101460001B0290911C020397A9F5FE0131968AE0B8
:10147000DF011D928A95E9F7CF010E941408AFEAB7
:10148000B1E004E012E04EE052E06D917C911197E2
:10149000F80120813181FB01808191812817390772
:1014A0000CF4C901F80191838083FA012081318114
:1014B000FB0180819181821793070CF4C901FA0125
:1014C00081939193AF0112960E5F1F4FF1E0A93BFC
:1014D000BF07D9F68EEF91E00E94140880915D025B
:1014E00090915E02099711F074E001C075E060E030
:1014F00080E090E0FC01E155FE4FA081B1814D916B
:101500005C911197FC01EC5FFD4F0190F081E02DA3
:101510004E175F0754F0FC01E25FFD4F20813181DF
:10152000FA01241735070CF4F901ED93FC936F5F72
:1015300002966717FCF22A96E4E00C94F618809164
:101540009902882309F050C081E0809399028FEFBF
:10155000809398022FB7F8948091E4019091E5016F
:101560009093D7018093D6018091E6019091E70195
:101570009093D9018093D8018091E8019091E9017D
:101580009093DB018093DA018091EA019091EB0165
:101590009093DD018093DC018091EC019091ED014D
:1015A0009093DF018093DE018091EE019091EF0135
:1015B0009093E1018093E0018091F0019091F1011D
:1015C0009093E3018093E20180916F0082608093A9
:1015D0006F00B19A80918400909185000496909359
:1015E0008900809388002FBF0895FC0181E08183EA
:1015F000808385E082831682158210861782089583
:101600009C0144E0813B940714F490E00DC08451A8
:1016100095408159914010F491E006C02850374020
:1016200014F49FEF06C092E0662319F082E0891B54
:10163000982F892F0895CF93DF93EC018A818B83B4
:101640008091BA019091BB016D810E94000B87FFD0
:1016500088838091BE019091BF016E810E94000B32
:1016600087FF89838F81882351F48881882329F01B
:10167000823029F481E08D83188281E08F83888510
:10168000882361F48981882319F0823039F404C0F9
:1016900081E08E8382E0898381E0888738813F5FA3
:1016A000898123E08202C0011124380F3A839B8193
:1016B00080E0391729F081E09295907F932B9C83ED
:1016C000DF91CF910895282F30E03F6F220F331F15
:1016D000EFB7F8948091840090918500AC01405C54
:1016E0005F4FBC016D5D7A4F8091840090918500C1
:1016F000DA01A81BB90B1A161B06B4F320FF02C0AF
:10170000579801C0579A4617570729F036952795DD
:1017100045575F4FE9CFEFBF0895EFB7F8944F9B60
:1017200049C016C020918400309185002058314C6A
:1017300004C08FEF9FEF4F9B0BC08091840090916E
:101740008500B901681B790B1616170614F4F1CF42
:10175000AC0141505040CA0101961816190614F305
:101760004F5F5F4F19F420E030E826C0809184007D
:1017700090918500AC0140565F4F20E030E0BC0105
:1017800063597B4F8091840090918500DA01A81BFA
:10179000B90B1A161B06B4F389B13695279590E05C
:1017A00080789070282B392B4617570729F045571A
:1017B0005F4FE8CF20E030E4EFBFC9010895EF921A
:1017C000FF920F931F93CF93DF93E82E192F062FCD
:1017D000F62E84E20E94630B802F0E94630B2E2D55
:1017E000312FC901EC0104C08991F80E0E94630BEE
:1017F0009E012E192017C4F38F2D81950E94630B33
:10180000CDB7DEB7E6E00C94F4188F929F92AF92BA
:10181000BF92CF92DF92FF920F931F93CF93DF93EC
:101820004C015A01C0E0D0E0C62EDD24C7FCD094A4
:1018300002C0812F182FC5010E948D0B9C01807062
:10184000907C892B69F5822FC130D10559F0C230C7
:10185000D105A1F0209779F7243259F7812FC1E003
:10186000D0E0E8CF90E0C816D90614F4812F15C057
:10187000822FF22EC2E0D0E000E0DCCFF20E812F0A
:101880008150112331F0F401E00FF11D20830F5F2F
:10189000D1CFFF2011F481E004C0C0E0D0E0CACF76
:1018A00080E0DF91CF911F910F91FF90DF90CF905B
:1018B000BF90AF909F908F9008951F93CF93DF9329
:1018C000EC01142F45E450E00E940919888181172A
:1018D00011F08FEF12C090E020E030E0FE01E20F47
:1018E000F31F8081980F2F5F3F4F25343105B1F7EB
:1018F000992311F480E001C08EEFDF91CF911F9109
:101900000895DC0190E020E030E0FD01E20FF31FDC
:101910008081980F2F5F3F4F24343105B1F7AC5BC6
:10192000BF4F91959C93A454B040CD0145E450E045
:101930000E9419190895A1E1B0E0E1EAFCE00C94DD
:10194000CC181C0181E0898389E192E09B838A8322
:1019500002969D838C830D969F838E830296998732
:10196000888702969B878A8702969D878C87029636
:101970009F878E87CE010196998B888BD090190214
:10198000DD0CCC246624EE24FF248701F0E88F2EA2
:10199000FAE19F2EF6E0AF2EB12CE2E07E2E2C0174
:1019A0000E94AA009B01AC01DC01CB018E199F09AA
:1019B000A00BB10B88169906AA06BB060CF051C005
:1019C000171424F5872D992787FD9095FC01E17068
:1019D000F07080FD03C088E097E002C08CED95E0D8
:1019E0009093E7018093E6018CED95E09093E501FB
:1019F0008093E401EE0FFF1FEE0FFF1FE956FE4F2D
:101A000080809180A280B3807A9429C0DD2039F152
:101A10001D1424F46CE271E0A1E003C064ED7EEFDC
:101A2000AFEF8D2D992787FD9095FC01E170F07047
:101A300080FF03C08CED95E003C0CB0184529A4F28
:101A40009093E5018093E401EE0FFF1FEE0FFF1F5F
:101A5000E956FE4F80809180A280B380DA1A790126
:101A60008A0180918602882329F0109286020E94C2
:101A70008C0702C0662041F080919902882309F00A
:101A80008CC00E949F0A6624772009F089CFC1018B
:101A90000E941B0B882309F483CFF10184818435D4
:101AA00061F0853520F4823509F063C013C08635B6
:101AB00059F0883509F05DC02AC0F1E0FC1514F03A
:101AC000CC2470C0CA946EC085E08C150CF468C03C
:101AD000C39468C0AC2DBB27A7FDB095FD01EE0FE8
:101AE000FF1FE40DF51D0180F281E02D8081282F7C
:101AF000332727FD30952F5F3F4FA156BE4F8C9166
:101B0000992787FD909582179307F4F41CC0AC2D9C
:101B1000BB27A7FDB095FD01EE0FFF1FE40DF51DDE
:101B20000180F281E02D8081282F332727FD309519
:101B300021503040A955BE4F8C91992787FD909533
:101B4000281739070CF49C01208320E08C2D99275D
:101B500087FD9095FC01EE0FFF1FE40DF51D018040
:101B6000F281E02DD080DD0C222319F00196782E31
:101B7000770C8981823009F013CF88E192E060E030
:101B800070E00E94810C88E192E060E071E00E94C8
:101B9000810C6196E2E10C94E8186624639474CF9A
:101BA000A7E0CA2E21E0D2CFA1E9B0E0EAEDFDE046
:101BB0000C94CC180E94AA001B012C01DE01119686
:101BC000E9E7F1E086E001900D928150E1F78E01A6
:101BD0000D5E1F4FC8010E94F50A9CE1E92EF12C11
:101BE000EC0EFD1EC70164E00E940B0689E4C82EBE
:101BF000D12CCC0EDD1EC60163E00E940B062092A4
:101C0000CB023092CC024092CD025092CE02C65707
:101C1000DF4F288239824A825B82CA58D040CA5735
:101C2000DF4F288239824A825B82C658D040CE5725
:101C3000DF4F288239824A825B82C258D0404201FB
:101C40003101C258DF4F288239824A825B82CE57E7
:101C5000D040EB962CAE3DAE4EAE5FAEEB97EE961F
:101C60001FAEEE97ED961FAEED9721E0EC962FAFED
:101C7000EC97C257DF4FE882CE58D040C157DF4FB4
:101C8000F882CF58D040C057DF4F0883C059D040AA
:101C9000CF56DF4F1883C159D0400E94AA005B0184
:101CA0006C010E941F01809186028823A1F4D60155
:101CB000C501C657DF4F488159816A817B81CA5867
:101CC000D040841B950BA60BB70B81539547A040C2
:101CD000B0400CF442C0109286020E948C078C8D9A
:101CE000882369F0C657DF4FA882B982CA82DB8297
:101CF000CA58D04061E0EE966FAFEE972EC0C25743
:101D0000DF4F8881CE58D040C157DF4F9881CF58E0
:101D1000D0400E94E0062A968FAD2A97882311F4BE
:101D200092E001C090E020E08C8D882309F421E04E
:101D3000920F9093690288EC90E090936F028093E9
:101D40006E02C657DF4FA882B982CA82DB82CA58A8
:101D5000D04091E0EE969FAFEE9780919902882354
:101D600079F5EE96AFADEE97AA2351F1A601950154
:101D7000CA57DF4F688179818A819B81C658D040DC
:101D8000261B370B480B590B809161029091620220
:101D9000A0916302B091640282179307A407B5076C
:101DA0007CF40E94290A0E949F0ACA57DF4FA8822A
:101DB000B982CA82DB82C658D040EE961FAEEE973B
:101DC000D601C501CE57DF4F288139814A815B8119
:101DD000C258D040821B930BA40BB50B8151974284
:101DE000A040B04054F10E94AD052A968FAD2A97CD
:101DF0008823D9F4CE01875B9F4F0E943C072A9627
:101E00008FAD2A97882311F492E001C090E020E082
:101E10008C8D882309F421E0920F9093690248EC9D
:101E200050E050936F0240936E02CE57DF4FA8826E
:101E3000B982CA82DB82C258D040EC965FADEC9783
:101E4000552309F456C0C057DF4F8881C059D04090
:101E5000CF56DF4F9881C159D0400E941B0B882379
:101E600009F447C0ED966FADED97E62FFF27E7FD2C
:101E7000F095E059FE4F9F898081981721F0ED96EB
:101E80001FAEED9707C0ED967FADED977F5FED96A6
:101E90007FAFED97ED968FADED97E82FFF27E7FD2C
:101EA000F095E059FE4F80818F3F81F4CE0143963B
:101EB0000E949B0C2EE088E190E00FB6F894A89564
:101EC000809360000FBE20936000FFCFD601C50154
:101ED00082199309A409B509815C914EA44EB040C2
:101EE00024F0EC961FAEEC9704C0F1E0EC96FFAF47
:101EF000EC978C8D882329F02A968FAD2A9788231A
:101F0000C9F58091BC019091BD012091BA01309139
:101F1000BB01820F931F2091190130911A01821B7E
:101F2000930B2091130130911401821B930B959513
:101F300087959093CB018093CA018091BE019091C7
:101F4000BF012091150130911601821B930B9093D4
:101F5000CD018093CC018091C0019091C10120916D
:101F6000170130911801821B930B9093CF0180933E
:101F7000CE0193CED601C50186199709A809B909E2
:101F800081519742A040B0400CF41EC380915F0283
:101F9000909160028130910559F48091C201909135
:101FA000C301865F95400CF09BC080E090E00DC0BF
:101FB000892B09F095C08091C2019091C30187528D
:101FC00096400CF48DC081E090E090936002809385
:101FD0005F02892B11F084E001C080E080936902E8
:101FE00068EC70E070936F0260936E021092AC0226
:101FF0001092AD021092AE021092AF021092B8028F
:102000001092B9021092BA021092BB021092B00262
:102010001092B1021092B2021092B3021092BC025E
:102020001092BD021092BE021092BF021092B40232
:102030001092B5021092B6021092B7021092C0022E
:102040001092C1021092C2021092C302809130021B
:1020500090913102029709F043C0D601C501EB9679
:102060002CAD3DAD4EAD5FADEB97821B930BA40B3A
:10207000B50B8152914AA740B0401CF0E7961FAEC5
:10208000E797E7964FADE7974F5FE7964FAFE79734
:10209000433004F18091BA019091BB0190931401F7
:1020A000809313018091BE019091BF01909316011E
:1020B000809315018091C0019091C1019093180106
:1020C000809317018091BC019091BD0190931A01FA
:1020D00080931901EB96ACAEBDAECEAEDFAEEB9702
:1020E0002091BC013091BD018091BA019091BB015A
:1020F000280F391F8091190190911A01281B390B63
:102100008091130190911401281B390B3595279567
:102110003093CB012093CA014091BE015091BF0181
:102120008091150190911601481B590B5093CD01D8
:102130004093CC01E091C001F091C1018091170161
:1021400090911801E81BF90BF093CF01E093CE01B9
:1021500080912A028150682F772767FD7095C90109
:1021600037FF04C088279927821B930B062E02C0D5
:10217000880F991F0A94E2F7A1E081399A0714F0B9
:1021800080E991E0A0E9B1E0A81BB90BB887AF8363
:10219000CA0157FF04C088279927841B950B062E78
:1021A00002C0880F991F0A94E2F7B1E081399B07BA
:1021B00014F080E991E0A0E9B1E0A81BB90BBA875F
:1021C000A987CF01F7FF04C0882799278E1B9F0B93
:1021D000DC0102C0AA0FBB1F6A95E2F7BD01B1E0A6
:1021E00061397B0714F060E971E0A0E96A2EA1E093
:1021F0007A2E661A770A7C866B868091C20190914E
:10220000C30165E0833C96074CF403EC15E0081B22
:10221000190B71E00139170794F00BC0A6E0883262
:102220009A071CF400E010E00AC0B7E086389B076C
:102230001CF000E911E003C08C01055F154080909F
:102240005F029090600261E08616910459F081145B
:10225000910409F04FC080912E0290912F020297B5
:1022600009F048C080912C02082E02C0220F331FB3
:102270000A94E2F73E872D87082E02C0440F551FAF
:102280000A94E2F7588B4F87AF0102C0440F551FE5
:102290008A95E2F75A8B498B89819A8197FD05C00F
:1022A00088279927821B930B01C0C90190939B0239
:1022B00080939A028B819C812F85388997FD05C078
:1022C00088279927821B930B01C0C90190939D0217
:1022D00080939C028D819E8197FD03C0509541950E
:1022E0005F4F50939F0240939E0271E087169104C6
:1022F00071F055C010929B0210929A0210929D02AA
:1023000010929C0210929F0210929E0248C06F8110
:102310007885882777FD8095982F24EF3FEB40E064
:1023200050E00E947018F9E095958795779567952C
:10233000FA95D1F76093B8027093B9028093BA020C
:102340009093BB0269857A85882777FD8095982FC1
:102350000E947018E9E09595879577956795EA95BD
:10236000D1F76093BC027093BD028093BE0290933C
:10237000BF02B301882777FD8095982F0E947018BF
:1023800039E095958795779567953A95D1F760935C
:10239000C0027093C1028093C2029093C302209145
:1023A000F8013091F9018091F2019091F301281B1D
:1023B000390B80E22030380714F02FEF3FE1C901DC
:1023C000A0EE20303A0714F480E090EE9093A10242
:1023D0008093A0022091FA013091FB018091F401D9
:1023E0009091F501281B390BB0E220303B0714F027
:1023F0002FEF3FE1C901E0EE20303E0714F480E00A
:1024000090EE9093A3028093A2022091FC01309160
:10241000FD018091F6019091F701281B390BF0E244
:1024200020303F0714F02FEF3FE1C90120EE80304C
:10243000920714F480E090EE9093A5028093A4029A
:10244000892819F068E472E002C065E372E08AE965
:1024500092E00E94F504EE24FF243801882477FCE2
:102460008094982C870102501E4FE1E0F0E0EC0FC1
:10247000FD1FEE0DFF1D60817181882777FD80951E
:10248000982FF701E656FD4F22A533A5442737FDC7
:102490004095542F0E94701827E095958795779561
:1024A00067952A95D1F7E7E0F0E0EC0FFD1FEE0D00
:1024B000FF1D20813181442737FD4095542F0E9414
:1024C00070189B01AC01B9E0559547953795279554
:1024D000BA95D1F7C401B3010E947018A9E095958F
:1024E000879577956795AA95D1F7D8016D937C93D9
:1024F000E2E0F0E0EE0EFF1EF6E0EF16F10409F068
:10250000B1CF2091CA0212160CF05CC08091CB02B0
:102510009091CC02A091CD02B091CE02B601A5015E
:10252000481B590B6A0B7B0BDB01CA0181549D4090
:10253000A340B0405CF021502093CA02A092CB028D
:10254000B092CC02C092CD02D092CE028091CA024B
:10255000992787FD90954091FE015091FF01BC01A4
:102560006170707080FF03C026E930E002C02AE687
:102570003FEF240F351F3093FF012093FE01409160
:102580000002509101026115710519F026E930E051
:1025900002C02AE63FEF240F351F3093010220933B
:1025A00000022091020230910302672B19F48AE69F
:1025B0009FEF02C086E990E0820F931F9093030281
:1025C0008093020235014601D601C501C258DF4F92
:1025D000288139814A815B81CE57D040821B930B81
:1025E000A40BB50B8C59914AA740B0400CF455CBC5
:1025F00080913202803839F480910001282F30E038
:102600002058304004C0282F332727FD3095809173
:102610003302803839F480910101482F50E040584E
:10262000504004C0482F552747FD509580913402F3
:10263000803831F48091020190E08058904003C0CE
:10264000992787FD90953A8329835C834B839E83EA
:102650008D83295F3F4F2F30310510F41A82198284
:102660008B819C8107960F9710F41C821B828D81B1
:102670009E8107960F9710F41E821D8280E00E94B3
:102680009E02C258DF4FA882B982CA82DB82CE572F
:10269000D04003CBA6E6B0E0E0E5F3E10C94D61819
:1026A0001092800081E08093810057985F9848E500
:1026B00052E000E06E010894C11CD11C22E0E22E21
:1026C000F12CEC0EFD1EC60166E60E94050C882367
:1026D00009F441C089818230A9F0833018F4813037
:1026E00029F406C08330B1F08430E9F010E026C050
:1026F000C70160E870E048E050E00E94091910E06E
:1027000069E01DC0C70160E870E048E050E00E9449
:10271000191913C0C70160E070E04BE00E945D0C26
:1027200010E066E40CC0C70160E070E00E94810C1C
:10273000C70160E071E00E94810C11E061E08981D5
:1027400080688983C6010E94DF0B01E044EF51E0FD
:10275000112309F4B8CF802FCA59DF4FE8E00C9459
:10276000F218CF93DF93C0E0D0E0FE01E859FE4FAE
:10277000808187FD04C0808161E00E94D11721968D
:10278000C830D10591F7DF91CF9108951F920F9234
:102790000FB60F9211240F931F932F933F934F93D4
:1027A0005F936F937F938F939F93AF93BF93EF93B9
:1027B000FF938091980287FD42C0E0919802FF2725
:1027C000E7FDF095E859FE4F808160E00E943D18DA
:1027D00036C0809198028F5F80939802E0919802B2
:1027E000FF27E7FDF095E859FE4F808187FD27C060
:1027F0000091840010918500E0919802FF27E7FD89
:10280000F095E859FE4F808161E00E943D18E0910B
:102810009802FF27E7FDF095EE0FFF1FE45EFE4FE5
:102820000190F081E02D808191810297880F991F9E
:10283000800F911F90938900809388000BC0809136
:102840009802873034F21092990280916F008D7F48
:1028500080936F00FF91EF91BF91AF919F918F9106
:102860007F916F915F914F913F912F911F910F91A8
:102870000F900FBE0F901F901895A0E0B0E0E3E41A
:10288000F4E10C94D618182F062F862F61E00E94D1
:10289000D117812F60E00E94D117812F61E00E9443
:1028A0003D186AE070E080E090E00E94EA00C0E03D
:1028B000D0E0812F992787FD9095FC01EA56FF4FC4
:1028C000E491F0E0EE0FFF1FE457FF4FC590D49066
:1028D00086559F4FFC018491E82EFF24CE01817024
:1028E000182F802F612F0E943D18F601808120E073
:1028F00030E090E08E219F21892B11F021E030E023
:10290000812F992787FD90952817390711F010E03E
:1029100005C02196C830D10509F711E0802F60E08D
:102920000E94D117812FCDB7DEB7E8E00C94F218E2
:10293000A4E9B0E0EEE9F4E10C94D818259A80916E
:10294000000390910103009711F09C0102C024E064
:1029500033E0CE010196821B930B803891054CF435
:1029600084E180936A028EE190E0909371028093FB
:10297000700284B7877F84BF88E10FB6F894809394
:102980006000109260000FBE21E030E030931A0228
:102990002093190280E8809332028093330280935F
:1029A000340230931C0220931B0287E080935B0269
:1029B00010921D02EFE7F1E0AEE1B2E081918D935C
:1029C00021E0E738F207D1F742E050E050932702C8
:1029D0004093260221E030E0309329022093280220
:1029E00030932B0220932A0283E090E090932D02F3
:1029F00080932C0230932F0220932E0250933102A9
:102A00004093300284EF91E0909336028093350238
:102A100010923C0210923B0290934202809341023A
:102A2000909338028093370210923E0210923D023A
:102A3000909344028093430290933A028093390228
:102A40001092400210923F029093460280934502FA
:102A500028E0209347029093490280934802909384
:102A60004F0280934E0290935502809354029093AC
:102A70004B0280934A0290935102809350029093AC
:102A800057028093560290934D0280934C0290938C
:102A900053028093520290935902809358022093DC
:102AA0005A0286E065E00E943D14882311F400E09C
:102AB00001C007E0CE01039660E870E048E050E016
:102AC0000E940919002361F48B81853049F48C81BF
:102AD0009D81AE81BF818E549146AC4BB04071F068
:102AE00085E08B838EE491E6ACEBB0E08C839D8334
:102AF000AE83BF83188619861A860860CE010B96AE
:102B000060E070E04BE00E945D0C87FD0260CE014A
:102B1000805B9F4F60E071E04BE00E945D0C87FDA1
:102B2000046083E08093CA02E02EFF24C701867010
:102B300090708230910531F08430910579F0892BC5
:102B400081F119C08E01005B1F4FC80160E070E089
:102B50000E94810C88858F5F88870BC08E01055F7E
:102B60001F4FC80160E071E00E94810C89858F5F72
:102B70008987C80118C08BE08093180288E192E031
:102B800060E070E00E94810C88E192E060E071E01A
:102B90000E94810C8A858F5F8A8789E08093CA02B0
:102BA0000AC0CE010B96A8E1B2E0FC0185E40190D9
:102BB0000D928150E1F7C7018E709070892B41F022
:102BC000CE01039660E870E048E050E00E941919D9
:102BD000E0FE0AC082E00E94120164E670E080E03C
:102BE00090E00E947217F6CF0E944A13882361F08A
:102BF0002EE088E190E00FB6F894A89580936000ED
:102C00000FBE20936000FFCF1092800082E080937F
:102C1000810081E080936F0085B5887F85BD8091BC
:102C20001B0290911C028230910519F183309105AD
:102C300024F4019709F05BC007C08330910571F15E
:102C4000049709F054C03FC080E090E048EE53E0A4
:102C500020ED37E0FC01EC5FFD4F51834083FC0128
:102C6000E25FFD4F3183208302968A30910591F710
:102C70003EC080E090E04CE454E02CE637E0FC01FC
:102C8000EC5FFD4F51834083FC01E25FFD4F3183D8
:102C9000208302968A30910591F729C080E090E068
:102CA00042EE54E026ED36E0FC01EC5FFD4F51832F
:102CB0004083FC01E25FFD4F3183208302968A301E
:102CC000910591F714C080E090E044E853E024E3DC
:102CD00038E0FC01EC5FFD4F51834083FC01E25F73
:102CE000FD4F3183208302968A30910591F78091C0
:102CF0001D02992787FD909528EE33E0AC01429F95
:102D0000C001439F900D529F900D1124AA2797FD5B
:102D1000A095BA2F8093610290936202A093630200
:102D2000B093640280915B02877080931B010E94C4
:102D30003E030E9457038091190290911A029093CA
:102D40005E0280935D020197E9F48091D3018823AC
:102D500019F4E2E0F0E002C0E0E0F0E020E030E072
:102D60008091D401882311F421E030E0E22BF32B91
:102D7000EE0FFF1FE957FE4F8081918190935E0215
:102D800080935D0280915D0290915E02059734F020
:102D900082E090E090935E0280935D0280915D02FC
:102DA00090915E02019731F482E090E090935E0290
:102DB00080935D0280915D028093680288E592E0D5
:102DC00090936D0280936C020E94EE020E949F0419
:102DD0000E94B1130E94F6050E948C070E94290AE6
:102DE000CC56DF4FE6E00C94F418CF93DF930E94AB
:102DF00096170E949814C0E0D0E00E94D40D20974E
:102E0000E1F30E940000F9CF1F920F920FB60F92CC
:102E100011242F933F938F939F93AF93BF938091F0
:102E2000FB029091FC02A091FD02B091FE02309154
:102E3000FF020196A11DB11D232F2D5F2D3720F01C
:102E40002D570196A11DB11D2093FF028093FB0217
:102E50009093FC02A093FD02B093FE028091F702D2
:102E60009091F802A091F902B091FA020196A11D89
:102E7000B11D8093F7029093F802A093F902B093EA
:102E8000FA02BF91AF919F918F913F912F910F9037
:102E90000FBE0F901F9018959FB7F8942091F702DE
:102EA0003091F8024091F9025091FA0286B5A89B40
:102EB00006C08F3F21F02F5F3F4F4F4F5F4F9FBFA7
:102EC000542F432F322F2227280F311D411D511D12
:102ED00082E0220F331F441F551F8A95D1F7B90195
:102EE000CA010895EF92FF920F931F93CF93DF9340
:102EF0007B018C010E944C17EB010EC00E944C1705
:102F00006C1B7D0B685E7340C8F30894E108F10800
:102F100001091109C851DC4FE114F1040105110543
:102F200069F7CDB7DEB7E6E00C94F418789484B571
:102F3000826084BD84B5816084BD85B5826085BDB5
:102F400085B5816085BDEEE6F0E08081816080839B
:102F5000E1E8F0E01082808182608083808181607E
:102F60008083E0E8F0E0808181608083E1EBF0E045
:102F7000808184608083E0EBF0E0808181608083E9
:102F8000EAE7F0E0808184608083808182608083D2
:102F90008081816080838081806880831092C100FD
:102FA0000895CF93DF93482F50E0CA0186559F4F75
:102FB000FC0134914A565F4FFA018491882369F1EC
:102FC00090E0880F991FFC01E858FF4FA591B4913C
:102FD000FC01EE57FF4FC591D491662351F42FB7F2
:102FE000F8948C91932F909589238C9388818923D1
:102FF0000BC0623061F42FB7F8948C91932F9095A9
:1030000089238C938881832B88832FBF06C09FB729
:10301000F8948C91832B8C939FBFDF91CF9108956F
:10302000833071F0843028F48130A1F0823021F5B2
:1030300014C08630B1F08730D1F08430E9F404C098
:10304000809180008F7703C0809180008F7D809376
:103050008000089584B58F7702C084B58F7D84BDCC
:1030600008958091B0008F778093B000089580918B
:10307000B0008F7D8093B0000895FF920F931F934F
:10308000F62E482F50E0CA0182549F4FFC01249134
:10309000CA0186559F4FFC0114914A565F4FFA01B1
:1030A00004910023C9F0222319F0822F0E941018E6
:1030B000E02FF0E0EE0FFF1FEE57FF4FA591B49108
:1030C0009FB7F894FF2021F48C911095812302C0C2
:1030D0008C91812B8C939FBF1F910F91FF9008952E
:1030E000629FD001739FF001829FE00DF11D649FEC
:1030F000E00DF11D929FF00D839FF00D749FF00D78
:10310000659FF00D9927729FB00DE11DF91F639F18
:10311000B00DE11DF91FBD01CF0111240895A1E2F9
:103120001A2EAA1BBB1BFD010DC0AA1FBB1FEE1F41
:10313000FF1FA217B307E407F50720F0A21BB30B8C
:10314000E40BF50B661F771F881F991F1A9469F708
:1031500060957095809590959B01AC01BD01CF0164
:10316000089597FB092E05260ED057FD04D0D7DF12
:103170000AD0001C38F450954095309521953F4F6A
:103180004F4F5F4F0895F6F7909580957095619534
:103190007F4F8F4F9F4F08952F923F924F925F9294
:1031A0006F927F928F929F92AF92BF92CF92DF9257
:1031B000EF92FF920F931F93CF93DF93CDB7DEB7BC
:1031C000CA1BDB0B0FB6F894DEBF0FBECDBF099450
:1031D0002A88398848885F846E847D848C849B84A7
:1031E000AA84B984C884DF80EE80FD800C811B81B5
:1031F000AA81B981CE0FD11D0FB6F894DEBF0FBEE4
:10320000CDBFED010895EE0FFF1F0590F491E02D65
:103210000994DC01CB01FC01F999FECF06C0F2BD97
:10322000E1BDF89A319600B40D9241505040B8F784
:103230000895DC01CB0103C02D910E942419415057
:103240005040D0F70895262FF999FECF1FBA92BDAE
:1032500081BD20BD0FB6F894FA9AF99A0FBE019677
:063260000895F894FFCF71
:10326600FFFFFFDC05DC05DC05DC05E803DC05E823
:1032760003DC05DC05DC05DC05DC0506D601DC0126
:10328600D801E001DA01DE01E201000000000001E0
:103296000101020100000000D4010000000000004E
:1032A6000000000000000000D301D001D101D201CE
:1032B600D5010000000000000301050107010B0114
:1032C60000000000000000000706FF05FFFFFFFFEB
:1032D6007889988778899887FF00000000000000A9
:1032E60001020304050607020003000400050008A6
:1032F60000060007000200A0860100801A060005ED
:10330600030303040202020101010101010101E4B8
:0A33160001E601E801EA01EE010002
:00000001FF
