:100000000C9469000C9486000C9486000C94860075
:100010000C9486000C9486000C9486000C94860048
:100020000C9486000C9486000C949B030C94C812CC
:100030000C9486000C9488000C9486000C94860026
:100040000C942A160C9486000C9486000C9486005E
:100050000C9486000C94BA020C9486000C948600D2
:100060000C9486000C94860032075407150832075A
:10007000540715085E08CD08000000002400270082
:100080002A0000000000250028002B0000000000CE
:1000900023002600290004040404040404040202CA
:1000A00002020202030303030303010204081020F7
:1000B0004080010204081020010204081020000002
:1000C0000007000201000003040600000000000019
:1000D000000011241FBECFEFD4E0DEBFCDBF11E082
:1000E000A0E0B1E0E2EBF0E302C005900D92A23B8C
:1000F000B107D9F712E0A2EBB1E001C01D92AA3E10
:10010000B107E1F70E941B160C9457180C940000DD
:100110001F920F920FB60F9211248F939F9380918D
:100120006A0290916B02019690936B0280936A022F
:1001300080916A0290916B02892B29F480916C0264
:100140008F5F80936C029F918F910F900FBE0F90E5
:100150001F901895609184007091850020916A022B
:1001600030916B02E0916C02809184009091850047
:100170008627972797FDEECF80916A0290916B02B8
:100180002817390739F780916C02E81719F740E012
:1001900050E0FFE0220F331F441F551FFA95D1F79F
:1001A0008E2F90E0A0E0B0E0BB278695B795AA27F8
:1001B00099278827282B392B4A2B5B2B7695679517
:1001C000CB01A0E0B0E0282B392B4A2B5B2BB901E7
:1001D000CA010895AF92BF92CF92DF92EF92FF9241
:1001E0000F931F9328EE33E040E050E00E949617F3
:1001F0005B016C010E94AA007B018C010E94AA0095
:100200006E197F09800B910B6A157B058C059D0586
:10021000A8F31F910F91FF90EF90DF90CF90BF90C8
:10022000AF900895882321F0813021F42D9A08950C
:100230002D98089585B190E2892785B90895EF92A8
:10024000FF920F931F937B018C018091D7029091B5
:10025000D802A091D902B091DA028E199F09A00BA1
:10026000B10B181619061A061B060CF450C0809123
:10027000DB02882321F5E091DC02EF5FE370E0937D
:10028000DC02FF27E7FDF095E359FD4F80819927B8
:1002900087FD9095880F991F8093DB0280E492E49C
:1002A000AFE0B0E0E80EF91E0A1F1B1FE092D70274
:1002B000F092D8020093D9021093DA0228C081503C
:1002C0008093DB0281700E941201E091DC02FF2723
:1002D000E7FDF095EE0FFF1FEF58FD4F80819181F4
:1002E000AA2797FDA095BA2F2AE0880F991FAA1F69
:1002F000BB1F2A95D1F78E0D9F1DA01FB11F8093A4
:10030000D7029093D802A093D902B093DA021F913A
:100310000F91FF90EF9008959A01AB01882311F09F
:10032000459A449A1092B90060E074E284EF90E03C
:100330000E94B51720513040404050405695479597
:10034000379527952093B80008952FEF30E011C01E
:100350002115310561F41092BC00809179029091D1
:100360007A02019690937A0280937902089521503F
:1003700030408091BC0087FFEBCF0895FF920F9330
:100380001F93F82E0CEB10E084EAF80180830E94A2
:10039000A501F092BB0084E8F80180830E94A501CA
:1003A0001F910F91FF9008958093BB0084E8809384
:1003B000BC000E94A50108951F93182F882311F4F3
:1003C00084E801C084EC8093BC000E94A501909158
:1003D000BB00112319F484E98093BC00892F1F917D
:1003E00008950F931F93162F042F880F0E94BE01AC
:1003F000812F0E94D401802F0E94D40184E9809330
:10040000BC001F910F9108950F931F93182F062F73
:10041000880F0E94BE01802F0E94D401110F812FEE
:1004200081600E94BE0180E00E94DC011F910F915B
:1004300008951F93CF93DF93EB01142F880F8160F2
:100440000E94BE0108C0115080E011160CF481E03A
:100450000E94DC0189931123B1F7DF91CF911F91A5
:100460000895DF92EF92FF920F931F93E82EF62EDE
:100470008A01D22E880F0E94BE018F2D0E94D401C6
:100480008E2DB8014D2D0E9419021F910F91FF90E2
:10049000EF90DF90089588E66EE340E80E94F10156
:1004A00062E370E080E090E00E94EA0088E66EE39C
:1004B00043E00E94F10140911B014150486188E6F0
:1004C00066E10E94F10188E660E00E94040290E08B
:1004D0008E77883609F491E0892F0895A6E0B0E080
:1004E000E4E7F2E00C94FC178C017B016A0188E6DA
:1004F0006DE1AE014F5F5F4F26E00E9431029981AE
:1005000080E02A8130E0822B932BF8019183808355
:100510009B8180E02C8130E0822B932BF70191832B
:1005200080839D8180E02E8130E0822B932BF60129
:10053000918380832696E8E00C941818282F17C022
:10054000E22FF0E0EE0FFF1FE45CFE4F808191810F
:10055000892B61F080917C00887F822B80937C00C6
:1005600080917A00806480937A0008952F5F26300E
:1005700038F308951F920F920FB60F9211242F9304
:100580003F934F935F936F937F938F939F93AF931B
:10059000BF93EF93FF9380917C008770E82FF0E08A
:1005A000EE0FFF1FE45CFE4F0190F081E02D909173
:1005B000790090838F5F0E949E02FF91EF91BF911F
:1005C000AF919F918F917F916F915F914F913F91EB
:1005D0002F910F900FBE0F901F901895ECE3F1E054
:1005E00040E050E061E070E080819181892B79F0FA
:1005F00087B1DB01042E02C0AA0FBB1F0A94E2F7E9
:100600009D012095822387B988B1282328B94F5F9F
:100610005F4F32964630510539F780E680937C0073
:1006200010927B008FE880937A0080E00E949E0207
:100630000895CF93DF93EB01DA01FC0140E050E035
:1006400061E070E080819181892B79F03881CB0164
:10065000042E02C0880F991F0A94E2F7282F2095D4
:10066000232328832C91822B8C934F5F5F4F3296EC
:100670004830510539F7DF91CF9108958BE792E02B
:1006800064E270E045E250E00E9419038BE892E0DA
:1006900067E270E048E250E00E94190388E491E0CC
:1006A0006AE270E04BE250E00E941903089560E0B6
:1006B00070E040E050E0A1E0B0E0362FFA01E558EC
:1006C000FD4F0190F081E02D309751F023B1CD0125
:1006D000062E02C0880F991F0A94E2F72823208370
:1006E000FA01E557FD4F0190F081E02D309751F070
:1006F00026B1CD01032E02C0880F991F0A94E2F79C
:1007000028232083FA01E85BFE4F0190F081E02D61
:10071000309749F029B1CD0102C0880F991F3A9551
:10072000E2F7282320836F5F7F4F4E5F5F4F40319A
:10073000510519F608951F920F920FB60F921124CA
:100740002F933F934F935F938F939F93EF93FF93D9
:1007500020918600309187008091D3029091D4023D
:10076000A901481B590B569547953093D402209305
:10077000D3029091D5028BE0493B580728F0909323
:10078000D6021092D50226C09830D4F483E04438C3
:10079000580718F444E853E006C088E0453358078A
:1007A00010F044E358E0E92FFF27E7FDF095EE0F46
:1007B000FF1FEC5AFD4F0190F081E02D51834083E3
:1007C0009F5F9093D5028091D602981719F481E02B
:1007D00080939B02FF91EF919F918F915F914F9139
:1007E0003F912F910F900FBE0F901F901895A6E08C
:1007F000B0E0EDEFF3E00C94F2177A8369839E8307
:100800008D832B011C019B012A5F3F4F3C832B836F
:10081000ED81FE810681178180819181081B190B72
:100820003801882477FC8094982CF101828993897F
:10083000A489B589860D971DA81DB91D268D378DF4
:1008400040A151A1AA24BB246501A21AB30AC40A7B
:10085000D50A8A159B05AC05BD054CF05C016D0100
:10086000281739074A075B0714F459016A01F10197
:10087000A28AB38AC48AD58AED81FE818485958552
:10088000AA2797FDA095BA2FA4019301281B390B25
:100890004A0B5B0BCA01B90115870487F201248555
:1008A0003585442737FD4095542F0E9496177B01CC
:1008B0008C0142E015950795F794E7944A95D1F796
:1008C000F20120813181442737FD4095542FC40126
:1008D000B3010E94961733E09595879577956795B4
:1008E0003A95D1F7E60EF71E081F191FF20126816F
:1008F0003781442737FD4095542FC601B5010E942A
:10090000961726E095958795779567952A95D1F75F
:10091000E60EF71E081F191FE981FA81028804C03C
:1009200015950795F794E7940A94D2F7ED81FE8127
:10093000F3A6E2A63296FE83ED8324E030E0220E99
:10094000331E42E050E0440E551E8B819C814816B8
:10095000590609F05DCF2696E2E10C940E18A6E048
:10096000B0E0E5EBF4E00C940218CE010196BE0174
:100970006D5F7F4FAE014B5F5F4F0E946E028B81B8
:100980009C819093EE018093ED0149815A815093AF
:10099000F0014093EF012D813E813093F2012093CD
:1009A000F10180911D0290911E028230910519F093
:1009B0000397D1F40DC03093F0012093EF01882705
:1009C0009927841B950B9093F2018093F1010CC041
:1009D00088279927821B930B9093F0018093EF0156
:1009E0005093F2014093F1012696E2E00C941E1818
:1009F00081E040E85AE166E070E00E948C010E94CC
:100A00004B02882349F485E080936F0288EC90E0E4
:100A1000909376028093750208950F931F93CF935E
:100A2000DF93FC011082772767FD709572836183E5
:100A3000DC01EC0140E050E00FEF1FE760E070E800
:100A40000CC012961C930E9311971A967C936E937A
:100A500019971F86188A198A1A8A9A014F5F5F4F61
:100A600012962496818192812817390754F314A68F
:100A700013A6DF91CF911F910F910895A0E0B0E0F0
:100A8000E4E4F5E00C94FA177C018C01EB01F7012A
:100A900060E070E02BC02181328188819981281724
:100AA00039070CF4C90192838183218532858881BD
:100AB0009981821793070CF4C90192878187299144
:100AC0003991442737FD4095542FD8011F96AD909A
:100AD000BD90CD90DC905297A20EB31EC41ED51EC1
:100AE0001F96AD92BD92CD92DC9252979B016F5FA3
:100AF0007F4F32960C5F1F4FD70111968D919C91BD
:100B00001297281739073CF2CDB7DEB7EAE00C940C
:100B10001618A0E0B0E0EFE8F5E00C94FC17EC014B
:100B20007C0153E2C52ED12CC80ED91E00E010E086
:100B300011C02BA53CA5442737FD4095542FF70144
:100B400067857089818992890E94D717F601219360
:100B500031936F0198010F5F1F4F84E090E0E80E22
:100B6000F91E89819A81281739071CF3CDB7DEB7A2
:100B7000E8E00C941818CF93DF93FC01EB0161813E
:100B80007281A0E040E050E00DC083859485238110
:100B90003481821B930B8C179D070CF4AF5F4F5F62
:100BA0005F4F32964617570784F320E08A2F992724
:100BB00087FD90958617970709F421E0822FDF9132
:100BC000CF910895A8E0B0E0E8EEF5E00C940018AD
:100BD0008C018091B2019091B3019A8389838091B5
:100BE000B6019091B7019C838B838091B80190915D
:100BF000B9019E838D838091B4019091B50198874E
:100C00008F83C801BE016F5F7F4F0E943E05F801D0
:100C100083A594A5019694A783A78436910551F5E1
:100C2000C80164E170E00E94BB058823F9F0C801A7
:100C30000E948905F80183A194A1909314018093E7
:100C4000130185A196A1909316018093150187A1A8
:100C500090A5909318018093170181A592A5909378
:100C60001A018093190181E0808304C0C80164E007
:100C70000E940D052896E4E00C941C18A6E0B0E054
:100C8000E4E4F6E00C9400188C018091ED01909161
:100C9000EE019A8389838091EF019091F0019C830A
:100CA0008B838091F1019091F2019E838D83C80125
:100CB000BE016F5F7F4F0E943E05F80183A594A59A
:100CC000019694A783A78C52914021F5C80162E355
:100CD00070E00E94BB058823C9F0C8010E94890505
:100CE000F80183A194A19093E8018093E70185A185
:100CF00096A19093EA018093E90187A190A5909332
:100D0000EC018093EB0181E0808304C0C80163E0C3
:100D10000E940D052696E4E00C941C182091030116
:100D20003091040180910301909104012817390743
:100D300021F43093B3012093B20120910501309149
:100D4000060180910501909106012817390721F4C9
:100D50003093B7012093B60120910701309108012B
:100D600080910701909108012817390721F43093E9
:100D7000B9012093B80120910B0130910C018091B1
:100D80000B0190910C012817390721F43093BB0116
:100D90002093BA0120910D0130910E0180910D0137
:100DA00090910E012817390721F43093BD0120934B
:100DB000BC0120910F013091100180910F019091A1
:100DC00010012817390721F43093BF012093BE0189
:100DD0002091110130911201809111019091120125
:100DE0002817390721F43093C1012093C001809165
:100DF00052029091530205974CF48091B201909168
:100E0000B3019093B5018093B40108952091090135
:100E100030910A018091090190910A012817390740
:100E200021F43093B5012093B4010895A0E0B0E01F
:100E3000ECE1F7E00C94FC17DC01C0905202D0907A
:100E40005302F6013297E830F10508F0E3C1EC5C9B
:100E5000FF4F6D917C9111970091B2011091B301F8
:100E60000C942918600F711F7093DA016093D901F7
:100E70008D919C9111972091B4013091B501820F11
:100E8000931F9093E0018093DF0112968D919C91C6
:100E900013972091B6013091B701820F931F909361
:100EA000DC018093DB01A8C17801E60EF71EF09209
:100EB000DA01E092D901E091B401F091B501CD9150
:100EC000DC911197CE0FDF1FD093E001C093DF01BB
:100ED0004091C2015091C30144525A4F8D919C914F
:100EE0001197480F591F12966D917C91139780911D
:100EF000B6019091B701680F791FCB01840F951F40
:100F00009C01359527953595279535952795959588
:100F10008795280F391F275731403093DC012093E4
:100F2000DB01461B570BCA0133E0959587953A952F
:100F3000E1F755954795840F951F84529A4F9093EA
:100F4000DE018093DD012091B8013091B90146E0C6
:100F5000C416D10409F060C084E0223E380774F062
:100F600029573540273C310518F082E090E002C057
:100F700081E090E0029709F04DC121C080911901F4
:100F800090911A01800F911F8E1B9F0B20911301CE
:100F900030911401821B930B9595879584529A4F3B
:100FA0009093DA018093D9018C5D95402CED35E06A
:100FB000281B390B3093E0012093DF012BC12091D6
:100FC000020112966D917C911397E091C401F0910A
:100FD000C5016E0F7F1F882777FD8095982F30E021
:100FE00020583040442737FD4095542F0E949617D3
:100FF000A7E09595879577956795AA95D1F7E60E21
:10100000F71EF092DA01E092D901C61BD70BD093FC
:10101000E001C093DF01FEC09093DA018093D90113
:1010200014968D919C911597EFC0600F711F70936E
:10103000DA016093D9018D919C9111972091B401AF
:101040003091B501820F931F9093E0018093DF01EF
:1010500012966D917C9113978091B6019091B70192
:10106000680F791F14964D915C9115978091B80186
:101070009091B901480F591FCA01860F971F9C0113
:10108000F3E035952795FA95E1F795958795280F23
:10109000391F275731403093DC012093DB01461B79
:1010A000570BCA01B3E095958795BA95E1F7559529
:1010B0004795840F951F84529A4FA8C02091130121
:1010C000309114011296CD91DC9113978091C40157
:1010D0009091C501C80FD91F14960D90BC91A02DF9
:1010E0008091C6019091C701A80FB91F8091090195
:1010F00090910A018C54944097FF03C040E050E067
:1011000016C08091090190910A018C5494409595E4
:101110008795855F91401CF044EF51E008C04091F5
:10112000090150910A014C54544055954795F801D6
:10113000E452FA4FE21BF30BE60FF71FBE016E0FEE
:101140007F1F9A012A1B3B0B37FF02C020E030E0D3
:10115000CB01821B930B9093DA018093D901260F68
:10116000371F3093DC012093DB01BF016C1B7D0B2B
:101170009A012A0F3B1F37FF02C020E030E0C9016F
:10118000860F971F9093E0018093DF01621B730B22
:101190007093DE016093DD013DC0600F711F70939D
:1011A000DA016093D9018D919C9111972091B4013E
:1011B0003091B501820F931F9093E0018093DF017E
:1011C00012968D919C9113972091B6013091B701A1
:1011D000820F931F9093DC018093DB018091C0010B
:1011E0009091C10112962D913C911397821B930B04
:1011F0009093E4018093E30114968D919C9115974F
:101200002091B8013091B901820F931F9093DE01B4
:101210008093DD018091BE019091BF019093E20126
:101220008093E10189E0C816D10441F08091C001AA
:101230009091C1019093E4018093E3018091BC01FE
:101240009091BD019093E6018093E501CDB7DEB7A3
:10125000E8E00C941818AAE0B0E0E1E3F9E00C949F
:10126000001880911002909111020397A9F5FE01D8
:1012700031968AE0DF011D928A95E9F7CF010E943D
:101280001607A7EAB1E009EF11E043E052E06D91E3
:101290007C911197F80120813181FB01808191813E
:1012A000281739070CF4C901F80191838083FA01EA
:1012B00020813181FB0180819181821793070CF499
:1012C000C901FA0181939193AF0112960E5F1F4FEE
:1012D000F1E0A13BBF07D9F683EF91E00E9416072A
:1012E0008091520290915302099711F074E001C06D
:1012F00075E060E080E090E0FC01E955FE4FA081E0
:10130000B1814D915C911197FC01E750FE4F019026
:10131000F081E02D4E175F0754F0FC01ED5FFD4FAB
:1013200020813181FA01241735070CF4F901ED937E
:10133000FC936F5F02966717FCF22A96E4E00C9428
:101340001C1880919D02882309F050C081E0809391
:101350009D028FEF80939C022FB7F8948091D90162
:101360009091DA019093CC018093CB018091DB01C5
:101370009091DC019093CE018093CD018091DD01AD
:101380009091DE019093D0018093CF018091DF0195
:101390009091E0019093D2018093D1018091E1017D
:1013A0009091E2019093D4018093D3018091E30165
:1013B0009091E4019093D6018093D5018091E5014D
:1013C0009091E6019093D8018093D70180916F00AE
:1013D000826080936F00B19A809184009091850023
:1013E000049690938900809388002FBF0895FC0194
:1013F00081E08183808385E0828316821582108656
:10140000178208959C0144E0813B940714F490E016
:101410000DC0845195408159914010F491E006C06F
:101420002850374014F49FEF06C092E0662319F06D
:1014300082E0891B982F892F0895CF93DF93EC01C9
:101440008A818B838091B2019091B3016D810E945A
:10145000020A87FF88838091B6019091B7016E815F
:101460000E94020A87FF89838F81882351F4888133
:10147000882329F0823029F481E08D83188281E06D
:101480008F838885882361F48981882319F08230CD
:1014900039F404C081E08E8382E0898381E088870B
:1014A00038813F5F898123E08202C0011124380F17
:1014B0003A839B8180E0391729F081E09295907FF3
:1014C000932B9C83DF91CF910895282F30E03F6FBD
:1014D000220F331FEFB7F89480918400909185001C
:1014E000AC01405C5F4FBC016D5D7A4F8091840020
:1014F00090918500DA01A81BB90B1A161B06B4F3EC
:1015000020FF02C0579801C0579A4617570729F085
:101510003695279545575F4FE9CFEFBF0895EFB751
:10152000F8944F9B49C016C02091840030918500EB
:101530002058314C04C08FEF9FEF4F9B0BC0809120
:10154000840090918500B901681B790B1616170667
:1015500014F4F1CFAC0141505040CA010196181665
:10156000190614F34F5F5F4F19F420E030E826C0EE
:101570008091840090918500AC0140565F4F20E03F
:1015800030E0BC0163597B4F8091840090918500CD
:10159000DA01A81BB90B1A161B06B4F389B13695EC
:1015A000279590E080789070282B392B46175707A5
:1015B00029F045575F4FE8CF20E030E4EFBFC90185
:1015C0000895EF92FF920F931F93CF93DF93E82E2E
:1015D000192F062FF62E84E20E94650A802F0E94A2
:1015E000650A2E2D312FC901EC0104C08991F80E36
:1015F0000E94650A9E012E192017C4F38F2D819534
:101600000E94650ACDB7DEB7E6E00C941A188F92F7
:101610009F92AF92BF92CF92DF92FF920F931F9350
:10162000CF93DF934C015A01C0E0D0E0C62EDD24F9
:10163000C7FCD09402C0812F182FC5010E948F0AC9
:101640009C018070907C892B69F5822FC130D10577
:1016500059F0C230D105A1F0209779F7243259F71B
:10166000812FC1E0D0E0E8CF90E0C816D90614F48D
:10167000812F15C0822FF22EC2E0D0E000E0DCCF37
:10168000F20E812F8150112331F0F401E00FF11D92
:1016900020830F5FD1CFFF2011F481E004C0C0E0B0
:1016A000D0E0CACF80E0DF91CF911F910F91FF90E2
:1016B000DF90CF90BF90AF909F908F9008951F9331
:1016C000CF93DF93EC01142F45E450E00E942F18D4
:1016D0008881811711F08FEF12C090E020E030E098
:1016E000FE01E20FF31F8081980F2F5F3F4F2534DB
:1016F0003105B1F7992311F480E001C08EEFDF913D
:10170000CF911F910895DC0190E020E030E0FD01D1
:10171000E20FF31F8081980F2F5F3F4F2434310574
:10172000B1F7AC5BBF4F91959C93A454B040CD01F1
:1017300045E450E00E943F180895A1E1B0E0E3EADB
:10174000FBE00C94F2171C0181E089838EE092E0AB
:101750009B838A8302969D838C830D969F838E83C1
:1017600002969987888702969B878A8702969D872B
:101770008C8702969F878E87CE010196998B888BE6
:10178000D0900E02DD0CCC246624EE24FF248701C9
:10179000F0E88F2EFAE19F2EF6E0AF2EB12CE2E0BA
:1017A0007E2E2C010E94AA009B01AC01DC01CB0122
:1017B0008E199F09A00BB10B88169906AA06BB06C5
:1017C0000CF051C0171424F5872D992787FD9095AB
:1017D000FC01E170F07080FD03C088E097E002C07A
:1017E0008CED95E09093DC018093DB018CED95E02E
:1017F0009093DA018093D901EE0FFF1FEE0FFF1FC8
:10180000E157FE4F80809180A280B3807A9429C0F6
:10181000DD2039F11D1424F46CE271E0A1E003C075
:1018200064ED7EEFAFEF8D2D992787FD9095FC013C
:10183000E170F07080FF03C08CED95E003C0CB0138
:1018400084529A4F9093DA018093D901EE0FFF1FD3
:10185000EE0FFF1FE157FE4F80809180A280B38082
:10186000DA1A79018A0180919B02882329F010926B
:101870009B020E948E0602C0662041F080919D026C
:10188000882309F08CC00E94A1096624772009F002
:1018900089CFC1010E941D0A882309F483CFF10179
:1018A0008481843561F0853520F4823509F063C088
:1018B00013C0863559F0883509F05DC02AC0F1E0C3
:1018C000FC1514F0CC2470C0CA946EC085E08C1551
:1018D0000CF468C0C39468C0AC2DBB27A7FDB095BD
:1018E000FD01EE0FFF1FE40DF51D0180F281E02DDB
:1018F0008081282F332727FD30952F5F3F4FA95632
:10190000BE4F8C91992787FD909582179307F4F429
:101910001CC0AC2DBB27A7FDB095FD01EE0FFF1F2E
:10192000E40DF51D0180F281E02D8081282F332701
:1019300027FD309521503040A156BE4F8C919927FC
:1019400087FD9095281739070CF49C01208320E02F
:101950008C2D992787FD9095FC01EE0FFF1FE40D5C
:10196000F51D0180F281E02DD080DD0C222319F0DD
:101970000196782E770C8981823009F013CF8DE0A3
:1019800092E060E070E00E94830B8DE092E060E006
:1019900071E00E94830B6196E2E10C940E186624BC
:1019A000639474CFA7E0CA2E21E0D2CFA1E9B0E0C2
:1019B000ECEDFCE00C94F2170E94AA001B012C0134
:1019C000DE011196E1E7F1E086E001900D92815091
:1019D000E1F78E010D5E1F4FC8010E94F7099CE1DF
:1019E000E92EF12CEC0EFD1EC70164E00E940D05EE
:1019F00089E4C82ED12CCC0EDD1EC60163E00E9406
:101A00000D052092CF023092D0024092D102509226
:101A1000D202C657DF4F288239824A825B82CA5877
:101A2000D040CA57DF4F288239824A825B82C6582B
:101A3000D040CE57DF4F288239824A825B82C2581B
:101A4000D040C258DF4F288239824A825B82CE570B
:101A5000D040EB962CAE3DAE4EAE5FAEEB97420162
:101A60003101ED961FAEED9721E0EC962FAFEC978C
:101A7000EE961FAEEE97C257DF4FE882CE58D040A9
:101A8000C157DF4FF882CF58D040C057DF4F08838F
:101A9000C059D040CF56DF4F1883C159D0400E9463
:101AA000AA005B016C010E941F0180919B028823A8
:101AB000A1F4D601C501C657DF4F488159816A811B
:101AC0007B81CA58D040841B950BA60BB70B815362
:101AD0009547A040B0400CF442C010929B020E9477
:101AE0008E068C8D882369F0C657DF4FA882B98295
:101AF000CA82DB82CA58D04061E0EE966FAFEE97A3
:101B00002EC0C257DF4F8881CE58D040C157DF4F1B
:101B10009881CF58D0400E94E2052A968FAD2A972F
:101B2000882311F492E001C090E020E08C8D88239E
:101B300009F421E0920F90936E0288EC90E090936C
:101B4000740280937302C657DF4FA882B982CA829B
:101B5000DB82CA58D04091E0EE969FAFEE9780911D
:101B60009D02882379F5EE96AFADEE97AA2351F149
:101B7000A6019501CA57DF4F688179818A819B81CF
:101B8000C658D040261B370B480B590B8091660274
:101B900090916702A0916802B09169028217930741
:101BA000A407B5077CF40E942B090E94A109CA571B
:101BB000DF4FA882B982CA82DB82C658D040EE9637
:101BC0001FAEEE97D601C501CE57DF4F2881398170
:101BD0004A815B81C258D040821B930BA40BB50B8A
:101BE00081519742A040B04054F10E94AF042A9620
:101BF0008FAD2A978823D9F4CE01875B9F4F0E942F
:101C00003E062A968FAD2A97882311F492E001C0F0
:101C100090E020E08C8D882309F421E0920F9093CE
:101C20006E0248EC50E05093740240937302CE571A
:101C3000DF4FA882B982CA82DB82C258D040EC96BC
:101C40005FADEC97552309F456C0C057DF4F88812C
:101C5000C059D040CF56DF4F9881C159D0400E9423
:101C60001D0A882309F447C0ED966FADED97E62F66
:101C7000FF27E7FDF095E859FE4F9F89808198176F
:101C800021F0ED961FAEED9707C0ED967FADED9775
:101C90007F5FED967FAFED97ED968FADED97E82FD7
:101CA000FF27E7FDF095E859FE4F80818F3F81F4D3
:101CB000CE0143960E949D0B2EE088E190E00FB686
:101CC000F894A895809360000FBE20936000FFCF2A
:101CD000D601C50182199309A409B509815C914E09
:101CE000A44EB04024F0EC961FAEEC9704C0F1E097
:101CF000EC96FFAFEC978C8D882329F02A968FAD58
:101D00002A978823C9F58091B4019091B50120915B
:101D1000B2013091B301820F931F209119013091CC
:101D20001A01821B930B2091130130911401821B25
:101D3000930B959587959093C3018093C2018091F1
:101D4000B6019091B7012091150130911601821BC7
:101D5000930B9093C5018093C4018091B801909139
:101D6000B9012091170130911801821B930B9093B8
:101D7000C7018093C60193CED601C5018619970984
:101D8000A809B90981519742A040B0400CF41EC384
:101D900080916402909165028130910559F480919F
:101DA000BA019091BB01865F95400CF09BC080E02A
:101DB00090E00DC0892B09F095C08091BA019091F7
:101DC000BB01875296400CF48DC081E090E0909367
:101DD000650280936402892B11F084E001C080E0E9
:101DE00080936E0268EC70E07093740260937302EB
:101DF0001092B0021092B1021092B2021092B3028D
:101E00001092BC021092BD021092BE021092BF024C
:101E10001092B4021092B5021092B6021092B7025C
:101E20001092C0021092C1021092C2021092C3021C
:101E30001092B8021092B9021092BA021092BB022C
:101E40001092C4021092C5021092C6021092C702EC
:101E50008091250290912602029709F043C0D60195
:101E6000C501EB962CAD3DAD4EAD5FADEB97821B42
:101E7000930BA40BB50B8152914AA740B0401CF0C4
:101E8000E7961FAEE797E7964FADE7974F5FE79668
:101E90004FAFE797433004F18091B2019091B301C5
:101EA00090931401809313018091B6019091B70132
:101EB00090931601809315018091B8019091B9011A
:101EC00090931801809317018091B4019091B5010E
:101ED00090931A0180931901EB96ACAEBDAECEAED5
:101EE000DFAEEB972091B4013091B5018091B20142
:101EF0009091B301280F391F8091190190911A0117
:101F0000281B390B8091130190911401281B390B68
:101F1000359527953093C3012093C2014091B601B6
:101F20005091B7018091150190911601481B590BF2
:101F30005093C5014093C401E091B801F091B901FB
:101F40008091170190911801E81BF90BF093C701DC
:101F5000E093C60180911F028150682F772767FDAB
:101F60007095C90137FF04C088279927821B930BFE
:101F7000062E02C0880F991F0A94E2F7A1E081396A
:101F80009A0714F080E991E0A0E9B1E0A81BB90B31
:101F9000B887AF83CA0157FF04C088279927841BDD
:101FA000950B062E02C0880F991F0A94E2F7B1E044
:101FB00081399B0714F080E991E0A0E9B1E0A81B0A
:101FC000B90BBA87A987CF01F7FF04C088279927E3
:101FD0008E1B9F0BDC0102C0AA0FBB1F6A95E2F7A4
:101FE000BD01B1E061397B0714F060E971E0A0E95F
:101FF0006A2EA1E07A2E661A770A7C866B8680911B
:10200000BA019091BB0165E0833C96074CF403EC68
:1020100015E0081B190B71E00139170794F00BC08C
:10202000A6E088329A071CF400E010E00AC0B7E08E
:1020300086389B071CF000E911E003C08C01055FA6
:102040001540809064029090650261E086169104CC
:1020500059F08114910409F04FC0809123029091AE
:102060002402029709F048C080912102082E02C084
:10207000220F331F0A94E2F73E872D87082E02C0F5
:10208000440F551F0A94E2F7588B4F87AF0102C0E7
:10209000440F551F8A95E2F75A8B498B89819A81A3
:1020A00097FD05C088279927821B930B01C0C901A2
:1020B00090939F0280939E028B819C812F8538890B
:1020C00097FD05C088279927821B930B01C0C90182
:1020D0009093A1028093A0028D819E8197FD03C001
:1020E000509541955F4F5093A3024093A20271E037
:1020F0008716910471F055C010929F0210929E02B3
:102100001092A1021092A0021092A3021092A202B9
:1021100048C06F817885882777FD8095982F24EFB8
:102120003FEB40E050E00E949617F9E095958795C7
:1021300077956795FA95D1F76093BC027093BD02CD
:102140008093BE029093BF0269857A85882777FDC8
:102150008095982F0E949617E9E095958795779539
:102160006795EA95D1F76093C0027093C10280939E
:10217000C2029093C302B301882777FD8095982F00
:102180000E94961739E095958795779567953A95CA
:10219000D1F76093C4027093C5028093C6029093F6
:1021A000C7022091ED013091EE018091E7019091FD
:1021B000E801281B390B80E22030380714F02FEF9C
:1021C0003FE1C901A0EE20303A0714F480E090EE20
:1021D0009093A5028093A4022091EF013091F00129
:1021E0008091E9019091EA01281B390BB0E220307F
:1021F0003B0714F02FEF3FE1C901E0EE20303E072E
:1022000014F480E090EE9093A7028093A6022091B0
:10221000F1013091F2018091EB019091EC01281BCA
:10222000390BF0E220303F0714F02FEF3FE1C901F6
:1022300020EE8030920714F480E090EE9093A90293
:102240008093A802892819F06DE372E002C06AE267
:1022500072E08EE992E00E94F703EE24FF24380139
:10226000882477FC8094982C87010D501E4FE1E064
:10227000F0E0EC0FFD1FEE0DFF1D608171818827DE
:1022800077FD8095982FF701E256FD4F22A533A5E3
:10229000442737FD4095542F0E94961727E09595C7
:1022A0008795779567952A95D1F7E7E0F0E0EC0FF1
:1022B000FD1FEE0DFF1D20813181442737FD409524
:1022C000542F0E9496179B01AC01B9E05595479594
:1022D00037952795BA95D1F7C401B3010E94961797
:1022E000A9E09595879577956795AA95D1F7D80137
:1022F0006D937C93E2E0F0E0EE0EFF1EF6E0EF1649
:10230000F10409F0B1CF2091CE0212160CF05CC09E
:102310008091CF029091D002A091D102B091D202CF
:10232000B601A501481B590B6A0B7B0BDB01CA01E7
:1023300081549D40A340B0405CF021502093CE02D8
:10234000A092CF02B092D002C092D102D092D2021B
:102350008091CE02992787FD90954091F30150918D
:10236000F401BC016170707080FF03C026E930E0A9
:1023700002C02AE63FEF240F351F3093F40120936B
:10238000F3014091F5015091F6016115710519F0C5
:1023900026E930E002C02AE63FEF240F351F3093D4
:1023A000F6012093F5012091F7013091F801672B98
:1023B00019F48AE69FEF02C086E990E0820F931F2E
:1023C0009093F8018093F70135014601D601C501CC
:1023D000C258DF4F288139814A815B81CE57D04076
:1023E000821B930BA40BB50B8C59914AA740B040AC
:1023F0000CF455CB80912702803839F4809100018C
:10240000282F30E02058304004C0282F332727FDE4
:10241000309580912802803839F480910101482F4D
:1024200050E04058504004C0482F552747FD509574
:1024300080912902803831F48091020190E0805827
:10244000904003C0992787FD90953A8329835C8348
:102450004B839E838D83295F3F4F2F30310510F4CE
:102460001A8219828B819C8107960F9710F41C8227
:102470001B828D819E8107960F9710F41E821D820C
:1024800080E00E949E02C258DF4FA882B982CA82B1
:10249000DB82CE57D04003CBA6E6B0E0E2E5F2E126
:1024A0000C94FC171092800081E080938100579873
:1024B0005F9848E552E000E06E010894C11CD11C11
:1024C00022E0E22EF12CEC0EFD1EC60166E60E9413
:1024D000070B882309F441C089818230A9F0833039
:1024E00018F4813029F406C08330B1F08430E9F06B
:1024F00010E026C0C70160E870E048E050E00E94AC
:102500002F1810E069E01DC0C70160E870E048E0E6
:1025100050E00E943F1813C0C70160E070E04BE03C
:102520000E945F0B10E066E40CC0C70160E070E041
:102530000E94830BC70160E071E00E94830B11E0F1
:1025400061E0898180688983C6010E94E10A01E017
:1025500044EF51E0112309F4B8CF802FCA59DF4F5F
:10256000E8E00C941818CF93DF93C0E0D0E0FE01B0
:10257000E85AFE4F808187FD04C0808161E00E949F
:10258000F7162196C830D10591F7DF91CF910895C4
:102590001F920F920FB60F9211240F931F932F9338
:1025A0003F934F935F936F937F938F939F93AF93DB
:1025B000BF93EF93FF9380919C0287FD42C0E0910F
:1025C0009C02FF27E7FDF095E85AFE4F808160E00E
:1025D0000E94631736C080919C028F5F80939C029B
:1025E000E0919C02FF27E7FDF095E85AFE4F8081BD
:1025F00087FD27C00091840010918500E0919C0226
:10260000FF27E7FDF095E85AFE4F808161E00E94C8
:102610006317E0919C02FF27E7FDF095EE0FFF1F87
:10262000E45DFE4F0190F081E02D80819181029761
:10263000880F991F800F911F9093890080938800C5
:102640000BC080919C02873034F210929D028091E1
:102650006F008D7F80936F00FF91EF91BF91AF91DD
:102660009F918F917F916F915F914F913F912F91AA
:102670001F910F910F900FBE0F901F901895A0E023
:10268000B0E0E5E4F3E10C94FC17182F062F862F39
:1026900061E00E94F716812F60E00E94F716812FFB
:1026A00061E00E9463176AE070E080E090E00E94C1
:1026B000EA00C0E0D0E0812F992787FD9095FC01CA
:1026C000EA56FF4FE491F0E0EE0FFF1FE457FF4F93
:1026D000C590D49086559F4FFC018491E82EFF242D
:1026E000CE018170182F802F612F0E946317F60191
:1026F000808120E030E090E08E219F21892B11F035
:1027000021E030E0812F992787FD90952817390720
:1027100011F010E005C02196C830D10509F711E08D
:10272000802F60E00E94F716812FCDB7DEB7E8E07A
:102730000C941818A4E9B0E0E0EAF3E10C94FC175B
:10274000259A8091E6029091E702009711F09C0192
:1027500002C02AEE32E0CE010196821B930B803834
:1027600091054CF484E180936F028EE190E09093A8
:1027700076028093750284B7877F84BF88E10FB6A5
:10278000F89480936000109260000FBE21E030E06A
:1027900030930F0220930E0280E8809327028093EB
:1027A000280280932902309311022093100287E0BF
:1027B0008093500210921202E7E7F1E0A3E1CA2EE3
:1027C000A2E0DA2ED60181918D9321E0EF37F20756
:1027D000D1F742E050E050931C0240931B0221E0ED
:1027E00030E030931E0220931D023093200220938C
:1027F0001F0283E090E090932202809321023093A5
:10280000240220932302509326024093250284EF52
:1028100091E090932B0280932A0210923102109241
:102820003002909337028093360290932D0280936A
:102830002C0210923302109232029093390280934C
:10284000380290932F0280932E021092350210923C
:10285000340290933B0280933A0228E020933C029A
:1028600090933E0280933D029093440280934302F2
:1028700090934A02809349029093400280933F02D2
:10288000909346028093450290934C0280934B02B2
:1028900090934202809341029093480280934702B2
:1028A00090934E0280934D0220934F0285E064E0A6
:1028B0000E943F13882311F400E001C007E0CE011D
:1028C000039660E870E048E050E00E942F18002373
:1028D00061F48B81813049F48C819D81AE81BF810F
:1028E0008E549146AC4BB04071F081E08B838EE406
:1028F00091E6ACEBB0E08C839D83AE83BF831886FA
:1029000019861A860860CE010B9660E070E04BE0F5
:102910000E945F0B87FD0260CE01805B9F4F60E0ED
:1029200071E04BE00E945F0B87FD046083E08093C1
:10293000CE02E02EFF24C701867090708230910590
:1029400031F08430910579F0892B81F119C08E0125
:10295000005B1F4FC80160E070E00E94830B888518
:102960008F5F88870BC08E01055F1F4FC80160E035
:1029700071E00E94830B89858F5F8987C80118C029
:102980008BE080930D028DE092E060E070E00E94A9
:10299000830B8DE092E060E071E00E94830B8A85FA
:1029A0008F5F8A8789E08093CE020AC0CE010B96A2
:1029B000ADE0B2E0FC0185E401900D928150E1F7B9
:1029C000C7018E709070892B41F0CE01039660E8AC
:1029D00070E048E050E00E943F18E0FE0AC082E04C
:1029E0000E94120164E670E080E090E00E94981678
:1029F000F6CF0E944C12882361F02EE088E190E02F
:102A00000FB6F894A895809360000FBE20936000E5
:102A1000FFCF1092800082E08093810081E080935C
:102A20006F0085B5887F85BD80911002909111025D
:102A30008230910519F18330910524F4019709F052
:102A40005BC007C08330910571F1049709F054C051
:102A50003FC080E090E048EE53E020ED37E0FC011D
:102A6000E750FE4F51834083FC01ED5FFD4F318302
:102A7000208302968A30910591F73EC080E090E075
:102A80004CE454E02CE637E0FC01E750FE4F518364
:102A90004083FC01ED5FFD4F3183208302968A3035
:102AA000910591F729C080E090E042EE54E026EDD8
:102AB00036E0FC01E750FE4F51834083FC01ED5F9F
:102AC000FD4F3183208302968A30910591F714C01F
:102AD00080E090E044E853E024E338E0FC01E75074
:102AE000FE4F51834083FC01ED5FFD4F3183208316
:102AF00002968A30910591F780911202992787FDFD
:102B0000909528EE33E0FC01E29FC001E39F900D19
:102B1000F29F900D1124AA2797FDA095BA2F8093BC
:102B2000660290936702A0936802B0936902809155
:102B30005002877080931B01A4E5B2E0F6018191F9
:102B40006F01E82FFF27E7FDF095EE0FFF1FE45E12
:102B5000FE4F808191818D939D93FBE1CF16F2E032
:102B6000DF0661F720E030E0F901E05AFE4F808196
:102B7000F901E85AFE4F80832F5F3F4F283031051F
:102B800099F70E943E030E94570380910E02909194
:102B90000F0290935302809352020197E9F48091BF
:102BA000CA01882319F4E2E0F0E002C0E0E0F0E0BE
:102BB00020E030E08091C901882311F421E030E069
:102BC000E22BF32BEE0FFF1FE158FE4F8081918126
:102BD000909353028093520280915202909153023B
:102BE000019731F482E090E0909353028093520277
:102BF0008091520280936D0288E592E09093720278
:102C0000809371020E94EE0280916F008062809337
:102C10006F00809181008068809381000E94B312D0
:102C20000E94F8040E948E060E942B09CC56DF4FAA
:102C3000E8E00C941818CF93DF930E94BC160E9412
:102C40009A13C0E0D0E00E94D60C2097E1F30E94D6
:102C50000000F9CF1F920F920FB60F9211242F93FD
:102C60003F938F939F93AF93BF938091E102909195
:102C7000E202A091E302B091E4023091E5020196F4
:102C8000A11DB11D232F2D5F2D3720F02D5701964B
:102C9000A11DB11D2093E5028093E1029093E20211
:102CA000A093E302B093E4028091DD029091DE02F2
:102CB000A091DF02B091E0020196A11DB11D8093A9
:102CC000DD029093DE02A093DF02B093E002BF9199
:102CD000AF919F918F913F912F910F900FBE0F90C9
:102CE0001F9018959FB7F8942091DD023091DE0275
:102CF0004091DF025091E00286B5A89B06C08F3F4D
:102D000021F02F5F3F4F4F4F5F4F9FBF542F432FF7
:102D1000322F2227280F311D411D511D82E0220F25
:102D2000331F441F551F8A95D1F7B901CA01089571
:102D3000EF92FF920F931F93CF93DF937B018C0150
:102D40000E947216EB010EC00E9472166C1B7D0B66
:102D5000685E7340C8F30894E108F108010911099D
:102D6000C851DC4FE114F1040105110569F7CDB735
:102D7000DEB7E6E00C941A18789484B5826084BDBE
:102D800084B5816084BD85B5826085BD85B581606F
:102D900085BDEEE6F0E0808181608083E1E8F0E0CF
:102DA0001082808182608083808181608083E0E8FE
:102DB000F0E0808181608083E1EBF0E080818460DD
:102DC0008083E0EBF0E0808181608083EAE7F0E0DF
:102DD0008081846080838081826080838081816043
:102DE00080838081806880831092C1000895CF9392
:102DF000DF93482F50E0CA0186559F4FFC01349164
:102E00004A565F4FFA018491882369F190E0880F58
:102E1000991FFC01E858FF4FA591B491FC01EE57B2
:102E2000FF4FC591D491662351F42FB7F8948C913C
:102E3000932F909589238C93888189230BC06230CE
:102E400061F42FB7F8948C91932F909589238C93EC
:102E50008881832B88832FBF06C09FB7F8948C91FD
:102E6000832B8C939FBFDF91CF910895833071F0B6
:102E7000843028F48130A1F0823021F514C08630EE
:102E8000B1F08730D1F08430E9F404C08091800043
:102E90008F7703C0809180008F7D8093800008959C
:102EA00084B58F7702C084B58F7D84BD08958091ED
:102EB000B0008F778093B00008958091B0008F7D2F
:102EC0008093B0000895FF920F931F93F62E482F22
:102ED00050E0CA0182549F4FFC012491CA018655DB
:102EE0009F4FFC0114914A565F4FFA010491002351
:102EF000C9F0222319F0822F0E943617E02FF0E04C
:102F0000EE0FFF1FEE57FF4FA591B4919FB7F894B6
:102F1000FF2021F48C911095812302C08C91812B8C
:102F20008C939FBF1F910F91FF900895629FD001D6
:102F3000739FF001829FE00DF11D649FE00DF11D74
:102F4000929FF00D839FF00D749FF00D659FF00D23
:102F50009927729FB00DE11DF91F639FB00DE11D10
:102F6000F91FBD01CF0111240895A1E21A2EAA1B59
:102F7000BB1BFD010DC0AA1FBB1FEE1FFF1FA21729
:102F8000B307E407F50720F0A21BB30BE40BF50B26
:102F9000661F771F881F991F1A9469F760957095AF
:102FA000809590959B01AC01BD01CF01089597FBE1
:102FB000092E05260ED057FD04D0D7DF0AD0001CFD
:102FC00038F450954095309521953F4F4F4F5F4FC6
:102FD0000895F6F790958095709561957F4F8F4F86
:102FE0009F4F08952F923F924F925F926F927F92E0
:102FF0008F929F92AF92BF92CF92DF92EF92FF9209
:103000000F931F93CF93DF93CDB7DEB7CA1BDB0BB4
:103010000FB6F894DEBF0FBECDBF09942A88398859
:1030200048885F846E847D848C849B84AA84B98460
:10303000C884DF80EE80FD800C811B81AA81B9816C
:10304000CE0FD11D0FB6F894DEBF0FBECDBFED0180
:103050000895EE0FFF1F0590F491E02D0994DC0117
:10306000CB01FC01F999FECF06C0F2BDE1BDF89A93
:10307000319600B40D9241505040B8F70895DC01EC
:10308000CB0103C02D910E944A1841505040D0F707
:103090000895262FF999FECF1FBA92BD81BD20BD9C
:1030A0000FB6F894FA9AF99A0FBE01960895F8941B
:0230B000FFCF50
:1030B200FFFFFFDC05DC05DC05DC05E803DC05E8D9
:1030C20003DC05DC05DC05DC05DC05060701050182
:1030D2000F0103010B0109010D011101CB01D10106
:1030E200CD01D501CF01D301D701000000010101BB
:1030F20002010000000000000000C801C901CA016D
:1031020000000000000000000407050906FFFFFFA1
:1031120004070509060AFFFF788998877889988746
:10312200FF00000000000000010203040506070280
:10313200000300040005000800060007000200A0CA
:10314200860100801A06000503030304020202013D
:1031520001010101010101D901DB01DD01DF01E30F
:0231620001006A
:00000001FF
