:100000000C946A000C9492000C9492000C94920050
:100010000C9492000C9492000C9492000C94920018
:100020000C9492000C9492000C9492000C942B145B
:100030000C9492000C9494000C9492000C949200F6
:100040000C9499190C9492000C9456170C94A417C4
:100050000C9492000C94CA020C9492000C9492009E
:100060000C9492000C949200E9060B07CC07E90669
:100070000B07CC07150884080000000024002700A7
:100080002A0000000000250028002B0000000000CE
:1000900023002600290004040404040404040202CA
:1000A00002020202030303030303010204081020F7
:1000B0004080010204081020010204081020000002
:1000C0000007000201000003040600000000000019
:1000D0000000101911241FBECFEFD8E0DEBFCDBF46
:1000E00011E0A0E0B1E0E0E9F7E302C005900D9275
:1000F000A83AB107D9F713E0A8EAB1E001C01D9210
:10010000AE3BB107E1F710E0C4EDD0E004C02297A8
:10011000FE010E949A1BC23DD107C9F70E946619D1
:100120000C94C61B0C9400001F920F920FB60F92F6
:1001300011248F939F9380915E0290915F020196AC
:1001400090935F0280935E0280915E0290915F02C5
:10015000892B29F4809160028F5F809360029F91C8
:100160008F910F900FBE0F901F9018956091840093
:100170007091850020915E0230915F02E0916002F3
:1001800080918400909185008627972797FDEECF78
:1001900080915E0290915F022817390739F78091AC
:1001A0006002E81719F740E050E0FFE0220F331F2C
:1001B000441F551FFA95D1F78E2F90E0A0E0B0E0D4
:1001C000BB278695B795AA2799278827282B392BEF
:1001D0004A2B5B2B76956795CB01A0E0B0E0282BEE
:1001E000392B4A2B5B2BB901CA010895AF92BF92FC
:1001F000CF92DF92EF92FF920F931F9328EE33E09E
:1002000040E050E00E94051B5B016C010E94B600BB
:100210007B018C010E94B6006E197F09800B910B47
:100220006A157B058C059D05A8F31F910F91FF9022
:10023000EF90DF90CF90BF90AF900895882321F08A
:10024000813021F42D9A08952D98089585B190E27A
:10025000892785B90895EF92FF920F931F937B0131
:100260008C018091010390910203A0910303B0914E
:1002700004038E199F09A00BB10B181619061A0654
:100280001B060CF450C080910503882321F5E091F2
:100290000603EF5FE370E0930603FF27E7FDF095A9
:1002A000EF59FD4F8081992787FD9095880F991F01
:1002B0008093050380E492E4AFE0B0E0E80EF91E1D
:1002C0000A1F1B1FE0920103F09202030093030335
:1002D0001093040328C081508093050381700E940D
:1002E0001E01E0910603FF27E7FDF095EE0FFF1FCB
:1002F000EB59FD4F80819181AA2797FDA095BA2FD8
:100300002AE0880F991FAA1FBB1F2A95D1F78E0DCF
:100310009F1DA01FB11F8093010390930203A09320
:100320000303B09304031F910F91FF90EF90089582
:100330009A01AB01882311F0459A449A1092B900B2
:1003400060E074E284EF90E00E94241B2051304072
:100350004040504056954795379527952093B800D3
:1003600008952FEF30E011C02115310561F410928E
:10037000BC0080916D0290916E02019690936E0286
:1003800080936D020895215030408091BC0087FF1A
:10039000EBCF0895FF920F931F93F82E0CEB10E014
:1003A00084EAF80180830E94B101F092BB0084E8E6
:1003B000F80180830E94B1011F910F91FF90089571
:1003C0008093BB0084E88093BC000E94B101089533
:1003D0001F93182F882311F484E801C084EC8093C4
:1003E000BC000E94B1019091BB00112319F484E973
:1003F0008093BC00892F1F9108950F931F93162F90
:10040000042F880F0E94CA01812F0E94E001802FD3
:100410000E94E00184E98093BC001F910F91089530
:100420000F931F93182F062F880F0E94CA01802F49
:100430000E94E001110F812F81600E94CA0180E0BB
:100440000E94E8011F910F9108951F93CF93DF93AE
:10045000EB01142F880F81600E94CA0108C011505F
:1004600080E011160CF481E00E94E80189931123C9
:10047000B1F7DF91CF911F910895DF92EF92FF9234
:100480000F931F93E82EF62E8A01D22E880F0E941A
:10049000CA018F2D0E94E0018E2DB8014D2D0E94C2
:1004A00025021F910F91FF90EF90DF90089588E64D
:1004B0006BE640E80E94FD0162E370E080E090E0BE
:1004C0000E94F60088E66BE643E00E94FD01409141
:1004D0001B01415088E66AE10E94FD0188E66BE15C
:1004E00048E10E94FD0188E665E70E94100290E065
:1004F0008E77883609F491E0892F0895A6E0B0E060
:10050000E4E8F2E00C946B1B8C017B016A0188E645
:1005100063E4AE014F5F5F4F26E00E943D02998188
:1005200080E02A8130E0822B932BF8019183808335
:100530009B8180E02C8130E0822B932BF70191830B
:1005400080839D8180E02E8130E0822B932BF60109
:10055000918380832696E8E00C94871B282F17C090
:10056000E22FF0E0EE0FFF1FE159FD4F80819181F6
:10057000892B61F080917C00887F822B80937C00A6
:1005800080917A00806480937A0008952F5F2630EE
:1005900038F308951F920F920FB60F9211242F93E4
:1005A0003F934F935F936F937F938F939F93AF93FB
:1005B000BF93EF93FF9380917C008770E82FF0E06A
:1005C000EE0FFF1FE159FD4F0190F081E02D90915A
:1005D000790090838F5F0E94AE02FF91EF91BF91EF
:1005E000AF919F918F917F916F915F914F913F91CB
:1005F0002F910F900FBE0F901F901895EFE6F2E02D
:1006000040E050E061E070E080819181892B79F0D9
:1006100087B1DB01042E02C0AA0FBB1F0A94E2F7C8
:100620009D012095822387B988B1282328B94F5F7F
:100630005F4F32964630510539F780E680937C0053
:1006400010927B008FE880937A0080E00E94AE02D7
:100650000895CF93DF93EB01DA01FC0140E050E015
:1006600061E070E080819181892B79F03881CB0144
:10067000042E02C0880F991F0A94E2F7282F2095B4
:10068000232328832C91822B8C934F5F5F4F3296CC
:100690004830510539F7DF91CF9108958BE792E00B
:1006A00064E270E045E250E00E9429038CE391E0AF
:1006B00067E270E048E250E00E9429038BE892E094
:1006C0006AE270E04BE250E00E942903089560E086
:1006D00070E040E050E0A1E0B0E0362FFA01E558CC
:1006E000FD4F0190F081E02D309751F023B1CD0105
:1006F000062E02C0880F991F0A94E2F72823208350
:10070000FA01E45CFE4F0190F081E02D309751F04A
:1007100026B1CD01032E02C0880F991F0A94E2F77B
:1007200028232083FA01E557FD4F0190F081E02D49
:10073000309749F029B1CD0102C0880F991F3A9531
:10074000E2F7282320836F5F7F4F4E5F5F4F40317A
:10075000510519F60895A6E0B0E0E1EBF3E00C9442
:10076000611B7A8369831C012B019E838D839B010E
:100770002A5F3F4F3C832B83ED81FE8106811781E9
:1007800080819181081B190B3801882477FC8094A3
:10079000982CF10182899389A489B589860D971DCA
:1007A000A81DB91D268D378D40A151A1AA24BB24B7
:1007B0006501A21AB30AC40AD50A8A159B05AC05BD
:1007C000BD054CF05C016D01281739074A075B072E
:1007D00014F459016A01F101A28AB38AC48AD58A44
:1007E000ED81FE8184859585AA2797FDA095BA2F76
:1007F000A4019301281B390B4A0B5B0BCA01B901F9
:1008000015870487F20124853585442737FD4095F7
:10081000542F0E94051B7B018C0132E01595079532
:10082000F794E7943A95D1F7F2012081318144277A
:1008300037FD4095542FC401B3010E94051B23E0EE
:1008400095958795779567952A95D1F7E60EF71ECA
:10085000081F191FF20126813781442737FD409573
:10086000542FC601B5010E94051BB6E095958795EA
:1008700077956795BA95D1F7E60EF71E081F191FF1
:10088000E981FA81028804C015950795F794E794E9
:100890000A94D2F7ED81FE81F3A6E2A63296FE839A
:1008A000ED8324E030E0220E331E42E050E0440E9F
:1008B000551E8B819C814816590609F05DCF2696FE
:1008C000E2E10C947D1BA6E0B0E0E9E6F4E00C94D4
:1008D000711BCE010196BE016D5F7F4FAE014B5F74
:1008E0005F4F0E947E028B819C81909581959F4FE6
:1008F0009093E2018093E10149815A81662777272D
:10090000641B750B7093E4016093E3012D813E81BC
:100910003093E6012093E50180911102909112023B
:100920008230910519F00397B1F409C03093E401C6
:100930002093E3015093E6014093E5010CC0882722
:100940009927821B930B9093E4018093E3017093AA
:10095000E6016093E5012696E2E00C948D1B81E0B0
:1009600040E85AE166E070E00E9498010E94570258
:10097000882349F485E08093630288EC90E09093AB
:100980006A028093690208950F931F93CF93DF93B8
:10099000FC011082772767FD709572836183DC010B
:1009A000EC0140E050E00FEF1FE760E070E80CC0A2
:1009B00012961C930E9311971A967C936E93199727
:1009C0001F86188A198A1A8A9A014F5F5F4F1296FA
:1009D0002496818192812817390754F314A613A60F
:1009E000DF91CF911F910F910895A0E0B0E0EBEF60
:1009F000F4E00C94691B7C018C01EB01F70160E0D1
:100A000070E02BC0218132818881998128173907B4
:100A10000CF4C90192838183218532858881998173
:100A2000821793070CF4C901928781872991399124
:100A3000442737FD4095542FD8011F96AD90BD90A7
:100A4000CD90DC905297A20EB31EC41ED51E1F96E9
:100A5000AD92BD92CD92DC9252979B016F5F7F4F1A
:100A600032960C5F1F4FD70111968D919C91129772
:100A7000281739073CF2CDB7DEB7EAE00C94851BA6
:100A8000A0E0B0E0E6E4F5E00C946B1BEC017C0127
:100A900043E2C42ED12CC80ED91E00E010E011C0D4
:100AA0002BA53CA5442737FD4095542FF7016785BA
:100AB0007089818992890E94461BF60121933193A6
:100AC0006F0198010F5F1F4F84E090E0E80EF91E60
:100AD00089819A81281739071CF3CDB7DEB7E8E082
:100AE0000C94871BCF93DF93FC01EB016181728132
:100AF000A0E040E050E00DC08385948523813481DF
:100B0000821B930B8C179D070CF4AF5F4F5F5F4FF9
:100B100032964617570784F320E08A2F992787FDDE
:100B200090958617970709F421E0822FDF91CF91E6
:100B30000895A8E0B0E0EFE9F5E00C946F1B8C019C
:100B40008091A8019091A9019A8389838091AC0139
:100B50009091AD019C838B838091AE019091AF0108
:100B60009E838D838091AA019091AB0198878F839A
:100B7000C801BE016F5F7F4F0E94F504F80183A595
:100B800094A5019694A783A78436910551F5C801D1
:100B900064E170E00E9472058823F9F0C8010E94A8
:100BA0004005F80183A194A190931401809313014F
:100BB00085A196A1909316018093150187A190A518
:100BC000909318018093170181A592A590931A0123
:100BD0008093190181E0808304C0C80164E00E9411
:100BE000C4042896E4E00C948B1BA6E0B0E0EBEF85
:100BF000F5E00C946F1B8C018091E1019091E20172
:100C00009A8389838091E3019091E4019C838B8393
:100C10008091E5019091E6019E838D83C801BE011C
:100C20006F5F7F4F0E94F504F80183A594A501969C
:100C300094A783A78C52914021F5C80162E370E02C
:100C40000E9472058823C9F0C8010E944005F8017E
:100C500083A194A19093DC018093DB0185A196A1EF
:100C60009093DE018093DD0187A190A59093E00130
:100C70008093DF0181E0808304C0C80163E00E94AB
:100C8000C4042696E4E00C948B1B20910301309160
:100C9000040180910301909104012817390721F480
:100CA0003093A9012093A8012091050130910601FC
:100CB00080910501909106012817390721F430939E
:100CC000AD012093AC012091070130910801809182
:100CD0000701909108012817390721F43093AF01DB
:100CE0002093AE0120910B0130910C0180910B01FA
:100CF00090910C012817390721F43093B10120930A
:100D0000B00120910D0130910E0180910D01909163
:100D10000E012817390721F43093B3012093B20153
:100D200020910F013091100180910F0190911001DD
:100D30002817390721F43093B5012093B40120918D
:100D40001101309112018091110190911201281727
:100D5000390721F43093B7012093B6018091460200
:100D60009091470205974CF48091A8019091A901B8
:100D70009093AB018093AA010895209109013091CD
:100D80000A018091090190910A012817390721F47D
:100D90003093AB012093AA010895A0E0B0E0E3ED09
:100DA000F6E00C946B1BDC01C0904602D090470229
:100DB000F6013297E830F10508F0E3C1EC5CFF4F33
:100DC0006D917C9111970091A8011091A9010C944B
:100DD000981B600F711F7093CE016093CD018D91B0
:100DE0009C9111972091AA013091AB01820F931F22
:100DF0009093D4018093D30112968D919C91139777
:100E00002091AC013091AD01820F931F9093D001DE
:100E10008093CF01A8C17801E60EF71EF092CE01B3
:100E2000E092CD01E091AA01F091AB01CD91DC916E
:100E30001197CE0FDF1FD093D401C093D3014091FF
:100E4000B8015091B90144525A4F8D919C9111971C
:100E5000480F591F12966D917C9113978091AC01A8
:100E60009091AD01680F791FCB01840F951F9C01F4
:100E7000359527953595279535952795959587959A
:100E8000280F391F275731403093D0012093CF01CD
:100E9000461B570BCA0133E0959587953A95E1F7C4
:100EA00055954795840F951F84529A4F9093D20180
:100EB0008093D1012091AE013091AF0146E0C4167C
:100EC000D10409F060C084E0223E380774F029574D
:100ED0003540273C310518F082E090E002C081E007
:100EE00090E0029709F04DC121C0809119019091C5
:100EF0001A01800F911F8E1B9F0B209113013091BF
:100F00001401821B930B9595879584529A4F909369
:100F1000CE018093CD018C5D95402CED35E0281BF2
:100F2000390B3093D4012093D3012BC120910201BE
:100F300012966D917C911397E091BA01F091BB01EB
:100F40006E0F7F1F882777FD8095982F30E02058FF
:100F50003040442737FD4095542F0E94051BA7E0E1
:100F60009595879577956795AA95D1F7E60EF71E23
:100F7000F092CE01E092CD01C61BD70BD093D401E5
:100F8000C093D301FEC09093CE018093CD011496FF
:100F90008D919C911597EFC0600F711F7093CE01DA
:100FA0006093CD018D919C9111972091AA01309170
:100FB000AB01820F931F9093D4018093D3011296BB
:100FC0006D917C9113978091AC019091AD01680F68
:100FD000791F14964D915C9115978091AE01909177
:100FE000AF01480F591FCA01860F971F9C01F3E0FC
:100FF00035952795FA95E1F795958795280F391F2F
:10100000275731403093D0012093CF01461B570B17
:10101000CA01B3E095958795BA95E1F7559547953F
:10102000840F951F84529A4FA8C0209113013091CC
:1010300014011296CD91DC9113978091BA01909191
:10104000BB01C80FD91F14960D90BC91A02D8091A3
:10105000BC019091BD01A80FB91F80910901909129
:101060000A018C54944097FF03C040E050E016C042
:101070008091090190910A018C549440959587952F
:10108000855F91401CF044EF51E008C04091090198
:1010900050910A014C54544055954795F801E4523B
:1010A000FA4FE21BF30BE60FF71FBE016E0F7F1F17
:1010B0009A012A1B3B0B37FF02C020E030E0CB0136
:1010C000821B930B9093CE018093CD01260F371F87
:1010D0003093D0012093CF01BF016C1B7D0B9A018F
:1010E0002A0F3B1F37FF02C020E030E0C901860F06
:1010F000971F9093D4018093D301621B730B70935D
:10110000D2016093D1013DC0600F711F7093CE0179
:101110006093CD018D919C9111972091AA013091FE
:10112000AB01820F931F9093D4018093D301129649
:101130008D919C9113972091AC013091AD01820F5C
:10114000931F9093D0018093CF018091B60190912D
:10115000B70112962D913C911397821B930B90939C
:10116000D8018093D70114968D919C911597209169
:10117000AE013091AF01820F931F9093D201809303
:10118000D1018091B4019091B5019093D6018093E3
:10119000D50189E0C816D10441F08091B601909143
:1011A000B7019093D8018093D7018091B2019091BB
:1011B000B3019093DA018093D901CDB7DEB7E8E0AF
:1011C0000C94871BAAE0B0E0E8EEF8E00C946F1BEB
:1011D00080910402909105020397A9F5FE013196D2
:1011E0008AE0DF011D928A95E9F7CF010E94CD06C2
:1011F000ADE8B1E00DEE11E047EF51E06D917C916B
:101200001197F80120813181FB018081918128179C
:1012100039070CF4C901F80191838083FA01208118
:101220003181FB0180819181821793070CF4C90100
:10123000FA0181939193AF0112960E5F1F4FF1E077
:10124000A739BF07D9F687EE91E00E94CD068091BD
:10125000460290914702099711F074E001C075E0D1
:1012600060E080E090E0FC01E357FE4FA081B18197
:101270004D915C911197FC01E351FE4F0190F0817B
:10128000E02D4E175F0754F0FC01E950FE4F20811E
:101290003181FA01241735070CF4F901ED93FC9321
:1012A0006F5F02966717FCF22A96E4E00C948B1BA2
:1012B00080919D02882309F050C081E080939D02B7
:1012C0008FEF80939C022FB7F8948091CD0190917D
:1012D000CE019093C0018093BF018091CF01909186
:1012E000D0019093C2018093C1018091D10190916E
:1012F000D2019093C4018093C3018091D301909156
:10130000D4019093C6018093C5018091D50190913D
:10131000D6019093C8018093C7018091D701909125
:10132000D8019093CA018093C9018091D90190910D
:10133000DA019093CC018093CB0180916F008260A1
:1013400080936F00B19A80918400909185000496FB
:1013500090938900809388002FBF0895FC0181E05D
:101360008183808385E082831682158210861782AE
:1013700008959C0144E0813B940714F490E00DC073
:10138000845195408159914010F491E006C0285055
:10139000374014F49FEF06C092E0662319F082E014
:1013A000891B982F892F0895CF93DF93EC018A81B1
:1013B0008B838091A8019091A9016D810E94B90948
:1013C00087FF88838091AC019091AD016E810E946E
:1013D000B90987FF89838F81882351F48881882305
:1013E00029F0823029F481E08D83188281E08F8397
:1013F0008885882361F48981882319F0823039F443
:1014000004C081E08E8382E0898381E0888738810F
:101410003F5F898123E08202C0011124380F3A83A3
:101420009B8180E0391729F081E09295907F932B82
:101430009C83DF91CF910895282F30E03F6F220FDA
:10144000331FEFB7F8948091840090918500AC0130
:10145000405C5F4FBC016D5D7A4F8091840090913C
:101460008500DA01A81BB90B1A161B06B4F320FF7E
:1014700002C0389801C0389A4617570729F03695A8
:10148000279545575F4FE9CFEFBF0895EFB7F89421
:10149000309917C04BC020918400309185002058AE
:1014A000314C04C08FEF9FEF309B0BC080918400C4
:1014B00090918500B901681B790B1616170614F474
:1014C000F1CFAC0141505040CA01019618161906DF
:1014D00014F34F5F5F4F19F420E030E829C080918A
:1014E000840090918500AC0140565F4F20E030E0D1
:1014F000BC0163597B4F8091840090918500DA0193
:10150000A81BB90B1A161B06B4F3309903C080E070
:1015100090E002C080E890E036952795282B392B83
:101520004617570729F045575F4FE5CF20E030E4D5
:10153000EFBFC9010895EF92FF920F931F93CF93CE
:10154000DF93E82E192F062FF62E84E20E941C0A44
:10155000802F0E941C0A2E2D312FC901EC0104C0DE
:101560008991F80E0E941C0A9E012E192017C4F3BF
:101570008F2D81950E941C0ACDB7DEB7E6E00C9452
:10158000891B8F929F92AF92BF92CF92DF92FF9270
:101590000F931F93CF93DF934C015A01C0E0D0E02B
:1015A000C62EDD24C7FCD09402C0812F182FC501A0
:1015B0000E94460A9C018070907C892B69F5822FDD
:1015C000C130D10559F0C230D105A1F0209779F78B
:1015D000243259F7812FC1E0D0E0E8CF90E0C8165F
:1015E000D90614F4812F15C0822FF22EC2E0D0E06C
:1015F00000E0DCCFF20E812F8150112331F0F40195
:10160000E00FF11D20830F5FD1CFFF2011F481E0A7
:1016100004C0C0E0D0E0CACF80E0DF91CF911F913D
:101620000F91FF90DF90CF90BF90AF909F908F90E1
:101630000895A0E0B0E0EFE1FBE00C94631BAA2466
:1016400021E0822E912C05C1109200032093D70235
:101650003093D8024093D9025093DA02809100036C
:10166000853254F4E82FFF27E7FDF095E552FD4F52
:10167000B0828F5F809300038091DB02813A79F41E
:10168000809100038B310CF4E4C080910003482F5B
:10169000552747FD509520E030E090E025C0823A84
:1016A00009F05FC08091000383327CF7D2C0E5521D
:1016B000FD4F80813827032E0294802D8F70832761
:1016C000632F6025660F607E8627602D6327607F0D
:1016D0006695032E000C661F3695369536953F713C
:1016E00036273227282F9F5FE92FF0E0E417F50710
:1016F000F4F2232B09F0ABC0ACEDB2E042E050E0D5
:10170000DC90CC2411962C91119730E02C293D29A6
:101710003F70FA01F595E795E819F909EE0FFF1FFB
:10172000E85BFD4F0190F081E02DC901880F991F02
:10173000820F931F3695279536952795821B930B1D
:1017400023E0969587952A95E1F7845E9C4F9183D7
:10175000808312964E5F5F4F62E0AC3EB60781F623
:1017600074C0883A09F075C08091DC028F778130AF
:1017700009F06FC080910003C82FDD27C7FDD09509
:101780008091DD0290E0880F991F04968C179D07C9
:101790000CF05FC020E030E090E0DE0112971DC049
:1017A000E552FD4F80813827032E0294802D8F70E3
:1017B0008327432F4025440F407E8427402D432715
:1017C000407F4695032E000C441F3695369536957E
:1017D0003F7134273227282F9F5FE92FF0E0EA1767
:1017E000FB07F4F2A552BD4FFC90EE24C652DD4F2C
:1017F00088812701480E511C2415350541F5AEEDB1
:10180000B2E022E030E0F901F595E795E819F90931
:10181000EE0FFF1FE85BFD4F0190F081E02D1C9162
:1018200000E011968C91119790E0802B912B43E072
:10183000969587954A95E1F79183808312962E5F5E
:101840003F4F42E0AE3EB407F1F6AA24A3941092B3
:101850000003E0915401F0915501A081B1811496EB
:101860002D913C911597CF01F9010995892BA1F193
:1018700080910003853284F5A0915401B091550107
:10188000ED91FC9111970680F781E02DCD0109952E
:10189000B82E0E94B6009B01AC016093D3027093F6
:1018A000D4028093D5029093D6028091D702909172
:1018B000D802A091D902B091DA0229013A01481A5E
:1018C000590A6A0A7B0AD301C20189589341A04090
:1018D000B0400CF0B9CEBACE8A2DCDB7DEB7E0E17C
:1018E0000C947F1B809154019091550140E052EC83
:1018F00061E070E00E94DF1708951F93CF93DF939C
:10190000EC01142F45E450E00E949E1B8881811752
:1019100011F08FEF12C090E020E030E0FE01E20F06
:10192000F31F8081980F2F5F3F4F25343105B1F7AA
:10193000992311F480E001C08EEFDF91CF911F91C8
:101940000895DC0190E020E030E0FD01E20FF31F9C
:101950008081980F2F5F3F4F24343105B1F7AC5B86
:10196000BF4F91959C93A454B040CD0145E450E005
:101970000E94AE1B0895A1E1B0E0E1ECFCE00C9404
:10198000611B1C0181E0898382E092E09B838A8352
:1019900002969D838C830D969F838E8302969987F2
:1019A000888702969B878A8702969D878C870296F6
:1019B0009F878E87CE010196998B888BD0900202EB
:1019C000DD0CCC246624EE24FF24870120E8822E3F
:1019D0002AE1922E26E0A22EB12CB2E07B2E2C0121
:1019E0000E94B6009B01AC01DC01CB018E199F095E
:1019F000A00BB10B88169906AA06BB060CF051C0C5
:101A0000171424F5872D992787FD9095FC01E17027
:101A1000F07080FD03C088E097E002C08CED95E097
:101A20009093D0018093CF018CED95E09093CE01FF
:101A30008093CD01EE0FFF1FEE0FFF1FEB58FE4FFF
:101A400080809180A280B3807A9429C0DD2039F112
:101A50001D1424F46CE271E0A1E003C064ED7EEF9C
:101A6000AFEF8D2D992787FD9095FC01E170F07007
:101A700080FF03C08CED95E003C0CB0184529A4FE8
:101A80009093CE018093CD01EE0FFF1FEE0FFF1F4D
:101A9000EB58FE4F80809180A280B380DA1A7901E2
:101AA0008A010E94190B882319F091E090939B0200
:101AB00080919B02882329F010929B020E94450688
:101AC00002C0662041F080919D02882309F08CC0FD
:101AD0000E9458096624772009F082CFC1010E9434
:101AE000D409882309F47CCFF1018481843561F025
:101AF000853520F4823509F063C013C0863559F06E
:101B0000883509F05DC02AC0F1E0FC1514F0CC2442
:101B100070C0CA946EC085E08C150CF468C0C39484
:101B200068C0AC2DBB27A7FDB095FD01EE0FFF1FD0
:101B3000E40DF51D0180F281E02D8081282F3327EF
:101B400027FD30952F5F3F4FA358BE4F8C919927AB
:101B500087FD909582179307F4F41CC0AC2DBB272A
:101B6000A7FDB095FD01EE0FFF1FE40DF51D0180EF
:101B7000F281E02D8081282F332727FD30952150D9
:101B80003040AB57BE4F8C91992787FD9095281711
:101B900039070CF49C01208320E08C2D992787FDC8
:101BA0009095FC01EE0FFF1FE40DF51D0180F28101
:101BB000E02DD080DD0C222319F00196782E770CD1
:101BC0008981823009F00CCF81E092E060E070E022
:101BD0000E94A10C81E092E060E071E00E94A10C03
:101BE0006196E2E10C947D1B6624639474CF37E028
:101BF000C32E21E0D2CFA2E9B0E0E1E0FEE00C94F8
:101C0000611B0E94B6001B012C01DE011196E7E664
:101C1000F1E086E001900D928150E1F78E010D5EBA
:101C20001F4FC8010E94AE094CE1E42EF12CEC0ECE
:101C3000FD1EC70164E00E94C40439E4C32ED12C08
:101C4000CC0EDD1EC60163E00E94C4042092CF02C8
:101C50003092D0024092D1025092D202C557DF4F4B
:101C6000288239824A825B82CB58D040C957DF4FE5
:101C7000288239824A825B82C758D040CD57DF4FD5
:101C8000288239824A825B82C358D04042013101A6
:101C9000C158DF4F288239824A825B82CF57D040B9
:101CA000EB962CAE3DAE4EAE5FAEEB97EF961FAE11
:101CB000EF97EE961FAEEE97ED961FAEED9721E0F3
:101CC000EC962FAFEC97C157DF4FE882CF58D0404A
:101CD000C057DF4FF882C059D040CF56DF4F08833E
:101CE000C159D040CE56DF4F1883C259D0400E9410
:101CF000B6005B016C010E942B010E94190B882326
:101D0000B9F180915A0290915B02A0915C02B0916E
:101D10005D02883E33E0930730E0A30730E0B3076D
:101D200031F0805D9740A040B040F9F40EC0EE96CF
:101D30005FADEE97552329F461E0EE966FAFEE9715
:101D400017C071E070939B020CC0EE968FADEE97BA
:101D50008F5FEE968FAFEE97833054F091E09093C3
:101D60009B02EE961FAEEE9703C0A1E0A0939B02EC
:101D700080919B028823A1F4D601C501C557DF4F8E
:101D8000288139814A815B81CB58D040821B930BDB
:101D9000A40BB50B81539547A040B0400CF442C052
:101DA00010929B020E9445068C8D882369F0C557CE
:101DB000DF4FA882B982CA82DB82CB58D04041E093
:101DC000EF964FAFEF972EC0C157DF4F8881CF58A6
:101DD000D040C057DF4F9881C059D0400E9499052C
:101DE0002A968FAD2A97882311F492E001C090E0E3
:101DF00020E08C8D882309F421E0920F90936202F9
:101E000068EC70E07093680260936702C557DF4F1B
:101E1000A882B982CA82DB82CB58D04071E0EF96AB
:101E20007FAFEF9780919D02882379F5EF968FAD74
:101E3000EF97882351F1A6019501C957DF4F6881BB
:101E400079818A819B81C758D040261B370B480B6C
:101E5000590B80915A0290915B02A0915C02B09163
:101E60005D0282179307A407B5077CF40E94E2087D
:101E70000E945809C957DF4FA882B982CA82DB8203
:101E8000C758D040EF961FAEEF97D601C501CD578A
:101E9000DF4F288139814A815B81C358D040821B42
:101EA000930BA40BB50B81519742A040B04054F165
:101EB0000E9463042A968FAD2A978823D9F4CE0115
:101EC000875B9F4F0E94F5052A968FAD2A9788233E
:101ED00011F492E001C090E020E08C8D882309F499
:101EE00021E0920F9093620248EC50E05093680218
:101EF00040936702CD57DF4FA882B982CA82DB8246
:101F0000C358D040EC965FADEC97552309F456C00A
:101F1000CF56DF4F8881C159D040CE56DF4F9881D0
:101F2000C259D0400E94D409882309F447C0ED96D5
:101F30006FADED97E62FFF27E7FDF095E25AFE4FD4
:101F40009F898081981721F0ED961FAEED9707C00D
:101F5000ED967FADED977F5FED967FAFED97ED96B8
:101F60008FADED97E82FFF27E7FDF095E25AFE4F82
:101F700080818F3F81F4CE0143960E94BB0C2EE0FE
:101F800088E190E00FB6F894A895809360000FBEAA
:101F900020936000FFCFD601C50182199309A409DF
:101FA000B509815C914EA44EB04024F0EC961FAE72
:101FB000EC9704C0F1E0EC96FFAFEC978C8D882392
:101FC00029F02A968FAD2A978823C9F58091AA0116
:101FD0009091AB012091A8013091A901820F931F2C
:101FE0002091190130911A01821B930B209113014A
:101FF00030911401821B930B959587959093B901AD
:102000008093B8018091AC019091AD0120911501B0
:1020100030911601821B930B9093BB018093BA0100
:102020008091AE019091AF0120911701309118017C
:10203000821B930B9093BD018093BC0158CED601B7
:10204000C50186199709A809B90981519742A0408D
:10205000B0400CF41EC38091580290915902813017
:10206000910559F48091B0019091B101865F95403E
:102070000CF09BC080E090E00DC0892B09F095C06A
:102080008091B0019091B101875296400CF48DC0BF
:1020900081E090E09093590280935802892B11F0CF
:1020A00084E001C080E08093620268EC70E070938D
:1020B0006802609367021092B0021092B10210920F
:1020C000B2021092B3021092BC021092BD021092A2
:1020D000BE021092BF021092B4021092B50210928A
:1020E000B6021092B7021092C0021092C102109272
:1020F000C2021092C3021092B8021092B90210925A
:10210000BA021092BB021092C4021092C502109241
:10211000C6021092C7028091190290911A0202978A
:1021200009F043C0D601C501EB962CAD3DAD4EADD7
:102130005FADEB97821B930BA40BB50B8152914AB9
:10214000A740B0401CF0E7961FAEE797E7964FAD6B
:10215000E7974F5FE7964FAFE797433004F18091E1
:10216000A8019091A901909314018093130180918B
:10217000AC019091AD01909316018093150180916F
:10218000AE019091AF019093180180931701809157
:10219000AA019091AB0190931A0180931901EB96DB
:1021A000ACAEBDAECEAEDFAEEB972091AA013091C2
:1021B000AB018091A8019091A901280F391F80914E
:1021C000190190911A01281B390B809113019091EC
:1021D0001401281B390B359527953093B9012093AD
:1021E000B8014091AC015091AD01809115019091E1
:1021F0001601481B590B5093BB014093BA01E09163
:10220000AE01F091AF018091170190911801E81B88
:10221000F90BF093BD01E093BC0180911302815052
:10222000682F772767FD7095C90137FF04C088279D
:102230009927821B930B062E02C0880F991F0A94C0
:10224000E2F7A1E081399A0714F080E991E0A0E972
:10225000B1E0A81BB90BB887AF83CA0157FF04C010
:1022600088279927841B950B062E02C0880F991F7B
:102270000A94E2F7B1E081399B0714F080E991E01C
:10228000A0E9B1E0A81BB90BBA87A987CF01F7FF76
:1022900004C0882799278E1B9F0BDC0102C0AA0F60
:1022A000BB1F6A95E2F7BD01B1E061397B0714F00D
:1022B00060E971E010E9612E11E0712E661A770A6B
:1022C0007C866B868091B0019091B10165E0833C82
:1022D00096074CF403EC15E0081B190B71E001396B
:1022E000170794F00BC0A6E088329A071CF400E0B0
:1022F00010E00AC0B7E086389B071CF000E911E047
:1023000003C08C01055F15408090580290905902DF
:1023100061E08616910459F08114910409F04FC0D0
:102320008091170290911802029709F048C080919D
:102330001502082E02C0220F331F0A94E2F73E87CF
:102340002D87082E02C0440F551F0A94E2F7588BC0
:102350004F87AF0102C0440F551F8A95E2F75A8B91
:10236000498B89819A8197FD05C088279927821B0F
:10237000930B01C0C90190939F0280939E028B81B1
:102380009C812F85388997FD05C088279927821B56
:10239000930B01C0C9019093A1028093A0028D818B
:1023A0009E8197FD03C0509541955F4F5093A302C6
:1023B0004093A20271E08716910471F055C010920B
:1023C0009F0210929E021092A1021092A0021092FF
:1023D000A3021092A20248C06F817885882777FDFA
:1023E0008095982F24EF3FEB40E050E00E94051BC2
:1023F000B9E09595879577956795BA95D1F76093EC
:10240000BC027093BD028093BE029093BF026985A7
:102410007A85882777FD8095982F0E94051BA9E073
:102420009595879577956795AA95D1F76093C002A2
:102430007093C1028093C2029093C302B3018827B4
:1024400077FD8095982F0E94051BF9E0959587955B
:1024500077956795FA95D1F76093C4027093C5029A
:102460008093C6029093C7022091E1013091E2016E
:102470008091DB019091DC01281B390B80E2203038
:10248000380714F02FEF3FE1C901A0EE20303A07E2
:1024900014F480E090EE9093A5028093A402209122
:1024A000E3013091E4018091DD019091DE01281B70
:1024B000390BB0E220303B0714F02FEF3FE1C901A8
:1024C000E0EE20303E0714F480E090EE9093A702F7
:1024D0008093A6022091E5013091E6018091DF0111
:1024E0009091E001281B390BF0E220303F0714F0F7
:1024F0002FEF3FE1C90120EE8030920714F480E015
:1025000090EE9093A9028093A802892819F061E3C4
:1025100072E002C06EE172E08EE992E00E94AB03CD
:10252000EE24FF243801882477FC8094982C8701BE
:1025300009511E4FE1E0F0E0EC0FFD1FEE0DFF1D15
:1025400060817181882777FD8095982FF701E25689
:10255000FD4F22A533A5442737FD4095542F0E94F7
:10256000051BE7E09595879577956795EA95D1F7EF
:10257000E7E0F0E0EC0FFD1FEE0DFF1D2081318143
:10258000442737FD4095542F0E94051B9B01AC0149
:1025900069E055954795379527956A95D1F7C40118
:1025A000B3010E94051B39E095958795779567954E
:1025B0003A95D1F7D8016D937C93E2E0F0E0EE0E0E
:1025C000FF1EF6E0EF16F10409F0B1CF2091CE0224
:1025D00012160CF05CC08091CF029091D002A091B5
:1025E000D102B091D202B601A501481B590B6A0B6A
:1025F0007B0BDB01CA0181549D40A340B0405CF0DD
:1026000021502093CE02A092CF02B092D002C0926D
:10261000D102D092D2028091CE02992787FD909567
:102620004091E7015091E801BC016170707080FF3A
:1026300003C026E930E002C02AE63FEF240F351F31
:102640003093E8012093E7014091E9015091EA01BC
:102650006115710519F026E930E002C02AE63FEF66
:10266000240F351F3093EA012093E9012091EB01FB
:102670003091EC01672B19F48AE69FEF02C086E9DE
:1026800090E0820F931F9093EC018093EB01350152
:102690004601D601C501C158DF4F288139814A81E1
:1026A0005B81CF57D040821B930BA40BB50B8C5989
:1026B000914AA740B0400CF41ACB80911B0280389D
:1026C00039F480910001282F30E02058304004C0B8
:1026D000282F332727FD309580911C02803839F44C
:1026E00080910101482F50E04058504004C0482FCD
:1026F000552747FD509580911D02803831F4809117
:10270000020190E08058904003C0992787FD909582
:102710003A8329835C834B839E838D83295F3F4F5C
:102720002F30310510F41A8219828B819C81079613
:102730000F9710F41C821B828D819E8107960F9744
:1027400010F41E821D8280E00E94AE02C158DF4F4D
:10275000A882B982CA82DB82CF57D040C8CAA6E617
:10276000B0E0E5EBF3E10C946B1B1092800081E08C
:10277000809381003898409848E552E000E06E016F
:102780000894C11CD11C62E0E62EF12CEC0EFD1E5B
:10279000C60166E60E94C10A882309F441C0898106
:1027A0008230A9F0833018F4813029F406C08330D8
:1027B000B1F08430E9F010E026C0C70160E870E0B5
:1027C00048E050E00E949E1B10E069E01DC0C70178
:1027D00060E870E048E050E00E94AE1B13C0C70103
:1027E00060E070E04BE00E947D0C10E066E40CC0FD
:1027F000C70160E070E00E94A10CC70160E071E0D9
:102800000E94A10C11E061E0898180688983C60182
:102810000E949B0A01E044EF51E0112309F4B8CF74
:10282000802FCA59DF4FE8E00C94871BCF93DF93CA
:10283000C0E0D0E0FE01E45BFE4F808187FD04C074
:10284000808161E00E94661A2196C830D10591F717
:10285000DF91CF9108951F920F920FB60F9211241E
:102860000F931F932F933F934F935F936F937F9398
:102870008F939F93AF93BF93EF93FF9380919C02AD
:1028800087FD42C0E0919C02FF27E7FDF095E45BE5
:10289000FE4F808160E00E94D21A36C080919C0277
:1028A0008F5F80939C02E0919C02FF27E7FDF095EB
:1028B000E45BFE4F808187FD27C00091840010916A
:1028C0008500E0919C02FF27E7FDF095E45BFE4F59
:1028D000808161E00E94D21AE0919C02FF27E7FD0F
:1028E000F095EE0FFF1FE45DFE4F0190F081E02DAB
:1028F000808191810297880F991F800F911F90937B
:102900008900809388000BC080919C02873034F24C
:1029100010929D0280916F008D7F80936F00FF91D8
:10292000EF91BF91AF919F918F917F916F915F9147
:102930004F913F912F911F910F910F900FBE0F90CC
:102940001F901895A0E0B0E0E8EAF4E10C946B1B4E
:10295000182F062F862F61E00E94661A812F60E0F3
:102960000E94661A812F61E00E94D21A6AE070E02C
:1029700080E090E00E94F600C0E0D0E0812F99272F
:1029800087FD9095FC01EA56FF4FE491F0E0EE0FD1
:10299000FF1FE457FF4FC590D49086559F4FFC0111
:1029A0008491E82EFF24CE018170182F802F612F93
:1029B0000E94D21AF601808120E030E090E08E2162
:1029C0009F21892B11F021E030E0812F992787FD8D
:1029D00090952817390711F010E005C02196C830EE
:1029E000D10509F711E0802F60E00E94661A812F5F
:1029F000CDB7DEB7E8E00C94871BA4E9B0E0E3E0D4
:102A0000F5E10C946B1B259A8091BA039091BB035E
:102A1000009711F09C0102C02EEB33E0CE0101962D
:102A2000821B930B803891054CF484E18093630200
:102A30008EE190E090936A028093690284B7877F69
:102A400084BF88E10FB6F894809360001092600014
:102A50000FBE85E090E090930302809302028CE326
:102A600080931B0280931C0280931D0281E090E002
:102A7000909305028093040287E0809344021092B1
:102A80000602EDE6F1E097E0C92E92E0D92ED601DC
:102A900081918D9321E0E537F207D1F742E050E0D4
:102AA0005093100240930F0221E030E03093120265
:102AB00020931102309314022093130283E090E0DC
:102AC00090931602809315023093180220931702F8
:102AD00050931A024093190284EF91E090931F02E1
:102AE00080931E02109225021092240290932B02D2
:102AF00080932A0290932102809320021092270251
:102B00001092260290932D0280932C029093230220
:102B100080932202109229021092280290932F0291
:102B200080932E0228E0209330029093320280930B
:102B30003102909338028093370290933E02809343
:102B40003D02909334028093330290933A02809333
:102B500039029093400280933F0290933602809313
:102B6000350290933C0280933B0290934202809303
:102B700041022093430285E066E00E94A21488236C
:102B800011F400E001C007E0CE01039660E870E0B8
:102B900048E050E00E949E1B002361F48B81863048
:102BA00049F48C819D81AE81BF818E549146AC4B9E
:102BB000B04071F086E08B838EE491E6ACEBB0E040
:102BC0008C839D83AE83BF83188619861A8608601E
:102BD000CE010B9660E070E04BE00E947D0C87FD1B
:102BE0000260CE01805B9F4F60E071E04BE00E948D
:102BF0007D0C87FD046083E08093CE02E02EFF24ED
:102C0000C701867090708230910531F08430910553
:102C100079F0892B81F119C08E01005B1F4FC8012B
:102C200060E070E00E94A10C88858F5F88870BC0F0
:102C30008E01055F1F4FC80160E071E00E94A10C8A
:102C400089858F5F8987C80118C08BE08093010256
:102C500081E092E060E070E00E94A10C81E092E0EF
:102C600060E071E00E94A10C8A858F5F8A8789E00D
:102C70008093CE020AC0CE010B96A1E0B2E0FC0127
:102C800085E401900D928150E1F7C7018E7090703C
:102C9000892B41F0CE01039660E870E048E050E0F7
:102CA0000E94AE1BE0FE0AC082E00E941E0164E6A4
:102CB00070E080E090E00E94071AF6CF0E94AF1308
:102CC000882361F02EE088E190E00FB6F894A89593
:102CD000809360000FBE20936000FFCF10928000B1
:102CE00082E08093810081E080936F0085B5887FCA
:102CF00085BD0E94720C8091040290910502823081
:102D0000910519F18330910524F4019709F05BC016
:102D100007C08330910571F1049709F054C03FC09A
:102D200080E090E048EE53E020ED37E0FC01E35115
:102D3000FE4F51834083FC01E950FE4F31832083D5
:102D400002968A30910591F73EC080E090E04CE415
:102D500054E02CE637E0FC01E351FE4F5183408301
:102D6000FC01E950FE4F3183208302968A309105A1
:102D700091F729C080E090E042EE54E026ED36E085
:102D8000FC01E351FE4F51834083FC01E950FE4FAB
:102D90003183208302968A30910591F714C080E038
:102DA00090E044E853E024E338E0FC01E351FE4FB7
:102DB00051834083FC01E950FE4F3183208302960A
:102DC0008A30910591F780910602992787FD9095A9
:102DD00028EE33E0FC01E29FC001E39F900DF29FDB
:102DE000900D1124AA2797FDA095BA2F80935A021F
:102DF00090935B02A0935C02B0935D0280914402C9
:102E0000877080931B01A8E4B2E0F60181916F0105
:102E1000E82FFF27E7FDF095EE0FFF1FE45EFE4F62
:102E2000808191818D939D93FFE0CF16F2E0DF06C4
:102E300061F720E030E0F901EA5AFE4F8081F901A4
:102E4000E45BFE4F80832F5F3F4F2830310599F7B9
:102E50000E944E030E946703809102029091030238
:102E60009093470280934602019731F482E090E00C
:102E700090934702809346028091460280936102BC
:102E800088E592E090936602809365020E94FE02BC
:102E90000E9416140E94AF040E9445060E94E20898
:102EA000CC56DF4FE8E00C94871B08951F920F92D9
:102EB0000FB60F9211242F933F934F938F939F93AD
:102EC000EF93FF938091C00082FD1DC04091C6002A
:102ED00020914703309148032F5F3F4F2F7330708D
:102EE0008091490390914A032817390771F0E091C6
:102EF0004703F0914803E95FFC4F40833093480358
:102F00002093470302C08091C600FF91EF919F91EB
:102F10008F914F913F912F910F900FBE0F901F9067
:102F20001895E0919B03F0919C03E05CFF4F819129
:102F3000919120813181821B930B8F739070892B2B
:102F400011F00E94551708951F920F920FB60F921D
:102F500011242F933F938F939F93EF93FF9320918F
:102F60008B0330918C0380918D0390918E032817F1
:102F7000390731F48091C1008F7D8093C10014C066
:102F8000E0918D03F0918E03E55BFC4F20818091F1
:102F90008D0390918E0301968F73907090938E03A2
:102FA00080938D032093C600FF91EF919F918F91A5
:102FB0003F912F910F900FBE0F901F901895AF92D9
:102FC000BF92DF92EF92FF920F931F93CF93DF9305
:102FD000EC017A018B01DD24403081EE580780E05E
:102FE000680780E0780711F0DD24D39491E0A92EE2
:102FF000B12CEC89FD89DD2069F0C50108A002C073
:10300000880F991F0A94E2F7808360E079E08DE3EE
:1030100090E005C0108260E874E88EE190E0A801BD
:1030200097010E94241B215030404040504056954B
:1030300047953795279580E12030380720F0DD202F
:1030400011F0DD24D6CFE889F9893083EA89FB893C
:10305000208319A2EE89FF89408121E030E0C90177
:103060000C8C02C0880F991F0A94E2F7482B40830A
:10307000EE89FF894081C9010D8C02C0880F991F1C
:103080000A94E2F7482B4083EE89FF894081C90109
:103090000E8C02C0880F991F0A94E2F7482B4083D8
:1030A000EE89FF8980810F8C02C0220F331F0A94A2
:1030B000E2F7209528232083DF91CF911F910F9174
:1030C000FF90EF90DF90BF90AF900895DC011C96C9
:1030D000ED91FC911D97E05CFF4F21913191808132
:1030E0009181281B390B2F733070C9010895DC01C1
:1030F0001C96ED91FC911D97E05CFF4F2081318182
:10310000E054F040DF01AE5BBF4F8D919C91119771
:103110002817390719F42FEF3FEF07C08D919C91C5
:10312000E80FF91F8081282F30E0C9010895DC01E4
:103130001C96ED91FC911D97E05CFF4F2081318141
:10314000E054F040DF01AE5BBF4F8D919C91119731
:103150002817390719F42FEF3FEF10C08D919C917C
:103160001197E80FF91F20818D919C91119701967D
:103170008F73907011969C938E9330E0C9010895DF
:10318000DC0191968C919197882339F05496ED91BA
:10319000FC915597808186FFF9CF91961C920895F6
:1031A000CF93DF93EC01EE85FF85E05CFF4F20813C
:1031B0003181E054F0402F5F3F4F2F733070DF01BB
:1031C000AE5BBF4F8D919C91119728173907D1F3B2
:1031D000E05CFF4F80819181E054F040E80FF91FDF
:1031E0006083EE85FF85E05CFF4F31832083EE89AD
:1031F000FF89208181E090E00F8C02C0880F991F29
:103200000A94E2F7282B208381E089A3EC89FD89C9
:1032100080818064808381E090E0DF91CF91089588
:10322000109292031092910388EE93E0A0E0B0E038
:103230008093930390939403A0939503B093960384
:103240008BE991E09093900380938F0387E093E064
:1032500090939C0380939B038BE493E090939E0355
:1032600080939D0385EC90E09093A00380939F034F
:1032700084EC90E09093A2038093A10380EC90E013
:103280009093A4038093A30381EC90E09093A60312
:103290008093A50382EC90E09093A8038093A7030A
:1032A00086EC90E09093AA038093A90384E0809336
:1032B000AB0383E08093AC0387E08093AD0385E0AC
:1032C0008093AE0381E08093AF030895CF93DF93A3
:1032D0000E942B1A0E94FD14C1E9D7E10E94FB0D48
:1032E0002097E1F30E949117F9CFA0E0B0E0EBE75F
:1032F000F9E10C946B1B7C016B018A01C0E0D0E00A
:103300000FC0D6016D916D01D701ED91FC91019037
:10331000F081E02DC7010995C80FD91F0150104059
:103320000115110571F7CE01CDB7DEB7E8E00C94B9
:10333000871B1F920F920FB60F9211242F933F936A
:103340008F939F93AF93BF938091B5039091B603F2
:10335000A091B703B091B8033091B9030196A11DB4
:10336000B11D232F2D5F2D3720F02D570196A11D64
:10337000B11D2093B9038093B5039093B603A09336
:10338000B703B093B8038091B1039091B203A091B9
:10339000B303B091B4030196A11DB11D8093B10395
:1033A0009093B203A093B303B093B403BF91AF91D2
:1033B0009F918F913F912F910F900FBE0F901F9073
:1033C00018959FB7F8942091B1033091B2034091C2
:1033D000B3035091B40386B5A89B06C08F3F21F07C
:1033E0002F5F3F4F4F4F5F4F9FBF542F432F322FC1
:1033F0002227280F311D411D511D82E0220F331F4E
:10340000441F551F8A95D1F7B901CA010895EF925B
:10341000FF920F931F93CF93DF937B018C010E9448
:10342000E119EB010EC00E94E1196C1B7D0B685E77
:103430007340C8F30894E108F10801091109C85163
:10344000DC4FE114F1040105110569F7CDB7DEB7D2
:10345000E6E00C94891B789484B5826084BD84B5C1
:10346000816084BD85B5826085BD85B5816085BD7F
:10347000EEE6F0E0808181608083E1E8F0E0108298
:10348000808182608083808181608083E0E8F0E0D9
:10349000808181608083E1EBF0E0808184608083C3
:1034A000E0EBF0E0808181608083EAE7F0E08081FA
:1034B000846080838081826080838081816080835A
:1034C0008081806880831092C1000895CF93DF933C
:1034D000482F50E0CA0186559F4FFC0134914A564F
:1034E0005F4FFA018491882369F190E0880F991F5A
:1034F000FC01E858FF4FA591B491FC01EE57FF4F36
:10350000C591D491662351F42FB7F8948C91932FE1
:10351000909589238C93888189230BC0623061F454
:103520002FB7F8948C91932F909589238C93888151
:10353000832B88832FBF06C09FB7F8948C91832B71
:103540008C939FBFDF91CF910895833071F08430C9
:1035500028F48130A1F0823021F514C08630B1F01A
:103560008730D1F08430E9F404C0809180008F77F7
:1035700003C0809180008F7D80938000089584B582
:103580008F7702C084B58F7D84BD08958091B0008F
:103590008F778093B00008958091B0008F7D8093E5
:1035A000B0000895FF920F931F93F62E482F50E01E
:1035B000CA0182549F4FFC012491CA0186559F4F36
:1035C000FC0114914A565F4FFA0104910023C9F09F
:1035D000222319F0822F0E94A51AE02FF0E0EE0FAF
:1035E000FF1FEE57FF4FA591B4919FB7F894FF20AE
:1035F00021F48C911095812302C08C91812B8C93A6
:103600009FBF1F910F91FF900895629FD001739FFC
:10361000F001829FE00DF11D649FE00DF11D929F6E
:10362000F00D839FF00D749FF00D659FF00D9927AD
:10363000729FB00DE11DF91F639FB00DE11DF91FD1
:10364000BD01CF0111240895A1E21A2EAA1BBB1BB4
:10365000FD010DC0AA1FBB1FEE1FFF1FA217B3075E
:10366000E407F50720F0A21BB30BE40BF50B661F74
:10367000771F881F991F1A9469F760957095809538
:1036800090959B01AC01BD01CF01089597FB092ED8
:1036900005260ED057FD04D0D7DF0AD0001C38F421
:1036A00050954095309521953F4F4F4F5F4F08956E
:1036B000F6F790958095709561957F4F8F4F9F4F4E
:1036C00008952F923F924F925F926F927F928F92C6
:1036D0009F92AF92BF92CF92DF92EF92FF920F93A1
:1036E0001F93CF93DF93CDB7DEB7CA1BDB0B0FB6AB
:1036F000F894DEBF0FBECDBF09942A883988488868
:103700005F846E847D848C849B84AA84B984C884FD
:10371000DF80EE80FD800C811B81AA81B981CE0FF4
:10372000D11D0FB6F894DEBF0FBECDBFED010895D9
:10373000EE0FFF1F0590F491E02D0994DC01CB0101
:10374000FC01F999FECF06C0F2BDE1BDF89A3196B1
:1037500000B40D9241505040B8F70895DC01CB0100
:1037600003C02D910E94B91B41505040D0F70895DD
:10377000262FF999FECF1FBA92BD81BD20BD0FB68D
:10378000F894FA9AF99A0FBE01960895F894FFCF2B
:10379000FFFFFFDC05DC05DC05DC05E803DC05E8F4
:1037A00003DC05DC05DC05DC05DC0506070105019D
:1037B0000F0103010B0109010D011101BF01C50139
:1037C000C101C901C301C701CB0100000000BE0156
:1037D0000000000000000000000000000A0B0509C6
:1037E000060310FF8F030A0B0509060310FF7889F3
:1037F000988778899887FF00000000000003010087
:103800000205040706A0860100801A0600050303CE
:1038100003040202020101010101010101CD01CFF6
:1038200001D101D301D70100000000D0187519663D
:083830001897187718C0180062
:00000001FF
