:100000000C948C010C94B4010C94B4010C94B401C4
:100010000C94B4010C94B4010C94B4010C94B4018C
:100020000C94B4010C94B4010C94B31B0C94371CC5
:100030000C94B4010C94B4010C94B4010C94B4016C
:100040000C94B4010C94DB140C94B4010C94B40122
:100050000C94B6010C94B4010C94B4010C94751D6D
:100060000C94B4010C94FA170C9448180C94B40135
:100070000C94B4010C94ED030C94B4010C94B401F1
:100080000C94B4010C94B4010C94B4010C94B4011C
:100090000C94B4010C94B4010C94B4010C94B4010C
:1000A0000C94B4010C94B4010C94B40133085208BC
:1000B0000B09330852080B095B09C509B01EB31EB2
:1000C000A61EAA1ED41ED41ED41EB71EBB1EBF1E43
:1000D000C51EC91ED41ECF1E0403090422034100FD
:1000E00072006400750069006E006F0020004C0013
:1000F00065006F006E006100720064006F001803FD
:10010000410072006400750069006E006F002000FD
:100110004C004C004300120100020000004041234B
:1001200036800001010200011201000202000040BD
:100130004123368000010102000100C18081C1001D
:10014000000000240027002A002D003000000000DD
:1001500000250028002B002E0031000000000023A5
:1001600000260029002C002F0004040404040304CA
:100170000502020202040302020202060606060645
:100180000604040202020404080201104080401028
:1001900020408040800802040180402010020110AD
:1001A00080102040400000000200080E0000030400
:1001B00001000B0000000000000000000000000033
:1001C000000000070605040100080A0B0C0D0908D1
:1001D0000B000202020100090400000102020000FB
:1001E0000524001001052401010104240206052450
:1001F0000600010705810310004009040100020AFE
:1002000000000007050202400000070583024000CD
:100210000005010902A1010901A1008501050919D3
:1002200001290315002501950375018102950175CA
:1002300005810305010930093109381581257F75CC
:100240000895038106C0C005010906A101850205C4
:100250000719E029E7150025017501950881029528
:1002600001750881039506750815002565050719B0
:100270000029658100C00904020001030000000993
:1002800021010100012265000705840340000100EF
:10029000000000000000002A2B28000000000000E1
:1002A0000000000000000000000000000000002C22
:1002B0009EB4A0A1A2A434A6A7A5AE362D37382798
:1002C0001E1F20212223242526B333B62EB7B89F24
:1002D0008485868788898A8B8C8D8E8F9091929366
:1002E0009495969798999A9B9C9D2F3130A3AD3504
:1002F0000405060708090A0B0C0D0E0F1011121346
:100300001415161718191A1B1C1DAFB1B0B5000033
:10031000B419111B521F542011241FBECFEFDAE075
:10032000DEBFCDBF11E0A0E0B1E0E2E3F4E402C043
:1003300005900D92A43CB107D9F714E0A4ECB1E00C
:1003400001C01D92AF33B107E1F713E0C8E1D3E07C
:1003500004C02297FE010E94EB21C031D107C9F7EA
:100360000E940A1A0C9417220C9400001F920F92FC
:100370000FB60F9211248F939F9380917B029091DF
:100380007C02019690937C0280937B0280917B0299
:1003900090917C02892B29F480917D028F5F80935C
:1003A0007D029F918F910F900FBE0F901F90189517
:1003B000609184007091850020917B0230917C02D5
:1003C000E0917D0280918400909185008627972797
:1003D00097FDEECF80917B0290917C022817390720
:1003E00039F780917D02E81719F740E050E0FFE00F
:1003F000220F331F441F551FFA95D1F78E2F90E01F
:10040000A0E0B0E0BB278695B795AA279927882753
:10041000282B392B4A2B5B2B76956795CB01A0E0D7
:10042000B0E0282B392B4A2B5B2BB901CA01089568
:10043000AF92BF92CF92DF92EF92FF920F931F93F2
:1004400028EE33E040E050E00E9456215B016C0151
:100450000E94D8017B018C010E94D8016E197F098E
:10046000800B910B6A157B058C059D05A8F31F91E8
:100470000F91FF90EF90DF90CF90BF90AF900895D5
:1004800091E0982721F0913021F45D9A08955D98CC
:1004900008958BB190E289278BB90895EF92FF926E
:1004A0000F931F937B018C0180911A0390911B0382
:1004B000A0911C03B0911D038E199F09A00BB10BD5
:1004C000181619061A061B060CF450C080911E035C
:1004D000882321F5E0911F03EF5FE370E0931F0392
:1004E000FF27E7FDF095E258FD4F8081992787FDB2
:1004F0009095880F991F80931E0380E492E4AFE0EB
:10050000B0E0E80EF91E0A1F1B1FE0921A03F092DA
:100510001B0300931C0310931D0328C0815080937C
:100520001E0381700E944002E0911F03FF27E7FD38
:10053000F095EE0FFF1FEE57FD4F80819181AA27A6
:1005400097FDA095BA2F2AE0880F991FAA1FBB1FFD
:100550002A95D1F78E0D9F1DA01FB11F80931A03FE
:1005600090931B03A0931C03B0931D031F910F9145
:10057000FF90EF9008959A01AB01882311F0589AEB
:10058000599A1092B90060E074E284EF90E00E9402
:100590007521205130404040504056954795379541
:1005A00027952093B80008952FEF30E011C0211552
:1005B000310561F41092BC0080918A0290918B0207
:1005C000019690938B0280938A02089521503040C7
:1005D0008091BC0087FFEBCF0895FF920F931F938C
:1005E000F82E0CEB10E084EAF80180830E94D4021C
:1005F000F092BB0084E8F80180830E94D4021F912E
:100600000F91FF9008958093BB0084E88093BC0015
:100610000E94D40208951F93182F882311F484E8B0
:1006200001C084EC8093BC000E94D4029091BB0076
:10063000112319F484E98093BC00892F1F91089538
:100640000F931F93162F042F880F0E94ED02812F06
:100650000E940303802F0E94030384E98093BC005F
:100660001F910F9108950F931F93182F062F880F36
:100670000E94ED02802F0E940303110F812F8160E1
:100680000E94ED0280E00E940B031F910F910895DC
:100690001F93CF93DF93EB01142F880F81600E948B
:1006A000ED0208C0115080E011160CF481E00E94A8
:1006B0000B0389931123B1F7DF91CF911F91089517
:1006C000DF92EF92FF920F931F93E82EF62E8A018E
:1006D000D22E880F0E94ED028F2D0E9403038E2DD3
:1006E000B8014D2D0E9448031F910F91FF90EF908C
:1006F000DF90089588E66BE640E80E94200362E3FD
:1007000070E080E090E00E94180288E66BE643E02B
:100710000E94200340911D01415088E66AE10E9439
:10072000200388E66BE148E10E94200388E665E744
:100730000E94330390E08E77883609F491E0892F88
:100740000895A6E0B0E0E7EAF3E00C94BC218C0148
:100750007B016A0188E663E4AE014F5F5F4F26E0EC
:100760000E946003998180E02A8130E0822B932BE4
:10077000F801918380839B8180E02C8130E0822B83
:10078000932BF701918380839D8180E02E8130E05F
:10079000822B932BF601918380832696E8E00C94BC
:1007A000D821282F17C0E22FF0E0EE0FFF1FE457EB
:1007B000FD4F80819181892B61F080917C00887F41
:1007C000822B80937C0080917A00806480937A00F1
:1007D00008952F5F263038F308951F920F920FB6B9
:1007E0000F9211242F933F934F935F936F937F93B7
:1007F0008F939F93AF93BF93EF93FF9380917C0070
:100800008770E82FF0E0EE0FFF1FE457FD4F0190D7
:10081000F081E02D9091790090838F5F0E94D10349
:10082000FF91EF91BF91AF919F918F917F916F91C8
:100830005F914F913F912F910F900FBE0F901F909E
:100840001895ECE8F2E040E050E061E070E0808173
:100850009181892B79F087B1DB01042E02C0AA0FA8
:10086000BB1F0A94E2F79D012095822387B988B1C6
:10087000282328B94F5F5F4F32964630510539F72C
:1008800080E680937C0010927B008FE880937A0052
:1008900080E00E94D1030895CF93DF93EB01DA014A
:1008A000FC0140E050E061E070E080819181892BA3
:1008B00079F03881CB01042E02C0880F991F0A9469
:1008C000E2F7282F2095232328832C91822B8C93C9
:1008D0004F5F5F4F32964830510539F7DF91CF9126
:1008E000089588E992E064E270E045E250E00E94F9
:1008F0004C0488EA92E067E270E048E250E00E942F
:100900004C0488EB92E06AE270E04BE250E00E9417
:100910004C04089560E070E040E050E0A1E0B0E0F9
:10092000362FFA01E856FD4F0190F081E02D309707
:1009300051F023B1CD01062E02C0880F991F0A94F1
:10094000E2F728232083FA01E855FD4F0190F0815A
:10095000E02D309751F026B1CD01032E02C0880F53
:10096000991F0A94E2F728232083FA01E854FD4FE7
:100970000190F081E02D309749F029B1CD0102C0FE
:10098000880F991F3A95E2F7282320836F5F7F4FE6
:100990004E5F5F4F4031510519F60895A6E0B0E073
:1009A000E4EDF4E00C94B2217A8369831C012B01FD
:1009B0009E838D839B012A5F3F4F3C832B83ED8178
:1009C000FE810681178180819181081B190B3801F6
:1009D000882477FC8094982CF10182899389A489DA
:1009E000B589860D971DA81DB91D268D378D40A18F
:1009F00051A1AA24BB246501A21AB30AC40AD50ACC
:100A00008A159B05AC05BD054CF05C016D012817EE
:100A100039074A075B0714F459016A01F101A28AF8
:100A2000B38AC48AD58AED81FE8184859585AA27FB
:100A300097FDA095BA2FA4019301281B390B4A0BEF
:100A40005B0BCA01B90115870487F201248535853E
:100A5000442737FD4095542F0E9456217B018C017D
:100A600032E015950795F794E7943A95D1F7F2019E
:100A700020813181442737FD4095542FC401B301B3
:100A80000E94562123E095958795779567952A953D
:100A9000D1F7E60EF71E081F191FF20126813781D4
:100AA000442737FD4095542FC601B5010E945621B9
:100AB000B6E09595879577956795BA95D1F7E60E47
:100AC000F71E081F191FE981FA81028804C01595D5
:100AD0000795F794E7940A94D2F7ED81FE81F3A687
:100AE000E2A63296FE83ED8324E030E0220E331E30
:100AF00042E050E0440E551E8B819C8148165906F9
:100B000009F05DCF2696E2E10C94CE21A6E0B0E09C
:100B1000ECE8F5E00C94C221CE010196BE016D5FB8
:100B20007F4FAE014B5F5F4F0E94A103EB81FC81C1
:100B3000AA27BB27AE1BBF0BB093FF01A093FE01FA
:100B400069817A8144275527461B570B5093010230
:100B5000409300022D813E813093030220930202D4
:100B600080912E0290912F0283309105A9F084305C
:100B700091051CF4029771F506C084309105C9F007
:100B8000059741F51FC03093010220930002709336
:100B90000302609302021EC088279927821B930BD1
:100BA000909301028093000250930302409302024B
:100BB00011C05093FF014093FE01F0930102E093B6
:100BC000000208C07093FF016093FE01B093010220
:100BD000A09300022696E2E00C94DE2181E040E83A
:100BE0005AE166E070E00E94BB020E947A0388230B
:100BF00049F485E08093800288EC90E0909387022E
:100C00008093860208950F931F93CF93DF93FC0187
:100C10001082772767FD709572836183DC01EC0198
:100C200040E050E00FEF1FE760E070E80CC0129664
:100C30001C930E9311971A967C936E9319971F86A7
:100C4000188A198A1A8A9A014F5F5F4F1296249662
:100C5000818192812817390754F314A613A6DF91D6
:100C6000CF911F910F910895A0E0B0E0EAE3F6E084
:100C70000C94BA217C018C01EB01F70160E070E07B
:100C80002BC02181328188819981281739070CF482
:100C9000C901928381832185328588819981821758
:100CA00093070CF4C90192878187299139914427D0
:100CB00037FD4095542FD8011F96AD90BD90CD9033
:100CC000DC905297A20EB31EC41ED51E1F96AD9285
:100CD000BD92CD92DC9252979B016F5F7F4F32960F
:100CE0000C5F1F4FD70111968D919C911297281779
:100CF00039073CF2CDB7DEB7EAE00C94D621A0E08C
:100D0000B0E0E5E8F6E00C94BC21EC017C0143E2A4
:100D1000C42ED12CC80ED91E00E010E011C02BA5A6
:100D20003CA5442737FD4095542FF701678570890E
:100D3000818992890E949721F601219331936F0155
:100D400098010F5F1F4F84E090E0E80EF91E898143
:100D50009A81281739071CF3CDB7DEB7E8E00C9469
:100D6000D821CF93DF93FC01EB0161817281A0E078
:100D700040E050E00DC08385948523813481821B3F
:100D8000930B8C179D070CF4AF5F4F5F5F4F32964C
:100D90004617570784F320E08A2F992787FD9095FF
:100DA0008617970709F421E0822FDF91CF910895EC
:100DB000AAE0B0E0EEEDF6E00C94C0218C01809149
:100DC000C4019091C5019A8389838091C801909153
:100DD000C9019C838B838091CA019091CB019E8332
:100DE0008D838091C6019091C70198878F838091F0
:100DF000D2019091D3019A878987C801BE016F5FA4
:100E00007F4F0E943406F80183A594A5019694A70C
:100E100083A78436910581F5C80164E170E00E94E2
:100E2000B106882329F1C8010E947F06F80183A139
:100E300094A1909314018093130185A196A190939E
:100E400016018093150187A190A5909318018093B6
:100E5000170181A592A590931A018093190183A58A
:100E600094A590931C0180931B0181E0808304C0B2
:100E7000C80164E00E9403062A96E4E00C94DC2199
:100E8000A6E0B0E0E6E4F7E00C94C0218C0180918C
:100E9000FE019091FF019A838983809100029091D5
:100EA00001029C838B8380910202909103029E83B6
:100EB0008D83C801BE016F5F7F4F0E943406F80129
:100EC00083A594A5019694A783A78C52914021F500
:100ED000C80162E370E00E94B1068823C9F0C8012E
:100EE0000E947F06F80183A194A19093F901809359
:100EF000F80185A196A19093FB018093FA0187A147
:100F000090A59093FD018093FC0181E0808304C053
:100F1000C80163E00E9403062696E4E00C94DC21FD
:100F2000209103013091040180910301909104010B
:100F30002817390721F43093C5012093C40120916B
:100F40000501309106018091050190910601281755
:100F5000390721F43093C9012093C801209107017A
:100F600030910801809107019091080128173907F5
:100F700021F43093CB012093CA0120910B013091D1
:100F80000C0180910B0190910C012817390721F475
:100F90003093CD012093CC0120910D0130910E01B1
:100FA00080910D0190910E012817390721F430939B
:100FB000CF012093CE0120910F013091100180913B
:100FC0000F01909110012817390721F43093D101B6
:100FD0002093D001209111013091120180911101D3
:100FE000909112012817390721F43093D3012093EF
:100FF000D201809163029091640205974CF4809134
:10100000C4019091C5019093C7018093C6010895D2
:101010002091090130910A018091090190910A0102
:101020002817390721F43093C7012093C60108958A
:10103000A0E0B0E0EEE1F8E00C94B821EC01809083
:10104000630290906402F4013297E830F10508F0F1
:10105000D2C1EA5AFF4F688179814091C401509111
:10106000C5010C94E921640F751F7093EB01609327
:10107000EA01888199812091C6013091C701820FD0
:10108000931F9093F1018093F0018A819B812091BD
:10109000C8013091C901820F931F9093ED01809395
:1010A000EC019DC17A01E60EF71EF092EB01E09291
:1010B000EA01A090C601B090C701088119810A0D0C
:1010C0001B1D1093F1010093F001A0911301B09149
:1010D00014016A01CA1ADB0A488159814C0D5D1D51
:1010E000E0911501F09116018091C8019091C9011C
:1010F0008E1B9F0B2A813B81820F931FBA0175952E
:10110000679523E0559547952A95E1F7640F751F7C
:101110009C013595279543E0959587954A95E1F78C
:10112000280F391FE60FF71FE20FF31FF093ED01B1
:10113000E093EC016A0F7B1F621B730B7093EF014E
:101140006093EE012091CA013091CB0186E08816B0
:10115000910409F059C0E4E0223E3E0774F029579B
:101160003540273C310518F082E090E002C081E074
:1011700090E0029709F03FC11CC0C6018A199B0983
:101180002091190130911A01820F931F959587952F
:1011900084529A4F9093EB018093EA018C5D9540C5
:1011A0002CED35E0281B390B3093F1012093F00131
:1011B00022C1209102016A817B81E091D601F091E8
:1011C000D7016E0F7F1F882777FD8095982F30E01D
:1011D00020583040442737FD4095542F0E94562117
:1011E00047E095958795779567954A95D1F7E60EEF
:1011F000F71EF092EB01E092EA01061B170B109329
:10120000F1010093F001F7C07093EB016093EA01E4
:101210008C819D81EAC0640F751F7093EB01609310
:10122000EA01888199812091C6013091C701820F1E
:10123000931F9093F1018093F001A0911501B0915B
:1012400016014091C8015091C9014A1B5B0B8A816C
:101250009B81480F591FE0911701F091180180916F
:10126000CA019091CB018E1B9F0B2C813D81820F77
:10127000931FBC017595679523E0959587952A95F1
:10128000E1F7680F791F9A013595279583E0559509
:1012900047958A95E1F7240F351FCB01820F931FE5
:1012A0008A0F9B1F9093ED018093EC012E0F3F1F3F
:1012B000261B370B65C020911301309114010A8160
:1012C0001B818091D6019091D701080F191FAC8125
:1012D000BD818091D8019091D901A80FB91F80914B
:1012E000090190910A018C54944097FF03C0E0E0FB
:1012F000F0E016C08091090190910A018C5494404D
:1013000095958795855F91401CF0E4EFF1E008C06A
:10131000E0910901F0910A01EC54F440F595E7954C
:1013200044525A4F421B530B460F571FB801640FCC
:10133000751F9F012A1B3B0B37FF02C020E030E0E6
:10134000CB01821B930B9093EB018093EA01260F54
:10135000371F3093ED012093EC019A01201B310BD4
:10136000AF014A0F5B1F57FF02C040E050E0CA01C7
:10137000820F931F9093F1018093F001241B350B92
:101380003093EF012093EE0136C0640F751F709308
:10139000EB016093EA01888199812091C601309127
:1013A000C701820F931F9093F1018093F0018A810E
:1013B0009B812091C8013091C901820F931F9093A6
:1013C000ED018093EC018091D2019091D3012A81AB
:1013D0003B81821B930B9093F5018093F4018C81E8
:1013E0009D812091CA013091CB01820F931F909370
:1013F000EF018093EE018091D0019091D101909303
:10140000F3018093F20189E08816910441F0809104
:10141000D2019091D3019093F5018093F4018091D2
:10142000CE019091CF019093F7018093F601CDB753
:10143000DEB7ECE00C94D421AAE0B0E0E2E2FAE0FE
:101440000C94C02180912102909122020397A9F56A
:10145000FE0131968AE0DF011D928A95E9F7CF01FE
:101460000E941808A9E8B1E00AE012E044E152E065
:101470006D917C911197F80120813181FB01808170
:101480009181281739070CF4C901F80191838083F1
:10149000FA0120813181FB018081918182179307BC
:1014A0000CF4C901FA0181939193AF0112960E5F7A
:1014B0001F4FF1E0A339BF07D9F684E092E00E9404
:1014C00018088091630290916402099711F074E00A
:1014D00001C075E060E080E090E0FC01E757FE4F5E
:1014E000A081B1814D915C911197FC01E65FFD4FA8
:1014F0000190F081E02D4E175F0754F0FC01EC5E87
:10150000FD4F20813181FA01241735070CF4F901D0
:10151000ED93FC936F5F02966717FCF22A96E4E066
:101520000C94DC218091CA02882309F050C081E02C
:101530008093CA028FEF8093C9022FB7F8948091ED
:10154000EA019091EB019093DD018093DC018091A1
:10155000EC019091ED019093DF018093DE01809189
:10156000EE019091EF019093E1018093E001809171
:10157000F0019091F1019093E3018093E201809159
:10158000F2019091F3019093E5018093E401809141
:10159000F4019091F5019093E7018093E601809129
:1015A000F6019091F7019093E9018093E801809111
:1015B0006F00826080936F00B19A80918400909157
:1015C0008500049690938900809388002FBF08952A
:1015D000FC0181E08183808385E08283168215820D
:1015E0001086178208959C0144E0813B940714F40F
:1015F00090E00DC0845195408159914010F491E0E4
:1016000006C02850374014F49FEF06C092E06623CE
:1016100019F082E0891B982F892F0895CF93DF93CB
:10162000EC018A818B838091C4019091C5016D8109
:101630000E94F30A87FF88838091C8019091C901B5
:101640006E810E94F30A87FF89838F81882351F47A
:101650008881882329F0823029F481E08D831882E3
:1016600081E08F838885882361F48981882319F03C
:10167000823039F404C081E08E8382E0898381E086
:10168000888738813F5F898123E08202C00111246D
:10169000380F3A839B8180E0391729F081E09295D9
:1016A000907F932B9C83DF91CF910895282F30E07A
:1016B0003F6F220F331FEFB7F89480918400909111
:1016C0008500AC01405C5F4FBC016D5D7A4F80913D
:1016D000840090918500DA01A81BB90B1A161B062D
:1016E000B4F320FF02C03F9801C03F9A4617570746
:1016F00029F03695279545575F4FE9CFEFBF0895FD
:10170000EFB7F894379B49C016C020918400309100
:1017100085002058314C04C08FEF9FEF379B0BC0E2
:101720008091840090918500B901681B790B161691
:10173000170614F4F1CFAC0141505040CA01019694
:101740001816190614F34F5F5F4F19F420E030E8C4
:1017500026C08091840090918500AC0140565F4F77
:1017600020E030E0BC0163597B4F80918400909170
:101770008500DA01A81BB90B1A161B06B4F386B153
:101780003695279590E080789070282B392B461756
:10179000570729F045575F4FE8CF20E030E4EFBF0F
:1017A000C9010895EF92FF920F931F93CF93DF9398
:1017B000E82E192F062FF62E84E20E94560B802F5A
:1017C0000E94560B2E2D312FC901EC0104C08991C6
:1017D000F80E0E94560B9E012E192017C4F38F2D70
:1017E00081950E94560BCDB7DEB7E6E00C94DA2166
:1017F0008F929F92AF92BF92CF92DF92FF920F9300
:101800001F93CF93DF934C015A01C0E0D0E0C62E66
:10181000DD24C7FCD09402C0812F182FC5010E947F
:10182000800B9C018070907C892B69F5822FC130E0
:10183000D10559F0C230D105A1F0209779F72432B3
:1018400059F7812FC1E0D0E0E8CF90E0C816D90663
:1018500014F4812F15C0822FF22EC2E0D0E000E0F8
:10186000DCCFF20E812F8150112331F0F401E00F13
:10187000F11D20830F5FD1CFFF2011F481E004C060
:10188000C0E0D0E0CACF80E0DF91CF911F910F91EF
:10189000FF90DF90CF90BF90AF909F908F90089572
:1018A000CF92DF92EF92FF921F93CF93DF93E0915D
:1018B0004601F0914701A081B18114962D913C9190
:1018C0001597CF01F9010995892B09F492C05BC0E6
:1018D00010921903209305033093060340930703E6
:1018E0005093080380911903E82FFF27E7FDF09537
:1018F000E75FFC4F10838F5F8093190380310CF4F6
:1019000076C0809100031816D4F5ABE0B3E0CBE0CD
:10191000D0E05C9140E011968C911197282F30E037
:10192000242B352B80910003682F772767FD709556
:10193000C901062E02C0969587950A94E2F78F702A
:101940008830C4F4E82FFF27E7FDF095EE0FFF1F66
:10195000EB59FD4F0190F081E02DCE01861B970BD6
:1019600002C0220F331F8A95E2F7377024523E4F90
:1019700031832083129663E0A931B60751F61092A5
:10198000190381E036C080911903803194F5A0914C
:101990004601B0914701ED91FC9111970680F781C6
:1019A000E02DCD010995182F0E94D8019B01AC01B3
:1019B00060930103709302038093030390930403E5
:1019C0008091050390910603A0910703B09108034D
:1019D00069017A01C81AD90AEA0AFB0AD701C601C5
:1019E00089559B41A040B0400CF072CF73CF80E08E
:1019F00000C0DF91CF911F91FF90EF90DF90CF90CB
:101A00000895809146019091470140E052EC61E0D9
:101A100070E00E94831880912C0290912D02019712
:101A200011F08BE001C08AE08093000308951F93BA
:101A3000CF93DF93EC01142F45E450E00E94EF2197
:101A40008881811711F08FEF12C090E020E030E024
:101A5000FE01E20FF31F8081980F2F5F3F4F253467
:101A60003105B1F7992311F480E001C08EEFDF91C9
:101A7000CF911F910895DC0190E020E030E0FD015E
:101A8000E20FF31F8081980F2F5F3F4F2434310501
:101A9000B1F7AC5BBF4F91959C93A454B040CD017E
:101AA00045E450E00E94FF210895A1E1B0E0EBE59C
:101AB000FDE00C94B2211C0181E089838FE192E06A
:101AC0009B838A8302969D838C830D969F838E834E
:101AD00002969987888702969B878A8702969D87B8
:101AE0008C8702969F878E87CE010196998B888B73
:101AF000D0901F02DD0CCC246624EE24FF24870145
:101B0000F0E88F2EFAE19F2EF6E0AF2EB12CE2E046
:101B10007E2E2C010E94D8019B01AC01DC01CB017F
:101B20008E199F09A00BB10B88169906AA06BB0651
:101B30000CF051C0171424F5872D992787FD909537
:101B4000FC01E170F07080FD03C088E097E002C006
:101B50008CED95E09093ED018093EC018CED95E098
:101B60009093EB018093EA01EE0FFF1FEE0FFF1F32
:101B7000EF58FE4F80809180A280B3807A9429C074
:101B8000DD2039F11D1424F46CE271E0A1E003C002
:101B900064ED7EEFAFEF8D2D992787FD9095FC01C9
:101BA000E170F07080FF03C08CED95E003C0CB01C5
:101BB00084529A4F9093EB018093EA01EE0FFF1F3E
:101BC000EE0FFF1FEF58FE4F80809180A280B38000
:101BD000DA1A79018A010E94500C882319F091E0E9
:101BE0009093C8028091C802882329F01092C802FD
:101BF0000E94900702C0662041F08091CA028823AB
:101C000009F08CC00E94920A6624772009F082CFE6
:101C1000C1010E940E0B882309F47CCFF10184815D
:101C2000843561F0853520F4823509F063C013C036
:101C3000863559F0883509F05DC02AC0F1E0FC1501
:101C400014F0CC2470C0CA946EC085E08C150CF4DE
:101C500068C0C39468C0AC2DBB27A7FDB095FD013B
:101C6000EE0FFF1FE40DF51D0180F281E02D808154
:101C7000282F332727FD30952F5F3F4FA758BE4FA2
:101C80008C91992787FD909582179307F4F41CC0D7
:101C9000AC2DBB27A7FDB095FD01EE0FFF1FE40D96
:101CA000F51D0180F281E02D8081282F332727FD4B
:101CB000309521503040AF57BE4F8C91992787FD0A
:101CC0009095281739070CF49C01208320E08C2D77
:101CD000992787FD9095FC01EE0FFF1FE40DF51D80
:101CE0000180F281E02DD080DD0C222319F00196D5
:101CF000782E770C8981823009F00CCF8EE192E04A
:101D000060E070E00E943B0D8EE192E060E071E0E7
:101D10000E943B0D6196E2E10C94CE21662463940F
:101D200074CF87E0C82E21E0D2CFA2E9B0E0EBE982
:101D3000FEE00C94B2210E94D8011B012C01DE01AF
:101D40001196E3E6F1E086E001900D928150E1F713
:101D50008E010D5E1F4FC8010E94E80A4CE1E42E7F
:101D6000F12CEC0EFD1EC70164E00E94030639E46D
:101D7000C32ED12CCC0EDD1EC60163E00E940306EB
:101D80002092FC023092FD024092FE025092FF022D
:101D9000C557DF4F288239824A825B82CB58D040B8
:101DA000C957DF4F288239824A825B82C758D040A8
:101DB000CD57DF4F288239824A825B82C358D04098
:101DC00042013101C158DF4F288239824A825B8249
:101DD000CF57D040EB962CAE3DAE4EAE5FAEEB97FC
:101DE000EF961FAEEF97EE961FAEEE97ED961FAEF5
:101DF000ED9721E0EC962FAFEC97C157DF4FE882CB
:101E0000CF58D040C057DF4FF882C059D040CF568E
:101E1000DF4F0883C159D040CE56DF4F1883C259D7
:101E2000D0400E94D8015B016C010E944E020E94CA
:101E3000500C8823B9F18091770290917802A0919B
:101E40007902B0917A02883E33E0930730E0A3072D
:101E500030E0B30731F0805D9740A040B040F9F426
:101E60000EC0EE965FADEE97552329F461E0EE9635
:101E70006FAFEE9717C071E07093C8020CC0EE967A
:101E80008FADEE978F5FEE968FAFEE97833054F065
:101E900091E09093C802EE961FAEEE9703C0A1E0CA
:101EA000A093C8028091C8028823A1F4D601C5017D
:101EB000C557DF4F288139814A815B81CB58D0409B
:101EC000821B930BA40BB50B81539547A040B040E8
:101ED0000CF442C01092C8020E9490078C8D882397
:101EE00069F0C557DF4FA882B982CA82DB82CB581E
:101EF000D04041E0EF964FAFEF972EC0C157DF4F74
:101F00008881CF58D040C057DF4F9881C059D0400A
:101F10000E94D8062A968FAD2A97882311F492E062
:101F200001C090E020E08C8D882309F421E0920F1D
:101F300090937F0268EC70E0709385026093840256
:101F4000C557DF4FA882B982CA82DB82CB58D04006
:101F500071E0EF967FAFEF978091CA02882379F501
:101F6000EF968FADEF97882351F1A6019501C957E0
:101F7000DF4F688179818A819B81C758D040261BB9
:101F8000370B480B590B8091770290917802A09102
:101F90007902B0917A0282179307A407B5077CF4FF
:101FA0000E941C0A0E94920AC957DF4FA882B98278
:101FB000CA82DB82C758D040EF961FAEEF97D6019A
:101FC000C501CD57DF4F288139814A815B81C358D4
:101FD000D040821B930BA40BB50B81519742A040BC
:101FE000B04054F10E9486052A968FAD2A97882327
:101FF000D9F4CE01875B9F4F0E9440072A968FAD90
:102000002A97882311F492E001C090E020E08C8DA3
:10201000882309F421E0920F90937F0248EC50E06E
:102020005093850240938402CD57DF4FA882B98236
:10203000CA82DB82C358D040EC965FADEC97552343
:1020400009F456C0CF56DF4F8881C159D040CE56D3
:10205000DF4F9881C259D0400E940E0B882309F4AB
:1020600047C0ED966FADED97E62FFF27E7FDF095A2
:10207000E65AFE4F9F898081981721F0ED961FAE9A
:10208000ED9707C0ED967FADED977F5FED967FAF43
:10209000ED97ED968FADED97E82FFF27E7FDF095D3
:1020A000E65AFE4F80818F3F81F4CE0143960E9415
:1020B000550D2EE088E190E00FB6F894A895809336
:1020C00060000FBE20936000FFCFD601C5018219CA
:1020D0009309A409B509815C914EA44EB04024F047
:1020E000EC961FAEEC9704C0F1E0EC96FFAFEC97D6
:1020F0008C8D882329F02A968FAD2A978823C9F5DD
:102100008091C6019091C7012091C4013091C50111
:10211000820F931F2091190130911A01821B930B9A
:102120002091130130911401821B930B9595879593
:102130009093D5018093D4018091C8019091C901F9
:102140002091150130911601821B930B9093D701BA
:102150008093D6018091CA019091CB012091170103
:1021600030911801821B930B9093D9018093D80171
:1021700058CED601C50186199709A809B909815118
:102180009742A040B0400CF434C380917502909106
:1021900076028130910559F48091CC019091CD0166
:1021A000865F95400CF0A3C080E090E00DC0892BC5
:1021B00009F09DC08091CC019091CD01875296404D
:1021C0000CF495C081E090E09093760280937502C4
:1021D000892B11F084E001C080E080937F0268ECDD
:1021E00070E070938502609384021092DD02109279
:1021F000DE021092DF021092E0021092E9021092C9
:10220000EA021092EB021092EC021092E10210929C
:10221000E2021092E3021092E4021092ED02109298
:10222000EE021092EF021092F0021092E50210926C
:10223000E6021092E7021092E8021092F102109268
:10224000F2021092F3021092F40280913602909101
:102250003702029709F04BC0D601C501EB962CADB1
:102260003DAD4EAD5FADEB97821B930BA40BB50B51
:102270008152914AA740B0401CF0E7961FAEE79705
:10228000E7964FADE7974F5FE7964FAFE79743303D
:1022900044F18091C4019091C50190931401809301
:1022A00013018091C8019091C90190931601809308
:1022B00015018091CA019091CB01909318018093F0
:1022C00017018091C6019091C70190931A018093E4
:1022D00019018091D2019091D30190931C018093B8
:1022E0001B01EB96ACAEBDAECEAEDFAEEB97409130
:1022F000C6015091C7018091C4019091C501480F5A
:10230000591F8091190190911A01481B590B809116
:10231000130190911401481B590B55954795509303
:10232000D5014093D401E091C801F091C901809199
:10233000150190911601E81BF90BF093D701E0937A
:10234000D601A091CA01B091CB0180911701909163
:102350001801A81BB90BB093D901A093D8018091A3
:10236000D2019091D30120911B0130911C01821B5D
:10237000930B9093DB018093DA01809130028150BE
:10238000282F332727FD3095CA0157FF04C088271F
:102390009927841B950B022E02C0880F991F0A945F
:1023A000E2F761E08139960714F080E991E060E995
:1023B00071E0681B790B78876F83CF01F7FF04C04A
:1023C000882799278E1B9F0B022E02C0880F991F0A
:1023D0000A94E2F771E08139970714F080E991E0FF
:1023E00060E971E0681B790B7A876987CD01B7FFD7
:1023F00004C0882799278A1B9B0BBC0102C0660F6B
:10240000771F2A95E2F781E06139780714F060E9D7
:1024100071E010E9612E11E0712E661A770A7C8650
:102420006B868091CC019091CD0125E0833C920791
:102430004CF403EC15E0081B190B31E001391307CC
:1024400094F00BC066E0883296071CF400E010E0C0
:102450000AC077E0863897071CF000E911E003C056
:102460008C01055F1540809075029090760281E0A6
:102470008816910459F08114910409F050C080919C
:10248000340290913502029709F049C080913202DE
:102490009A01082E02C0220F331F0A94E2F73E87EA
:1024A0002D87082E02C0EE0FFF1F0A94E2F7F88B6B
:1024B000EF87AD0102C0440F551F8A95E2F75A8B92
:1024C000498B89819A8197FD05C088279927821BAE
:1024D000930B01C0C9019093CC028093CB028B81F6
:1024E0009C812F85388997FD05C088279927821BF5
:1024F000930B01C0C9019093CE028093CD028D81D0
:102500009E8197FD03C0509541955F4F5093D00237
:102510004093CF0291E08916910471F055C010925A
:10252000CC021092CB021092CE021092CD021092E9
:10253000D0021092CF0248C06F817885882777FD3E
:102540008095982F24EF3FEB40E050E00E94562109
:10255000F9E09595879577956795FA95D1F760930A
:10256000E9027093EA028093EB029093EC02698592
:102570007A85882777FD8095982F0E945621E9E07B
:102580009595879577956795EA95D1F76093ED02D4
:102590007093EE028093EF029093F002B3018827CC
:1025A00077FD8095982F0E94562139E09595879563
:1025B000779567953A95D1F76093F1027093F2029F
:1025C0008093F3029093F4022091FE013091FF0179
:1025D0008091F8019091F901281B390BA0E220307D
:1025E0003A0714F02FEF3FE1C901B0EE20303B076E
:1025F00014F480E090EE9093D2028093D102209167
:102600000002309101028091FA019091FB01281B98
:10261000390BE0E220303E0714F02FEF3FE1C90113
:10262000F0EE20303F0714F480E090EE9093D40257
:102630008093D30220910202309103028091FC0129
:102640009091FD01281B390B40E22030340714F033
:102650002FEF3FE1C90150EE2030350714F480E040
:1026600090EE9093D6028093D502892819F06EE4FB
:1026700072E002C06BE372E08BEC92E00E94CE0449
:10268000EE24FF243801882477FC8094982C87015D
:102690000C5F1D4FE1E0F0E0EC0FFD1FEE0DFF1DA4
:1026A00060817181882777FD8095982FF701E55328
:1026B000FD4F22A533A5442737FD4095542F0E9496
:1026C000562127E095958795779567952A95D1F7B7
:1026D000E7E0F0E0EC0FFD1FEE0DFF1D20813181E2
:1026E000442737FD4095542F0E9456219B01AC0191
:1026F000B9E05595479537952795BA95D1F7C40117
:10270000B3010E945621A9E0959587957795679525
:10271000AA95D1F7D8016D937C93E2E0F0E0EE0E3C
:10272000FF1EF6E0EF16F10409F0B1CF2091FB0295
:1027300012160CF05CC08091FC029091FD02A091F9
:10274000FE02B091FF02B601A501481B590B6A0BAE
:102750007B0BDB01CA0181549D40A340B0405CF07B
:1027600021502093FB02A092FC02B092FD02C09285
:10277000FE02D092FF028091FB02992787FD90957F
:102780004091040250910502BC016170707080FF9D
:1027900003C026E930E002C02AE63FEF240F351FD0
:1027A00030930502209304024091060250910702E3
:1027B0006115710519F026E930E002C02AE63FEF05
:1027C000240F351F30930702209306022091080240
:1027D00030910902672B19F48AE69FEF02C086E95F
:1027E00090E0820F931F90930902809308023501B5
:1027F0004601D601C501C158DF4F288139814A8180
:102800005B81CF57D040821B930BA40BB50B8C5927
:10281000914AA740B0400CF404CB80913802803834
:1028200039F480910001282F30E02058304004C056
:10283000282F332727FD309580913902803839F4CD
:1028400080910101482F50E04058504004C0482F6B
:10285000552747FD509580913A02803831F4809198
:10286000020190E08058904003C0992787FD909521
:102870003A8329835C834B839E838D83295F3F4FFB
:102880002F30310510F41A8219828B819C810796B2
:102890000F9710F41C821B828D819E8107960F97E3
:1028A00010F41E821D8280E00E94D103C158DF4FC8
:1028B000A882B982CA82DB82CF57D040B2CAA6E6CC
:1028C000B0E0E5E6F4E10C94BC211092800081E0D8
:1028D000809381003F98479848E552E000E06E0100
:1028E0000894C11CD11C62E0E62EF12CEC0EFD1EFA
:1028F000C60166E60E94F80B882309F441C089816D
:102900008230A9F0833018F4813029F406C0833076
:10291000B1F08430E9F010E026C0C70160E870E053
:1029200048E050E00E94EF2110E069E01DC0C701BF
:1029300060E870E048E050E00E94FF2113C0C7014A
:1029400060E070E04CE00E94170D10E066E40CC0FF
:10295000C70160E070E00E943B0DC70160E071E0DC
:102960000E943B0D11E061E0898180688983C60186
:102970000E94D20B01E044EF51E0112309F4B8CFDB
:10298000802FCA59DF4FE8E00C94D821CF93DF9312
:10299000C0E0D0E0FE01E25CFE4F808187FD04C014
:1029A000808161E00E945D1E2196C830D10591F7BB
:1029B000DF91CF9108951F920F920FB60F921124BD
:1029C0000F931F932F933F934F935F936F937F9337
:1029D0008F939F93AF93BF93EF93FF938091C9021F
:1029E00087FD42C0E091C902FF27E7FDF095E25C58
:1029F000FE4F808160E00E94D51E36C08091C902E2
:102A00008F5F8093C902E091C902FF27E7FDF0952F
:102A1000E25CFE4F808187FD27C000918400109109
:102A20008500E091C902FF27E7FDF095E25CFE4FCB
:102A3000808161E00E94D51EE091C902FF27E7FD79
:102A4000F095EE0FFF1FE25DFE4F0190F081E02D4B
:102A5000808191810297880F991F800F911F909319
:102A60008900809388000BC08091C902873034F2BE
:102A70001092CA0280916F008D7F80936F00FF914A
:102A8000EF91BF91AF919F918F917F916F915F91E6
:102A90004F913F912F911F910F910F900FBE0F906B
:102AA0001F901895A0E0B0E0E8E5F5E10C94BC219A
:102AB000182F062F862F61E00E945D1E812F60E097
:102AC0000E945D1E812F61E00E94D51E6AE070E0C9
:102AD00080E090E00E941802C0E0D0E0812F9927AA
:102AE00087FD9095FC01E759FE4FE491F0E0EE0F71
:102AF000FF1FE55AFE4FC590D49089579E4FFC01A9
:102B00008491E82EFF24CE018170182F802F612F31
:102B10000E94D51EF601808120E030E090E08E21F9
:102B20009F21892B11F021E030E0812F992787FD2B
:102B300090952817390711F010E005C02196C8308C
:102B4000D10509F711E0802F60E00E945D1E812F02
:102B5000CDB7DEB7E8E00C94D821A4E9B0E0E3EB10
:102B6000F5E10C94BC21559A80913B0490913C0472
:102B7000009711F09C0102C02FE334E0CE010196D2
:102B8000821B930B803891054CF484E18093800282
:102B90008EE190E0909387028093860221E030E0FE
:102BA0003093200220931F0280E8809338028093A4
:102BB000390280933A02309322022093210287E067
:102BC0008093610284E180932302E9E6F1E094E2DC
:102BD000C92E92E0D92ED60181918D9321E0E13763
:102BE000F207D1F742E050E050932D0240932C02BF
:102BF00021E030E030932F0220932E0230933102F7
:102C00002093300283E090E090933302809332026D
:102C100030933502209334025093370240933602AA
:102C200084EF91E090933C0280933B021092420229
:102C300010924102909348028093470290933E0283
:102C400080933D02109244021092430290934A02F4
:102C5000809349029093400280933F021092460273
:102C60001092450290934C0280934B0228E02093EF
:102C70004D0290934F0280934E02909355028093A1
:102C8000540290935B0280935A0290935102809376
:102C90005002909357028093560290935D02809366
:102CA0005C02909353028093520290935902809356
:102CB000580290935F0280935E022093600285E049
:102CC00066E00E945215882311F400E001C007E07D
:102CD000CE01039660E870E048E050E00E94EF21EA
:102CE000002361F48B81833049F48C819D81AE8116
:102CF000BF818E549146AC4BB04071F083E08B8322
:102D00008EE491E6ACEBB0E08C839D83AE83BF8311
:102D1000188619861A860860CE010B9660E070E06E
:102D20004CE00E94170D87FD0260CE01805B9F4F33
:102D300060E071E04CE00E94170D87FD046083E0C5
:102D40008093FB02E02EFF24C701867090708230D2
:102D5000910531F08430910579F0892B81F119C00A
:102D60008E01005B1F4FC80160E070E00E943B0DC8
:102D700088858F5F88870BC08E01055F1F4FC80154
:102D800060E071E00E943B0D89858F5F8987C801F3
:102D900018C08CE080931E028EE192E060E070E04B
:102DA0000E943B0D8EE192E060E071E00E943B0DDD
:102DB0008A858F5F8A8789E08093FB020AC0CE01F3
:102DC0000B96AEE1B2E0FC0185E401900D928150DA
:102DD000E1F7C7018E709070892B41F0CE01039608
:102DE00060E870E048E050E00E94FF21E0FE0AC089
:102DF00082E00E94400264E670E080E090E00E9481
:102E0000E31DF6CF0E945F14882361F02EE088E175
:102E100090E00FB6F894A895809360000FBE2093C1
:102E20006000FFCF1092800082E08093810081E0FB
:102E300080936F0085B5887F85BD0E94010D8091CC
:102E40002102909122028230910519F1833091057F
:102E500024F4019709F05BC007C08330910571F13C
:102E6000049709F054C03FC080E090E048EE53E082
:102E700020ED37E0FC01E65FFD4F51834083FC010C
:102E8000EC5EFD4F3183208302968A30910591F7E5
:102E90003EC080E090E04CE454E02CE637E0FC01DA
:102EA000E65FFD4F51834083FC01EC5EFD4F3183B3
:102EB000208302968A30910591F729C080E090E046
:102EC00042EE54E026ED36E0FC01E65FFD4F518313
:102ED0004083FC01EC5EFD4F3183208302968A30F3
:102EE000910591F714C080E090E044E853E024E3BA
:102EF00038E0FC01E65FFD4F51834083FC01EC5E4E
:102F0000FD4F3183208302968A30910591F780919D
:102F10002302992787FD909528EE33E0FC01E29F7C
:102F2000C001E39F900DF29F900D1124AA2797FDF9
:102F3000A095BA2F8093770290937802A09379029C
:102F4000B0937A0280916102877080931D01A5E69B
:102F5000B2E0F60181916F01E82FFF27E7FDF095C0
:102F6000EE0FFF1FE25EFE4F808191818D939D9356
:102F7000FCE2CF16F2E0DF0661F720E030E0F90175
:102F8000E85BFE4F8081F901E25CFE4F80832F5F9A
:102F90003F4F2830310599F70E9471040E948A043E
:102FA00080911F02909120029093640280936302AB
:102FB000019731F482E090E0909364028093630281
:102FC0008091630280937E0288E592E09093830271
:102FD000809382020E9421040E94C6140E94EE0582
:102FE0000E9490070E941C0ACC56DF4FE8E00C9428
:102FF000D82108951F920F920FB60F9211242F938C
:103000003F934F938F939F93EF93FF938091C800CB
:1030100082FD1DC04091CE0020916003309161037C
:103020002F5F3F4F2F733070809162039091630345
:103030002817390771F0E0916003F0916103E05EB9
:10304000FC4F4083309361032093600302C0809162
:10305000CE00FF91EF919F918F914F913F912F91D2
:103060000F900FBE0F901F901895E091B403F09150
:10307000B503E05CFF4F8191919120813181821BEA
:10308000930B8F739070892B11F00E94F91708959C
:103090001F920F920FB60F9211242F933F938F938D
:1030A0009F93EF93FF932091A4033091A503809108
:1030B000A6039091A7032817390731F48091C9001E
:1030C0008F7D8093C90014C0E091A603F091A703FF
:1030D000EC59FC4F20818091A6039091A7030196A3
:1030E0008F7390709093A7038093A6032093CE00D4
:1030F000FF91EF919F918F913F912F910F900FBE74
:103100000F901F901895AF92BF92DF92EF92FF92AF
:103110000F931F93CF93DF93EC017A018B01DD2492
:10312000403081EE580780E0680780E0780711F0B2
:10313000DD24D39491E0A92EB12CEC89FD89DD200A
:1031400069F0C50108A002C0880F991F0A94E2F730
:10315000808360E079E08DE390E005C0108260E854
:1031600074E88EE190E0A80197010E94752121503A
:10317000304040405040569547953795279580E11F
:103180002030380720F0DD2011F0DD24D6CFE8898B
:10319000F9893083EA89FB89208319A2EE89FF89A6
:1031A000408121E030E0C9010C8C02C0880F991FDA
:1031B0000A94E2F7482B4083EE89FF894081C901D8
:1031C0000D8C02C0880F991F0A94E2F7482B4083A8
:1031D000EE89FF894081C9010E8C02C0880F991FBA
:1031E0000A94E2F7482B4083EE89FF8980810F8C97
:1031F00002C0220F331F0A94E2F720952823208370
:10320000DF91CF911F910F91FF90EF90DF90BF90D2
:10321000AF900895DC011C96ED91FC911D97E05C48
:10322000FF4F2191319180819181281B390B2F73A0
:103230003070C9010895DC011C96ED91FC911D9739
:10324000E05CFF4F20813181E054F040DF01AE5B54
:10325000BF4F8D919C9111972817390719F42FEFC3
:103260003FEF07C08D919C91E80FF91F8081282FB7
:1032700030E0C9010895DC011C96ED91FC911D9789
:10328000E05CFF4F20813181E054F040DF01AE5B14
:10329000BF4F8D919C9111972817390719F42FEF83
:1032A0003FEF10C08D919C911197E80FF91F20817D
:1032B0008D919C91119701968F73907011969C93AC
:1032C0008E9330E0C9010895DC0191968C9191971D
:1032D000882339F05496ED91FC915597808186FFB3
:1032E000F9CF91961C920895CF93DF93EC01EE8570
:1032F000FF85E05CFF4F20813181E054F0402F5F7B
:103300003F4F2F733070DF01AE5BBF4F8D919C91AB
:10331000119728173907D1F3E05CFF4F8081918125
:10332000E054F040E80FF91F6083EE85FF85E05C14
:10333000FF4F31832083EE89FF89208181E090E077
:103340000F8C02C0880F991F0A94E2F7282B208364
:1033500081E089A3EC89FD8980818064808381E09C
:1033600090E0DF91CF9108951092AB031092AA03E1
:1033700088EE93E0A0E0B0E08093AC039093AD03BF
:10338000A093AE03B093AF0387E991E09093A903B4
:103390008093A80380E293E09093B5038093B403F5
:1033A00084E693E09093B7038093B6038DEC90E0AE
:1033B0009093B9038093B8038CEC90E09093BB0397
:1033C0008093BA0388EC90E09093BD038093BC0394
:1033D00089EC90E09093BF038093BE038AEC90E069
:1033E0009093C1038093C0038EEC90E09093C3034D
:1033F0008093C20384E08093C40383E08093C50379
:1034000087E08093C60385E08093C70381E08093C3
:10341000C8030895CF93DF930E94071E82ED93E0C7
:103420000E94121B0E94AD15C5E3D8E10E94950EC3
:103430002097E1F30E943518F9CFA0E0B0E0E3E275
:10344000FAE10C94BC217C016B018A01C0E0D0E060
:103450000FC0D6016D916D01D701ED91FC910190E6
:10346000F081E02DC7010995C80FD91F0150104008
:103470000115110571F7CE01CDB7DEB7E8E00C9468
:10348000D821FC0104C08091F10081936150662332
:10349000D1F7289884E68093CB030895282F809154
:1034A000CC038823C1F057FF1AC015C02898909309
:1034B000CB038091F1008193E217F307B9F741152F
:1034C000510539F08091F200882319F48BE680933E
:1034D000E800AFBF02C04FEF5FEFCA010895AFB77A
:1034E000F89427702093E9008091F200282F30E0B3
:1034F000241735070CF4A901FB019B01240F311D92
:1035000094E6DACFA1E0B0E0E8E8FAE10C94C22159
:10351000BE016F5F7F4F41E050E00E944E1A01975D
:1035200019F02FEF3FEF03C08981282F30E0C90148
:103530002196E2E00C94DE212FB7F89487708093F7
:10354000E9008091E80085FD02C090E004C0809110
:10355000F20090E4981B2FBF892F0895FF920F93DC
:103560001F93F82E142F052F4091CF035091D003B5
:10357000212F302FC901DC01FB016EEF29C0F7FEBE
:1035800002C0949101C090812091CD033091CE036F
:1035900024173507ACF48091E8008570E1F3809141
:1035A000E80082FF03C02FEF3FEF17C09093F100B8
:1035B000C90101968F739070892B11F46093E80014
:1035C0002F5F3F4F3093CE032093CD031197319659
:1035D0001097A9F6812F902F9C01C9011F910F917F
:1035E000FF9008950F931F939C01162F072F809132
:1035F000E80082FFFCCFC901612F0E94411A8BEFC6
:103600008093E800812F902F1F910F910895809350
:10361000E9008091F200882319F08AE38093E800A2
:10362000089508951092CC0381E08093D70080EA3A
:103630008093D80082E189BD09B400FEFDCF61E02E
:1036400070E080E090E00E94E31D80E98093D80064
:103650008CE08093E2001092E000559A209A089541
:10366000A0E0B0E0E6E3FBE10C94B621E82E942E56
:10367000852E8091CC03882309F18B01242F352FCF
:10368000C901EC016AEFF62E57E0752E7E208E2DD3
:1036900090E040E2A42EB12CA822B9223AE3632E96
:1036A00020E4C22ED12CC822D9224CC08E2D0E94DB
:1036B0009C1A282F882361F4FA9419F42FEF3FEF16
:1036C0004CC061E070E080E090E00E94E31D3AC0F1
:1036D00090E0C817D9070CF42C2FC21BD1094FB7A3
:1036E000F8947092E900A114B10421F406C010927C
:1036F000F10021502223D9F719C0E7FC03C0F801DB
:10370000922F10C0C801322F06C0FC010196E4912F
:10371000E093F10031503323C1F706C081918093CB
:10372000F10091509923D1F7020F111D8091E8000B
:1037300085FF05C0209729F4C114D10411F06092CF
:10374000E8004FBF209709F0B1CF5D9884E68093E1
:10375000CA03292D382DC9019C01C901CDB7DEB797
:10376000EEE00C94D2211F920F920FB60F9211240B
:103770002F933F934F935F936F937F938F939F9379
:10378000AF93BF93EF93FF938091E1001092E1001C
:10379000982F83FF0FC01092E90081E08093EB0027
:1037A0001092EC0082E38093ED001092CC0388E04D
:1037B0008093F00092FF34C083E08093E900809111
:1037C000F200882319F08AE38093E8008FB7F89419
:1037D00092E09093E9009091F2008FBF992321F03D
:1037E00080E294E00E94921F8091CA03882351F0E6
:1037F0008091CA0381508093CA038091CA038823B1
:1038000009F45D9A8091CB03882351F08091CB031A
:1038100081508093CB038091CB03882309F4289AAD
:10382000FF91EF91BF91AF919F918F917F916F9198
:103830005F914F913F912F910F900FBE0F901F906E
:103840001895A1E0B0E0E7E2FCE10C94C0211982F8
:103850008E010F5F1F4FC8010E94B81FC8010E9450
:103860004A21898190E02196E4E00C94DC211F92AA
:103870000F920FB60F921124EF92FF921F932F9386
:103880003F934F935F936F937F938F939F93AF93E8
:10389000BF93EF93FF93DF93CF93CDB7DEB76197DD
:1038A000DEBFCDBF1092E9008091E80083FF04C124
:1038B000CE01019668E00E94411A82EF8093E800F1
:1038C000998197FF05C08091E80080FFFCCF03C07D
:1038D0008EEF8093E800292F30E0C9018076907048
:1038E000892B09F0C2C08A81882329F41092F10043
:1038F0001092F100D6C0813009F4D3C0833009F4AE
:10390000D0C0853049F48091E80080FFFCCF8B81E6
:1039100080688093E300C5C0863009F07CC01C81BC
:10392000EF80F8841230C1F51092E9001092CE03B6
:103930001092CD031092D0031092CF030E94211C4D
:1039400099E0FE013996DF01292F1D922A95E9F7AA
:1039500099871A8791E09E8790E8988B9AEF998BC8
:103960002091CD033091CE03275F3F4F3C872B87BB
:103970008D871092E9001092CE031092CD03F09241
:10398000D003E092CF0380E0BF0149E050E00E9405
:10399000AE1A0E94211C85C01092E9001092CE033D
:1039A0001092CD03F092D003E092CF03123241F493
:1039B00082E290E00E944221892B09F476C071C016
:1039C000113079F488E0E816F10419F481E080936D
:1039D000D1038091D103882309F06BC0E6E1F1E0C7
:1039E00013C0133009F061C08B81882319F4E8ED0E
:1039F000F0E00AC0823019F4ECEDF0E005C081304F
:103A000009F053C0EEEFF0E0449180E8BF0150E0D0
:103A10000E94AE1A46C0873009F447C0883021F4AE
:103A200081E08093F1003DC08930D9F5237030707A
:103A3000232BD9F5EBE3F1E091E031E026E390931D
:103A4000E9003093EB0084918093EC002093ED002B
:103A50009F5F3196953099F78EE78093EA00109238
:103A6000EA008B818093CC031CC08F8198851092D3
:103A7000E9001092CE031092CD039093D00380936F
:103A8000CF038D81882329F4CE0101960E94C41FA3
:103A900006C0823051F4CE0101960E941A2088237C
:103AA00021F08EEF8093E80007C081E28093EB0065
:103AB00003C0E8E2F1E0A8CF6196DEBFCDBFCF91B1
:103AC000DF91FF91EF91BF91AF919F918F917F9186
:103AD0006F915F914F913F912F911F91FF90EF90C8
:103AE0000F900FBE0F901F9018951F920F920FB658
:103AF0000F9211242F933F938F939F93AF93BF9374
:103B00008091D7039091D803A091D903B091DA03A3
:103B10003091DB030196A11DB11D232F2D5F2D37A1
:103B200020F02D570196A11DB11D2093DB0380933A
:103B3000D7039093D803A093D903B093DA0380916D
:103B4000D3039091D403A091D503B091D6030196ED
:103B5000A11DB11D8093D3039093D403A093D503EB
:103B6000B093D603BF91AF919F918F913F912F91C9
:103B70000F900FBE0F901F9018959FB7F89420914B
:103B8000D3033091D4034091D5035091D60386B529
:103B9000A89B06C08F3F21F02F5F3F4F4F4F5F4FD5
:103BA0009FBF542F432F322F2227280F311D411D35
:103BB000511D82E0220F331F441F551F8A95D1F7F4
:103BC000B901CA010895EF92FF920F931F93CF930B
:103BD000DF937B018C010E94BD1DEB010EC00E9492
:103BE000BD1D6C1B7D0B685E7340C8F30894E10833
:103BF000F10801091109C851DC4FE114F104010574
:103C0000110569F7CDB7DEB7E6E00C94DA217894B8
:103C100084B5826084BD84B5816084BD85B58260D1
:103C200085BD85B5816085BDEEE6F0E0808181606F
:103C30008083E1E8F0E0108280818260808380816F
:103C400081608083E0E8F0E0808181608083E1E949
:103C5000F0E0808182608083808181608083E0E900
:103C6000F0E0808181608083E1ECF0E0808184601D
:103C70008083808182608083808181608083E3ECA7
:103C8000F0E0808181608083E0ECF0E08081826000
:103C90008083E2ECF0E0808181608083EAE7F0E0FD
:103CA0008081846080838081826080838081816064
:103CB00080838081806880830895CF93DF93482F2D
:103CC00050E0CA0189579E4FFC01349147595E4F1D
:103CD000FA018491882369F190E0880F991FFC0113
:103CE000E15CFE4FA591B491FC01E35BFE4FC591F1
:103CF000D491662351F42FB7F8948C91932F90951B
:103D000089238C93888189230BC0623061F42FB79B
:103D1000F8948C91932F909589238C938881832B91
:103D200088832FBF06C09FB7F8948C91832B8C9308
:103D30009FBFDF91CF91089590E0FC013197EE3065
:103D4000F10590F5E25AFF4F0C94E9218091800033
:103D50008F7703C0809180008F7D809380000895CD
:103D600084B58F7702C084B58F7D84BD089580911E
:103D700090008F7707C0809190008F7D03C0809165
:103D80009000877F8093900008958091C0008F7786
:103D900003C08091C0008F7D8093C0000895809102
:103DA000C200877F8093C2000895FF920F931F93F4
:103DB000F62E482F50E0CA018B559E4FFC012491EE
:103DC000CA0189579E4FFC01149147595E4FFA0171
:103DD00004910023C9F0222319F0822F0E949C1E17
:103DE000E02FF0E0EE0FFF1FE35BFE4FA591B491D3
:103DF0009FB7F894FF2021F48C911095812302C085
:103E00008C91812B8C939FBF1F910F91FF900895F0
:103E100020911C0430911D0480911E0490911F0478
:103E2000281B390B2F733070C901089520911C0491
:103E300030911D0480911E0490911F0428173907AA
:103E400019F42FEF3FEF09C0E0911E04F0911F0419
:103E5000E452FC4F8081282F30E0C9010895209161
:103E60001C0430911D0480911E0490911F0428179A
:103E7000390719F42FEF3FEF13C0E0911E04F091C2
:103E80001F04E452FC4F208180911E0490911F0476
:103E900001968F73907090931F0480931E0430E0FE
:103EA000C9010895109223041092220488EE93E031
:103EB000A0E0B0E08093240490932504A09326040E
:103EC000B093270487EA91E0909321048093200423
:103ED0000895A1E0B0E0EFE6FFE10C94C0218C0171
:103EE000698380915701882369F083E0BE016F5F89
:103EF0007F4F41E050E00E94301B1816190614F461
:103F00009C0107C081E090E0F8019383828320E068
:103F100030E0C9012196E4E00C94DC2183E00E94AA
:103F2000071B0895CF93DF9312C082E00E94821A8C
:103F30002FEF8F3F9207C9F0E0911C04F0911D0410
:103F4000E452FC4F8083D0931D04C0931C04C091A5
:103F50001C04D0911D042196CF73D07080911E0453
:103F600090911F04C817D90701F7DF91CF910895E9
:103F7000FC0180818E5F808380E86FEC71E042E419
:103F800050E00E94AE1A0895FC0181819081913A1F
:103F900059F4813209F04CC080E060E571E047E0FF
:103FA00050E00E94AE1A42C0913209F041C0803206
:103FB00039F480E591E067E070E00E94F21A36C0C3
:103FC000823209F035C0828180935701809150017F
:103FD00090915101A0915201B0915301805B9440A6
:103FE000A040B04019F58091570180FD12C087E7CD
:103FF00097E790930108809300082BE088E190E018
:104000000FB6F894A895809360000FBE20936000CF
:104010000DC088E10FB6F8948093600010926000A4
:104020000FBEA895109201081092000881E0089533
:1040300080E00895FC0191818081813A31F49130D2
:1040400089F080E0933089F40DC0813269F49B30AF
:1040500021F482818093580105C09A3029F482812D
:104060008093590181E0089580E00895EF92FF92D6
:104070000F931F938C01E62EDC01ED91FC910480DF
:10408000F581E02D0995F82ED801ED91FC9106807F
:10409000F781E02DC8016E2D09958F2D90E01F91BD
:1040A0000F91FF90EF90089510922E041092320419
:1040B0001092310489EB91E09093300480932F04A7
:1040C0000895A1E0B0E0E7E6F0E20C94BE21898318
:1040D0008B017A0184E0BE016F5F7F4F41E050E0C9
:1040E0000E94301B84E4B801A7010E94301B219676
:1040F000E6E00C94DA2182E048E050E00E94612082
:104100000895FC0116821782108611861286138686
:1041100014823496BF010E947B200895DC01683828
:1041200010F0685829C0E62FF0E067FF13C0E05890
:10413000F04081E090E002C0880F991FEA95E2F715
:10414000809514962C911497282314962C931497E9
:1041500060E012C0E157FD4F6491662319F420E03E
:1041600030E01DC067FF08C014968C9114978D7FB6
:1041700014968C9314976F77FD0190E0662321F0DD
:104180008681861709F416829F5F31969630B1F7C3
:10419000CD011496BD010E947B2021E030E0C901D1
:1041A0000895CF93DF93DC01683810F0685825C07C
:1041B000E62FF0E067FF12C0E058F04081E090E0A9
:1041C00002C0880F991FEA95E2F714962C91149774
:1041D000282B14962C93149760E00FC0E157FD4FE5
:1041E00064916623D9F167FF08C014968C911497E7
:1041F000826014968C9314976F7716968C9116970D
:104200008617A9F117968C911797861781F1189642
:104210008C911897861759F119968C9119978617D2
:1042200031F11A968C911A97861709F11B968C9189
:104230001B978617E1F0ED01E0E0F0E09E2F8E8104
:10424000882321F4EA0FFB1F668306C09F5F319627
:104250002196E630F10591F7963049F481E090E03F
:1042600013969C938E93129720E030E007C0CD0107
:104270001496BD010E947B2021E030E0C901DF914E
:10428000CF91089580E861E172E045E650E00E9438
:10429000AE1A0895FC0180818F5F808380E866E715
:1042A00072E049E150E00E94AE1A0895629FD00189
:1042B000739FF001829FE00DF11D649FE00DF11DE1
:1042C000929FF00D839FF00D749FF00D659FF00D90
:1042D0009927729FB00DE11DF91F639FB00DE11D7D
:1042E000F91FBD01CF0111240895A1E21A2EAA1BC6
:1042F000BB1BFD010DC0AA1FBB1FEE1FFF1FA21796
:10430000B307E407F50720F0A21BB30BE40BF50B92
:10431000661F771F881F991F1A9469F7609570951B
:10432000809590959B01AC01BD01CF01089597FB4D
:10433000092E05260ED057FD04D0D7DF0AD0001C69
:1043400038F450954095309521953F4F4F4F5F4F32
:104350000895F6F790958095709561957F4F8F4FF2
:104360009F4F08952F923F924F925F926F927F924C
:104370008F929F92AF92BF92CF92DF92EF92FF9275
:104380000F931F93CF93DF93CDB7DEB7CA1BDB0B21
:104390000FB6F894DEBF0FBECDBF09942A883988C6
:1043A00048885F846E847D848C849B84AA84B984CD
:1043B000C884DF80EE80FD800C811B81AA81B981D9
:1043C000CE0FD11D0FB6F894DEBF0FBECDBFED01ED
:1043D0000895EE0FFF1F0590F491E02D0994DC0184
:1043E000CB01FC01F999FECF06C0F2BDE1BDF89A00
:1043F000319600B40D9241505040B8F70895DC0159
:10440000CB0103C02D910E940A2241505040D0F7A9
:104410000895262FF999FECF1FBA92BD81BD20BD08
:104420000FB6F894FA9AF99A0FBE01960895F89487
:02443000FFCFBC
:10443200FFFFFFDC05DC05DC05DC05E803DC05E845
:1044420003DC05DC05DC05DC05DC05DC0506070113
:1044520005010F0103010B0109010D011101DC012D
:10446200E201DE01E601E001E401E8010000090DDC
:104472000A060BFFFFFFA803090D0A060B05FFFF43
:1044820000E1000000000000010178899887788926
:104492009887FF00000000000002030100040506E7
:1044A20007A0860100801A06000503050304020224
:1044B200020101010101010101EA01EC01EE01F039
:1044C20001F4010000000074191D1A0A193B191B9E
:1044D20019641900000000691F1D1A081F2F1F16FA
:1044E2001F8E1F921F0000000036201D1AD1208E41
:0444F2002081200005
:00000001FF
