:100000000C946A000C9492000C9492000C94920050
:100010000C9492000C9492000C9492000C94920018
:100020000C9492000C9492000C9492000C94451342
:100030000C9492000C9494000C9492000C949200F6
:100040000C94D5180C9492000C9492160C94E01613
:100050000C9492000C94C6020C9492000C949200A2
:100060000C9492000C949200E2060407C507E20685
:100070000407C5070E087D080000000024002700C3
:100080002A0000000000250028002B0000000000CE
:1000900023002600290004040404040404040202CA
:1000A00002020202030303030303010204081020F7
:1000B0004080010204081020010204081020000002
:1000C0000007000201000003040600000000000019
:1000D00000004C1811241FBECFEFD4E0DEBFCDBF0F
:1000E00011E0A0E0B1E0E8E0F6E302C005900D9277
:1000F000A43CB107D9F713E0A4ECB1E001C01D9214
:10010000A83BB107E1F710E0C4EDD0E004C02297AE
:10011000FE010E94D61AC23DD107C9F70E94A2185B
:100120000C94021B0C9400001F920F920FB60F92BA
:1001300011248F939F9380917C0290917D02019670
:1001400090937D0280937C0280917C0290917D024D
:10015000892B29F480917E028F5F80937E029F918C
:100160008F910F900FBE0F901F9018956091840093
:100170007091850020917C0230917D02E0917E0299
:1001800080918400909185008627972797FDEECF78
:1001900080917C0290917D022817390739F7809170
:1001A0007E02E81719F740E050E0FFE0220F331F0E
:1001B000441F551FFA95D1F78E2F90E0A0E0B0E0D4
:1001C000BB278695B795AA2799278827282B392BEF
:1001D0004A2B5B2B76956795CB01A0E0B0E0282BEE
:1001E000392B4A2B5B2BB901CA010895AF92BF92FC
:1001F000CF92DF92EF92FF920F931F9328EE33E09E
:1002000040E050E00E94411A5B016C010E94B60080
:100210007B018C010E94B6006E197F09800B910B47
:100220006A157B058C059D05A8F31F910F91FF9022
:10023000EF90DF90CF90BF90AF900895882321F08A
:10024000813021F42D9A08952D98089585B190E27A
:10025000892785B90895EF92FF920F931F937B0131
:100260008C018091FB029091FC02A091FD02B09163
:10027000FE028E199F09A00BB10B181619061A065B
:100280001B060CF450C08091FF02882321F5E091F9
:100290000003EF5FE370E0930003FF27E7FDF095B5
:1002A000E158FD4F8081992787FD9095880F991F10
:1002B0008093FF0280E492E4AFE0B0E0E80EF91E24
:1002C0000A1F1B1FE092FB02F092FC020093FD024A
:1002D0001093FE0228C081508093FF0281700E941B
:1002E0001E01E0910003FF27E7FDF095EE0FFF1FD1
:1002F000ED57FD4F80819181AA2797FDA095BA2FD8
:100300002AE0880F991FAA1FBB1F2A95D1F78E0DCF
:100310009F1DA01FB11F8093FB029093FC02A0932E
:10032000FD02B093FE021F910F91FF90EF90089590
:100330009A01AB01882311F0459A449A1092B900B2
:1003400060E074E284EF90E00E94601A2051304037
:100350004040504056954795379527952093B800D3
:1003600008952FEF30E011C02115310561F410928E
:10037000BC0080918B0290918C02019690938C022C
:1003800080938B020895215030408091BC0087FFFC
:10039000EBCF0895FF920F931F93F82E0CEB10E014
:1003A00084EAF80180830E94B101F092BB0084E8E6
:1003B000F80180830E94B1011F910F91FF90089571
:1003C0008093BB0084E88093BC000E94B101089533
:1003D0001F93182F882311F484E801C084EC8093C4
:1003E000BC000E94B1019091BB00112319F484E973
:1003F0008093BC00892F1F9108950F931F93162F90
:10040000042F880F0E94CA01812F0E94E001802FD3
:100410000E94E00184E98093BC001F910F91089530
:100420000F931F93182F062F880F0E94CA01802F49
:100430000E94E001110F812F81600E94CA0180E0BB
:100440000E94E8011F910F9108951F93CF93DF93AE
:10045000EB01142F880F81600E94CA0108C011505F
:1004600080E011160CF481E00E94E80189931123C9
:10047000B1F7DF91CF911F910895DF92EF92FF9234
:100480000F931F93E82EF62E8A01D22E880F0E941A
:10049000CA018F2D0E94E0018E2DB8014D2D0E94C2
:1004A00025021F910F91FF90EF90DF90089588E64D
:1004B0006EE340E80E94FD0162E370E080E090E0BE
:1004C0000E94F60088E66EE343E00E94FD01409141
:1004D0001B014150486188E666E10E94FD0188E603
:1004E00060E00E94100290E08E77883609F491E077
:1004F000892F0895A6E0B0E0E0E8F2E00C94A71A96
:100500008C017B016A0188E66DE1AE014F5F5F4FB0
:1005100026E00E943D02998180E02A8130E0822B12
:10052000932BF801918380839B8180E02C8130E0C4
:10053000822B932BF701918380839D8180E02E8114
:1005400030E0822B932BF601918380832696E8E09E
:100550000C94C31A282F17C0E22FF0E0EE0FFF1FF4
:10056000E45CFE4F80819181892B61F080917C0059
:10057000887F822B80937C0080917A0080648093B6
:100580007A0008952F5F263038F308951F920F9256
:100590000FB60F9211242F933F934F935F936F9356
:1005A0007F938F939F93AF93BF93EF93FF9380912C
:1005B0007C008770E82FF0E0EE0FFF1FE45CFE4F39
:1005C0000190F081E02D9091790090838F5F0E94DF
:1005D000AA02FF91EF91BF91AF919F918F917F916F
:1005E0006F915F914F913F912F910F900FBE0F90A0
:1005F0001F901895ECE3F1E040E050E061E070E01E
:1006000080819181892B79F087B1DB01042E02C0B2
:10061000AA0FBB1F0A94E2F79D012095822387B998
:1006200088B1282328B94F5F5F4F32964630510575
:1006300039F780E680937C0010927B008FE88093EE
:100640007A0080E00E94AA020895CF93DF93EB0125
:10065000DA01FC0140E050E061E070E080819181CE
:10066000892B79F03881CB01042E02C0880F991FA5
:100670000A94E2F7282F2095232328832C91822B9C
:100680008C934F5F5F4F32964830510539F7DF91B9
:10069000CF9108958DE892E064E270E045E250E089
:1006A0000E9425038DE992E067E270E048E250E0A5
:1006B0000E94250388E491E06AE270E04BE250E09A
:1006C0000E942503089560E070E040E050E0A1E062
:1006D000B0E0362FFA01E357FD4F0190F081E02D95
:1006E000309751F023B1CD01062E02C0880F991F1B
:1006F0000A94E2F728232083FA01E356FD4F019084
:10070000F081E02D309751F026B1CD01032E02C0CB
:10071000880F991F0A94E2F728232083FA01E85BE7
:10072000FE4F0190F081E02D309749F029B1CD01C5
:1007300002C0880F991F3A95E2F7282320836F5F44
:100740007F4F4E5F5F4F4031510519F60895A6E087
:10075000B0E0EDEAF3E00C949D1A7A8369831C0102
:100760002B019E838D839B012A5F3F4F3C832B830C
:10077000ED81FE810681178180819181081B190B13
:100780003801882477FC8094982CF1018289938920
:10079000A489B589860D971DA81DB91D268D378D95
:1007A00040A151A1AA24BB246501A21AB30AC40A1C
:1007B000D50A8A159B05AC05BD054CF05C016D01A1
:1007C000281739074A075B0714F459016A01F10138
:1007D000A28AB38AC48AD58AED81FE8184859585F3
:1007E000AA2797FDA095BA2FA4019301281B390BC6
:1007F0004A0B5B0BCA01B90115870487F2012485F6
:100800003585442737FD4095542F0E94411A7B01BE
:100810008C0132E015950795F794E7943A95D1F756
:10082000F20120813181442737FD4095542FC401C6
:10083000B3010E94411A23E09595879577956795B6
:100840002A95D1F7E60EF71E081F191FF20126811F
:100850003781442737FD4095542FC601B5010E94CA
:10086000411AB6E09595879577956795BA95D1F732
:10087000E60EF71E081F191FE981FA81028804C0DD
:1008800015950795F794E7940A94D2F7ED81FE81C8
:10089000F3A6E2A63296FE83ED8324E030E0220E3A
:1008A000331E42E050E0440E551E8B819C81481659
:1008B000590609F05DCF2696E2E10C94B91AA6E03C
:1008C000B0E0E5E6F4E00C94AD1ACE010196BE016D
:1008D0006D5F7F4FAE014B5F5F4F0E947A028B814D
:1008E0009C81909300028093FF0149815A8150932B
:1008F0000202409301022D813E8130930402209335
:10090000030280912F02909130028230910519F0FC
:100910000397D1F40DC0309302022093010288277F
:100920009927841B950B90930402809303020CC0BB
:1009300088279927821B930B9093020280930102D0
:1009400050930402409303022696E2E00C94C91AE5
:1009500081E040E85AE166E070E00E9498010E9460
:100960005702882349F485E08093810288EC90E067
:10097000909388028093870208950F931F93CF93DB
:10098000DF93FC011082772767FD70957283618386
:10099000DC01EC0140E050E00FEF1FE760E070E8A1
:1009A0000CC012961C930E9311971A967C936E931B
:1009B00019971F86188A198A1A8A9A014F5F5F4F02
:1009C00012962496818192812817390754F314A630
:1009D00013A6DF91CF911F910F910895A0E0B0E091
:1009E000E4EFF4E00C94A51A7C018C01EB01F70113
:1009F00060E070E02BC021813281888199812817C5
:100A000039070CF4C901928381832185328588815D
:100A10009981821793070CF4C901928781872991E4
:100A20003991442737FD4095542FD8011F96AD903A
:100A3000BD90CD90DC905297A20EB31EC41ED51E61
:100A40001F96AD92BD92CD92DC9252979B016F5F43
:100A50007F4F32960C5F1F4FD70111968D919C915D
:100A60001297281739073CF2CDB7DEB7EAE00C94AD
:100A7000C11AA0E0B0E0EFE3F5E00C94A71AEC0196
:100A80007C0143E2C42ED12CC80ED91E00E010E038
:100A900011C02BA53CA5442737FD4095542FF701E5
:100AA00067857089818992890E94821AF601219353
:100AB00031936F0198010F5F1F4F84E090E0E80EC3
:100AC000F91E89819A81281739071CF3CDB7DEB743
:100AD000E8E00C94C31ACF93DF93FC01EB01618132
:100AE0007281A0E040E050E00DC0838594852381B1
:100AF0003481821B930B8C179D070CF4AF5F4F5F03
:100B00005F4F32964617570784F320E08A2F9927C4
:100B100087FD90958617970709F421E0822FDF91D2
:100B2000CF910895A8E0B0E0E8E9F5E00C94AB1AA5
:100B30008C018091C4019091C5019A838983809131
:100B4000C8019091C9019C838B838091CA019091C7
:100B5000CB019E838D838091C6019091C7019887B8
:100B60008F83C801BE016F5F7F4F0E94EE04F801C2
:100B700083A594A5019694A783A78436910551F582
:100B8000C80164E170E00E946B058823F9F0C80198
:100B90000E943905F80183A194A1909314018093D8
:100BA000130185A196A1909316018093150187A149
:100BB00090A5909318018093170181A592A5909319
:100BC0001A018093190181E0808304C0C80164E0A8
:100BD0000E94BD042896E4E00C94C71AA6E0B0E099
:100BE000E4EFF5E00C94AB1A8C018091FF01909139
:100BF00000029A83898380910102909102029C8372
:100C00008B8380910302909104029E838D83C8019F
:100C1000BE016F5F7F4F0E94EE04F80183A594A58B
:100C2000019694A783A78C52914021F5C80162E3F5
:100C300070E00E946B058823C9F0C8010E94390545
:100C4000F80183A194A19093FA018093F90185A101
:100C500096A19093FC018093FB0187A190A59093AE
:100C6000FE018093FD0181E0808304C0C80163E040
:100C70000E94BD042696E4E00C94C71A209103015B
:100C800030910401809103019091040128173907E4
:100C900021F43093C5012093C401209105013091C6
:100CA000060180910501909106012817390721F46A
:100CB0003093C9012093C8012091070130910801A8
:100CC00080910701909108012817390721F430938A
:100CD000CB012093CA0120910B0130910C0180912E
:100CE0000B0190910C012817390721F43093CD01A5
:100CF0002093CC0120910D0130910E0180910D01C6
:100D000090910E012817390721F43093CF012093D9
:100D1000CE0120910F013091100180910F0190912F
:100D200010012817390721F43093D1012093D00105
:100D300020911101309112018091110190911201C5
:100D40002817390721F43093D3012093D2018091E1
:100D500064029091650205974CF48091C4019091D2
:100D6000C5019093C7018093C601089520910901A0
:100D700030910A018091090190910A0128173907E1
:100D800021F43093C7012093C6010895A0E0B0E09C
:100D9000ECECF6E00C94A71ADC01C0906402D09051
:100DA0006502F6013297E830F10508F0E3C1EC5C2A
:100DB000FF4F6D917C9111970091C4011091C50175
:100DC0000C94D41A600F711F7093EC016093EB01C7
:100DD0008D919C9111972091C6013091C701820F8E
:100DE000931F9093F2018093F10112968D919C9143
:100DF00013972091C8013091C901820F931F9093DE
:100E0000EE018093ED01A8C17801E60EF71EF09285
:100E1000EC01E092EB01E091C601F091C701CD91A8
:100E2000DC911197CE0FDF1FD093F201C093F10137
:100E30004091D4015091D50144525A4F8D919C91CB
:100E40001197480F591F12966D917C9113978091BD
:100E5000C8019091C901680F791FCB01840F951FBC
:100E60009C01359527953595279535952795959529
:100E70008795280F391F275731403093EE01209373
:100E8000ED01461B570BCA0133E0959587953A95BE
:100E9000E1F755954795840F951F84529A4F90938B
:100EA000F0018093EF012091CA013091CB0146E01F
:100EB000C416D10409F060C084E0223E380774F003
:100EC00029573540273C310518F082E090E002C0F8
:100ED00081E090E0029709F04DC121C08091190195
:100EE00090911A01800F911F8E1B9F0B209113016F
:100EF00030911401821B930B9595879584529A4FDC
:100F00009093EC018093EB018C5D95402CED35E0E6
:100F1000281B390B3093F2012093F1012BC1209152
:100F2000020112966D917C911397E091D601F09198
:100F3000D7016E0F7F1F882777FD8095982F30E0AF
:100F400020583040442737FD4095542F0E94411AC5
:100F5000A7E09595879577956795AA95D1F7E60EC1
:100F6000F71EF092EC01E092EB01C61BD70BD09379
:100F7000F201C093F101FEC09093EC018093EB016C
:100F800014968D919C911597EFC0600F711F70930F
:100F9000EC016093EB018D919C9111972091C6011A
:100FA0003091C701820F931F9093F2018093F1015A
:100FB00012966D917C9113978091C8019091C9010F
:100FC000680F791F14964D915C9115978091CA0115
:100FD0009091CB01480F591FCA01860F971F9C01A2
:100FE000F3E035952795FA95E1F795958795280FC4
:100FF000391F275731403093EE012093ED01461BF6
:10100000570BCA01B3E095958795BA95E1F75595C9
:101010004795840F951F84529A4FA8C020911301C1
:10102000309114011296CD91DC9113978091D601E5
:101030009091D701C80FD91F14960D90BC91A02D87
:101040008091D8019091D901A80FB91F8091090111
:1010500090910A018C54944097FF03C040E050E007
:1010600016C08091090190910A018C549440959585
:101070008795855F91401CF044EF51E008C0409196
:10108000090150910A014C54544055954795F80177
:10109000E452FA4FE21BF30BE60FF71FBE016E0F8F
:1010A0007F1F9A012A1B3B0B37FF02C020E030E074
:1010B000CB01821B930B9093EC018093EB01260FE5
:1010C000371F3093EE012093ED01BF016C1B7D0BA8
:1010D0009A012A0F3B1F37FF02C020E030E0C90110
:1010E000860F971F9093F2018093F101621B730B9F
:1010F0007093F0016093EF013DC0600F711F70931A
:10110000EC016093EB018D919C9111972091C601A8
:101110003091C701820F931F9093F2018093F101E8
:1011200012968D919C9113972091C8013091C9011D
:10113000820F931F9093EE018093ED018091D20175
:101140009091D30112962D913C911397821B930B92
:101150009093F6018093F50114968D919C911597CB
:101160002091CA013091CB01820F931F9093F0011F
:101170008093EF018091D0019091D1019093F4017F
:101180008093F30189E0C816D10441F08091D20127
:101190009091D3019093F6018093F5018091CE0157
:1011A0009091CF019093F8018093F701CDB7DEB70E
:1011B000E8E00C94C31AAAE0B0E0E1EEF8E00C9489
:1011C000AB1A80912202909123020397A9F5FE01A8
:1011D00031968AE0DF011D928A95E9F7CF010E94DE
:1011E000C606A9EAB1E00BE012E045E152E06D91DC
:1011F0007C911197F80120813181FB0180819181DF
:10120000281739070CF4C901F80191838083FA018A
:1012100020813181FB0180819181821793070CF439
:10122000C901FA0181939193AF0112960E5F1F4F8E
:10123000F1E0A33BBF07D9F685E092E00E94C60625
:101240008091640290916502099711F074E001C0E9
:1012500075E060E080E090E0FC01E755FE4FA08182
:10126000B1814D915C911197FC01E55FFD4F0190BB
:10127000F081E02D4E175F0754F0FC01EB5EFD4F4F
:1012800020813181FA01241735070CF4F901ED931F
:10129000FC936F5F02966717FCF22A96E4E00C94C9
:1012A000C71A8091AF02882309F050C081E0809373
:1012B000AF028FEF8093AE022FB7F8948091EB01CD
:1012C0009091EC019093DE018093DD018091ED011E
:1012D0009091EE019093E0018093DF018091EF0106
:1012E0009091F0019093E2018093E1018091F101EE
:1012F0009091F2019093E4018093E3018091F301D6
:101300009091F4019093E6018093E5018091F501BD
:101310009091F6019093E8018093E7018091F701A5
:101320009091F8019093EA018093E90180916F0018
:10133000826080936F00B19A8091840090918500C3
:10134000049690938900809388002FBF0895FC0134
:1013500081E08183808385E08283168215821086F6
:10136000178208959C0144E0813B940714F490E0B7
:101370000DC0845195408159914010F491E006C010
:101380002850374014F49FEF06C092E0662319F00E
:1013900082E0891B982F892F0895CF93DF93EC016A
:1013A0008A818B838091C4019091C5016D810E94D7
:1013B000B20987FF88838091C8019091C9016E812D
:1013C0000E94B20987FF89838F81882351F4888125
:1013D000882329F0823029F481E08D83188281E00E
:1013E0008F838885882361F48981882319F082306E
:1013F00039F404C081E08E8382E0898381E08887AC
:1014000038813F5F898123E08202C0011124380FB7
:101410003A839B8180E0391729F081E09295907F93
:10142000932B9C83DF91CF910895282F30E03F6F5D
:10143000220F331FEFB7F8948091840090918500BC
:10144000AC01405C5F4FBC016D5D7A4F80918400C0
:1014500090918500DA01A81BB90B1A161B06B4F38C
:1014600020FF02C0579801C0579A4617570729F026
:101470003695279545575F4FE9CFEFBF0895EFB7F2
:10148000F8944F9B49C016C020918400309185008C
:101490002058314C04C08FEF9FEF4F9B0BC08091C1
:1014A000840090918500B901681B790B1616170608
:1014B00014F4F1CFAC0141505040CA010196181606
:1014C000190614F34F5F5F4F19F420E030E826C08F
:1014D0008091840090918500AC0140565F4F20E0E0
:1014E00030E0BC0163597B4F80918400909185006E
:1014F000DA01A81BB90B1A161B06B4F389B136958D
:10150000279590E080789070282B392B4617570745
:1015100029F045575F4FE8CF20E030E4EFBFC90125
:101520000895EF92FF920F931F93CF93DF93E82ECE
:10153000192F062FF62E84E20E94150A802F0E9492
:10154000150A2E2D312FC901EC0104C08991F80E26
:101550000E94150A9E012E192017C4F38F2D819524
:101560000E94150ACDB7DEB7E6E00C94C51A8F923B
:101570009F92AF92BF92CF92DF92FF920F931F93F1
:10158000CF93DF934C015A01C0E0D0E0C62EDD249A
:10159000C7FCD09402C0812F182FC5010E943F0ABA
:1015A0009C018070907C892B69F5822FC130D10518
:1015B00059F0C230D105A1F0209779F7243259F7BC
:1015C000812FC1E0D0E0E8CF90E0C816D90614F42E
:1015D000812F15C0822FF22E00E0C2E0D0E0DCCFD8
:1015E000F20E812F8150112331F0F401E00FF11D33
:1015F00020830F5FD1CFFF2011F481E004C0C0E051
:10160000D0E0CACF80E0DF91CF911F910F91FF9082
:10161000DF90CF90BF90AF909F908F900895CF9222
:10162000DF92EF92FF921F93CF93DF93E0916001DF
:10163000F0916101A081B18114962D913C91159793
:10164000CF01F9010995892B09F48AC05BC010927A
:10165000FA022093F6023093F7024093F802509377
:10166000F9028091FA02E82FFF27E7FDF095EA5191
:10167000FD4F10838F5F8093FA0280310CF46EC0AF
:101680008091E5021816D4F5A8EEB2E0CBE0D0E0E8
:101690005C9140E011968C911197282F30E0242B1B
:1016A000352B8091E502682F772767FD7095C9017A
:1016B000062E02C0969587950A94E2F78F708830BF
:1016C000C4F4E82FFF27E7FDF095EE0FFF1FEA595E
:1016D000FD4F0190F081E02DCE01861B970B02C0DB
:1016E000220F331F8A95E2F7377024523E4F318321
:1016F0002083129662E0A63FB60751F61092FA02D6
:1017000081E02EC08091FA02803154F5A0916001F1
:10171000B0916101ED91FC9111970680F781E02D68
:10172000CD010995182F0E94B6009B01AC01809154
:10173000F6029091F702A091F802B091F9026901C6
:101740007A01C81AD90AEA0AFB0AD701C6018955E3
:101750009B41A040B0400CF07ACF7BCF80E000C02E
:10176000DF91CF911F91FF90EF90DF90CF90089580
:10177000809160019091610140E052EC61E070E085
:101780000E941B1780912D0290912E02019711F05B
:101790008BE001C08AE08093E50208951F93CF9308
:1017A000DF93EC01142F45E450E00E94DA1A88819F
:1017B000811711F08FEF12C090E020E030E0FE01C1
:1017C000E20FF31F8081980F2F5F3F4F25343105C3
:1017D000B1F7992311F480E001C08EEFDF91CF9132
:1017E0001F910895DC0190E020E030E0FD01E20F60
:1017F000F31F8081980F2F5F3F4F24343105B1F7DD
:10180000AC5BBF4F91959C93A454B040CD0145E48F
:1018100050E00E94EA1A0895A1E1B0E0E2E1FCE0A4
:101820000C949D1A1C0181E0898380E292E09B83E5
:101830008A8302969D838C830D969F838E83029666
:101840009987888702969B878A8702969D878C87CF
:1018500002969F878E87CE010196998B888BD090B8
:101860002002DD0CCC246624EE24FF248701F0E85E
:101870008F2EFAE19F2EF6E0AF2EB12CE2E07E2E05
:101880002C010E94B6009B01AC01DC01CB018E193A
:101890009F09A00BB10B88169906AA06BB060CF08F
:1018A00051C0171424F5872D992787FD9095FC01C9
:1018B000E170F07080FD03C088E097E002C08CED1D
:1018C00095E09093EE018093ED018CED95E090937F
:1018D000EC018093EB01EE0FFF1FEE0FFF1FEF56A1
:1018E000FE4F80809180A280B3807A9429C0DD2051
:1018F00039F11D1424F46CE271E0A1E003C064ED41
:101900007EEFAFEF8D2D992787FD9095FC01E1705B
:10191000F07080FF03C08CED95E003C0CB018452D2
:101920009A4F9093EC018093EB01EE0FFF1FEE0FA7
:10193000FF1FEF56FE4F80809180A280B380DA1A9D
:1019400079018A010E940F0B882319F091E090938E
:10195000AD028091AD02882329F01092AD020E9461
:101960003E0602C0662041F08091AF02882309F054
:101970008CC00E9451096624772009F082CFC101F2
:101980000E94CD09882309F47CCFF101848184353C
:1019900061F0853520F4823509F063C013C08635C7
:1019A00059F0883509F05DC02AC0F1E0FC1514F04B
:1019B000CC2470C0CA946EC085E08C150CF468C04D
:1019C000C39468C0AC2DBB27A7FDB095FD01EE0FF9
:1019D000FF1FE40DF51D0180F281E02D8081282F8D
:1019E000332727FD30952F5F3F4FA756BE4F8C9171
:1019F000992787FD909582179307F4F41CC0AC2DAE
:101A0000BB27A7FDB095FD01EE0FFF1FE40DF51DEF
:101A10000180F281E02D8081282F332727FD30952A
:101A200021503040AF55BE4F8C91992787FD90953E
:101A3000281739070CF49C01208320E08C2D99276E
:101A400087FD9095FC01EE0FFF1FE40DF51D018051
:101A5000F281E02DD080DD0C222319F00196782E42
:101A6000770C8981823009F00CCF8FE192E060E041
:101A700070E00E94F20B8FE192E060E071E00E9462
:101A8000F20B6196E2E10C94B91A6624639474CF68
:101A900087E0C82E21E0D2CFA1E9B0E0E2E5FDE089
:101AA0000C949D1A0E94B6001B012C01DE011196B8
:101AB000E3E7F1E086E001900D928150E1F78E01BD
:101AC0000D5E1F4FC8010E94A7099CE1E92EF12C71
:101AD000EC0EFD1EC70164E00E94BD0489E4C82E1F
:101AE000D12CCC0EDD1EC60163E00E94BD04209205
:101AF000E1023092E2024092E3025092E402C657C1
:101B0000DF4F288239824A825B82CA58D040CA5746
:101B1000DF4F288239824A825B82C658D040CE5736
:101B2000DF4F288239824A825B82C258D04042010C
:101B30003101C258DF4F288239824A825B82CE57F8
:101B4000D040EB962CAE3DAE4EAE5FAEEB97EE9630
:101B50001FAEEE97ED961FAEED9721E0EC962FAFFE
:101B6000EC97C257DF4FE882CE58D040C157DF4FC5
:101B7000F882CF58D040C057DF4F0883C059D040BB
:101B8000CF56DF4F1883C159D0400E94B6005B0189
:101B90006C010E942B010E940F0B882319F031E089
:101BA0003093AD028091AD028823A1F4D601C50126
:101BB000C657DF4F488159816A817B81CA58D0401E
:101BC000841B950BA60BB70B81539547A040B040E3
:101BD0000CF442C01092AD020E943E068C8D882308
:101BE00069F0C657DF4FA882B982CA82DB82CA5821
:101BF000D04061E0EE966FAFEE972EC0C257DF4F38
:101C00008881CE58D040C157DF4F9881CF58D040FF
:101C10000E9492052A968FAD2A97882311F492E0AC
:101C200001C090E020E08C8D882309F421E0920F20
:101C30009093800288EC90E09093860280938502D6
:101C4000C657DF4FA882B982CA82DB82CA58D04009
:101C500091E0EE969FAFEE978091AF02882379F5E1
:101C6000EE96AFADEE97AA2351F1A6019501CA57A2
:101C7000DF4F688179818A819B81C658D040261BBD
:101C8000370B480B590B8091780290917902A09103
:101C90007A02B0917B0282179307A407B5077CF400
:101CA0000E94DB080E945109CA57DF4FA882B982FF
:101CB000CA82DB82C658D040EE961FAEEE97D601A0
:101CC000C501CE57DF4F288139814A815B81C258D7
:101CD000D040821B930BA40BB50B81519742A040BF
:101CE000B04054F10E945F042A968FAD2A97882352
:101CF000D9F4CE01875B9F4F0E94EE052A968FADE7
:101D00002A97882311F492E001C090E020E08C8DA6
:101D1000882309F421E0920F9093800248EC50E070
:101D20005093860240938502CE57DF4FA882B98236
:101D3000CA82DB82C258D040EC965FADEC97552347
:101D400009F456C0C057DF4F8881C059D040CF56E4
:101D5000DF4F9881C159D0400E94CD09882309F4F2
:101D600047C0ED966FADED97E62FFF27E7FDF095A5
:101D7000E659FE4F9F898081981721F0ED961FAE9E
:101D8000ED9707C0ED967FADED977F5FED967FAF46
:101D9000ED97ED968FADED97E82FFF27E7FDF095D6
:101DA000E659FE4F80818F3F81F4CE0143960E9419
:101DB0000C0C2EE088E190E00FB6F894A895809383
:101DC00060000FBE20936000FFCFD601C5018219CD
:101DD0009309A409B509815C914EA44EB04024F04A
:101DE000EC961FAEEC9704C0F1E0EC96FFAFEC97D9
:101DF0008C8D882329F02A968FAD2A978823C9F5E0
:101E00008091C6019091C7012091C4013091C50114
:101E1000820F931F2091190130911A01821B930B9D
:101E20002091130130911401821B930B9595879596
:101E30009093D5018093D4018091C8019091C901FC
:101E40002091150130911601821B930B9093D701BD
:101E50008093D6018091CA019091CB012091170106
:101E600030911801821B930B9093D9018093D80174
:101E70008CCED601C50186199709A809B9098151E7
:101E80009742A040B0400CF41EC38091760290911E
:101E900077028130910559F48091CC019091CD0168
:101EA000865F95400CF09BC080E090E00DC0892BD0
:101EB00009F095C08091CC019091CD018752964058
:101EC0000CF48DC081E090E09093770280937602CD
:101ED000892B11F084E001C080E08093800268ECDF
:101EE00070E070938602609385021092C202109295
:101EF000C3021092C4021092C5021092CE02109238
:101F0000CF021092D0021092D1021092C60210920B
:101F1000C7021092C8021092C9021092D202109207
:101F2000D3021092D4021092D5021092CA021092DB
:101F3000CB021092CC021092CD021092D6021092D7
:101F4000D7021092D8021092D90280913702909154
:101F50003802029709F043C0D601C501EB962CADBB
:101F60003DAD4EAD5FADEB97821B930BA40BB50B54
:101F70008152914AA740B0401CF0E7961FAEE79708
:101F8000E7964FADE7974F5FE7964FAFE797433040
:101F900004F18091C4019091C50190931401809344
:101FA00013018091C8019091C9019093160180930B
:101FB00015018091CA019091CB01909318018093F3
:101FC00017018091C6019091C70190931A018093E7
:101FD0001901EB96ACAEBDAECEAEDFAEEB97209165
:101FE000C6013091C7018091C4019091C501280FAD
:101FF000391F8091190190911A01281B390B80918A
:10200000130190911401281B390B359527953093B6
:10201000D5012093D4014091C8015091C90180910C
:10202000150190911601481B590B5093D70140930D
:10203000D601E091CA01F091CB01809117019091F6
:102040001801E81BF90BF093D901E093D8018091B6
:1020500031028150682F772767FD7095C90137FFDE
:1020600004C088279927821B930B062E02C0880F75
:10207000991F0A94E2F7A1E081399A0714F080E9E8
:1020800091E0A0E9B1E0A81BB90BB887AF83CA0102
:1020900057FF04C088279927841B950B062E02C082
:1020A000880F991F0A94E2F7B1E081399B0714F079
:1020B00080E991E0A0E9B1E0A81BB90BBA87A98734
:1020C000CF01F7FF04C0882799278E1B9F0BDC01E7
:1020D00002C0AA0FBB1F6A95E2F7BD01B1E06139EA
:1020E0007B0714F060E971E0A0E96A2EA1E07A2E86
:1020F000661A770A7C866B868091CC019091CD011F
:1021000065E0833C96074CF403EC15E0081B190BC3
:1021100071E00139170794F00BC0A6E088329A07E6
:102120001CF400E010E00AC0B7E086389B071CF002
:1021300000E911E003C08C01055F15408090760234
:102140009090770261E08616910459F08114910411
:1021500009F04FC08091350290913602029709F044
:1021600048C080913302082E02C0220F331F0A9408
:10217000E2F73E872D87082E02C0440F551F0A94B0
:10218000E2F7588B4F87AF0102C0440F551F8A9565
:10219000E2F75A8B498B89819A8197FD05C0882780
:1021A0009927821B930B01C0C9019093B1028093C0
:1021B000B0028B819C812F85388997FD05C08827C7
:1021C0009927821B930B01C0C9019093B30280939E
:1021D000B2028D819E8197FD03C0509541955F4F5E
:1021E0005093B5024093B40271E08716910471F0E8
:1021F00055C01092B1021092B0021092B302109228
:10220000B2021092B5021092B40248C06F81788574
:10221000882777FD8095982F24EF3FEB40E050E032
:102220000E94411AF9E09595879577956795FA95FB
:10223000D1F76093CE027093CF028093D002909337
:10224000D10269857A85882777FD8095982F0E942D
:10225000411AE9E09595879577956795EA95D1F7C5
:102260006093D2027093D3028093D4029093D502EC
:10227000B301882777FD8095982F0E94411A39E095
:1022800095958795779567953A95D1F76093D6029E
:102290007093D7028093D8029093D9022091FF01C6
:1022A000309100028091F9019091FA01281B390BBD
:1022B00080E22030380714F02FEF3FE1C901A0EE93
:1022C00020303A0714F480E090EE9093B7028093A8
:1022D000B60220910102309102028091FB0190919F
:1022E000FC01281B390BB0E220303B0714F02FEF24
:1022F0003FE1C901E0EE20303E0714F480E090EEAB
:102300009093B9028093B8022091030230910402A5
:102310008091FD019091FE01281B390BF0E22030E5
:102320003F0714F02FEF3FE1C90120EE8030920704
:1023300014F480E090EE9093BB028093BA02892857
:1023400019F06FE472E002C06CE372E080EB92E09F
:102350000E94A703EE24FF243801882477FC809490
:10236000982C87010B5F1D4FE1E0F0E0EC0FFD1FA3
:10237000EE0DFF1D60817181882777FD8095982F74
:10238000F701E055FD4F22A533A5442737FD4095C1
:10239000542F0E94411A27E0959587957795679568
:1023A0002A95D1F7E7E0F0E0EC0FFD1FEE0DFF1DE1
:1023B00020813181442737FD4095542F0E94411AD6
:1023C0009B01AC01B9E05595479537952795BA958E
:1023D000D1F7C401B3010E94411AA9E095958795F0
:1023E00077956795AA95D1F7D8016D937C93E2E034
:1023F000F0E0EE0EFF1EF6E0EF16F10409F0B1CFAB
:102400002091E00212160CF05CC08091E1029091E4
:10241000E202A091E302B091E402B601A501481BDB
:10242000590B6A0B7B0BDB01CA0181549D40A34011
:10243000B0405CF021502093E002A092E102B09203
:10244000E202C092E302D092E4028091E002992776
:1024500087FD90954091050250910602BC01617084
:10246000707080FF03C026E930E002C02AE63FEF2B
:10247000240F351F30930602209305024091070276
:10248000509108026115710519F026E930E002C08B
:102490002AE63FEF240F351F3093080220930702EE
:1024A0002091090230910A02672B19F48AE69FEF06
:1024B00002C086E990E0820F931F90930A028093F6
:1024C000090235014601D601C501C258DF4F2881F6
:1024D00039814A815B81CE57D040821B930BA40B7C
:1024E000B50B8C59914AA740B0400CF44ECB80916B
:1024F0003902803839F480910001282F30E02058CB
:10250000304004C0282F332727FD309580913A02B0
:10251000803839F480910101482F50E040585040F4
:1025200004C0482F552747FD509580913B028038C5
:1025300031F48091020190E08058904003C09927C7
:1025400087FD90953A8329835C834B839E838D839B
:10255000295F3F4F2F30310510F41A8219828B8189
:102560009C8107960F9710F41C821B828D819E819F
:1025700007960F9710F41E821D8280E00E94AA0227
:10258000C258DF4FA882B982CA82DB82CE57D040C0
:10259000FCCAA6E6B0E0EFECF2E10C94A71A1092A8
:1025A000800081E08093810057985F9848E552E071
:1025B00000E06E010894C11CD11C22E0E22EF12C37
:1025C000EC0EFD1EC60166E60E94B70A882309F4D8
:1025D00041C089818230A9F0833018F4813029F418
:1025E00006C08330B1F08430E9F010E026C0C701A6
:1025F00060E870E048E050E00E94DA1A10E069E01C
:102600001DC0C70160E870E048E050E00E94EA1A8F
:1026100013C0C70160E070E04BE00E94CE0B10E0F9
:1026200066E40CC0C70160E070E00E94F20BC701D5
:1026300060E071E00E94F20B11E061E08981806846
:102640008983C6010E94910A01E044EF51E0112301
:1026500009F4B8CF802FCA59DF4FE8E00C94C31AB1
:10266000CF93DF93C0E0D0E0FE01E85AFE4F8081B7
:1026700087FD04C0808161E00E94A2192196C830C4
:10268000D10591F7DF91CF9108951F920F920FB668
:102690000F9211240F931F932F933F934F935F93A8
:1026A0006F937F938F939F93AF93BF93EF93FF931A
:1026B0008091AE0287FD42C0E091AE02FF27E7FDA8
:1026C000F095E85AFE4F808160E00E940E1A36C0F5
:1026D0008091AE028F5F8093AE02E091AE02FF2741
:1026E000E7FDF095E85AFE4F808187FD27C00091F5
:1026F000840010918500E091AE02FF27E7FDF09580
:10270000E85AFE4F808161E00E940E1AE091AE020D
:10271000FF27E7FDF095EE0FFF1FE45DFE4F0190F0
:10272000F081E02D808191810297880F991F800FA1
:10273000911F90938900809388000BC08091AE0216
:10274000873034F21092AF0280916F008D7F8093BA
:102750006F00FF91EF91BF91AF919F918F917F910A
:102760006F915F914F913F912F911F910F910F901A
:102770000FBE0F901F901895A0E0B0E0E2ECF3E1DF
:102780000C94A71A182F062F862F61E00E94A21919
:10279000812F60E00E94A219812F61E00E940E1A31
:1027A0006AE070E080E090E00E94F600C0E0D0E0D7
:1027B000812F992787FD9095FC01EA56FF4FE49100
:1027C000F0E0EE0FFF1FE457FF4FC590D490865501
:1027D0009F4FFC018491E82EFF24CE018170182FB9
:1027E000802F612F0E940E1AF601808120E030E0D8
:1027F00090E08E219F21892B11F021E030E0812F84
:10280000992787FD90952817390711F010E005C02A
:102810002196C830D10509F711E0802F60E00E94B1
:10282000A219812FCDB7DEB7E8E00C94C31AA4E952
:10283000B0E0EDE1F4E10C94A71A259A8091B4037D
:102840009091B503009711F09C0102C028EB33E092
:10285000CE010196821B930B803891054CF484E1E4
:10286000809381028EE190E09093880280938702AA
:1028700084B7877F84BF88E10FB6F89480936000A7
:10288000109260000FBE21E030E0309321022093CF
:10289000200280E88093390280933A0280933B02C1
:1028A000309323022093220287E08093620284E126
:1028B00080932402E9E7F1E0A5E2CA2EA2E0DA2E35
:1028C000D60181918D9321E0E138F207D1F742E002
:1028D00050E050932E0240932D0221E030E03093DF
:1028E000300220932F02309332022093310283E092
:1028F00090E0909334028093330230933602209319
:102900003502509338024093370284EF91E0909360
:102910003D0280933C021092430210924202909337
:1029200049028093480290933F0280933E021092A6
:1029300045021092440290934B0280934A02909376
:1029400041028093400210924702109246029093F7
:102950004D0280934C0228E020934E029093500247
:1029600080934F02909356028093550290935C029D
:1029700080935B029093520280935102909358028D
:102980008093570290935E0280935D02909354026D
:102990008093530290935A0280935902909360025D
:1029A00080935F022093610285E064E00E94BC1383
:1029B000882311F400E001C007E0CE01039660E82F
:1029C00070E048E050E00E94DA1A002361F48B8145
:1029D000813049F48C819D81AE81BF818E549146B6
:1029E000AC4BB04071F081E08B838EE491E6ACEBB0
:1029F000B0E08C839D83AE83BF83188619861A86C8
:102A00000860CE010B9660E070E04BE00E94CE0BB8
:102A100087FD0260CE01805B9F4F60E071E04BE07C
:102A20000E94CE0B87FD046083E08093E002E02EDD
:102A3000FF24C701867090708230910531F0843098
:102A4000910579F0892B81F119C08E01005B1F4F30
:102A5000C80160E070E00E94F20B88858F5F888774
:102A60000BC08E01055F1F4FC80160E071E00E943E
:102A7000F20B89858F5F8987C80118C08BE080932E
:102A80001F028FE192E060E070E00E94F20B8FE1A4
:102A900092E060E071E00E94F20B8A858F5F8A8786
:102AA00089E08093E0020AC0CE010B96AFE1B2E06C
:102AB000FC0185E401900D928150E1F7C7018E7011
:102AC0009070892B41F0CE01039660E870E048E0F9
:102AD00050E00E94EA1AE0FE0AC082E00E941E0155
:102AE00064E670E080E090E00E944319F6CF0E9417
:102AF000C912882361F02EE088E190E00FB6F894C7
:102B0000A895809360000FBE20936000FFCF1092C5
:102B1000800082E08093810081E080936F0085B522
:102B2000887F85BD0E94B80B80912202909123027C
:102B30008230910519F18330910524F4019709F051
:102B40005BC007C08330910571F1049709F054C050
:102B50003FC080E090E048EE53E020ED37E0FC011C
:102B6000E55FFD4F51834083FC01EB5EFD4F3183F8
:102B7000208302968A30910591F73EC080E090E074
:102B80004CE454E02CE637E0FC01E55FFD4F518357
:102B90004083FC01EB5EFD4F3183208302968A3037
:102BA000910591F729C080E090E042EE54E026EDD7
:102BB00036E0FC01E55FFD4F51834083FC01EB5E95
:102BC000FD4F3183208302968A30910591F714C01E
:102BD00080E090E044E853E024E338E0FC01E55F66
:102BE000FD4F51834083FC01EB5EFD4F3183208319
:102BF00002968A30910591F780912402992787FDEA
:102C0000909528EE33E0FC01E29FC001E39F900D18
:102C1000F29F900D1124AA2797FDA095BA2F8093BB
:102C2000780290937902A0937A02B0937B0280910C
:102C30006202877080931B01A6E6B2E0F6018191E3
:102C40006F01E82FFF27E7FDF095EE0FFF1FE45E11
:102C5000FE4F808191818D939D93FDE2CF16F2E02E
:102C6000DF0661F720E030E0F901EE59FE4F808188
:102C7000F901E85AFE4F80832F5F3F4F283031051E
:102C800099F70E944A030E94630380912002909169
:102C9000210290936502809364020197E9F4809188
:102CA000DC01882319F4E2E0F0E002C0E0E0F0E0AB
:102CB00020E030E08091DB01882311F421E030E056
:102CC000E22BF32BEE0FFF1FEF57FE4F8081918118
:102CD00090936502809364028091640290916502F2
:102CE000019731F482E090E0909365028093640252
:102CF0008091640280937F0288E592E09093840241
:102D0000809383020E94FA020E9430130E94A8045A
:102D10000E943E060E94DB08CC56DF4FE8E00C9490
:102D2000C31A08951F920F920FB60F9211242F937A
:102D30003F934F938F939F93EF93FF938091C000A6
:102D400082FD1DC04091C600209141033091420395
:102D50002F5F3F4F2F733070809143039091440356
:102D60002817390771F0E0914103F0914203EF5FBA
:102D7000FC4F4083309342032093410302C0809173
:102D8000C600FF91EF919F918F914F913F912F91AD
:102D90000F900FBE0F901F901895E0919503F09142
:102DA0009603E05CFF4F8191919120813181821BDC
:102DB000930B8F739070892B11F00E9491160895D8
:102DC0001F920F920FB60F9211242F933F938F9360
:102DD0009F93EF93FF932091850330918603809119
:102DE0008703909188032817390731F48091C10037
:102DF0008F7D8093C10014C0E0918703F091880318
:102E0000EB5BFC4F208180918703909188030196B2
:102E10008F73907090938803809387032093C600EC
:102E2000FF91EF919F918F913F912F910F900FBE46
:102E30000F901F901895AF92BF92DF92EF92FF9282
:102E40000F931F93CF93DF93EC017A018B01DD2465
:102E5000403081EE580780E0680780E0780711F085
:102E6000DD24D39491E0A92EB12CEC89FD89DD20DD
:102E700069F0C50108A002C0880F991F0A94E2F703
:102E8000808360E079E08DE390E005C0108260E827
:102E900074E88EE190E0A80197010E94601A215029
:102EA000304040405040569547953795279580E1F2
:102EB0002030380720F0DD2011F0DD24D6CFE8895E
:102EC000F9893083EA89FB89208319A2EE89FF8979
:102ED000408121E030E0C9010C8C02C0880F991FAD
:102EE0000A94E2F7482B4083EE89FF894081C901AB
:102EF0000D8C02C0880F991F0A94E2F7482B40837B
:102F0000EE89FF894081C9010E8C02C0880F991F8C
:102F10000A94E2F7482B4083EE89FF8980810F8C69
:102F200002C0220F331F0A94E2F720952823208342
:102F3000DF91CF911F910F91FF90EF90DF90BF90A5
:102F4000AF900895DC011C96ED91FC911D97E05C1B
:102F5000FF4F2191319180819181281B390B2F7373
:102F60003070C9010895DC011C96ED91FC911D970C
:102F7000E05CFF4F20813181E054F040DF01AE5B27
:102F8000BF4F8D919C9111972817390719F42FEF96
:102F90003FEF07C08D919C91E80FF91F8081282F8A
:102FA00030E0C9010895DC011C96ED91FC911D975C
:102FB000E05CFF4F20813181E054F040DF01AE5BE7
:102FC000BF4F8D919C9111972817390719F42FEF56
:102FD0003FEF10C08D919C911197E80FF91F208150
:102FE0008D919C91119701968F73907011969C937F
:102FF0008E9330E0C9010895DC0191968C919197F0
:10300000882339F05496ED91FC915597808186FF85
:10301000F9CF91961C920895CF93DF93EC01EE8542
:10302000FF85E05CFF4F20813181E054F0402F5F4D
:103030003F4F2F733070DF01AE5BBF4F8D919C917E
:10304000119728173907D1F3E05CFF4F80819181F8
:10305000E054F040E80FF91F6083EE85FF85E05CE7
:10306000FF4F31832083EE89FF89208181E090E04A
:103070000F8C02C0880F991F0A94E2F7282B208337
:1030800081E089A3EC89FD8980818064808381E06F
:1030900090E0DF91CF91089510928C0310928B03F2
:1030A00088EE93E0A0E0B0E080938D0390938E03D0
:1030B000A0938F03B093900387EB91E090938A03E2
:1030C0008093890381E093E0909396038093950326
:1030D00085E493E0909398038093970385EC90E0C8
:1030E00090939A038093990384EC90E090939C03CF
:1030F00080939B0380EC90E090939E0380939D03CC
:1031000081EC90E09093A00380939F0382EC90E089
:103110009093A2038093A10386EC90E09093A40384
:103120008093A30384E08093A50383E08093A603A8
:1031300087E08093A70385E08093A80381E08093D4
:10314000A9030895CF93DF930E9467190E94171473
:10315000CDECD6E10E944C0D2097E1F30E94CD16F4
:10316000F9CFA0E0B0E0E7EBF8E10C94A71A7C01FE
:103170006B018A01C0E0D0E00FC0D6016D916D01F6
:10318000D701ED91FC910190F081E02DC7010995E7
:10319000C80FD91F015010400115110571F7CE015C
:1031A000CDB7DEB7E8E00C94C31A1F920F920FB6AA
:1031B0000F9211242F933F938F939F93AF93BF93BD
:1031C0008091AF039091B003A091B103B091B2038D
:1031D0003091B3030196A11DB11D232F2D5F2D3713
:1031E00020F02D570196A11DB11D2093B3038093AC
:1031F000AF039093B003A093B103B093B203809157
:10320000AB039091AC03A091AD03B091AE030196D6
:10321000A11DB11D8093AB039093AC03A093AD03AC
:10322000B093AE03BF91AF919F918F913F912F913A
:103230000F900FBE0F901F9018959FB7F894209194
:10324000AB033091AC034091AD035091AE0386B512
:10325000A89B06C08F3F21F02F5F3F4F4F4F5F4F1E
:103260009FBF542F432F322F2227280F311D411D7E
:10327000511D82E0220F331F441F551F8A95D1F73D
:10328000B901CA010895EF92FF920F931F93CF9354
:10329000DF937B018C010E941D19EB010EC00E947F
:1032A0001D196C1B7D0B685E7340C8F30894E10820
:1032B000F10801091109C851DC4FE114F1040105BD
:1032C000110569F7CDB7DEB7E6E00C94C51A78941E
:1032D00084B5826084BD84B5816084BD85B582601B
:1032E00085BD85B5816085BDEEE6F0E080818160B9
:1032F0008083E1E8F0E010828081826080838081B9
:1033000081608083E0E8F0E0808181608083E1EB90
:10331000F0E0808184608083E0EBF0E08081816078
:103320008083EAE7F0E0808184608083808182602E
:103330008083808181608083808180688083109217
:10334000C1000895CF93DF93482F50E0CA018655FE
:103350009F4FFC0134914A565F4FFA0184918823B4
:1033600069F190E0880F991FFC01E858FF4FA59183
:10337000B491FC01EE57FF4FC591D491662351F4EF
:103380002FB7F8948C91932F909589238C938881F3
:1033900089230BC0623061F42FB7F8948C91932F7E
:1033A000909589238C938881832B88832FBF06C0B7
:1033B0009FB7F8948C91832B8C939FBFDF91CF9113
:1033C0000895833071F0843028F48130A1F0823088
:1033D00021F514C08630B1F08730D1F08430E9F4A3
:1033E00004C0809180008F7703C0809180008F7D22
:1033F00080938000089584B58F7702C084B58F7D57
:1034000084BD08958091B0008F778093B0000895B7
:103410008091B0008F7D8093B0000895FF920F934C
:103420001F93F62E482F50E0CA0182549F4FFC0193
:103430002491CA0186559F4FFC0114914A565F4F53
:10344000FA0104910023C9F0222319F0822F0E946F
:10345000E119E02FF0E0EE0FFF1FEE57FF4FA591AF
:10346000B4919FB7F894FF2021F48C91109581239B
:1034700002C08C91812B8C939FBF1F910F91FF9065
:103480000895629FD001739FF001829FE00DF11DAE
:10349000649FE00DF11D929FF00D839FF00D749FCE
:1034A000F00D659FF00D9927729FB00DE11DF91F7A
:1034B000639FB00DE11DF91FBD01CF0111240895D7
:1034C000A1E21A2EAA1BBB1BFD010DC0AA1FBB1F28
:1034D000EE1FFF1FA217B307E407F50720F0A21B9A
:1034E000B30BE40BF50B661F771F881F991F1A9407
:1034F00069F760957095809590959B01AC01BD0131
:10350000CF01089597FB092E05260ED057FD04D054
:10351000D7DF0AD0001C38F450954095309521959E
:103520003F4F4F4F5F4F0895F6F7909580957095F8
:1035300061957F4F8F4F9F4F08952F923F924F92EB
:103540005F926F927F928F929F92AF92BF92CF9233
:10355000DF92EF92FF920F931F93CF93DF93CDB73C
:10356000DEB7CA1BDB0B0FB6F894DEBF0FBECDBFB4
:1035700009942A88398848885F846E847D848C8485
:103580009B84AA84B984C884DF80EE80FD800C818E
:103590001B81AA81B981CE0FD11D0FB6F894DEBF71
:1035A0000FBECDBFED010895EE0FFF1F0590F49102
:1035B000E02D0994DC01CB01FC01F999FECF06C096
:1035C000F2BDE1BDF89A319600B40D9241505040E1
:1035D000B8F70895DC01CB0103C02D910E94F51AC4
:1035E00041505040D0F70895262FF999FECF1FBAC9
:1035F00092BD81BD20BD0FB6F894FA9AF99A0FBE1C
:0836000001960895F894FFCF34
:10360800FFFFFFDC05DC05DC05DC05E803DC05E87D
:1036180003DC05DC05DC05DC05DC05060701050126
:103628000F0103010B0109010D011101E101DF0186
:10363800E501DD010000E301E901E7010001010105
:1036480002010000000000000000DA01DB01DC01DB
:1036580000000000000000000605FF04FF07FFFF50
:10366800890306050A04FF07FF097889988778897E
:103678009887FF000000000000020301000405060F
:103688000702000300040005000800060007000206
:1036980000A0860100801A06000503030304020245
:1036A800020101010101010101EB01ED01EF01F14D
:1036B80001F501000000000C18B118A217D317B3C8
:0436C80017FC1700D4
:00000001FF
