:100000000C948C010C94B4010C94B4010C94B401C4
:100010000C94B4010C94B4010C94B4010C94B4018C
:100020000C94B4010C94B4010C94471B0C94CB1B9E
:100030000C94B4010C94B4010C94B4010C94B4016C
:100040000C94B4010C946F140C94B4010C94B4018E
:100050000C94B6010C94B4010C94B4010C94091DD9
:100060000C94B4010C948E170C94DC170C94B4010E
:100070000C94B4010C94ED030C94B4010C94B401F1
:100080000C94B4010C94B4010C94B4010C94B4011C
:100090000C94B4010C94B4010C94B4010C94B4010C
:1000A0000C94B4010C94B4010C94B4010C082E0807
:1000B000EF080C082E08EF083809A709441E471E50
:1000C0003A1E3E1E681E681E681E4B1E4F1E531EA3
:1000D000591E5D1E681E631E0403090422034100AD
:1000E00072006400750069006E006F0020004C0013
:1000F00065006F006E006100720064006F001803FD
:10010000410072006400750069006E006F002000FD
:100110004C004C004300120100020000004041234B
:1001200036800001010200011201000202000040BD
:100130004123368000010102000100C18081C1001D
:10014000000000240027002A002D003000000000DD
:1001500000250028002B002E0031000000000023A5
:1001600000260029002C002F0004040404040304CA
:100170000502020202040302020202060606060645
:100180000604040202020404080201104080401028
:1001900020408040800802040180402010020110AD
:1001A00080102040400000000200080E0000030400
:1001B00001000B0000000000000000000000000033
:1001C000000000070605040100080A0B0C0D0908D1
:1001D0000B000202020100090400000102020000FB
:1001E0000524001001052401010104240206052450
:1001F0000600010705810310004009040100020AFE
:1002000000000007050202400000070583024000CD
:100210000005010902A1010901A1008501050919D3
:1002200001290315002501950375018102950175CA
:1002300005810305010930093109381581257F75CC
:100240000895038106C0C005010906A101850205C4
:100250000719E029E7150025017501950881029528
:1002600001750881039506750815002565050719B0
:100270000029658100C00904020001030000000993
:1002800021010100012265000705840340000100EF
:10029000000000000000002A2B28000000000000E1
:1002A0000000000000000000000000000000002C22
:1002B0009EB4A0A1A2A434A6A7A5AE362D37382798
:1002C0001E1F20212223242526B333B62EB7B89F24
:1002D0008485868788898A8B8C8D8E8F9091929366
:1002E0009495969798999A9B9C9D2F3130A3AD3504
:1002F0000405060708090A0B0C0D0E0F1011121346
:100300001415161718191A1B1C1DAFB1B0B5000033
:100310004819A51AE61EE81F11241FBECFEFDAE028
:10032000DEBFCDBF11E0A0E0B1E0EAE5F3E402C03A
:1003300005900D92A23CB107D9F714E0A2ECB1E010
:1003400001C01D92A733B107E1F713E0C8E1D3E084
:1003500004C02297FE010E947F21C031D107C9F756
:100360000E949E190C94AB210C9400001F920F92D6
:100370000FB60F9211248F939F93809177029091E3
:1003800078020196909378028093770280917702A9
:1003900090917802892B29F4809179028F5F809364
:1003A00079029F918F910F900FBE0F901F9018951B
:1003B00060918400709185002091770230917802DD
:1003C000E09179028091840090918500862797279B
:1003D00097FDEECF80917702909178022817390728
:1003E00039F780917902E81719F740E050E0FFE013
:1003F000220F331F441F551FFA95D1F78E2F90E01F
:10040000A0E0B0E0BB278695B795AA279927882753
:10041000282B392B4A2B5B2B76956795CB01A0E0D7
:10042000B0E0282B392B4A2B5B2BB901CA01089568
:10043000AF92BF92CF92DF92EF92FF920F931F93F2
:1004400028EE33E040E050E00E94EA205B016C01BE
:100450000E94D8017B018C010E94D8016E197F098E
:10046000800B910B6A157B058C059D05A8F31F91E8
:100470000F91FF90EF90DF90CF90BF90AF900895D5
:1004800091E0982721F0913021F45D9A08955D98CC
:1004900008958BB190E289278BB90895EF92FF926E
:1004A0000F931F937B018C01809112039091130392
:1004B000A0911403B09115038E199F09A00BB10BE5
:1004C000181619061A061B060CF450C08091160364
:1004D000882321F5E0911703EF5FE370E0931703A2
:1004E000FF27E7FDF095E658FD4F8081992787FDAE
:1004F0009095880F991F8093160380E492E4AFE0F3
:10050000B0E0E80EF91E0A1F1B1FE0921203F092E2
:100510001303009314031093150328C08150809394
:10052000160381700E944002E0911703FF27E7FD48
:10053000F095EE0FFF1FE258FD4F80819181AA27B1
:1005400097FDA095BA2F2AE0880F991FAA1FBB1FFD
:100550002A95D1F78E0D9F1DA01FB11F8093120306
:1005600090931303A0931403B09315031F910F915D
:10057000FF90EF9008959A01AB01882311F0589AEB
:10058000599A1092B90060E074E284EF90E00E9402
:1005900009212051304040405040569547953795AD
:1005A00027952093B80008952FEF30E011C0211552
:1005B000310561F41092BC0080918602909187020F
:1005C00001969093870280938602089521503040CF
:1005D0008091BC0087FFEBCF0895FF920F931F938C
:1005E000F82E0CEB10E084EAF80180830E94D4021C
:1005F000F092BB0084E8F80180830E94D4021F912E
:100600000F91FF9008958093BB0084E88093BC0015
:100610000E94D40208951F93182F882311F484E8B0
:1006200001C084EC8093BC000E94D4029091BB0076
:10063000112319F484E98093BC00892F1F91089538
:100640000F931F93162F042F880F0E94ED02812F06
:100650000E940303802F0E94030384E98093BC005F
:100660001F910F9108950F931F93182F062F880F36
:100670000E94ED02802F0E940303110F812F8160E1
:100680000E94ED0280E00E940B031F910F910895DC
:100690001F93CF93DF93EB01142F880F81600E948B
:1006A000ED0208C0115080E011160CF481E00E94A8
:1006B0000B0389931123B1F7DF91CF911F91089517
:1006C000DF92EF92FF920F931F93E82EF62E8A018E
:1006D000D22E880F0E94ED028F2D0E9403038E2DD3
:1006E000B8014D2D0E9448031F910F91FF90EF908C
:1006F000DF90089588E66BE640E80E94200362E3FD
:1007000070E080E090E00E94180288E66BE643E02B
:100710000E94200340911B01415088E66AE10E943B
:10072000200388E66BE148E10E94200388E665E744
:100730000E94330390E08E77883609F491E0892F88
:100740000895A6E0B0E0E7EAF3E00C9450218C01B4
:100750007B016A0188E663E4AE014F5F5F4F26E0EC
:100760000E946003998180E02A8130E0822B932BE4
:10077000F801918380839B8180E02C8130E0822B83
:10078000932BF701918380839D8180E02E8130E05F
:10079000822B932BF601918380832696E8E00C94BC
:1007A0006C21282F17C0E22FF0E0EE0FFF1FE85753
:1007B000FD4F80819181892B61F080917C00887F41
:1007C000822B80937C0080917A00806480937A00F1
:1007D00008952F5F263038F308951F920F920FB6B9
:1007E0000F9211242F933F934F935F936F937F93B7
:1007F0008F939F93AF93BF93EF93FF9380917C0070
:100800008770E82FF0E0EE0FFF1FE857FD4F0190D3
:10081000F081E02D9091790090838F5F0E94D10349
:10082000FF91EF91BF91AF919F918F917F916F91C8
:100830005F914F913F912F910F900FBE0F901F909E
:100840001895E8E8F2E040E050E061E070E0808177
:100850009181892B79F087B1DB01042E02C0AA0FA8
:10086000BB1F0A94E2F79D012095822387B988B1C6
:10087000282328B94F5F5F4F32964630510539F72C
:1008800080E680937C0010927B008FE880937A0052
:1008900080E00E94D1030895CF93DF93EB01DA014A
:1008A000FC0140E050E061E070E080819181892BA3
:1008B00079F03881CB01042E02C0880F991F0A9469
:1008C000E2F7282F2095232328832C91822B8C93C9
:1008D0004F5F5F4F32964830510539F7DF91CF9126
:1008E000089584E992E064E270E045E250E00E94FD
:1008F0004C0484EA92E067E270E048E250E00E9433
:100900004C0484EB92E06AE270E04BE250E00E941B
:100910004C04089560E070E040E050E0A1E0B0E0F9
:10092000362FFA01EC56FD4F0190F081E02D309703
:1009300051F023B1CD01062E02C0880F991F0A94F1
:10094000E2F728232083FA01EC55FD4F0190F08156
:10095000E02D309751F026B1CD01032E02C0880F53
:10096000991F0A94E2F728232083FA01EC54FD4FE3
:100970000190F081E02D309749F029B1CD0102C0FE
:10098000880F991F3A95E2F7282320836F5F7F4FE6
:100990004E5F5F4F4031510519F60895A6E0B0E073
:1009A000E4EDF4E00C9446217A8369831C012B0169
:1009B0009E838D839B012A5F3F4F3C832B83ED8178
:1009C000FE810681178180819181081B190B3801F6
:1009D000882477FC8094982CF10182899389A489DA
:1009E000B589860D971DA81DB91D268D378D40A18F
:1009F00051A1AA24BB246501A21AB30AC40AD50ACC
:100A00008A159B05AC05BD054CF05C016D012817EE
:100A100039074A075B0714F459016A01F101A28AF8
:100A2000B38AC48AD58AED81FE8184859585AA27FB
:100A300097FDA095BA2FA4019301281B390B4A0BEF
:100A40005B0BCA01B90115870487F201248535853E
:100A5000442737FD4095542F0E94EA207B018C01EA
:100A600032E015950795F794E7943A95D1F7F2019E
:100A700020813181442737FD4095542FC401B301B3
:100A80000E94EA2023E095958795779567952A95AA
:100A9000D1F7E60EF71E081F191FF20126813781D4
:100AA000442737FD4095542FC601B5010E94EA2026
:100AB000B6E09595879577956795BA95D1F7E60E47
:100AC000F71E081F191FE981FA81028804C01595D5
:100AD0000795F794E7940A94D2F7ED81FE81F3A687
:100AE000E2A63296FE83ED8324E030E0220E331E30
:100AF00042E050E0440E551E8B819C8148165906F9
:100B000009F05DCF2696E2E10C946221A6E0B0E008
:100B1000ECE8F5E00C945621CE010196BE016D5F24
:100B20007F4FAE014B5F5F4F0E94A1038B819C8181
:100B3000909581959F4F9093FB018093FA01498195
:100B40005A8166277727641B750B7093FD016093AC
:100B5000FC012D813E813093FF012093FE018091A5
:100B60002A0290912B028230910519F00397B1F47B
:100B700009C03093FD012093FC015093FF01409385
:100B8000FE010CC088279927821B930B9093FD01CF
:100B90008093FC017093FF016093FE012696E2E0D2
:100BA0000C94722181E040E85AE166E070E00E9416
:100BB000BB020E947A03882349F485E080937C027B
:100BC00088EC90E0909383028093820208950F93C3
:100BD0001F93CF93DF93FC011082772767FD7095F9
:100BE00072836183DC01EC0140E050E00FEF1FE70E
:100BF00060E070E80CC012961C930E9311971A9641
:100C00007C936E9319971F86188A198A1A8A9A01FB
:100C10004F5F5F4F12962496818192812817390782
:100C200054F314A613A6DF91CF911F910F9108954D
:100C3000A0E0B0E0EEE1F6E00C944E217C018C01E6
:100C4000EB01F70160E070E02BC0218132818881E7
:100C50009981281739070CF4C90192838183218572
:100C6000328588819981821793070CF4C901928794
:100C7000818729913991442737FD4095542FD80118
:100C80001F96AD90BD90CD90DC905297A20EB31EF2
:100C9000C41ED51E1F96AD92BD92CD92DC92529786
:100CA0009B016F5F7F4F32960C5F1F4FD7011196EC
:100CB0008D919C911297281739073CF2CDB7DEB77A
:100CC000EAE00C946A21A0E0B0E0E9E6F6E00C94DA
:100CD0005021EC017C0143E2C42ED12CC80ED91E58
:100CE00000E010E011C02BA53CA5442737FD40953E
:100CF000542FF70167857089818992890E942B2181
:100D0000F601219331936F0198010F5F1F4F84E02B
:100D100090E0E80EF91E89819A81281739071CF3A3
:100D2000CDB7DEB7E8E00C946C21CF93DF93FC01E4
:100D3000EB0161817281A0E040E050E00DC083854D
:100D4000948523813481821B930B8C179D070CF4AF
:100D5000AF5F4F5F5F4F32964617570784F320E02F
:100D60008A2F992787FD90958617970709F421E028
:100D7000822FDF91CF910895A8E0B0E0E2ECF6E099
:100D80000C9454218C018091C2019091C3019A83EB
:100D900089838091C6019091C7019C838B83809148
:100DA000C8019091C9019E838D838091C401909167
:100DB000C50198878F83C801BE016F5F7F4F0E9476
:100DC0001806F80183A594A5019694A783A78436F5
:100DD000910551F5C80164E170E00E9495068823F1
:100DE000F9F0C8010E946306F80183A194A19093D1
:100DF00014018093130185A196A19093160180930D
:100E0000150187A190A5909318018093170181A5E2
:100E100092A590931A018093190181E0808304C008
:100E2000C80164E00E94E7052896E4E00C94702174
:100E3000A6E0B0E0EEE1F7E00C9454218C01809143
:100E4000FA019091FB019A8389838091FC01909132
:100E5000FD019C838B838091FE019091FF019E8315
:100E60008D83C801BE016F5F7F4F0E941806F80195
:100E700083A594A5019694A783A78C52914021F550
:100E8000C80162E370E00E9495068823C9F0C8019A
:100E90000E946306F80183A194A19093F5018093C9
:100EA000F40185A196A19093F7018093F60187A1A3
:100EB00090A59093F9018093F80181E0808304C0AC
:100EC000C80163E00E94E7052696E4E00C947021D7
:100ED000209103013091040180910301909104015C
:100EE0002817390721F43093C3012093C2012091C0
:100EF00005013091060180910501909106012817A6
:100F0000390721F43093C7012093C60120910701CE
:100F10003091080180910701909108012817390745
:100F200021F43093C9012093C80120910B01309125
:100F30000C0180910B0190910C012817390721F4C5
:100F40003093CB012093CA0120910D0130910E0105
:100F500080910D0190910E012817390721F43093EB
:100F6000CD012093CC0120910F013091100180918F
:100F70000F01909110012817390721F43093CF0108
:100F80002093CE0120911101309112018091110125
:100F9000909112012817390721F43093D101209341
:100FA000D00180915F029091600205974CF480918E
:100FB000C2019091C3019093C5018093C40108952B
:100FC0002091090130910A018091090190910A0153
:100FD0002817390721F43093C5012093C4010895DF
:100FE000A0E0B0E0E6EFF7E00C945021DC01C09007
:100FF0005F02D0906002F6013297E830F10508F008
:10100000E3C1EA5AFF4F6D917C9111970091C201A3
:101010001091C3010C947D21600F711F7093E70143
:101020006093E6018D919C9111972091C4013091BC
:10103000C501820F931F9093ED018093EC011296EE
:101040008D919C9113972091C6013091C701820F19
:10105000931F9093E9018093E801A8C17801E60EFF
:10106000F71EF092E701E092E601E091C401F091F1
:10107000C501CD91DC911197CE0FDF1FD093ED010B
:10108000C093EC014091D2015091D30144525A4F88
:101090008D919C911197480F591F12966D917C91DB
:1010A00013978091C6019091C701680F791FCB01FA
:1010B000840F951F9C013595279535952795359576
:1010C000279595958795280F391F275731403093DD
:1010D000E9012093E801461B570BCA0133E09595BF
:1010E00087953A95E1F755954795840F951F84525A
:1010F0009A4F9093EB018093EA012091C8013091BF
:10110000C90146E0C416D10409F060C084E0223E63
:10111000380774F029573540273C310518F082E034
:1011200090E002C081E090E0029709F04DC121C03B
:101130008091190190911A01800F911F8E1B9F0BB6
:101140002091130130911401821B930B9595879583
:1011500084529A4F9093E7018093E6018C5D95400D
:101160002CED35E0281B390B3093ED012093EC0179
:101170002BC12091020112966D917C911397E09101
:10118000D401F091D5016E0F7F1F882777FD8095E0
:10119000982F30E020583040442737FD4095542F99
:1011A0000E94EA20A7E09595879577956795AA957F
:1011B000D1F7E60EF71EF092E701E092E601C61BBA
:1011C000D70BD093ED01C093EC01FEC09093E701E3
:1011D0008093E60114968D919C911597EFC0600F56
:1011E000711F7093E7016093E6018D919C911197B7
:1011F0002091C4013091C501820F931F9093ED019E
:101200008093EC0112966D917C9113978091C601A9
:101210009091C701680F791F14964D915C911597B5
:101220008091C8019091C901480F591FCA01860FCA
:10123000971F9C01F3E035952795FA95E1F7959571
:101240008795280F391F275731403093E9012093A4
:10125000E801461B570BCA01B3E095958795BA95EF
:10126000E1F755954795840F951F84529A4FA8C072
:1012700020911301309114011296CD91DC911397B6
:101280008091D4019091D501C80FD91F14960D906B
:10129000BC91A02D8091D6019091D701A80FB91FC4
:1012A0008091090190910A018C54944097FF03C0EA
:1012B00040E050E016C08091090190910A018C54E1
:1012C000944095958795855F91401CF044EF51E0DF
:1012D00008C04091090150910A014C545440559561
:1012E0004795F801E452FA4FE21BF30BE60FF71FA4
:1012F000BE016E0F7F1F9A012A1B3B0B37FF02C0F6
:1013000020E030E0CB01821B930B9093E7018093A8
:10131000E601260F371F3093E9012093E801BF0152
:101320006C1B7D0B9A012A0F3B1F37FF02C020E088
:1013300030E0C901860F971F9093ED018093EC0177
:10134000621B730B7093EB016093EA013DC0600F69
:10135000711F7093E7016093E6018D919C91119745
:101360002091C4013091C501820F931F9093ED012C
:101370008093EC0112968D919C9113972091C60158
:101380003091C701820F931F9093E9018093E80188
:101390008091D0019091D10112962D913C9113979B
:1013A000821B930B9093F1018093F00114968D9121
:1013B0009C9115972091C8013091C901820F931F0C
:1013C0009093EB018093EA018091CE019091CF013F
:1013D0009093EF018093EE0189E0C816D10441F0AB
:1013E0008091D0019091D1019093F1018093F0010F
:1013F0008091CC019091CD019093F3018093F20103
:10140000CDB7DEB7E8E00C946C21AAE0B0E0EBE0E9
:10141000FAE00C94542180911D0290911E020397D2
:10142000A9F5FE0131968AE0DF011D928A95E9F760
:10143000CF010E94F007A7E8B1E006E012E040E12A
:1014400052E06D917C911197F80120813181FB016F
:1014500080819181281739070CF4C901F801918323
:101460008083FA0120813181FB0180819181821783
:1014700093070CF4C901FA0181939193AF0112967D
:101480000E5F1F4FF1E0A139BF07D9F680E092E06F
:101490000E94F00780915F0290916002099711F01D
:1014A00074E001C075E060E080E090E0FC01E95785
:1014B000FE4FA081B1814D915C911197FC01EA5FD3
:1014C000FD4F0190F081E02D4E175F0754F0FC01B5
:1014D000E05FFD4F20813181FA01241735070CF4BC
:1014E000F901ED93FC936F5F02966717FCF22A9661
:1014F000E4E00C9470218091C602882309F050C06A
:1015000081E08093C6028FEF8093C5022FB7F894D5
:101510008091E6019091E7019093D9018093D801E1
:101520008091E8019091E9019093DB018093DA01C9
:101530008091EA019091EB019093DD018093DC01B1
:101540008091EC019091ED019093DF018093DE0199
:101550008091EE019091EF019093E1018093E00181
:101560008091F0019091F1019093E3018093E20169
:101570008091F2019091F3019093E5018093E40151
:1015800080916F00826080936F00B19A8091840097
:1015900090918500049690938900809388002FBFD6
:1015A0000895FC0181E08183808385E08283168237
:1015B00015821086178208959C0144E0813B9407B0
:1015C00014F490E00DC0845195408159914010F47D
:1015D00091E006C02850374014F49FEF06C092E017
:1015E000662319F082E0891B982F892F0895CF93E5
:1015F000DF93EC018A818B838091C2019091C301BA
:101600006D810E94DC0A87FF88838091C6019091DA
:10161000C7016E810E94DC0A87FF89838F8188233E
:1016200051F48881882329F0823029F481E08D8368
:10163000188281E08F838885882361F489818823DB
:1016400019F0823039F404C081E08E8382E089830E
:1016500081E0888738813F5F898123E08202C00171
:101660001124380F3A839B8180E0391729F081E0FB
:101670009295907F932B9C83DF91CF910895282F93
:1016800030E03F6F220F331FEFB7F8948091840052
:1016900090918500AC01405C5F4FBC016D5D7A4F5D
:1016A0008091840090918500DA01A81BB90B1A166D
:1016B0001B06B4F320FF02C03F9801C03F9A4617B3
:1016C000570729F03695279545575F4FE9CFEFBF6C
:1016D0000895EFB7F894379B49C016C02091840055
:1016E000309185002058314C04C08FEF9FEF379B1D
:1016F0000BC08091840090918500B901681B790B23
:101700001616170614F4F1CFAC0141505040CA012F
:1017100001961816190614F34F5F5F4F19F420E075
:1017200030E826C08091840090918500AC0140563D
:101730005F4F20E030E0BC0163597B4F8091840013
:1017400090918500DA01A81BB90B1A161B06B4F399
:1017500086B13695279590E080789070282B392BAC
:101760004617570729F045575F4FE8CF20E030E490
:10177000EFBFC9010895EF92FF920F931F93CF938C
:10178000DF93E82E192F062FF62E84E20E943F0BDE
:10179000802F0E943F0B2E2D312FC901EC0104C078
:1017A0008991F80E0E943F0B9E012E192017C4F359
:1017B0008F2D81950E943F0BCDB7DEB7E6E00C94EC
:1017C0006E218F929F92AF92BF92CF92DF92FF9243
:1017D0000F931F93CF93DF934C015A01C0E0D0E0E9
:1017E000C62EDD24C7FCD09402C0812F182FC5015E
:1017F0000E94690B9C018070907C892B69F5822F77
:10180000C130D10559F0C230D105A1F0209779F748
:10181000243259F7812FC1E0D0E0E8CF90E0C8161C
:10182000D90614F4812F15C0822FF22EC2E0D0E029
:1018300000E0DCCFF20E812F8150112331F0F40152
:10184000E00FF11D20830F5FD1CFFF2011F481E065
:1018500004C0C0E0D0E0CACF80E0DF91CF911F91FB
:101860000F91FF90DF90CF90BF90AF909F908F909F
:101870000895CF92DF92EF92FF921F93CF93DF9361
:10188000E0914401F0914501A081B18114962D9120
:101890003C911597CF01F9010995892B09F48AC06C
:1018A0005BC01092110320930D0330930E034093FD
:1018B0000F035093100380911103E82FFF27E7FDDA
:1018C000F095E350FD4F10838F5F809311038031BB
:1018D0000CF46EC08091FC021816D4F5AFEFB2E0A4
:1018E000CBE0D0E05C9140E011968C911197282FCD
:1018F00030E0242B352B8091FC02682F772767FD81
:101900007095C901062E02C0969587950A94E2F754
:101910008F708830C4F4E82FFF27E7FDF095EE0FB5
:10192000FF1FEF59FD4F0190F081E02DCE01861B86
:10193000970B02C0220F331F8A95E2F737702452AB
:101940003E4F31832083129663E0AD30B60751F6E7
:101950001092110381E02EC080911103803154F563
:10196000A0914401B0914501ED91FC911197068041
:10197000F781E02DCD010995182F0E94D8019B0118
:10198000AC0180910D0390910E03A0910F03B091D3
:10199000100369017A01C81AD90AEA0AFB0AD701B9
:1019A000C60189559B41A040B0400CF07ACF7BCF57
:1019B00080E000C0DF91CF911F91FF90EF90DF900A
:1019C000CF900895809144019091450140E052EC00
:1019D00061E070E00E94171880912802909129021E
:1019E000019711F08BE001C08AE08093FC0208951A
:1019F0001F93CF93DF93EC01142F45E450E00E9436
:101A000083218881811711F08FEF12C090E020E0D0
:101A100030E0FE01E20FF31F8081980F2F5F3F4FF0
:101A200025343105B1F7992311F480E001C08EEF20
:101A3000DF91CF911F910895DC0190E020E030E02C
:101A4000FD01E20FF31F8081980F2F5F3F4F243479
:101A50003105B1F7AC5BBF4F91959C93A454B04056
:101A6000CD0145E450E00E9493210895A1E1B0E04A
:101A7000ECE3FDE00C9446211C0181E089838BE1BD
:101A800092E09B838A8302969D838C830D969F832D
:101A90008E8302969987888702969B878A8702960B
:101AA0009D878C8702969F878E87CE010196998BA2
:101AB000888BD0901B02DD0CCC246624EE24FF24FE
:101AC0008701F0E88F2EFAE19F2EF6E0AF2EB12CC1
:101AD000E2E07E2E2C010E94D8019B01AC01DC01CA
:101AE000CB018E199F09A00BB10B88169906AA0687
:101AF000BB060CF051C0171424F5872D992787FDDC
:101B00009095FC01E170F07080FD03C088E097E0E3
:101B100002C08CED95E09093E9018093E8018CED93
:101B200095E09093E7018093E601EE0FFF1FEE0F23
:101B3000FF1FE159FE4F80809180A280B3807A948C
:101B400029C0DD2039F11D1424F46CE271E0A1E01C
:101B500003C064ED7EEFAFEF8D2D992787FD909543
:101B6000FC01E170F07080FF03C08CED95E003C0D4
:101B7000CB0184529A4F9093E7018093E601EE0FD8
:101B8000FF1FEE0FFF1FE159FE4F80809180A28062
:101B9000B380DA1A79018A010E94390C882319F07E
:101BA00091E09093C4028091C402882329F010929E
:101BB000C4020E94680702C0662041F08091C602FC
:101BC000882309F08CC00E947B0A6624772009F0E4
:101BD00082CFC1010E94F70A882309F47CCFF1016A
:101BE0008481843561F0853520F4823509F063C045
:101BF00013C0863559F0883509F05DC02AC0F1E080
:101C0000FC1514F0CC2470C0CA946EC085E08C150D
:101C10000CF468C0C39468C0AC2DBB27A7FDB09579
:101C2000FD01EE0FFF1FE40DF51D0180F281E02D97
:101C30008081282F332727FD30952F5F3F4FA958EC
:101C4000BE4F8C91992787FD909582179307F4F4E6
:101C50001CC0AC2DBB27A7FDB095FD01EE0FFF1FEB
:101C6000E40DF51D0180F281E02D8081282F3327BE
:101C700027FD309521503040A158BE4F8C919927B7
:101C800087FD9095281739070CF49C01208320E0EC
:101C90008C2D992787FD9095FC01EE0FFF1FE40D19
:101CA000F51D0180F281E02DD080DD0C222319F09A
:101CB0000196782E770C8981823009F00CCF8AE169
:101CC00092E060E070E00E941C0D8AE192E060E02A
:101CD00071E00E941C0D6196E2E10C946221662481
:101CE000639474CF87E0C82E21E0D2CFA1E9B0E0A1
:101CF000ECE7FEE00C9446210E94D8011B012C0168
:101D0000DE011196E1E6F1E086E001900D9281504E
:101D1000E1F78E010D5E1F4FC8010E94D10A9CE1C0
:101D2000E92EF12CEC0EFD1EC70164E00E94E705D0
:101D300089E4C82ED12CCC0EDD1EC60163E00E94C2
:101D4000E7052092F8023092F9024092FA0250928E
:101D5000FB02C657DF4F288239824A825B82CA580B
:101D6000D040CA57DF4F288239824A825B82C658E8
:101D7000D040CE57DF4F288239824A825B82C258D8
:101D8000D04042013101C258DF4F288239824A8255
:101D90005B82CE57D040EB962CAE3DAE4EAE5FAEE2
:101DA000EB97EE961FAEEE97ED961FAEED9721E006
:101DB000EC962FAFEC97C257DF4FE882CE58D04059
:101DC000C157DF4FF882CF58D040C057DF4F08834C
:101DD000C059D040CF56DF4F1883C159D0400E9420
:101DE000D8015B016C010E944E020E94390C8823CD
:101DF00019F031E03093C4028091C4028823A1F429
:101E0000D601C501C657DF4F488159816A817B8160
:101E1000CA58D040841B950BA60BB70B815395472E
:101E2000A040B0400CF442C01092C4020E94680767
:101E30008C8D882369F0C657DF4FA882B982CA8289
:101E4000DB82CA58D04061E0EE966FAFEE972EC0AD
:101E5000C257DF4F8881CE58D040C157DF4F98819D
:101E6000CF58D0400E94BC062A968FAD2A9788236F
:101E700011F492E001C090E020E08C8D882309F4F9
:101E800021E0920F90937B0288EC90E09093810286
:101E900080938002C657DF4FA882B982CA82DB8254
:101EA000CA58D04091E0EE969FAFEE978091C6025F
:101EB000882379F5EE96AFADEE97AA2351F1A601EE
:101EC0009501CA57DF4F688179818A819B81C65805
:101ED000D040261B370B480B590B80917302909111
:101EE0007402A0917502B091760282179307A4073D
:101EF000B5077CF40E94050A0E947B0ACA57DF4F8F
:101F0000A882B982CA82DB82C658D040EE961FAE44
:101F1000EE97D601C501CE57DF4F288139814A811E
:101F20005B81C258D040821B930BA40BB50B81512F
:101F30009742A040B04054F10E9486052A968FAD8A
:101F40002A978823D9F4CE01875B9F4F0E941807F8
:101F50002A968FAD2A97882311F492E001C090E071
:101F600020E08C8D882309F421E0920F90937B026E
:101F700048EC50E05093810240938002CE57DF4FEF
:101F8000A882B982CA82DB82C258D040EC965FAD8B
:101F9000EC97552309F456C0C057DF4F8881C059CC
:101FA000D040CF56DF4F9881C159D0400E94F70AE8
:101FB000882309F447C0ED966FADED97E62FFF2714
:101FC000E7FDF095E85AFE4F9F898081981721F030
:101FD000ED961FAEED9707C0ED967FADED977F5F55
:101FE000ED967FAFED97ED968FADED97E82FFF273C
:101FF000E7FDF095E85AFE4F80818F3F81F4CE01D6
:1020000043960E94360D2EE088E190E00FB6F894DA
:10201000A895809360000FBE20936000FFCFD6018B
:10202000C50182199309A409B509815C914EA44E9A
:10203000B04024F0EC961FAEEC9704C0F1E0EC96B3
:10204000FFAFEC978C8D882329F02A968FAD2A97C5
:102050008823C9F58091C4019091C5012091C201E6
:102060003091C301820F931F2091190130911A0101
:10207000821B930B2091130130911401821B930B4F
:10208000959587959093D3018093D2018091C60155
:102090009091C7012091150130911601821B930B7D
:1020A0009093D5018093D4018091C8019091C9018A
:1020B0002091170130911801821B930B9093D70147
:1020C0008093D6018CCED601C50186199709A8093F
:1020D000B90981519742A040B0400CF41EC38091D1
:1020E0007102909172028130910559F48091CA0178
:1020F0009091CB01865F95400CF09BC080E090E012
:102100000DC0892B09F095C08091CA019091CB0137
:10211000875296400CF48DC081E090E0909372025B
:1021200080937102892B11F084E001C080E08093DC
:102130007B0268EC70E070938102609380021092E1
:10214000D9021092DA021092DB021092DC02109295
:10215000E5021092E6021092E7021092E802109255
:10216000DD021092DE021092DF021092E002109265
:10217000E9021092EA021092EB021092EC02109225
:10218000E1021092E2021092E3021092E402109235
:10219000ED021092EE021092EF021092F002809186
:1021A000320290913302029709F043C0D601C50173
:1021B000EB962CAD3DAD4EAD5FADEB97821B930B17
:1021C000A40BB50B8152914AA740B0401CF0E79692
:1021D0001FAEE797E7964FADE7974F5FE7964FAF94
:1021E000E797433004F18091C2019091C30190932D
:1021F0001401809313018091C6019091C7019093BF
:102200001601809315018091C8019091C9019093A6
:102210001801809317018091C4019091C50190939A
:102220001A0180931901EB96ACAEBDAECEAEDFAE17
:10223000EB972091C4013091C5018091C20190912A
:10224000C301280F391F8091190190911A01281B91
:10225000390B8091130190911401281B390B35958E
:1022600027953093D3012093D2014091C60150911C
:10227000C7018091150190911601481B590B50938D
:10228000D5014093D401E091C801F091C90180913A
:10229000170190911801E81BF90BF093D701E09317
:1022A000D60180912C028150682F772767FD7095A9
:1022B000C90137FF04C088279927821B930B062E7C
:1022C00002C0880F991F0A94E2F7A1E081399A07AA
:1022D00014F080E991E0A0E9B1E0A81BB90BB88740
:1022E000AF83CA0157FF04C088279927841B950B29
:1022F000062E02C0880F991F0A94E2F7B1E08139D7
:102300009B0714F080E991E0A0E9B1E0A81BB90BAC
:10231000BA87A987CF01F7FF04C0882799278E1BAA
:102320009F0BDC0102C0AA0FBB1F6A95E2F7BD013B
:10233000B1E061397B0714F060E971E0A0E96A2E31
:10234000A1E07A2E661A770A7C866B868091CA0194
:102350009091CB0165E0833C96074CF403EC15E0CB
:10236000081B190B71E00139170794F00BC0A6E0A8
:1023700088329A071CF400E010E00AC0B7E0863803
:102380009B071CF000E911E003C08C01055F1540BC
:10239000809071029090720261E08616910459F06B
:1023A0008114910409F04FC0809130029091310264
:1023B000029709F048C080912E02082E02C0220F19
:1023C000331F0A94E2F73E872D87082E02C0440F80
:1023D000551F0A94E2F7588B4F87AF0102C0440F94
:1023E000551F8A95E2F75A8B498B89819A8197FD0F
:1023F00005C088279927821B930B01C0C9019093C0
:10240000C8028093C7028B819C812F85388997FDF4
:1024100005C088279927821B930B01C0C90190939F
:10242000CA028093C9028D819E8197FD03C0509599
:1024300041955F4F5093CC024093CB0271E08716D9
:10244000910471F055C01092C8021092C702109208
:10245000CA021092C9021092CC021092CB0248C05C
:102460006F817885882777FD8095982F24EF3FEB43
:1024700040E050E00E94EA20F9E095958795779535
:102480006795FA95D1F76093E5027093E602809321
:10249000E7029093E80269857A85882777FD809521
:1024A000982F0E94EA20E9E09595879577956795A2
:1024B000EA95D1F76093E9027093EA028093EB0208
:1024C0009093EC02B301882777FD8095982F0E94A6
:1024D000EA2039E095958795779567953A95D1F7F4
:1024E0006093ED027093EE028093EF029093F002FE
:1024F0002091FA013091FB018091F4019091F50156
:10250000281B390B80E22030380714F02FEF3FE111
:10251000C901A0EE20303A0714F480E090EE9093C9
:10252000CE028093CD022091FC013091FD0180917B
:10253000F6019091F701281B390BB0E220303B07E0
:1025400014F02FEF3FE1C901E0EE20303E0714F414
:1025500080E090EE9093D0028093CF022091FE0114
:102560003091FF018091F8019091F901281B390BFE
:10257000F0E220303F0714F02FEF3FE1C90120EED9
:102580008030920714F480E090EE9093D202809312
:10259000D102892819F06AE472E002C067E372E0B0
:1025A00087EC92E00E94CE04EE24FF2438018824B8
:1025B00077FC8094982C870100501E4FE1E0F0E0FA
:1025C000EC0FFD1FEE0DFF1D60817181882777FDE7
:1025D0008095982FF701E953FD4F22A533A5442795
:1025E00037FD4095542F0E94EA2027E09595879566
:1025F000779567952A95D1F7E7E0F0E0EC0FFD1F9E
:10260000EE0DFF1D20813181442737FD4095542F69
:102610000E94EA209B01AC01B9E05595479537959A
:102620002795BA95D1F7C401B3010E94EA20A9E029
:102630009595879577956795AA95D1F7D8016D936C
:102640007C93E2E0F0E0EE0EFF1EF6E0EF16F10400
:1026500009F0B1CF2091F70212160CF05CC0809106
:10266000F8029091F902A091FA02B091FB02B60132
:10267000A501481B590B6A0B7B0BDB01CA01815476
:102680009D40A340B0405CF021502093F702A092FF
:10269000F802B092F902C092FA02D092FB02809145
:1026A000F702992787FD9095409100025091010211
:1026B000BC016170707080FF03C026E930E002C089
:1026C0002AE63FEF240F351F3093010220930002CA
:1026D00040910202509103026115710519F026E93B
:1026E00030E002C02AE63FEF240F351F309303028B
:1026F000209302022091040230910502672B19F405
:102700008AE69FEF02C086E990E0820F931F9093C4
:1027100005028093040235014601D601C501C25865
:10272000DF4F288139814A815B81CE57D040821B9F
:10273000930BA40BB50B8C59914AA740B0400CF4F5
:102740004ECB80913402803839F480910001282FDB
:1027500030E02058304004C0282F332727FD309523
:1027600080913502803839F480910101482F50E082
:102770004058504004C0482F552747FD5095809140
:102780003602803831F48091020190E08058904008
:1027900003C0992787FD90953A8329835C834B83F7
:1027A0009E838D83295F3F4F2F30310510F41A82AD
:1027B00019828B819C8107960F9710F41C821B82D3
:1027C0008D819E8107960F9710F41E821D8280E0F6
:1027D0000E94D103C258DF4FA882B982CA82DB822D
:1027E000CE57D040FCCAA6E6B0E0E9EFF3E10C9486
:1027F00050211092800081E0809381003F9847989B
:1028000048E552E000E06E010894C11CD11C22E0B2
:10281000E22EF12CEC0EFD1EC60166E60E94E10BD5
:10282000882309F441C089818230A9F0833018F4EB
:10283000813029F406C08330B1F08430E9F010E033
:1028400026C0C70160E870E048E050E00E948321A4
:1028500010E069E01DC0C70160E870E048E050E0AA
:102860000E94932113C0C70160E070E04BE00E941A
:10287000F80C10E066E40CC0C70160E070E00E9454
:102880001C0DC70160E071E00E941C0D11E061E0C9
:10289000898180688983C6010E94BB0B01E044EFF7
:1028A00051E0112309F4B8CF802FCA59DF4FE8E077
:1028B0000C946C21CF93DF93C0E0D0E0FE01E45C88
:1028C000FE4F808187FD04C0808161E00E94F11D80
:1028D0002196C830D10591F7DF91CF9108951F92CD
:1028E0000F920FB60F9211240F931F932F933F93C4
:1028F0004F935F936F937F938F939F93AF93BF9308
:10290000EF93FF938091C50287FD42C0E091C5021D
:10291000FF27E7FDF095E45CFE4F808160E00E94B8
:10292000691E36C08091C5028F5F8093C502E09119
:10293000C502FF27E7FDF095E45CFE4F808187FD2F
:1029400027C00091840010918500E091C502FF2707
:10295000E7FDF095E45CFE4F808161E00E94691E16
:10296000E091C502FF27E7FDF095EE0FFF1FE45D44
:10297000FE4F0190F081E02D808191810297880FB8
:10298000991F800F911F90938900809388000BC03E
:102990008091C502873034F21092C60280916F0098
:1029A0008D7F80936F00FF91EF91BF91AF919F91C9
:1029B0008F917F916F915F914F913F912F911F91D7
:1029C0000F910F900FBE0F901F901895A0E0B0E0F0
:1029D000ECEEF4E10C945021182F062F862F61E0C5
:1029E0000E94F11D812F60E00E94F11D812F61E0A6
:1029F0000E94691E6AE070E080E090E00E94180288
:102A0000C0E0D0E0812F992787FD9095FC01E75920
:102A1000FE4FE491F0E0EE0FFF1FE55AFE4FC59028
:102A2000D49089579E4FFC018491E82EFF24CE015B
:102A30008170182F802F612F0E94691EF6018081FE
:102A400020E030E090E08E219F21892B11F021E0E1
:102A500030E0812F992787FD90952817390711F0CD
:102A600010E005C02196C830D10509F711E0802F8C
:102A700060E00E94F11D812FCDB7DEB7E8E00C9435
:102A80006C21A4E9B0E0E7E4F5E10C945021559AFB
:102A90008091330490913404009711F09C0102C09E
:102AA00027E334E0CE010196821B930B8038910519
:102AB0004CF484E180937C028EE190E09093830259
:102AC0008093820221E030E030931C0220931B02AD
:102AD00080E88093340280933502809336023093ED
:102AE0001E0220931D0287E080935D0284E18093A3
:102AF0001F02E7E6F1E070E2C72E72E0D72ED601A2
:102B000081918D9321E0EF36F207D1F742E050E05A
:102B1000509329024093280221E030E030932B02A9
:102B200020932A0230932D0220932C0283E090E020
:102B300090932F0280932E02309331022093300223
:102B4000509333024093320284EF91E09093380225
:102B50008093370210923E0210923D0290934402FD
:102B60008093430290933A0280933902109240027C
:102B700010923F02909346028093450290933C024C
:102B800080933B02109242021092410290934802BD
:102B90008093470228E02093490290934B02809350
:102BA0004A0290935102809350029093570280936F
:102BB000560290934D0280934C029093530280935F
:102BC0005202909359028093580290934F0280933F
:102BD0004E02909355028093540290935B0280932F
:102BE0005A0220935C0285E066E00E94E614882386
:102BF00011F400E001C007E0CE01039660E870E048
:102C000048E050E00E948321002361F48B818330EF
:102C100049F48C819D81AE81BF818E549146AC4B2D
:102C2000B04071F083E08B838EE491E6ACEBB0E0D2
:102C30008C839D83AE83BF83188619861A860860AD
:102C4000CE010B9660E070E04BE00E94F80C87FD2F
:102C50000260CE01805B9F4F60E071E04BE00E941C
:102C6000F80C87FD046083E08093F702E02EFF24D8
:102C7000C701867090708230910531F084309105E3
:102C800079F0892B81F119C08E01005B1F4FC801BB
:102C900060E070E00E941C0D88858F5F88870BC004
:102CA0008E01055F1F4FC80160E071E00E941C0D9E
:102CB00089858F5F8987C80118C08BE080931A02CD
:102CC0008AE192E060E070E00E941C0D8AE192E0EF
:102CD00060E071E00E941C0D8A858F5F8A8789E021
:102CE0008093F7020AC0CE010B96AAE1B2E0FC0184
:102CF00085E401900D928150E1F7C7018E709070CC
:102D0000892B41F0CE01039660E870E048E050E086
:102D10000E949321E0FE0AC082E00E94400264E625
:102D200070E080E090E00E94771DF6CF0E94F313E0
:102D3000882361F02EE088E190E00FB6F894A89522
:102D4000809360000FBE20936000FFCF1092800040
:102D500082E08093810081E080936F0085B5887F59
:102D600085BD0E94E20C80911D0290911E0282306E
:102D7000910519F18330910524F4019709F05BC0A6
:102D800007C08330910571F1049709F054C03FC02A
:102D900080E090E048EE53E020ED37E0FC01EA5F90
:102DA000FD4F51834083FC01E05FFD4F3183208361
:102DB00002968A30910591F73EC080E090E04CE4A5
:102DC00054E02CE637E0FC01EA5FFD4F518340837D
:102DD000FC01E05FFD4F3183208302968A3091052C
:102DE00091F729C080E090E042EE54E026ED36E015
:102DF000FC01EA5FFD4F51834083FC01E05FFD4F22
:102E00003183208302968A30910591F714C080E0C7
:102E100090E044E853E024E338E0FC01EA5FFD4F32
:102E200051834083FC01E05FFD4F31832083029694
:102E30008A30910591F780911F02992787FD90951F
:102E400028EE33E0FC01E29FC001E39F900DF29F6A
:102E5000900D1124AA2797FDA095BA2F8093730295
:102E600090937402A0937502B093760280915D02F4
:102E7000877080931B01A1E6B2E0F60181916F019A
:102E8000E82FFF27E7FDF095EE0FFF1FE45EFE4FF2
:102E9000808191818D939D93F8E2CF16F2E0DF0659
:102EA00061F720E030E0F901EA5BFE4F8081F90133
:102EB000E45CFE4F80832F5F3F4F2830310599F748
:102EC0000E9471040E948A0480911B0290911C024E
:102ED0009093600280935F02019731F482E090E06A
:102EE0009093600280935F0280915F0280937A02E8
:102EF00088E592E090937F0280937E020E942104F5
:102F00000E945A140E94D2050E9468070E94050A76
:102F1000CC56DF4FE8E00C946C2108951F920F927D
:102F20000FB60F9211242F933F934F938F939F933C
:102F3000EF93FF938091C80082FD1DC04091CE00A9
:102F400020915803309159032F5F3F4F2F733070FA
:102F500080915A0390915B032817390771F0E09133
:102F60005803F0915903E85EFC4F408330935903B6
:102F70002093580302C08091CE00FF91EF919F9162
:102F80008F914F913F912F910F900FBE0F901F90F7
:102F90001895E091AC03F091AD03E05CFF4F819197
:102FA000919120813181821B930B8F739070892BBB
:102FB00011F00E948D1708951F920F920FB60F9275
:102FC00011242F933F938F939F93EF93FF9320911F
:102FD0009C0330919D0380919E0390919F0328173D
:102FE000390731F48091C9008F7D8093C90014C0E6
:102FF000E0919E03F0919F03E45AFC4F2081809161
:103000009E0390919F0301968F73907090939F03FE
:1030100080939E032093CE00FF91EF919F918F911B
:103020003F912F910F900FBE0F901F901895AF9268
:10303000BF92DF92EF92FF920F931F93CF93DF9394
:10304000EC017A018B01DD24403081EE580780E0ED
:10305000680780E0780711F0DD24D39491E0A92E71
:10306000B12CEC89FD89DD2069F0C50108A002C002
:10307000880F991F0A94E2F7808360E079E08DE37E
:1030800090E005C0108260E874E88EE190E0A8014D
:1030900097010E94092121503040404050405695F0
:1030A00047953795279580E12030380720F0DD20BF
:1030B00011F0DD24D6CFE889F9893083EA89FB89CC
:1030C000208319A2EE89FF89408121E030E0C90107
:1030D0000C8C02C0880F991F0A94E2F7482B40839A
:1030E000EE89FF894081C9010D8C02C0880F991FAC
:1030F0000A94E2F7482B4083EE89FF894081C90199
:103100000E8C02C0880F991F0A94E2F7482B408367
:10311000EE89FF8980810F8C02C0220F331F0A9431
:10312000E2F7209528232083DF91CF911F910F9103
:10313000FF90EF90DF90BF90AF900895DC011C9658
:10314000ED91FC911D97E05CFF4F219131918081C1
:103150009181281B390B2F733070C9010895DC0150
:103160001C96ED91FC911D97E05CFF4F2081318111
:10317000E054F040DF01AE5BBF4F8D919C91119701
:103180002817390719F42FEF3FEF07C08D919C9155
:10319000E80FF91F8081282F30E0C9010895DC0174
:1031A0001C96ED91FC911D97E05CFF4F20813181D1
:1031B000E054F040DF01AE5BBF4F8D919C911197C1
:1031C0002817390719F42FEF3FEF10C08D919C910C
:1031D0001197E80FF91F20818D919C91119701960D
:1031E0008F73907011969C938E9330E0C90108956F
:1031F000DC0191968C919197882339F05496ED914A
:10320000FC915597808186FFF9CF91961C92089585
:10321000CF93DF93EC01EE85FF85E05CFF4F2081CB
:103220003181E054F0402F5F3F4F2F733070DF014A
:10323000AE5BBF4F8D919C91119728173907D1F341
:10324000E05CFF4F80819181E054F040E80FF91F6E
:103250006083EE85FF85E05CFF4F31832083EE893C
:10326000FF89208181E090E00F8C02C0880F991FB8
:103270000A94E2F7282B208381E089A3EC89FD8959
:1032800080818064808381E090E0DF91CF91089518
:103290001092A3031092A20388EE93E0A0E0B0E0A6
:1032A0008093A4039093A503A093A603B093A703D0
:1032B00085E991E09093A1038093A00388E193E0D6
:1032C0009093AD038093AC038CE593E09093AF03B0
:1032D0008093AE038DEC90E09093B1038093B003A4
:1032E0008CEC90E09093B3038093B20388EC90E071
:1032F0009093B5038093B40389EC90E09093B70367
:103300008093B6038AEC90E09093B9038093B8035E
:103310008EEC90E09093BB038093BA0384E080939B
:10332000BC0383E08093BD0387E08093BE0385E008
:103330008093BF0381E08093C0030895CF93DF9310
:103340000E949B1D8AEC93E00E94A61A0E944115E0
:10335000C9ECD7E10E94760E2097E1F30E94C917CD
:10336000F9CFA0E0B0E0E7EBF9E10C9450217C014B
:103370006B018A01C0E0D0E00FC0D6016D916D01F4
:10338000D701ED91FC910190F081E02DC7010995E5
:10339000C80FD91F015010400115110571F7CE015A
:1033A000CDB7DEB7E8E00C946C21FC0104C080913D
:1033B000F100819361506623D1F7289884E68093C9
:1033C000C3030895282F8091C4038823C1F057FFB9
:1033D0001AC015C028989093C3038091F10081937F
:1033E000E217F307B9F74115510539F08091F20062
:1033F000882319F48BE68093E800AFBF02C04FEF3B
:103400005FEFCA010895AFB7F89427702093E900E1
:103410008091F200282F30E0241735070CF4A90121
:10342000FB019B01240F311D94E6DACFA1E0B0E04F
:10343000ECE1FAE10C945621BE016F5F7F4F41E051
:1034400050E00E94E219019719F02FEF3FEF03C0FF
:103450008981282F30E0C9012196E2E00C94722185
:103460002FB7F89487708093E9008091E80085FD7C
:1034700002C090E004C08091F20090E4981B2FBF3E
:10348000892F0895FF920F931F93F82E142F052F65
:103490004091C7035091C803212F302FC901DC018F
:1034A000FB016EEF29C0F7FE02C0949101C090812C
:1034B0002091C5033091C60324173507ACF48091E1
:1034C000E8008570E1F38091E80082FF03C02FEFF0
:1034D0003FEF17C09093F100C90101968F73907070
:1034E000892B11F46093E8002F5F3F4F3093C603A0
:1034F0002093C503119731961097A9F6812F902F2D
:103500009C01C9011F910F91FF9008950F931F9384
:103510009C01162F072F8091E80082FFFCCFC90184
:10352000612F0E94D5198BEF8093E800812F902F97
:103530001F910F9108958093E9008091F2008823F4
:1035400019F08AE38093E800089508951092C40367
:1035500081E08093D70080EA8093D80082E189BD22
:1035600009B400FEFDCF61E070E080E090E00E94D1
:10357000771D80E98093D8008CE08093E200109260
:10358000E000559A209A0895A0E0B0E0EAECFAE154
:103590000C944A21E82E942E852E8091C403882312
:1035A00009F18B01242F352FC901EC016AEFF62EAA
:1035B00057E0752E7E208E2D90E040E2A42EB12C97
:1035C000A822B9223AE3632E20E4C22ED12CC822CD
:1035D000D9224CC08E2D0E94301A282F882361F4E6
:1035E000FA9419F42FEF3FEF4CC061E070E080E0F7
:1035F00090E00E94771D3AC090E0C817D9070CF4FC
:103600002C2FC21BD1094FB7F8947092E900A11476
:10361000B10421F406C01092F10021502223D9F701
:1036200019C0E7FC03C0F801922F10C0C801322F67
:1036300006C0FC010196E491E093F1003150332380
:10364000C1F706C081918093F10091509923D1F781
:10365000020F111D8091E80085FF05C0209729F415
:10366000C114D10411F06092E8004FBF209709F017
:10367000B1CF5D9884E68093C203292D382DC9010E
:103680009C01C901CDB7DEB7EEE00C9466211F9214
:103690000F920FB60F9211242F933F934F935F9386
:1036A0006F937F938F939F93AF93BF93EF93FF930A
:1036B0008091E1001092E100982F83FF0FC01092DB
:1036C000E90081E08093EB001092EC0082E38093AC
:1036D000ED001092C40388E08093F00092FF34C0A4
:1036E00083E08093E9008091F200882319F08AE357
:1036F0008093E8008FB7F89492E09093E90090915E
:10370000F2008FBF992321F088E194E00E94261FE8
:103710008091C203882351F08091C203815080932D
:10372000C2038091C203882309F45D9A8091C30388
:10373000882351F08091C30381508093C30380910B
:10374000C303882309F4289AFF91EF91BF91AF91A9
:103750009F918F917F916F915F914F913F912F91A9
:103760000F900FBE0F901F901895A1E0B0E0EBEB0B
:10377000FBE10C94542119828E010F5F1F4FC80189
:103780000E944C1FC8010E94DE20898190E0219692
:10379000E4E00C9470211F920F920FB60F92112447
:1037A000EF92FF921F932F933F934F935F936F93EB
:1037B0007F938F939F93AF93BF93EF93FF93DF9389
:1037C000CF93CDB7DEB76197DEBFCDBF1092E900D2
:1037D0008091E80083FF04C1CE01019668E00E9459
:1037E000D51982EF8093E800998197FF05C08091F9
:1037F000E80080FFFCCF03C08EEF8093E800292F04
:1038000030E0C90180769070892B09F0C2C08A81AE
:10381000882329F41092F1001092F100D6C0813073
:1038200009F4D3C0833009F4D0C0853049F48091C5
:10383000E80080FFFCCF8B8180688093E300C5C0E7
:10384000863009F07CC01C81EF80F8841230C1F50D
:103850001092E9001092C6031092C5031092C8039B
:103860001092C7030E94B51B99E0FE013996DF0153
:10387000292F1D922A95E9F799871A8791E09E874B
:1038800090E8988B9AEF998B2091C5033091C603ED
:10389000275F3F4F3C872B878D871092E90010925E
:1038A000C6031092C503F092C803E092C70380E0FC
:1038B000BF0149E050E00E94421A0E94B51B85C03A
:1038C0001092E9001092C6031092C503F092C8034B
:1038D000E092C703123241F482E290E00E94D620C7
:1038E000892B09F476C071C0113079F488E0E816AC
:1038F000F10419F481E08093C9038091C9038823FE
:1039000009F06BC0E6E1F1E013C0133009F061C0CB
:103910008B81882319F4E8EDF0E00AC0823019F4B5
:10392000ECEDF0E005C0813009F053C0EEEFF0E0BF
:10393000449180E8BF0150E00E94421A46C087309F
:1039400009F447C0883021F481E08093F1003DC044
:103950008930D9F523703070232BD9F5EBE3F1E0F2
:1039600091E031E026E39093E9003093EB008491FD
:103970008093EC002093ED009F5F3196953099F78E
:103980008EE78093EA001092EA008B818093C40353
:103990001CC08F8198851092E9001092C603109286
:1039A000C5039093C8038093C7038D81882329F4AE
:1039B000CE0101960E94581F06C0823051F4CE01FC
:1039C00001960E94AE1F882321F08EEF8093E800BD
:1039D00007C081E28093EB0003C0E8E2F1E0A8CFEA
:1039E0006196DEBFCDBFCF91DF91FF91EF91BF9187
:1039F000AF919F918F917F916F915F914F913F9187
:103A00002F911F91FF90EF900F900FBE0F901F907E
:103A100018951F920F920FB60F9211242F933F9378
:103A20008F939F93AF93BF938091CF039091D003D7
:103A3000A091D103B091D2033091D3030196A11D7F
:103A4000B11D232F2D5F2D3720F02D570196A11D7D
:103A5000B11D2093D3038093CF039093D003A09301
:103A6000D103B093D2038091CB039091CC03A0916A
:103A7000CD03B091CE030196A11DB11D8093CB0360
:103A80009093CC03A093CD03B093CE03BF91AF919D
:103A90009F918F913F912F910F900FBE0F901F908C
:103AA00018959FB7F8942091CB033091CC034091A7
:103AB000CD035091CE0386B5A89B06C08F3F21F061
:103AC0002F5F3F4F4F4F5F4F9FBF542F432F322FDA
:103AD0002227280F311D411D511D82E0220F331F67
:103AE000441F551F8A95D1F7B901CA010895EF9275
:103AF000FF920F931F93CF93DF937B018C010E9462
:103B0000511DEB010EC00E94511D6C1B7D0B685EA8
:103B10007340C8F30894E108F10801091109C8517C
:103B2000DC4FE114F1040105110569F7CDB7DEB7EB
:103B3000E6E00C946E21789484B5826084BD84B5EF
:103B4000816084BD85B5826085BD85B5816085BD98
:103B5000EEE6F0E0808181608083E1E8F0E01082B1
:103B6000808182608083808181608083E0E8F0E0F2
:103B7000808181608083E1E9F0E0808182608083E0
:103B8000808181608083E0E9F0E0808181608083D2
:103B9000E1ECF0E0808184608083808182608083BA
:103BA000808181608083E3ECF0E0808181608083AC
:103BB000E0ECF0E0808182608083E2ECF0E08081E4
:103BC00081608083EAE7F0E0808184608083808187
:103BD000826080838081816080838081806880832F
:103BE0000895CF93DF93482F50E0CA0189579E4F25
:103BF000FC01349147595E4FFA018491882369F1A1
:103C000090E0880F991FFC01E15CFE4FA591B491F3
:103C1000FC01E35BFE4FC591D491662351F42FB7AD
:103C2000F8948C91932F909589238C938881892384
:103C30000BC0623061F42FB7F8948C91932F90955C
:103C400089238C938881832B88832FBF06C09FB7DD
:103C5000F8948C91832B8C939FBFDF91CF91089523
:103C600090E0FC013197EE30F10590F5E25AFF4FFC
:103C70000C947D21809180008F7703C0809180001B
:103C80008F7D80938000089584B58F7702C084B5BE
:103C90008F7D84BD0895809190008F7707C08091BB
:103CA00090008F7D03C080919000877F809390006B
:103CB00008958091C0008F7703C08091C0008F7DF0
:103CC0008093C00008958091C200877F8093C200D6
:103CD0000895FF920F931F93F62E482F50E0CA01CC
:103CE0008B559E4FFC012491CA0189579E4FFC01C0
:103CF000149147595E4FFA0104910023C9F0222321
:103D000019F0822F0E94301EE02FF0E0EE0FFF1F0F
:103D1000E35BFE4FA591B4919FB7F894FF2021F487
:103D20008C911095812302C08C91812B8C939FBF25
:103D30001F910F91FF900895209114043091150464
:103D40008091160490911704281B390B2F73307043
:103D5000C90108952091140430911504809116042E
:103D6000909117042817390719F42FEF3FEF09C076
:103D7000E0911604F0911704EC52FC4F8081282F3B
:103D800030E0C90108952091140430911504809108
:103D90001604909117042817390719F42FEF3FEFF5
:103DA00013C0E0911604F0911704EC52FC4F2081EF
:103DB000809116049091170401968F7390709093E0
:103DC00017048093160430E0C901089510921B0473
:103DD00010921A0488EE93E0A0E0B0E080931C04F7
:103DE00090931D04A0931E04B0931F0485EA91E0F4
:103DF00090931904809318040895A1E0B0E0E3E0E3
:103E0000FFE10C9454218C01698380915501882332
:103E100069F083E0BE016F5F7F4F41E050E00E9498
:103E2000C41A1816190614F49C0107C081E090E02A
:103E3000F8019383828320E030E0C9012196E4E019
:103E40000C94702183E00E949B1A0895CF93DF9316
:103E500012C082E00E94161A2FEF8F3F9207C9F01E
:103E6000E0911404F0911504EC52FC4F8083D09340
:103E70001504C0931404C0911404D0911504219624
:103E8000CF73D0708091160490911704C817D9078A
:103E900001F7DF91CF910895FC0180818E5F8083CF
:103EA00080E86FEC71E042E450E00E94421A08950D
:103EB000FC0181819081913A59F4813209F04CC022
:103EC00080E06EE471E047E050E00E94421A42C098
:103ED000913209F041C0803239F48EE491E067E01C
:103EE00070E00E94861A36C0823209F035C08281A5
:103EF0008093550180914E0190914F01A091500106
:103F0000B0915101805B9440A040B04019F5809180
:103F1000550180FD12C087E797E7909301088093D1
:103F200000082BE088E190E00FB6F894A895809304
:103F300060000FBE209360000DC088E10FB6F894BA
:103F400080936000109260000FBEA8951092010847
:103F50001092000881E0089580E00895FC019181AD
:103F60008081813A31F4913089F080E0933089F496
:103F70000DC0813269F49B3021F482818093560117
:103F800005C09A3029F482818093570181E0089519
:103F900080E00895EF92FF920F931F938C01E62E1D
:103FA000DC01ED91FC910480F581E02D0995F82E5E
:103FB000D801ED91FC910680F781E02DC8016E2DAE
:103FC00009958F2D90E01F910F91FF90EF9008952C
:103FD0001092260410922A041092290487EB91E093
:103FE00090932804809327040895A1E0B0E0EBEFBC
:103FF000FFE10C94522189838B017A0184E0BE0198
:104000006F5F7F4F41E050E00E94C41A84E4B80122
:10401000A7010E94C41A2196E6E00C946E2182E06A
:1040200048E050E00E94F51F0895FC0116821782B7
:10403000108611861286138614823496BF010E9460
:104040000F200895DC01683810F0685829C0E62F69
:10405000F0E067FF13C0E058F04081E090E002C05C
:10406000880F991FEA95E2F7809514962C91149782
:10407000282314962C93149760E012C0E157FD4F4B
:104080006491662319F420E030E01DC067FF08C08A
:1040900014968C9114978D7F14968C9314976F7748
:1040A000FD0190E0662321F08681861709F41682CF
:1040B0009F5F31969630B1F7CD011496BD010E94F5
:1040C0000F2021E030E0C9010895CF93DF93DC0198
:1040D000683810F0685825C0E62FF0E067FF12C07E
:1040E000E058F04081E090E002C0880F991FEA9507
:1040F000E2F714962C911497282B14962C9314976E
:1041000060E00FC0E157FD4F64916623D9F167FF6E
:1041100008C014968C911497826014968C9314970F
:104120006F7716968C9116978617A9F117968C9132
:104130001797861781F118968C911897861759F161
:1041400019968C911997861731F11A968C911A97B6
:10415000861709F11B968C911B978617E1F0ED01EC
:10416000E0E0F0E09E2F8E81882321F4EA0FFB1F10
:10417000668306C09F5F31962196E630F10591F780
:10418000963049F481E090E013969C938E931297B9
:1041900020E030E007C0CD011496BD010E940F2041
:1041A00021E030E0C901DF91CF91089580E861E11D
:1041B00072E045E650E00E94421A0895FC018081B9
:1041C0008F5F808380E866E772E049E150E00E94FB
:1041D000421A0895629FD001739FF001829FE00D03
:1041E000F11D649FE00DF11D929FF00D839FF00D76
:1041F000749FF00D659FF00D9927729FB00DE11D22
:10420000F91F639FB00DE11DF91FBD01CF011124FE
:104210000895A1E21A2EAA1BBB1BFD010DC0AA1F07
:10422000BB1FEE1FFF1FA217B307E407F50720F01F
:10423000A21BB30BE40BF50B661F771F881F991F9A
:104240001A9469F760957095809590959B01AC01E3
:10425000BD01CF01089597FB092E05260ED057FD0D
:1042600004D0D7DF0AD0001C38F450954095309523
:1042700021953F4F4F4F5F4F0895F6F790958095EA
:10428000709561957F4F8F4F9F4F08952F923F926A
:104290004F925F926F927F928F929F92AF92BF9256
:1042A000CF92DF92EF92FF920F931F93CF93DF9302
:1042B000CDB7DEB7CA1BDB0B0FB6F894DEBF0FBE5F
:1042C000CDBF09942A88398848885F846E847D84AC
:1042D0008C849B84AA84B984C884DF80EE80FD80AE
:1042E0000C811B81AA81B981CE0FD11D0FB6F89424
:1042F000DEBF0FBECDBFED010895EE0FFF1F05908D
:10430000F491E02D0994DC01CB01FC01F999FECF79
:1043100006C0F2BDE1BDF89A319600B40D9241504D
:104320005040B8F70895DC01CB0103C02D910E94E5
:104330009E2141505040D0F70895262FF999FECF85
:104340001FBA92BD81BD20BD0FB6F894FA9AF99AB2
:0A4350000FBE01960895F894FFCF08
:10435A00FFFFFFDC05DC05DC05DC05E803DC05E81E
:10436A0003DC05DC05DC05DC05DC050607010501C7
:10437A000F0103010B0109010D011101DC01DA0131
:10438A00E001D8010000DE01E401E2010B0AFF09A5
:10439A00FF0DFFFFA0030B0A0509FF0DFF0600E151
:1043AA0000000000000001017889988778899887C1
:1043BA00FF0000000000000203010004050607A038
:1043CA00860100801A0600050303030402020201A3
:1043DA0001010101010101E601E801EA01EC01F034
:1043EA0001000000000819B1199E18CF18AF18F87B
:1043FA001800000000FD1EB1199C1EC31EAA1E2231
:10440A001F261F00000000CA1FB1196520222015AF
:02441A00200080
:00000001FF
