:100000000C946A000C9492000C9492000C94920050
:100010000C9492000C9492000C9492000C94920018
:100020000C9492000C9492000C9492000C94E213A5
:100030000C9492000C9494000C9492000C949200F6
:100040000C947C190C9492000C9439170C9487171B
:100050000C9492000C94C6020C9492000C949200A2
:100060000C9492000C949200E2060407C507E20685
:100070000407C5070E087D080000000024002700C3
:100080002A0000000000250028002B0000000000CE
:1000900023002600290004040404040404040202CA
:1000A00002020202030303030303010204081020F7
:1000B0004080010204081020010204081020000002
:1000C0000007000201000003040600000000000019
:1000D0000000F31811241FBECFEFD4E0DEBFCDBF68
:1000E00011E0A0E0B1E0E6E5F7E302C005900D9273
:1000F000A43EB107D9F713E0A4EEB1E001C01D9210
:10010000AF3CB107E1F710E0C4EDD0E004C02297A6
:10011000FE010E947D1BC23DD107C9F70E9449190B
:100120000C94A91B0C9400001F920F920FB60F9213
:1001300011248F939F9380919F029091A00201962A
:100140009093A00280939F0280919F029091A002C1
:10015000892B29F48091A1028F5F8093A1029F9146
:100160008F910F900FBE0F901F9018956091840093
:100170007091850020919F023091A002E091A10230
:1001800080918400909185008627972797FDEECF78
:1001900080919F029091A0022817390739F780912A
:1001A000A102E81719F740E050E0FFE0220F331FEB
:1001B000441F551FFA95D1F78E2F90E0A0E0B0E0D4
:1001C000BB278695B795AA2799278827282B392BEF
:1001D0004A2B5B2B76956795CB01A0E0B0E0282BEE
:1001E000392B4A2B5B2BB901CA010895AF92BF92FC
:1001F000CF92DF92EF92FF920F931F9328EE33E09E
:1002000040E050E00E94E81A5B016C010E94B600D9
:100210007B018C010E94B6006E197F09800B910B47
:100220006A157B058C059D05A8F31F910F91FF9022
:10023000EF90DF90CF90BF90AF900895882321F08A
:10024000813021F42D9A08952D98089585B190E27A
:10025000892785B90895EF92FF920F931F937B0131
:100260008C018091120390911303A0911403B0911B
:1002700015038E199F09A00BB10B181619061A0643
:100280001B060CF450C080911603882321F5E091E1
:100290001703EF5FE370E0931703FF27E7FDF09587
:1002A000EE55FD4F8081992787FD9095880F991F06
:1002B0008093160380E492E4AFE0B0E0E80EF91E0C
:1002C0000A1F1B1FE0921203F09213030093140302
:1002D0001093150328C081508093160381700E94EB
:1002E0001E01E0911703FF27E7FDF095EE0FFF1FBA
:1002F000EA55FD4F80819181AA2797FDA095BA2FDD
:100300002AE0880F991FAA1FBB1F2A95D1F78E0DCF
:100310009F1DA01FB11F8093120390931303A093FE
:100320001403B09315031F910F91FF90EF90089560
:100330009A01AB01882311F0459A449A1092B900B2
:1003400060E074E284EF90E00E94071B205130408F
:100350004040504056954795379527952093B800D3
:1003600008952FEF30E011C02115310561F410928E
:10037000BC008091AE029091AF0201969093AF02C3
:100380008093AE020895215030408091BC0087FFD9
:10039000EBCF0895FF920F931F93F82E0CEB10E014
:1003A00084EAF80180830E94B101F092BB0084E8E6
:1003B000F80180830E94B1011F910F91FF90089571
:1003C0008093BB0084E88093BC000E94B101089533
:1003D0001F93182F882311F484E801C084EC8093C4
:1003E000BC000E94B1019091BB00112319F484E973
:1003F0008093BC00892F1F9108950F931F93162F90
:10040000042F880F0E94CA01812F0E94E001802FD3
:100410000E94E00184E98093BC001F910F91089530
:100420000F931F93182F062F880F0E94CA01802F49
:100430000E94E001110F812F81600E94CA0180E0BB
:100440000E94E8011F910F9108951F93CF93DF93AE
:10045000EB01142F880F81600E94CA0108C011505F
:1004600080E011160CF481E00E94E80189931123C9
:10047000B1F7DF91CF911F910895DF92EF92FF9234
:100480000F931F93E82EF62E8A01D22E880F0E941A
:10049000CA018F2D0E94E0018E2DB8014D2D0E94C2
:1004A00025021F910F91FF90EF90DF90089588E64D
:1004B0006EE340E80E94FD0162E370E080E090E0BE
:1004C0000E94F60088E66EE343E00E94FD01409141
:1004D0001B014150486188E666E10E94FD0188E603
:1004E00060E00E94100290E08E77883609F491E077
:1004F000892F0895A6E0B0E0E0E8F2E00C944E1BEE
:100500008C017B016A0188E66DE1AE014F5F5F4FB0
:1005100026E00E943D02998180E02A8130E0822B12
:10052000932BF801918380839B8180E02C8130E0C4
:10053000822B932BF701918380839D8180E02E8114
:1005400030E0822B932BF601918380832696E8E09E
:100550000C946A1B282F17C0E22FF0E0EE0FFF1F4C
:10056000E45CFE4F80819181892B61F080917C0059
:10057000887F822B80937C0080917A0080648093B6
:100580007A0008952F5F263038F308951F920F9256
:100590000FB60F9211242F933F934F935F936F9356
:1005A0007F938F939F93AF93BF93EF93FF9380912C
:1005B0007C008770E82FF0E0EE0FFF1FE45CFE4F39
:1005C0000190F081E02D9091790090838F5F0E94DF
:1005D000AA02FF91EF91BF91AF919F918F917F916F
:1005E0006F915F914F913F912F910F900FBE0F90A0
:1005F0001F901895ECE3F1E040E050E061E070E01E
:1006000080819181892B79F087B1DB01042E02C0B2
:10061000AA0FBB1F0A94E2F79D012095822387B998
:1006200088B1282328B94F5F5F4F32964630510575
:1006300039F780E680937C0010927B008FE88093EE
:100640007A0080E00E94AA020895CF93DF93EB0125
:10065000DA01FC0140E050E061E070E080819181CE
:10066000892B79F03881CB01042E02C0880F991FA5
:100670000A94E2F7282F2095232328832C91822B9C
:100680008C934F5F5F4F32964830510539F7DF91B9
:10069000CF91089588E491E064E270E045E250E093
:1006A0000E94250388E591E067E270E048E250E0AF
:1006B0000E94250388E691E06AE270E04BE250E098
:1006C0000E942503089560E070E040E050E0A1E062
:1006D000B0E0362FFA01E85BFE4F0190F081E02D8B
:1006E000309751F023B1CD01062E02C0880F991F1B
:1006F0000A94E2F728232083FA01E85AFE4F01907A
:10070000F081E02D309751F026B1CD01032E02C0CB
:10071000880F991F0A94E2F728232083FA01E859E9
:10072000FE4F0190F081E02D309749F029B1CD01C5
:1007300002C0880F991F3A95E2F7282320836F5F44
:100740007F4F4E5F5F4F4031510519F60895A6E087
:10075000B0E0EDEAF3E00C94441B7A8369831C015A
:100760002B019E838D839B012A5F3F4F3C832B830C
:10077000ED81FE810681178180819181081B190B13
:100780003801882477FC8094982CF1018289938920
:10079000A489B589860D971DA81DB91D268D378D95
:1007A00040A151A1AA24BB246501A21AB30AC40A1C
:1007B000D50A8A159B05AC05BD054CF05C016D01A1
:1007C000281739074A075B0714F459016A01F10138
:1007D000A28AB38AC48AD58AED81FE8184859585F3
:1007E000AA2797FDA095BA2FA4019301281B390BC6
:1007F0004A0B5B0BCA01B90115870487F2012485F6
:100800003585442737FD4095542F0E94E81A7B0117
:100810008C0132E015950795F794E7943A95D1F756
:10082000F20120813181442737FD4095542FC401C6
:10083000B3010E94E81A23E095958795779567950F
:100840002A95D1F7E60EF71E081F191FF20126811F
:100850003781442737FD4095542FC601B5010E94CA
:10086000E81AB6E09595879577956795BA95D1F78B
:10087000E60EF71E081F191FE981FA81028804C0DD
:1008800015950795F794E7940A94D2F7ED81FE81C8
:10089000F3A6E2A63296FE83ED8324E030E0220E3A
:1008A000331E42E050E0440E551E8B819C81481659
:1008B000590609F05DCF2696E2E10C94601BA6E094
:1008C000B0E0E5E6F4E00C94541BCE010196BE01C5
:1008D0006D5F7F4FAE014B5F5F4F0E947A028B814D
:1008E0009C81909323028093220249815A815093E4
:1008F0002502409324022D813E81309327022093CC
:10090000260280915202909153028230910519F093
:100910000397D1F40DC03093250220932402882739
:100920009927841B950B90932702809326020CC075
:1009300088279927821B930B90932502809324028A
:1009400050932702409326022696E2E00C94701BF7
:1009500081E040E85AE166E070E00E9498010E9460
:100960005702882349F485E08093A40288EC90E044
:100970009093AB028093AA0208950F931F93CF9395
:10098000DF93FC011082772767FD70957283618386
:10099000DC01EC0140E050E00FEF1FE760E070E8A1
:1009A0000CC012961C930E9311971A967C936E931B
:1009B00019971F86188A198A1A8A9A014F5F5F4F02
:1009C00012962496818192812817390754F314A630
:1009D00013A6DF91CF911F910F910895A0E0B0E091
:1009E000E4EFF4E00C944C1B7C018C01EB01F7016B
:1009F00060E070E02BC021813281888199812817C5
:100A000039070CF4C901928381832185328588815D
:100A10009981821793070CF4C901928781872991E4
:100A20003991442737FD4095542FD8011F96AD903A
:100A3000BD90CD90DC905297A20EB31EC41ED51E61
:100A40001F96AD92BD92CD92DC9252979B016F5F43
:100A50007F4F32960C5F1F4FD70111968D919C915D
:100A60001297281739073CF2CDB7DEB7EAE00C94AD
:100A7000681BA0E0B0E0EFE3F5E00C944E1BEC0146
:100A80007C0143E2C42ED12CC80ED91E00E010E038
:100A900011C02BA53CA5442737FD4095542FF701E5
:100AA00067857089818992890E94291BF6012193AB
:100AB00031936F0198010F5F1F4F84E090E0E80EC3
:100AC000F91E89819A81281739071CF3CDB7DEB743
:100AD000E8E00C946A1BCF93DF93FC01EB0161818A
:100AE0007281A0E040E050E00DC0838594852381B1
:100AF0003481821B930B8C179D070CF4AF5F4F5F03
:100B00005F4F32964617570784F320E08A2F9927C4
:100B100087FD90958617970709F421E0822FDF91D2
:100B2000CF910895A8E0B0E0E8E9F5E00C94521BFD
:100B30008C018091E4019091E5019A8389838091F1
:100B4000E8019091E9019C838B838091EA01909167
:100B5000EB019E838D838091E6019091E701988758
:100B60008F83C801BE016F5F7F4F0E94EE04F801C2
:100B700083A594A5019694A783A78436910551F582
:100B8000C80164E170E00E946B058823F9F0C80198
:100B90000E943905F80183A194A1909314018093D8
:100BA000130185A196A1909316018093150187A149
:100BB00090A5909318018093170181A592A5909319
:100BC0001A018093190181E0808304C0C80164E0A8
:100BD0000E94BD042896E4E00C946E1BA6E0B0E0F1
:100BE000E4EFF5E00C94521B8C018091220290916D
:100BF00023029A83898380912402909125029C8309
:100C00008B8380912602909127029E838D83C80159
:100C1000BE016F5F7F4F0E94EE04F80183A594A58B
:100C2000019694A783A78C52914021F5C80162E3F5
:100C300070E00E946B058823C9F0C8010E94390545
:100C4000F80183A194A190931D0280931C0285A1B9
:100C500096A190931F0280931E0287A190A5909366
:100C600021028093200281E0808304C0C80163E0F8
:100C70000E94BD042696E4E00C946E1B20910301B3
:100C800030910401809103019091040128173907E4
:100C900021F43093E5012093E40120910501309186
:100CA000060180910501909106012817390721F46A
:100CB0003093E9012093E801209107013091080168
:100CC00080910701909108012817390721F430938A
:100CD000EB012093EA0120910B0130910C018091EE
:100CE0000B0190910C012817390721F43093ED0185
:100CF0002093EC0120910D0130910E0180910D01A6
:100D000090910E012817390721F43093EF012093B9
:100D1000EE0120910F013091100180910F0190910F
:100D200010012817390721F43093F1012093F001C5
:100D300020911101309112018091110190911201C5
:100D40002817390721F43093F3012093F2018091A1
:100D500087029091880205974CF48091E40190916C
:100D6000E5019093E7018093E60108952091090140
:100D700030910A018091090190910A0128173907E1
:100D800021F43093E7012093E6010895A0E0B0E05C
:100D9000ECECF6E00C944E1BDC01C0908702D09086
:100DA0008802F6013297E830F10508F0E3C1EC5C07
:100DB000FF4F6D917C9111970091E4011091E50135
:100DC0000C947B1B600F711F70930F0260930E02D7
:100DD0008D919C9111972091E6013091E701820F4E
:100DE000931F909315028093140212968D919C91FB
:100DF00013972091E8013091E901820F931F90939E
:100E0000110280931002A8C17801E60EF71EF0923D
:100E10000F02E0920E02E091E601F091E701CD9120
:100E2000DC911197CE0FDF1FD0931502C0931402EF
:100E30004091F4015091F50144525A4F8D919C918B
:100E40001197480F591F12966D917C9113978091BD
:100E5000E8019091E901680F791FCB01840F951F7C
:100E60009C01359527953595279535952795959529
:100E70008795280F391F275731403093110220934F
:100E80001002461B570BCA0133E0959587953A959A
:100E9000E1F755954795840F951F84529A4F90938B
:100EA0001302809312022091EA013091EB0146E097
:100EB000C416D10409F060C084E0223E380774F003
:100EC00029573540273C310518F082E090E002C0F8
:100ED00081E090E0029709F04DC121C08091190195
:100EE00090911A01800F911F8E1B9F0B209113016F
:100EF00030911401821B930B9595879584529A4FDC
:100F000090930F0280930E028C5D95402CED35E09E
:100F1000281B390B30931502209314022BC120910A
:100F2000020112966D917C911397E091F601F09178
:100F3000F7016E0F7F1F882777FD8095982F30E08F
:100F400020583040442737FD4095542F0E94E81A1E
:100F5000A7E09595879577956795AA95D1F7E60EC1
:100F6000F71EF0920F02E0920E02C61BD70BD09331
:100F70001502C0931402FEC090930F0280930E02DC
:100F800014968D919C911597EFC0600F711F70930F
:100F90000F0260930E028D919C9111972091E601B2
:100FA0003091E701820F931F9093150280931402F2
:100FB00012966D917C9113978091E8019091E901CF
:100FC000680F791F14964D915C9115978091EA01F5
:100FD0009091EB01480F591FCA01860F971F9C0182
:100FE000F3E035952795FA95E1F795958795280FC4
:100FF000391F275731403093110220931002461BAE
:10100000570BCA01B3E095958795BA95E1F75595C9
:101010004795840F951F84529A4FA8C020911301C1
:10102000309114011296CD91DC9113978091F601C5
:101030009091F701C80FD91F14960D90BC91A02D67
:101040008091F8019091F901A80FB91F80910901D1
:1010500090910A018C54944097FF03C040E050E007
:1010600016C08091090190910A018C549440959585
:101070008795855F91401CF044EF51E008C0409196
:10108000090150910A014C54544055954795F80177
:10109000E452FA4FE21BF30BE60FF71FBE016E0F8F
:1010A0007F1F9A012A1B3B0B37FF02C020E030E074
:1010B000CB01821B930B90930F0280930E02260F9D
:1010C000371F3093110220931002BF016C1B7D0B60
:1010D0009A012A0F3B1F37FF02C020E030E0C90110
:1010E000860F971F9093150280931402621B730B57
:1010F00070931302609312023DC0600F711F7093D2
:101100000F0260930E028D919C9111972091E60140
:101110003091E701820F931F909315028093140280
:1011200012968D919C9113972091E8013091E901DD
:10113000820F931F90931102809310028091F2010D
:101140009091F30112962D913C911397821B930B72
:10115000909319028093180214968D919C91159783
:101160002091EA013091EB01820F931F90931302BB
:10117000809312028091F0019091F10190931702F7
:101180008093160289E0C816D10441F08091F201E3
:101190009091F30190931902809318028091EE01CF
:1011A0009091EF0190931B0280931A02CDB7DEB7A6
:1011B000E8E00C946A1BAAE0B0E0E1EEF8E00C94E1
:1011C000521B80914502909146020397A9F5FE01BA
:1011D00031968AE0DF011D928A95E9F7CF010E94DE
:1011E000C606A9ECB1E00EE212E048E352E06D91D0
:1011F0007C911197F80120813181FB0180819181DF
:10120000281739070CF4C901F80191838083FA018A
:1012100020813181FB0180819181821793070CF439
:10122000C901FA0181939193AF0112960E5F1F4F8E
:10123000F1E0A33DBF07D9F688E292E00E94C6061E
:101240008091870290918802099711F074E001C0A3
:1012500075E060E080E090E0FC01E753FE4FA08184
:10126000B1814D915C911197FC01E25DFD4F0190C0
:10127000F081E02D4E175F0754F0FC01E85CFD4F54
:1012800020813181FA01241735070CF4F901ED931F
:10129000FC936F5F02966717FCF22A96E4E00C94C9
:1012A0006E1B8091B202882309F050C081E08093C8
:1012B000B2028FEF8093B1022FB7F89480910E02A3
:1012C00090910F029093010280930002809110028E
:1012D0009091110290930302809302028091120276
:1012E000909113029093050280930402809114025E
:1012F0009091150290930702809306028091160246
:10130000909117029093090280930802809118022D
:101310009091190290930B0280930A0280911A0215
:1013200090911B0290930D0280930C0280916F00AC
:10133000826080936F00B19A8091840090918500C3
:10134000049690938900809388002FBF0895FC0134
:1013500081E08183808385E08283168215821086F6
:10136000178208959C0144E0813B940714F490E0B7
:101370000DC0845195408159914010F491E006C010
:101380002850374014F49FEF06C092E0662319F00E
:1013900082E0891B982F892F0895CF93DF93EC016A
:1013A0008A818B838091E4019091E5016D810E9497
:1013B000B20987FF88838091E8019091E9016E81ED
:1013C0000E94B20987FF89838F81882351F4888125
:1013D000882329F0823029F481E08D83188281E00E
:1013E0008F838885882361F48981882319F082306E
:1013F00039F404C081E08E8382E0898381E08887AC
:1014000038813F5F898123E08202C0011124380FB7
:101410003A839B8180E0391729F081E09295907F93
:10142000932B9C83DF91CF910895282F30E03F6F5D
:10143000220F331FEFB7F8948091840090918500BC
:10144000AC01405C5F4FBC016D5D7A4F80918400C0
:1014500090918500DA01A81BB90B1A161B06B4F38C
:1014600020FF02C0579801C0579A4617570729F026
:101470003695279545575F4FE9CFEFBF0895EFB7F2
:10148000F8944F9B49C016C020918400309185008C
:101490002058314C04C08FEF9FEF4F9B0BC08091C1
:1014A000840090918500B901681B790B1616170608
:1014B00014F4F1CFAC0141505040CA010196181606
:1014C000190614F34F5F5F4F19F420E030E826C08F
:1014D0008091840090918500AC0140565F4F20E0E0
:1014E00030E0BC0163597B4F80918400909185006E
:1014F000DA01A81BB90B1A161B06B4F389B136958D
:10150000279590E080789070282B392B4617570745
:1015100029F045575F4FE8CF20E030E4EFBFC90125
:101520000895EF92FF920F931F93CF93DF93E82ECE
:10153000192F062FF62E84E20E94150A802F0E9492
:10154000150A2E2D312FC901EC0104C08991F80E26
:101550000E94150A9E012E192017C4F38F2D819524
:101560000E94150ACDB7DEB7E6E00C946C1B8F9293
:101570009F92AF92BF92CF92DF92FF920F931F93F1
:10158000CF93DF934C015A01C0E0D0E0C62EDD249A
:10159000C7FCD09402C0812F182FC5010E943F0ABA
:1015A0009C018070907C892B69F5822FC130D10518
:1015B00059F0C230D105A1F0209779F7243259F7BC
:1015C000812FC1E0D0E0E8CF90E0C816D90614F42E
:1015D000812F15C0822FF22EC2E0D0E000E0DCCFD8
:1015E000F20E812F8150112331F0F401E00FF11D33
:1015F00020830F5FD1CFFF2011F481E004C0C0E051
:10160000D0E0CACF80E0DF91CF911F910F91FF9082
:10161000DF90CF90BF90AF909F908F900895A0E003
:10162000B0E0E5E1FBE00C94461BAA2421E0822E09
:10163000912C05C11092110320930D0330930E03DA
:1016400040930F035093100380911103853254F49B
:10165000E82FFF27E7FDF095E851FD4FB0828F5F3F
:10166000809311038091E802813A79F4809111030B
:101670008B310CF4E4C080911103482F552747FDAE
:10168000509520E030E090E025C0823A09F05FC03C
:101690008091110383327CF7D2C0E851FD4F8081E5
:1016A0003827032E0294802D8F708327632F6025A7
:1016B000660F607E8627602D6327607F6695032E08
:1016C000000C661F3695369536953F7136273227C2
:1016D000282F9F5FE92FF0E0E417F507F4F2232BA2
:1016E00009F0ABC0A9EEB2E042E050E0DC90CC24BF
:1016F00011962C91119730E02C293D293F70FA0169
:10170000F595E795E819F909EE0FFF1FE757FD4F2B
:101710000190F081E02DC901880F991F820F931F5E
:101720003695279536952795821B930B23E0969542
:1017300087952A95E1F7845E9C4F9183808312966A
:101740004E5F5F4F62E0A93FB60781F674C0883AEA
:1017500009F075C08091E9028F77813009F06FC080
:1017600080911103C82FDD27C7FDD0958091EA0233
:1017700090E0880F991F04968C179D070CF05FC0AE
:1017800020E030E090E0DE0112971DC0E851FD4FEF
:1017900080813827032E0294802D8F708327432F5A
:1017A0004025440F407E8427402D4327407F4695A7
:1017B000032E000C441F3695369536953F7134271D
:1017C0003227282F9F5FE92FF0E0EA17FB07F4F29A
:1017D000A851BD4FFC90EE24C951DD4F88812701EF
:1017E000480E511C2415350541F5ABEEB2E022E060
:1017F00030E0F901F595E795E819F909EE0FFF1FBB
:10180000E757FD4F0190F081E02D1C9100E011960B
:101810008C91119790E0802B912B43E096958795C2
:101820004A95E1F79183808312962E5F3F4F42E005
:10183000AB3FB407F1F6AA24A39410921103E091F0
:101840008001F0918101A081B18114962D913C918C
:101850001597CF01F9010995892B61F18091110349
:10186000853244F5A0918001B0918101ED91FC9108
:1018700011970680F781E02DCD010995B82E0E94C1
:10188000B6009B01AC0180910D0390910E03A091D5
:101890000F03B091100329013A01481A590A6A0A44
:1018A0007B0AD301C20189589341A040B0400CF09B
:1018B000C1CEC2CE8A2DCDB7DEB7E0E10C94621B5B
:1018C000809180019091810140E052EC61E070E0F4
:1018D0000E94C21708951F93CF93DF93EC01142F3A
:1018E00045E450E00E94811B8881811711F08FEF41
:1018F00012C090E020E030E0FE01E20FF31F808193
:10190000980F2F5F3F4F25343105B1F7992311F41C
:1019100080E001C08EEFDF91CF911F910895DC012F
:1019200090E020E030E0FD01E20FF31F8081980F8E
:101930002F5F3F4F24343105B1F7AC5BBF4F91951A
:101940009C93A454B040CD0145E450E00E94911B0B
:101950000895A1E1B0E0EFEAFCE00C94441B1C0107
:1019600081E0898383E492E09B838A8302969D834E
:101970008C830D969F838E83029699878887029623
:101980009B878A8702969D878C8702969F878E8782
:10199000CE010196998B888BD0904302DD0CCC242C
:1019A0006624EE24FF24870120E8822E2AE1922E6D
:1019B00026E0A22EB12CB2E07B2E2C010E94B600B4
:1019C0009B01AC01DC01CB018E199F09A00BB10B6F
:1019D00088169906AA06BB060CF051C0171424F508
:1019E000872D992787FD9095FC01E170F07080FDAF
:1019F00003C088E097E002C08CED95E0909311025F
:101A0000809310028CED95E090930F0280930E026C
:101A1000EE0FFF1FEE0FFF1FEF54FE4F80809180EF
:101A2000A280B3807A9429C0DD2039F11D1424F4FA
:101A30006CE271E0A1E003C064ED7EEFAFEF8D2DAD
:101A4000992787FD9095FC01E170F07080FF03C03D
:101A50008CED95E003C0CB0184529A4F90930F0216
:101A600080930E02EE0FFF1FEE0FFF1FEF54FE4F8D
:101A700080809180A280B380DA1A79018A010E9465
:101A80000F0B882319F091E09093B0028091B0027F
:101A9000882329F01092B0020E943E0602C0662000
:101AA00041F08091B202882309F08CC00E94510954
:101AB0006624772009F082CFC1010E94CD098823D6
:101AC00009F47CCFF1018481843561F0853520F4FF
:101AD000823509F063C013C0863559F0883509F0A6
:101AE0005DC02AC0F1E0FC1514F0CC2470C0CA948B
:101AF0006EC085E08C150CF468C0C39468C0AC2D32
:101B0000BB27A7FDB095FD01EE0FFF1FE40DF51DEE
:101B10000180F281E02D8081282F332727FD309529
:101B20002F5F3F4FA754BE4F8C91992787FD90950B
:101B300082179307F4F41CC0AC2DBB27A7FDB0950A
:101B4000FD01EE0FFF1FE40DF51D0180F281E02D78
:101B50008081282F332727FD309521503040AF5307
:101B6000BE4F8C91992787FD9095281739070CF463
:101B70009C01208320E08C2D992787FD9095FC0106
:101B8000EE0FFF1FE40DF51D0180F281E02DD080E6
:101B9000DD0C222319F00196782E770C8981823092
:101BA00009F00CCF82E492E060E070E00E948F0CBC
:101BB00082E492E060E071E00E948F0C6196E2E1C5
:101BC0000C94601B6624639474CF37E0C32E21E02D
:101BD000D2CFA1E9B0E0EFEEFDE00C94441B0E94EF
:101BE000B6001B012C01DE011196E3E9F1E086E06D
:101BF00001900D928150E1F78E010D5E1F4FC801DB
:101C00000E94A7094CE1E42EF12CEC0EFD1EC70149
:101C100064E00E94BD0439E4C32ED12CCC0EDD1E3D
:101C2000C60163E00E94BD042092E4023092E50206
:101C30004092E6025092E702C657DF4F288239826F
:101C40004A825B82CA58D040CA57DF4F2882398205
:101C50004A825B82C658D040CE57DF4F28823982F5
:101C60004A825B82C258D04042013101C258DF4FE4
:101C7000288239824A825B82CE57D040EB962CAEC6
:101C80003DAE4EAE5FAEEB97EE961FAEEE97ED9685
:101C90001FAEED9721E0EC962FAFEC97C257DF4FC8
:101CA000E882CE58D040C157DF4FF882CF58D0409D
:101CB000C057DF4F0883C059D040CF56DF4F18833D
:101CC000C159D0400E94B6005B016C010E942B01FB
:101CD0000E940F0B882319F031E03093B0028091FD
:101CE000B0028823A1F4D601C501C657DF4F488151
:101CF00059816A817B81CA58D040841B950BA60B01
:101D0000B70B81539547A040B0400CF442C01092ED
:101D1000B0020E943E068C8D882369F0C657DF4FC3
:101D2000A882B982CA82DB82CA58D04061E0EE96AE
:101D30006FAFEE972EC0C257DF4F8881CE58D0408C
:101D4000C157DF4F9881CF58D0400E9492052A9604
:101D50008FAD2A97882311F492E001C090E020E033
:101D60008C8D882309F421E0920F9093A30288ECD4
:101D700090E09093A9028093A802C657DF4FA882F3
:101D8000B982CA82DB82CA58D04091E0EE969FAFFA
:101D9000EE978091B202882379F5EE96AFADEE977B
:101DA000AA2351F1A6019501CA57DF4F68817981B5
:101DB0008A819B81C658D040261B370B480B590B94
:101DC00080919B0290919C02A0919D02B0919E02F5
:101DD00082179307A407B5077CF40E94DB080E94D2
:101DE0005109CA57DF4FA882B982CA82DB82C6581E
:101DF000D040EE961FAEEE97D601C501CE57DF4F0D
:101E0000288139814A815B81C258D040821B930B63
:101E1000A40BB50B81519742A040B04054F10E94F1
:101E20005F042A968FAD2A978823D9F4CE01875B69
:101E30009F4F0E94EE052A968FAD2A97882311F4B2
:101E400092E001C090E020E08C8D882309F421E02D
:101E5000920F9093A30248EC50E05093A902409354
:101E6000A802CE57DF4FA882B982CA82DB82C2584D
:101E7000D040EC965FADEC97552309F456C0C0579F
:101E8000DF4F8881C059D040CF56DF4F9881C1596C
:101E9000D0400E94CD09882309F447C0ED966FAD6C
:101EA000ED97E62FFF27E7FDF095E657FE4F9F8958
:101EB0008081981721F0ED961FAEED9707C0ED9643
:101EC0007FADED977F5FED967FAFED97ED968FAD90
:101ED000ED97E82FFF27E7FDF095E657FE4F80814D
:101EE0008F3F81F4CE0143960E94A90C2EE088E139
:101EF00090E00FB6F894A895809360000FBE2093F1
:101F00006000FFCFD601C50182199309A409B50964
:101F1000815C914EA44EB04024F0EC961FAEEC973D
:101F200004C0F1E0EC96FFAFEC978C8D882329F08C
:101F30002A968FAD2A978823C9F58091E601909162
:101F4000E7012091E4013091E501820F931F209178
:101F5000190130911A01821B930B209113013091CA
:101F60001401821B930B959587959093F5018093AF
:101F7000F4018091E8019091E901209115013091DF
:101F80001601821B930B9093F7018093F6018091C9
:101F9000EA019091EB012091170130911801821B09
:101FA000930B9093F9018093F8018CCED601C50173
:101FB00086199709A809B90981519742A040B040F4
:101FC0000CF41EC38091990290919A028130910580
:101FD00059F48091EC019091ED01865F95400CF0F1
:101FE0009BC080E090E00DC0892B09F095C08091E6
:101FF000EC019091ED01875296400CF48DC081E088
:1020000090E090939A0280939902892B11F084E0DA
:1020100001C080E08093A30268EC70E07093A90295
:102020006093A8021092C5021092C6021092C702D5
:102030001092C8021092D1021092D2021092D302D2
:102040001092D4021092C9021092CA021092CB02CE
:102050001092CC021092D5021092D6021092D702A2
:102060001092D8021092CD021092CE021092CF029E
:102070001092D0021092D9021092DA021092DB0272
:102080001092DC0280915A0290915B02029709F053
:1020900043C0D601C501EB962CAD3DAD4EAD5FAD55
:1020A000EB97821B930BA40BB50B8152914AA7406F
:1020B000B0401CF0E7961FAEE797E7964FADE79765
:1020C0004F5FE7964FAFE797433004F18091E4010B
:1020D0009091E50190931401809313018091E801A0
:1020E0009091E90190931601809315018091EA0186
:1020F0009091EB0190931801809317018091E60174
:102100009091E70190931A0180931901EB96ACAE80
:10211000BDAECEAEDFAEEB972091E6013091E70188
:102120008091E4019091E501280F391F80911901F8
:1021300090911A01281B390B809113019091140181
:10214000281B390B359527953093F5012093F40121
:102150004091E8015091E90180911501909116019B
:10216000481B590B5093F7014093F601E091EA01A7
:10217000F091EB018091170190911801E81BF90B88
:10218000F093F901E093F801809154028150682F97
:10219000772767FD7095C90137FF04C08827992705
:1021A000821B930B062E02C0880F991F0A94E2F738
:1021B000A1E081399A0714F080E991E0A0E9B1E04B
:1021C000A81BB90BB887AF83CA0157FF04C0882783
:1021D0009927841B950B062E02C0880F991F0A941D
:1021E000E2F7B1E081399B0714F080E991E0A0E9C2
:1021F000B1E0A81BB90BBA87A987CF01F7FF04C0CC
:10220000882799278E1B9F0BDC0102C0AA0FBB1FDA
:102210006A95E2F7BD01B1E061397B0714F060E92E
:1022200071E010E9612E11E0712E661A770A7C8642
:102230006B868091EC019091ED0165E0833C9607FF
:102240004CF403EC15E0081B190B71E0013917077A
:1022500094F00BC0A6E088329A071CF400E010E06E
:102260000AC0B7E086389B071CF000E911E003C004
:102270008C01055F15408090990290909A0261E070
:102280008616910459F08114910409F04FC0809191
:10229000580290915902029709F048C08091560265
:1022A000082E02C0220F331F0A94E2F73E872D87C3
:1022B000082E02C0440F551F0A94E2F7588B4F872F
:1022C000AF0102C0440F551F8A95E2F75A8B498B24
:1022D00089819A8197FD05C088279927821B930BD6
:1022E00001C0C9019093B4028093B3028B819C8199
:1022F0002F85388997FD05C088279927821B930B66
:1023000001C0C9019093B6028093B5028D819E8170
:1023100097FD03C0509541955F4F5093B80240938D
:10232000B70271E08716910471F055C01092B402A3
:102330001092B3021092B6021092B5021092B80237
:102340001092B70248C06F817885882777FD809505
:10235000982F24EF3FEB40E050E00E94E81AB9E0EC
:102360009595879577956795BA95D1F76093D10242
:102370007093D2028093D3029093D40269857A85B8
:10238000882777FD8095982F0E94E81AA9E09595F7
:10239000879577956795AA95D1F76093D502709345
:1023A000D6028093D7029093D802B301882777FD95
:1023B0008095982F0E94E81AF9E095958795779572
:1023C0006795FA95D1F76093D9027093DA028093FA
:1023D000DB029093DC022091220230912302809153
:1023E0001C0290911D02281B390B80E22030380717
:1023F00014F02FEF3FE1C901A0EE20303A0714F4AA
:1024000080E090EE9093BA028093B902209124026A
:102410003091250280911E0290911F02281B390BDA
:10242000B0E220303B0714F02FEF3FE1C901E0EEAE
:1024300020303E0714F480E090EE9093BC0280932D
:10244000BB022091260230912702809120029091B8
:102450002102281B390BF0E220303F0714F02FEF48
:102460003FE1C90120EE8030920714F480E090EE45
:102470009093BE028093BD02892819F062E772E052
:1024800002C06FE572E083EB92E00E94A703EE24A6
:10249000FF243801882477FC8094982C8701085DFC
:1024A0001D4FE1E0F0E0EC0FFD1FEE0DFF1D608120
:1024B0007181882777FD8095982FF701ED54FD4FA6
:1024C00022A533A5442737FD4095542F0E94E81AD2
:1024D000E7E09595879577956795EA95D1F7E7E0D9
:1024E000F0E0EC0FFD1FEE0DFF1D20813181442730
:1024F00037FD4095542F0E94E81A9B01AC0169E01A
:1025000055954795379527956A95D1F7C401B3013D
:102510000E94E81A39E095958795779567953A95E1
:10252000D1F7D8016D937C93E2E0F0E0EE0EFF1E50
:10253000F6E0EF16F10409F0B1CF2091E302121694
:102540000CF05CC08091E4029091E502A091E6025B
:10255000B091E702B601A501481B590B6A0B7B0B32
:10256000DB01CA0181549D40A340B0405CF0215082
:102570002093E302A092E402B092E502C092E60248
:10258000D092E7028091E302992787FD90954091D0
:10259000280250912902BC016170707080FF03C055
:1025A00026E930E002C02AE63FEF240F351F3093C2
:1025B00029022093280240912A0250912B02611592
:1025C000710519F026E930E002C02AE63FEF240F3A
:1025D000351F30932B0220932A0220912C02309138
:1025E0002D02672B19F48AE69FEF02C086E990E07E
:1025F000820F931F90932D0280932C023501460188
:10260000D601C501C258DF4F288139814A815B81DB
:10261000CE57D040821B930BA40BB50B8C59914A1B
:10262000A740B0400CF44ECB80915C02803839F466
:1026300080910001282F30E02058304004C0282F1E
:10264000332727FD309580915D02803839F48091E1
:102650000101482F50E04058504004C0482F5527F2
:1026600047FD509580915E02803831F480910201DF
:1026700090E08058904003C0992787FD90953A8359
:1026800029835C834B839E838D83295F3F4F2F304B
:10269000310510F41A8219828B819C8107960F975D
:1026A00010F41C821B828D819E8107960F9710F477
:1026B0001E821D8280E00E94AA02C258DF4FA882BB
:1026C000B982CA82DB82CE57D040FCCAA6E6B0E00F
:1026D000ECE6F3E10C944E1B1092800081E08093B5
:1026E000810057985F9848E552E000E06E01089439
:1026F000C11CD11C62E0E62EF12CEC0EFD1EC601C1
:1027000066E60E94B70A882309F441C089818230B5
:10271000A9F0833018F4813029F406C08330B1F079
:102720008430E9F010E026C0C70160E870E048E0BE
:1027300050E00E94811B10E069E01DC0C70160E805
:1027400070E048E050E00E94911B13C0C70160E0B8
:1027500070E04BE00E946B0C10E066E40CC0C70117
:1027600060E070E00E948F0CC70160E071E00E94A1
:102770008F0C11E061E0898180688983C6010E9425
:10278000910A01E044EF51E0112309F4B8CF802F02
:10279000CA59DF4FE8E00C946A1BCF93DF93C0E087
:1027A000D0E0FE01E858FE4F808187FD04C08081A3
:1027B00061E00E94491A2196C830D10591F7DF9156
:1027C000CF9108951F920F920FB60F9211240F937D
:1027D0001F932F933F934F935F936F937F938F93A9
:1027E0009F93AF93BF93EF93FF938091B10287FDC7
:1027F00042C0E091B102FF27E7FDF095E858FE4F97
:10280000808160E00E94B51A36C08091B1028F5F6E
:102810008093B102E091B102FF27E7FDF095E858FF
:10282000FE4F808187FD27C00091840010918500B4
:10283000E091B102FF27E7FDF095E858FE4F808157
:1028400061E00E94B51AE091B102FF27E7FDF09523
:10285000EE0FFF1FE45DFE4F0190F081E02D8081BF
:1028600091810297880F991F800F911F9093890083
:10287000809388000BC08091B102873034F21092AF
:10288000B20280916F008D7F80936F00FF91EF9176
:10289000BF91AF919F918F917F916F915F914F9178
:1028A0003F912F911F910F910F900FBE0F901F908E
:1028B0001895A0E0B0E0EFE5F4E10C944E1B182F62
:1028C000062F862F61E00E94491A812F60E00E9446
:1028D000491A812F61E00E94B51A6AE070E080E039
:1028E00090E00E94F600C0E0D0E0812F992787FD9C
:1028F0009095FC01EA56FF4FE491F0E0EE0FFF1FC8
:10290000E457FF4FC590D49086559F4FFC018491AA
:10291000E82EFF24CE018170182F802F612F0E9496
:10292000B51AF601808120E030E090E08E219F21F1
:10293000892B11F021E030E0812F992787FD9095B8
:102940002817390711F010E005C02196C830D105CD
:1029500009F711E0802F60E00E94491A812FCDB75E
:10296000DEB7E8E00C946A1BA4E9B0E0EAEBF4E11E
:102970000C944E1B259A8091CB039091CC03009729
:1029800011F09C0102C02FEC33E0CE010196821BB6
:10299000930B803891054CF484E18093A4028EE17E
:1029A00090E09093AB028093AA0284B7877F84BFA4
:1029B00088E10FB6F89480936000109260000FBE1B
:1029C00021E030E0309344022093430280E880937A
:1029D0005C0280935D0280935E02309346022093F6
:1029E000450287E08093850210924702E9E9F1E011
:1029F00028E4C22E22E0D22ED60181918D9321E0CF
:102A0000E13AF207D1F742E050E05093510240938F
:102A1000500221E030E03093530220935202309371
:102A200055022093540283E090E0909357028093E4
:102A30005602309359022093580250935B02409300
:102A40005A0284EF91E09093600280935F021092AB
:102A500066021092650290936C0280936B029093D1
:102A60006202809361021092680210926702909352
:102A70006E0280936D0290936402809363021092C1
:102A80006A02109269029093700280936F0228E0AC
:102A90002093710290937302809372029093790253
:102AA0008093780290937F0280937E0290937502C8
:102AB0008093740290937B0280937A0290938102B8
:102AC00080938002909377028093760290937D02A8
:102AD00080937C02909383028093820220938402ED
:102AE00085E064E00E945914882311F400E001C0DD
:102AF00007E0CE01039660E870E048E050E00E94F5
:102B0000811B002361F48B81823049F48C819D818B
:102B1000AE81BF818E549146AC4BB04071F082E0E3
:102B20008B838EE491E6ACEBB0E08C839D83AE8327
:102B3000BF83188619861A860860CE010B9660E05E
:102B400070E04BE00E946B0C87FD0260CE01805B61
:102B50009F4F60E071E04BE00E946B0C87FD0460CA
:102B600083E08093E302E02EFF24C701867090701B
:102B70008230910531F08430910579F0892B81F113
:102B800019C08E01005B1F4FC80160E070E00E9419
:102B90008F0C88858F5F88870BC08E01055F1F4F64
:102BA000C80160E071E00E948F0C89858F5F898782
:102BB000C80118C08BE08093420282E492E060E09A
:102BC00070E00E948F0C82E492E060E071E00E946D
:102BD0008F0C8A858F5F8A8789E08093E3020AC021
:102BE000CE010B96A2E4B2E0FC0185E401900D92C7
:102BF0008150E1F7C7018E709070892B41F0CE01B2
:102C0000039660E870E048E050E00E94911BE0FE0F
:102C10000AC082E00E941E0164E670E080E090E05D
:102C20000E94EA19F6CF0E946613882361F02EE015
:102C300088E190E00FB6F894A895809360000FBEED
:102C400020936000FFCF1092800082E0809381008B
:102C500081E080936F0085B5887F85BD0E94600C00
:102C600080914502909146028230910519F183309E
:102C7000910524F4019709F05BC007C083309105EA
:102C800071F1049709F054C03FC080E090E048EE35
:102C900053E020ED37E0FC01E25DFD4F51834083BE
:102CA000FC01E85CFD4F3183208302968A30910558
:102CB00091F73EC080E090E04CE454E02CE637E031
:102CC000FC01E25DFD4F51834083FC01E85CFD4F58
:102CD0003183208302968A30910591F729C080E0E4
:102CE00090E042EE54E026ED36E0FC01E25DFD4F5F
:102CF00051834083FC01E85CFD4F318320830296C1
:102D00008A30910591F714C080E090E044E853E0E8
:102D100024E338E0FC01E25DFD4F51834083FC0178
:102D2000E85CFD4F3183208302968A30910591F74C
:102D300080914702992787FD909528EE33E0FC01AA
:102D4000E29FC001E39F900DF29F900D1124AA27EE
:102D500097FDA095BA2F80939B0290939C02A0931D
:102D60009D02B0939E0280918502877080931B0123
:102D7000A9E8B2E0F60181916F01E82FFF27E7FD96
:102D8000F095EE0FFF1FE45EFE4F808191818D93E1
:102D90009D93F0E5CF16F2E0DF0661F720E030E02A
:102DA000F901EE57FE4F8081F901E858FE4F80830C
:102DB0002F5F3F4F2830310599F70E944A030E9448
:102DC0006303809143029091440290938802809320
:102DD0008702019741F58091FB01882319F4E4E013
:102DE000F0E002C0E0E0F0E08091FD01882319F4FA
:102DF00042E050E002C040E050E020E030E080914E
:102E0000FE01882311F421E030E0E22BF32BE42BC8
:102E1000F52BEE0FFF1FEF55FE4F808191819093B0
:102E2000880280938702809187029091880201979F
:102E300031F482E090E09093880280938702809141
:102E400087028093A20288E592E09093A702809384
:102E5000A6020E94FA020E94CD130E94A8040E94BA
:102E60003E060E94DB08CC56DF4FE8E00C946A1B5C
:102E700008951F920F920FB60F9211242F933F9334
:102E80004F938F939F93EF93FF938091C00082FDA8
:102E90001DC04091C60020915803309159032F5F07
:102EA0003F4F2F73307080915A0390915B03281726
:102EB000390771F0E0915803F0915903E85EFC4F37
:102EC0004083309359032093580302C08091C60079
:102ED000FF91EF919F918F914F913F912F910F9083
:102EE0000FBE0F901F901895E091AC03F091AD03C9
:102EF000E05CFF4F8191919120813181821B930B86
:102F00008F739070892B11F00E94381708951F92CB
:102F10000F920FB60F9211242F933F938F939F938D
:102F2000EF93FF9320919C0330919D0380919E032A
:102F300090919F032817390731F48091C1008F7D4C
:102F40008093C10014C0E0919E03F0919F03E45A66
:102F5000FC4F208180919E0390919F0301968F7377
:102F6000907090939F0380939E032093C600FF91DF
:102F7000EF919F918F913F912F910F900FBE0F90E6
:102F80001F901895AF92BF92DF92EF92FF920F932E
:102F90001F93CF93DF93EC017A018B01DD24403046
:102FA00081EE580780E0680780E0780711F0DD24A3
:102FB000D39491E0A92EB12CEC89FD89DD2069F034
:102FC000C50108A002C0880F991F0A94E2F7808308
:102FD00060E079E08DE390E005C0108260E874E87D
:102FE0008EE190E0A80197010E94071B215030401C
:102FF00040405040569547953795279580E12030C1
:10300000380720F0DD2011F0DD24D6CFE889F989DA
:103010003083EA89FB89208319A2EE89FF894081E8
:1030200021E030E0C9010C8C02C0880F991F0A947E
:10303000E2F7482B4083EE89FF894081C9010D8C5E
:1030400002C0880F991F0A94E2F7482B4083EE894B
:10305000FF894081C9010E8C02C0880F991F0A9414
:10306000E2F7482B4083EE89FF8980810F8C02C0F4
:10307000220F331F0A94E2F7209528232083DF9143
:10308000CF911F910F91FF90EF90DF90BF90AF9085
:103090000895DC011C96ED91FC911D97E05CFF4FBB
:1030A0002191319180819181281B390B2F733070D0
:1030B000C9010895DC011C96ED91FC911D97E05C1F
:1030C000FF4F20813181E054F040DF01AE5BBF4F04
:1030D0008D919C9111972817390719F42FEF3FEF25
:1030E00007C08D919C91E80FF91F8081282F30E057
:1030F000C9010895DC011C96ED91FC911D97E05CDF
:10310000FF4F20813181E054F040DF01AE5BBF4FC3
:103110008D919C9111972817390719F42FEF3FEFE4
:1031200010C08D919C911197E80FF91F20818D910E
:103130009C91119701968F73907011969C938E932A
:1031400030E0C9010895DC0191968C919197882314
:1031500039F05496ED91FC915597808186FFF9CF17
:1031600091961C920895CF93DF93EC01EE85FF8535
:10317000E05CFF4F20813181E054F0402F5F3F4FF2
:103180002F733070DF01AE5BBF4F8D919C91119713
:1031900028173907D1F3E05CFF4F80819181E0541B
:1031A000F040E80FF91F6083EE85FF85E05CFF4F7C
:1031B00031832083EE89FF89208181E090E00F8CAC
:1031C00002C0880F991F0A94E2F7282B208381E020
:1031D00089A3EC89FD8980818064808381E090E00F
:1031E000DF91CF9108951092A3031092A20388EE6D
:1031F00093E0A0E0B0E08093A4039093A503A09394
:10320000A603B093A70387ED91E09093A103809369
:10321000A00388E193E09093AD038093AC038CE529
:1032200093E09093AF038093AE0385EC90E090938E
:10323000B1038093B00384EC90E09093B303809348
:10324000B20380EC90E09093B5038093B40381ECDB
:1032500090E09093B7038093B60382EC90E0909354
:10326000B9038093B80386EC90E09093BB038093FE
:10327000BA0384E08093BC0383E08093BD0387E0BE
:103280008093BE0385E08093BF0381E08093C003F9
:103290000895CF93DF930E940E1A0E94B414C4E7DE
:1032A000D7E10E94E90D2097E1F30E947417F9CF4E
:1032B000A0E0B0E0EEE5F9E10C944E1B7C016B015F
:1032C0008A01C0E0D0E00FC0D6016D916D01D70139
:1032D000ED91FC910190F081E02DC7010995C80F97
:1032E000D91F015010400115110571F7CE01CDB75E
:1032F000DEB7E8E00C946A1B1F920F920FB60F9294
:1033000011242F933F938F939F93AF93BF938091FB
:10331000C6039091C703A091C803B091C90330912F
:10332000CA030196A11DB11D232F2D5F2D3720F05B
:103330002D570196A11DB11D2093CA038093C6038A
:103340009093C703A093C803B093C9038091C203AD
:103350009091C303A091C403B091C5030196A11D30
:10336000B11D8093C2039093C303A093C403B09391
:10337000C503BF91AF919F918F913F912F910F9076
:103380000FBE0F901F9018959FB7F8942091C2031D
:103390003091C3034091C4035091C50386B5A89BE7
:1033A00006C08F3F21F02F5F3F4F4F4F5F4F9FBFB2
:1033B000542F432F322F2227280F311D411D511D1D
:1033C00082E0220F331F441F551F8A95D1F7B901A0
:1033D000CA010895EF92FF920F931F93CF93DF934B
:1033E0007B018C010E94C419EB010EC00E94C4191C
:1033F0006C1B7D0B685E7340C8F30894E108F1080C
:1034000001091109C851DC4FE114F104010511054E
:1034100069F7CDB7DEB7E6E00C946C1B789484B501
:10342000826084BD84B5816084BD85B5826085BDC0
:1034300085B5816085BDEEE6F0E0808181608083A6
:10344000E1E8F0E010828081826080838081816089
:103450008083E0E8F0E0808181608083E1EBF0E050
:10346000808184608083E0EBF0E0808181608083F4
:10347000EAE7F0E0808184608083808182608083DD
:103480008081816080838081806880831092C10008
:103490000895CF93DF93482F50E0CA0186559F4F80
:1034A000FC0134914A565F4FFA018491882369F1F7
:1034B00090E0880F991FFC01E858FF4FA591B49147
:1034C000FC01EE57FF4FC591D491662351F42FB7FD
:1034D000F8948C91932F909589238C9388818923DC
:1034E0000BC0623061F42FB7F8948C91932F9095B4
:1034F00089238C938881832B88832FBF06C09FB735
:10350000F8948C91832B8C939FBFDF91CF9108957A
:10351000833071F0843028F48130A1F0823021F5BD
:1035200014C08630B1F08730D1F08430E9F404C0A3
:10353000809180008F7703C0809180008F7D809381
:103540008000089584B58F7702C084B58F7D84BDD7
:1035500008958091B0008F778093B0000895809196
:10356000B0008F7D8093B0000895FF920F931F935A
:10357000F62E482F50E0CA0182549F4FFC0124913F
:10358000CA0186559F4FFC0114914A565F4FFA01BC
:1035900004910023C9F0222319F0822F0E94881A77
:1035A000E02FF0E0EE0FFF1FEE57FF4FA591B49113
:1035B0009FB7F894FF2021F48C911095812302C0CD
:1035C0008C91812B8C939FBF1F910F91FF90089539
:1035D000629FD001739FF001829FE00DF11D649FF7
:1035E000E00DF11D929FF00D839FF00D749FF00D83
:1035F000659FF00D9927729FB00DE11DF91F639F24
:10360000B00DE11DF91FBD01CF0111240895A1E204
:103610001A2EAA1BBB1BFD010DC0AA1FBB1FEE1F4C
:10362000FF1FA217B307E407F50720F0A21BB30B97
:10363000E40BF50B661F771F881F991F1A9469F713
:1036400060957095809590959B01AC01BD01CF016F
:10365000089597FB092E05260ED057FD04D0D7DF1D
:103660000AD0001C38F450954095309521953F4F75
:103670004F4F5F4F0895F6F790958095709561953F
:103680007F4F8F4F9F4F08952F923F924F925F929F
:103690006F927F928F929F92AF92BF92CF92DF9262
:1036A000EF92FF920F931F93CF93DF93CDB7DEB7C7
:1036B000CA1BDB0B0FB6F894DEBF0FBECDBF09945B
:1036C0002A88398848885F846E847D848C849B84B2
:1036D000AA84B984C884DF80EE80FD800C811B81C0
:1036E000AA81B981CE0FD11D0FB6F894DEBF0FBEEF
:1036F000CDBFED010895EE0FFF1F0590F491E02D71
:103700000994DC01CB01FC01F999FECF06C0F2BDA2
:10371000E1BDF89A319600B40D9241505040B8F78F
:103720000895DC01CB0103C02D910E949C1B4150E8
:103730005040D0F70895262FF999FECF1FBA92BDB9
:1037400081BD20BD0FB6F894FA9AF99A0FBE019682
:063750000895F894FFCF7C
:10375600FFFFFFDC05DC05DC05DC05E803DC05E82E
:1037660003DC05DC05DC05DC05DC050607010501D7
:103776000F0103010B0109010D01110104020202EF
:1037860008020002000006020C020A020000000104
:10379600010102010000000000000000000000001E
:1037A600FD01000000000000FE0100000000000016
:1037B6000000000000000000FF01FA01FB01FC010F
:1037C60000000000000000000605FF04FF07FFFFE1
:1037D600A00306050A04FF070B09788998877889EC
:1037E6009887FF000000000000030100020504079F
:1037F6000602000300040005000800060007000298
:1038060000A0860100801A060005030303040202D5
:103816000201010101010101010E0210021202144E
:1038260002180200000000B318581949187A185AED
:0438360018A31800BB
:00000001FF
