:100000000C9472000C949A000C949A000C949A0030
:100010000C949A000C949A000C949A000C949A00F8
:100020000C949A000C949A000C949A000C94281842
:100030000C949A000C949C000C949A000C949A00D6
:100040000C942E1E0C949A000C94F01B0C943E1CE5
:100050000C949A000C94CE020C949A000C949A0082
:100060000C949A000C949A0018073707F0071807A9
:100070003707F0074008AA08681B6C1B701B741B2D
:10008000781B7C1B801B841B0000000024002700C1
:100090002A0000000000250028002B0000000000BE
:1000A00023002600290004040404040404040202BA
:1000B00002020202030303030303010204081020E7
:1000C00040800102040810200102040810200000F2
:1000D0000007000201000003040600000000000009
:1000E0000000A51D11241FBECFEFD4E0DEBFCDBFA1
:1000F00011E0A0E0B1E0E6E1F4E402C005900D9269
:10010000A63EB107D9F713E0A6EEB1E001C01D92FB
:10011000A43FB107E1F710E0C4EED0E004C022979D
:10012000FE010E94DD21C23ED107C9F70E94FB1DDE
:100130000C9409220C9400001F920F920FB60F929C
:1001400011248F939F938091B3029091B4020196F2
:100150009093B4028093B3028091B3029091B40261
:10016000892B29F48091B5028F5F8093B5029F910E
:100170008F910F900FBE0F901F9018956091840083
:10018000709185002091B3023091B402E091B502E4
:1001900080918400909185008627972797FDEECF68
:1001A0008091B3029091B4022817390739F78091F2
:1001B000B502E81719F740E050E0FFE0220F331FC7
:1001C000441F551FFA95D1F78E2F90E0A0E0B0E0C4
:1001D000BB278695B795AA2799278827282B392BDF
:1001E0004A2B5B2B76956795CB01A0E0B0E0282BDE
:1001F000392B4A2B5B2BB901CA010895AF92BF92EC
:10020000CF92DF92EF92FF920F931F9328EE33E08D
:1002100040E050E00E9448215B016C010E94BE005A
:100220007B018C010E94BE006E197F09800B910B2F
:100230006A157B058C059D05A8F31F910F91FF9012
:10024000EF90DF90CF90BF90AF900895882321F07A
:10025000813021F42D9A08952D98089585B190E26A
:10026000892785B90895EF92FF920F931F937B0121
:100270008C018091370390913803A0913903B0919C
:100280003A038E199F09A00BB10B181619061A060E
:100290001B060CF450C080913B03882321F5E091AC
:1002A0003C03EF5FE370E0933C03FF27E7FDF0952D
:1002B000EA54FD4F8081992787FD9095880F991FFB
:1002C00080933B0380E492E4AFE0B0E0E80EF91ED7
:1002D0000A1F1B1FE0923703F09238030093390383
:1002E00010933A0328C0815080933B0381700E9491
:1002F0002601E0913C03FF27E7FDF095EE0FFF1F7D
:10030000E654FD4F80819181AA2797FDA095BA2FD1
:100310002AE0880F991FAA1FBB1F2A95D1F78E0DBF
:100320009F1DA01FB11F8093370390933803A093A4
:100330003903B0933A031F910F91FF90EF90089506
:100340009A01AB01882311F0459A449A1092B900A2
:1003500060E074E284EF90E00E9467212051304019
:100360004040504056954795379527952093B800C3
:1003700008952FEF30E011C02115310561F410927E
:10038000BC008091C2029091C30201969093C30277
:100390008093C2020895215030408091BC0087FFB5
:1003A000EBCF0895FF920F931F93F82E0CEB10E004
:1003B00084EAF80180830E94B901F092BB0084E8CE
:1003C000F80180830E94B9011F910F91FF90089559
:1003D0008093BB0084E88093BC000E94B90108951B
:1003E0001F93182F882311F484E801C084EC8093B4
:1003F000BC000E94B9019091BB00112319F484E95B
:100400008093BC00892F1F9108950F931F93162F7F
:10041000042F880F0E94D201812F0E94E801802FB3
:100420000E94E80184E98093BC001F910F91089518
:100430000F931F93182F062F880F0E94D201802F31
:100440000E94E801110F812F81600E94D20180E09B
:100450000E94F0011F910F9108951F93CF93DF9396
:10046000EB01142F880F81600E94D20108C0115047
:1004700080E011160CF481E00E94F00189931123B1
:10048000B1F7DF91CF911F910895DF92EF92FF9224
:100490000F931F93E82EF62E8A01D22E880F0E940A
:1004A000D2018F2D0E94E8018E2DB8014D2D0E94A2
:1004B0002D021F910F91FF90EF90DF90089588E635
:1004C0006EE340E80E94050262E370E080E090E0A5
:1004D0000E94FE0088E66EE343E00E940502409120
:1004E0001D014150486188E666E10E94050288E6E8
:1004F00060E00E94180290E08E77883609F491E05F
:10050000892F0895A6E0B0E0E8E8F2E00C94AE216F
:100510008C017B016A0188E66DE1AE014F5F5F4FA0
:1005200026E00E944502998180E02A8130E0822BFA
:10053000932BF801918380839B8180E02C8130E0B4
:10054000822B932BF701918380839D8180E02E8104
:1005500030E0822B932BF601918380832696E8E08E
:100560000C94CA21282F17C0E22FF0E0EE0FFF1FD6
:10057000E25CFE4F80819181892B61F080917C004B
:10058000887F822B80937C0080917A0080648093A6
:100590007A0008952F5F263038F308951F920F9246
:1005A0000FB60F9211242F933F934F935F936F9346
:1005B0007F938F939F93AF93BF93EF93FF9380911C
:1005C0007C008770E82FF0E0EE0FFF1FE25CFE4F2B
:1005D0000190F081E02D9091790090838F5F0E94CF
:1005E000B202FF91EF91BF91AF919F918F917F9157
:1005F0006F915F914F913F912F910F900FBE0F9090
:100600001F901895EEE3F1E040E050E061E070E00B
:1006100080819181892B79F087B1DB01042E02C0A2
:10062000AA0FBB1F0A94E2F79D012095822387B988
:1006300088B1282328B94F5F5F4F32964630510565
:1006400039F780E680937C0010927B008FE88093DE
:100650007A0080E00E94B2020895CF93DF93EB010D
:10066000DA01FC0140E050E061E070E080819181BE
:10067000892B79F03881CB01042E02C0880F991F95
:100680000A94E2F7282F2095232328832C91822B8C
:100690008C934F5F5F4F32964830510539F7DF91A9
:1006A000CF9108958AE491E064E270E045E250E081
:1006B0000E942D038AE591E067E270E048E250E095
:1006C0000E942D038AE691E06AE270E04BE250E07E
:1006D0000E942D03089560E070E040E050E0A1E04A
:1006E000B0E0362FFA01E65BFE4F0190F081E02D7D
:1006F000309751F023B1CD01062E02C0880F991F0B
:100700000A94E2F728232083FA01E65AFE4F01906B
:10071000F081E02D309751F026B1CD01032E02C0BB
:10072000880F991F0A94E2F728232083FA01E659DB
:10073000FE4F0190F081E02D309749F029B1CD01B5
:1007400002C0880F991F3A95E2F7282320836F5F34
:100750007F4F4E5F5F4F4031510519F60895A6E077
:10076000B0E0E5EBF3E00C94A4217A8369831C01EB
:100770002B019E838D839B012A5F3F4F3C832B83FC
:10078000ED81FE810681178180819181081B190B03
:100790003801882477FC8094982CF1018289938910
:1007A000A489B589860D971DA81DB91D268D378D85
:1007B00040A151A1AA24BB246501A21AB30AC40A0C
:1007C000D50A8A159B05AC05BD054CF05C016D0191
:1007D000281739074A075B0714F459016A01F10128
:1007E000A28AB38AC48AD58AED81FE8184859585E3
:1007F000AA2797FDA095BA2FA4019301281B390BB6
:100800004A0B5B0BCA01B90115870487F2012485E5
:100810003585442737FD4095542F0E9448217B01A0
:100820008C0132E015950795F794E7943A95D1F746
:10083000F20120813181442737FD4095542FC401B6
:10084000B3010E94482123E0959587957795679598
:100850002A95D1F7E60EF71E081F191FF20126810F
:100860003781442737FD4095542FC601B5010E94BA
:100870004821B6E09595879577956795BA95D1F714
:10088000E60EF71E081F191FE981FA81028804C0CD
:1008900015950795F794E7940A94D2F7ED81FE81B8
:1008A000F3A6E2A63296FE83ED8324E030E0220E2A
:1008B000331E42E050E0440E551E8B819C81481649
:1008C000590609F05DCF2696E2E10C94C021A6E01E
:1008D000B0E0EDE6F4E00C94B421CE010196BE0147
:1008E0006D5F7F4FAE014B5F5F4F0E9482026B8155
:1008F0007C81709327026093260249815A8150932C
:100900002902409328022D813E8130932B022093AF
:100910002A02809156029091570283309105C9F0C6
:10092000843091051CF40297D1F506C084309105FE
:10093000E9F00597A1F527C03093290220932802FA
:1009400088279927841B950B90932B0280932A026A
:1009500026C088279927821B930B909329028093A6
:10096000280250932B0240932A0219C05093270269
:100970004093260288279927861B970B909329027C
:10098000809328020CC088279927841B950B90938D
:1009900027028093260270932902609328022696EC
:1009A000E2E00C94D02181E040E85AE166E070E09A
:1009B0000E94A0010E945F02882349F485E0809391
:1009C000B80288EC90E09093BF028093BE02089535
:1009D0000F931F93CF93DF93FC011082772767FD5E
:1009E000709572836183DC01EC0140E050E00FEF11
:1009F0001FE760E070E80CC012961C930E931197ED
:100A00001A967C936E9319971F86188A198A1A8AE8
:100A10009A014F5F5F4F1296249681819281281729
:100A2000390754F314A613A6DF91CF911F910F91AC
:100A30000895A0E0B0E0EFE1F5E00C94AC217C017A
:100A40008C01EB01F70160E070E02BC02181328165
:100A500088819981281739070CF4C9019283818311
:100A60002185328588819981821793070CF4C90109
:100A70009287818729913991442737FD4095542FDA
:100A8000D8011F96AD90BD90CD90DC905297A20EEC
:100A9000B31EC41ED51E1F96AD92BD92CD92DC92A0
:100AA00052979B016F5F7F4F32960C5F1F4FD701AC
:100AB00011968D919C911297281739073CF2CDB76A
:100AC000DEB7EAE00C94C821A0E0B0E0EAE6F5E089
:100AD0000C94AE21EC017C0143E2C42ED12CC80E53
:100AE000D91E00E010E011C02BA53CA5442737FD1E
:100AF0004095542FF70167857089818992890E94FA
:100B00008921F601219331936F0198010F5F1F4FE7
:100B100084E090E0E80EF91E89819A812817390750
:100B20001CF3CDB7DEB7E8E00C94CA21CF93DF9376
:100B3000FC01EB0161817281A0E040E050E00DC05A
:100B40008385948523813481821B930B8C179D07A9
:100B50000CF4AF5F4F5F5F4F32964617570784F331
:100B600020E08A2F992787FD90958617970709F42B
:100B700021E0822FDF91CF910895AAE0B0E0E3EC6D
:100B8000F5E00C94B2218C018091E6019091E7018F
:100B90009A8389838091EA019091EB019C838B83F6
:100BA0008091EC019091ED019E838D838091E8010D
:100BB0009091E90198878F838091F4019091F501DC
:100BC0009A878987C801BE016F5F7F4F0E94190510
:100BD000F80183A594A5019694A783A7843691056F
:100BE00081F5C80164E170E00E949605882329F12F
:100BF000C8010E946405F80183A194A19093140197
:100C00008093130185A196A19093160180931501FD
:100C100087A190A5909318018093170181A592A5B3
:100C200090931A018093190183A594A590931C01B8
:100C300080931B0181E0808304C0C80164E00E94AE
:100C4000E8042A96E4E00C94CE21A6E0B0E0EBE2C2
:100C5000F6E00C94B2218C0180912602909127023B
:100C60009A83898380912802909129029C838B83A7
:100C700080912A0290912B029E838D83C801BE0130
:100C80006F5F7F4F0E941905F80183A594A5019617
:100C900094A783A78C52914021F5C80162E370E0CC
:100CA0000E9496058823C9F0C8010E946405F801D6
:100CB00083A194A1909321028093200285A196A103
:100CC000909323028093220287A190A590932502FE
:100CD0008093240281E0808304C0C80163E00E9405
:100CE000E8042696E4E00C94CE2120910301309193
:100CF000040180910301909104012817390721F420
:100D00003093E7012093E60120910501309106011F
:100D100080910501909106012817390721F430933D
:100D2000EB012093EA0120910701309108018091A5
:100D30000701909108012817390721F43093ED013C
:100D40002093EC0120910B0130910C0180910B015B
:100D500090910C012817390721F43093EF0120936B
:100D6000EE0120910D0130910E0180910D019091C5
:100D70000E012817390721F43093F1012093F00177
:100D800020910F013091100180910F01909110017D
:100D90002817390721F43093F3012093F2012091B1
:100DA00011013091120180911101909112012817C7
:100DB000390721F43093F5012093F40180918B02DF
:100DC00090918C0205974CF48091E6019091E70197
:100DD0009093E9018093E8010895209109013091F1
:100DE0000A018091090190910A012817390721F41D
:100DF0003093E9012093E8010895A0E0B0E0E3E03A
:100E0000F7E00C94AA21EC0180908B0290908C0268
:100E1000F4013297E830F10508F0D2C1EC5CFF4FE5
:100E2000688179814091E6015091E7010C94DB21C2
:100E3000640F751F70931302609312028881998169
:100E40002091E8013091E901820F931F90931902DC
:100E5000809318028A819B812091EA013091EB01F5
:100E6000820F931F90931502809314029DC17A0103
:100E7000E60EF71EF0921302E0921202A090E80133
:100E8000B090E901088119810A0D1B1D1093190208
:100E900000931802A0911301B09114016A01CA1ABB
:100EA000DB0A488159814C0D5D1DE0911501F091DF
:100EB00016018091EA019091EB018E1B9F0B2A8114
:100EC0003B81820F931FBA017595679523E0559575
:100ED00047952A95E1F7640F751F9C013595279575
:100EE00043E0959587954A95E1F7280F391FE60F5E
:100EF000F71FE20FF31FF0931502E09314026A0F3D
:100F00007B1F621B730B7093170260931602209174
:100F1000EC013091ED0186E08816910409F059C08A
:100F2000E4E0223E3E0774F029573540273C310566
:100F300018F082E090E002C081E090E0029709F0B2
:100F40003FC11CC0C6018A199B092091190130912B
:100F50001A01820F931F9595879584529A4F90930B
:100F60001302809312028C5D95402CED35E0281B16
:100F7000390B309319022093180222C120910201EB
:100F80006A817B81E091F801F091F9016E0F7F1F7A
:100F9000882777FD8095982F30E0205830404427EF
:100FA00037FD4095542F0E94482147E0959587953D
:100FB000779567954A95D1F7E60EF71EF0921302E2
:100FC000E0921202061B170B1093190200931802ED
:100FD000F7C070931302609312028C819D81EAC066
:100FE000640F751F709313026093120288819981B8
:100FF0002091E8013091E901820F931F909319022B
:1010000080931802A0911501B09116014091EA0158
:101010005091EB014A1B5B0B8A819B81480F591F42
:10102000E0911701F09118018091EC019091ED0190
:101030008E1B9F0B2C813D81820F931FBC017595E8
:10104000679523E0959587952A95E1F7680F791FB5
:101050009A013595279583E0559547958A95E1F74F
:10106000240F351FCB01820F931F8A0F9B1F909374
:101070001502809314022E0F3F1F261B370B65C0ED
:1010800020911301309114010A811B818091F80194
:101090009091F901080F191FAC81BD818091FA016F
:1010A0009091FB01A80FB91F8091090190910A014D
:1010B0008C54944097FF03C0E0E0F0E016C08091AC
:1010C000090190910A018C54944095958795855F0C
:1010D00091401CF0E4EFF1E008C0E0910901F091CB
:1010E0000A01EC54F440F595E79544525A4F421BDF
:1010F000530B460F571FB801640F751F9F012A1B22
:101100003B0B37FF02C020E030E0CB01821B930B8A
:101110009093130280931202260F371F309315020B
:10112000209314029A01201B310BAF014A0F5B1F61
:1011300057FF02C040E050E0CA01820F931F909316
:10114000190280931802241B350B30931702209349
:10115000160236C0640F751F70931302609312025B
:10116000888199812091E8013091E901820F931FD4
:1011700090931902809318028A819B812091EA0141
:101180003091EB01820F931F90931502809314020C
:101190008091F4019091F5012A813B81821B930B90
:1011A00090931D0280931C028C819D812091EC0103
:1011B0003091ED01820F931F9093170280931602D6
:1011C0008091F2019091F30190931B0280931A0297
:1011D00089E08816910441F08091F4019091F50125
:1011E00090931D0280931C028091F0019091F10177
:1011F00090931F0280931E02CDB7DEB7ECE00C94F3
:10120000C621AAE0B0E0E7E0F9E00C94B2218091B9
:10121000490290914A020397A9F5FE0131968AE0AE
:10122000DF011D928A95E9F7CF010E94FD06ABEC24
:10123000B1E002E312E04CE352E06D917C91119732
:10124000F80120813181FB018081918128173907C4
:101250000CF4C901F80191838083FA012081318166
:10126000FB0180819181821793070CF4C901FA0177
:1012700081939193AF0112960E5F1F4FF1E0A53D50
:10128000BF07D9F68CE292E00E94FD0680918B02A6
:1012900090918C02099711F074E001C075E060E054
:1012A00080E090E0FC01E553FE4FA081B1814D91BB
:1012B0005C911197FC01EE5CFD4F0190F081E02DF7
:1012C0004E175F0754F0FC01E45CFD4F2081318133
:1012D000FA01241735070CF4F901ED93FC936F5FC5
:1012E00002966717FCF22A96E4E00C94CE218091D6
:1012F000C602882309F050C081E08093C6028FEFB8
:101300008093C5022FB7F894809112029091130236
:10131000909305028093040280911402909115022B
:101320009093070280930602809116029091170213
:1013300090930902809308028091180290911902FB
:1013400090930B0280930A0280911A0290911B02E3
:1013500090930D0280930C0280911C0290911D02CB
:1013600090930F0280930E0280911E0290911F02B3
:10137000909311028093100280916F00826080939D
:101380006F00B19A809184009091850004969093AB
:101390008900809388002FBF0895FC0181E081833C
:1013A000808385E0828316821582108617820895D5
:1013B0009C0144E0813B940714F490E00DC08451FB
:1013C00095408159914010F491E006C02850374073
:1013D00014F49FEF06C092E0662319F082E0891BA7
:1013E000982F892F0895CF93DF93EC018A818B8307
:1013F0008091E6019091E7016D810E94D80987FFF5
:1014000088838091EA019091EB016E810E94D80956
:1014100087FF89838F81882351F48881882329F06D
:10142000823029F481E08D83188281E08F83888562
:10143000882361F48981882319F0823039F404C04B
:1014400081E08E8382E0898381E0888738813F5FF5
:10145000898123E08202C0011124380F3A839B81E5
:1014600080E0391729F081E09295907F932B9C833F
:10147000DF91CF910895282F30E03F6F220F331F67
:10148000EFB7F8948091840090918500AC01405CA6
:101490005F4FBC016D5D7A4F809184009091850013
:1014A000DA01A81BB90B1A161B06B4F320FF02C001
:1014B000579801C0579A4617570729F03695279530
:1014C00045575F4FE9CFEFBF0895EFB7F8944F9BB3
:1014D00049C016C020918400309185002058314CBD
:1014E00004C08FEF9FEF4F9B0BC0809184009091C1
:1014F0008500B901681B790B1616170614F4F1CF95
:10150000AC0141505040CA0101961816190614F357
:101510004F5F5F4F19F420E030E826C080918400CF
:1015200090918500AC0140565F4F20E030E0BC0157
:1015300063597B4F8091840090918500DA01A81B4C
:10154000B90B1A161B06B4F389B13695279590E0AE
:1015500080789070282B392B4617570729F045576C
:101560005F4FE8CF20E030E4EFBFC9010895EF926C
:10157000FF920F931F93CF93DF93E82E192F062F1F
:10158000F62E84E20E943B0A802F0E943B0A2E2DF9
:10159000312FC901EC0104C08991F80E0E943B0A69
:1015A0009E012E192017C4F38F2D81950E943B0AAE
:1015B000CDB7DEB7E6E00C94CC218F929F92AF922C
:1015C000BF92CF92DF92FF920F931F93CF93DF933F
:1015D0004C015A01C0E0D0E0C62EDD24C7FCD094F7
:1015E00002C0812F182FC5010E94650A9C018070DE
:1015F000907C892B69F5822FC130D10559F0C2301A
:10160000D105A1F0209779F7243259F7812FC1E055
:10161000D0E0E8CF90E0C816D90614F4812F15C0A9
:10162000822FF22EC2E0D0E000E0DCCFF20E812F5C
:101630008150112331F0F401E00FF11D20830F5F81
:10164000D1CFFF2011F481E004C0C0E0D0E0CACFC8
:1016500080E0DF91CF911F910F91FF90DF90CF90AD
:10166000BF90AF909F908F900895A0E0B0E0EBE323
:10167000FBE00C94AE2100E0CCEDD5E03DC1109232
:1016800036032093190330931A0340931B0350939E
:101690001C0380913603882319F41F3009F06FC1B1
:1016A000E82FFF27E7FDF095E35EFC4F10838F5F87
:1016B0008093360389310CF41FC180913503882350
:1016C00011F010923603E0918D02F0918E0240915C
:1016D0001F0350E0942F882720911E0330E0822BB7
:1016E000932B97709695879583519C4F9183808318
:1016F000E0918F02F09190022091200330E0C90127
:1017000065E0880F991F6A95E1F703E056954795C4
:101710000A95E1F7842B952B9770969587958351C1
:101720009C4F91838083E0919102F09192024091CD
:10173000220350E08091210390E0880F991F880FC9
:10174000991F76E0369527957A95E1F7822B932BB2
:101750009A01322F2227330F330F822B932B97704E
:101760009695879583519C4F91838083E091930256
:10177000F09194022091230330E0C9019695982FAF
:1017800088279795879556954795842B952B977025
:101790009695879583519C4F91838083E091950224
:1017A000F09196024091240350E0CA0174E0880F42
:1017B000991F7A95E1F764E0369527956A95E1F7E8
:1017C000822B932B97709695879583519C4F91838D
:1017D0008083E0919702F09198026091260370E077
:1017E0008091250390E0880F991F440F452F441FD7
:1017F000550B5195842B952B9B01322F2227330FAC
:10180000822B932B97709695879583519C4F91834C
:101810008083E0919902F0919A022091270330E0B1
:10182000C90106E0880F991F0A95E1F7769567953B
:1018300076956795862B972B97709695879583510C
:101840009C4F91838083E0919B02F0919C02809158
:10185000280390E073E0880F991F7A95E1F765E01F
:10186000369527956A95E1F7822B932B9695879568
:1018700083519C4F91838083ADE8B2E0ED91FC9160
:101880001197808191818C5D95408CF4208131810C
:1018900080819181AE01481B590BCA0195958795AE
:1018A00095958795281B390B318320830EC02081A5
:1018B0003181808191818C5D954095958795959535
:1018C0008795820F931F91838083129652E0AD39E2
:1018D000B507A1F620E030E0F901E050FD4FD90155
:1018E000A35EBC4F8C9180832F5F3F4F2931310520
:1018F00099F71092360301E0E0918201F0918301A3
:10190000A081B18114962D913C911597CF01F901D9
:101910000995892BA1F180913603893184F5A09135
:101920008201B0918301ED91FC9111970680F781BE
:10193000E02DCD010995182F0E94BE009B01AC013E
:101940006093FC027093FD028093FE029093FF026D
:101950008091190390911A03A0911B03B0911C036D
:1019600069017A01C81AD90AEA0AFB0AD701C60135
:1019700089589341A040B0400CF081CE82CE802F98
:10198000CDB7DEB7E8E00C94CA21CF93DF93C091C6
:101990009D02D0919E02209709F45FC068817981F1
:1019A000882777FD8095982F0E9431202DEC3CEC04
:1019B0004CEC5FE30E94E52020E030E040EB54E493
:1019C0000E949A1F20E030E040E050E00E94FF1F9C
:1019D00088231CF460E070E036C068817981882734
:1019E00077FD8095982F0E9431202DEC3CEC4CEC3B
:1019F0005FE30E94E52020E030E040EB54E40E94E9
:101A00009A1F20E030EE4FEF54E40E94E1201816B8
:101A10001CF46FEF77E017C068817981882777FD24
:101A20008095982F0E9431202DEC3CEC4CEC5FE32C
:101A30000E94E52020E030E040EB54E40E949A1F31
:101A40000E940320777060930103972F9770809115
:101A50000203887F892B80930203C0919F02D0915B
:101A6000A002209709F46FC068817981882777FDEB
:101A70008095982F0E9431202DEC3CEC4CEC5FE3DC
:101A80000E94E52020E030E040EB54E40E949A1FE1
:101A900020E030E040E050E00E94FF1F88231CF46B
:101AA00060E070E036C068817981882777FD809595
:101AB000982F0E9431202DEC3CEC4CEC5FE30E940F
:101AC000E52020E030E040EB54E40E949A1F20E043
:101AD00030EE4FEF54E40E94E12018161CF46FEF33
:101AE00077E017C068817981882777FD8095982FE6
:101AF0000E9431202DEC3CEC4CEC5FE30E94E52091
:101B000020E030E040EB54E40E949A1F0E94032042
:101B10007770962F990F990F990F80910203877014
:101B2000892B80930203262F22952695277080917A
:101B30000303807C972F9770990F990F990F822B31
:101B4000892B80930303C091A102D091A202209718
:101B500009F475C068817981882777FD8095982F71
:101B60000E9431202DEC3CEC4CEC5FE30E94E52020
:101B700020E030E040EB54E40E949A1F20E030E087
:101B800040E050E00E94FF1F88231CF460E070E0FA
:101B900036C068817981882777FD8095982F0E94CB
:101BA00031202DEC3CEC4CEC5FE30E94E52020E082
:101BB00030E040EB54E40E949A1F20E030EE4FEFFB
:101BC00054E40E94E12018161CF46FEF77E017C070
:101BD00068817981882777FD8095982F0E94312030
:101BE0002DEC3CEC4CEC5FE30E94E52020E030E083
:101BF00040EB54E40E949A1F0E9403207770962FB6
:101C00009295990F990F907C809103038F73892B84
:101C100080930303972F9295990F990F907C862FAD
:101C200086958695892B80930403972F9695969594
:101C30009170809105038E7F892B80930503C0915D
:101C4000A302D091A402209709F46BC06881798126
:101C5000882777FD8095982F0E9431202DEC3CEC51
:101C60004CEC5FE30E94E52020E030E040EB54E4E0
:101C70000E949A1F20E030E040E050E00E94FF1FE9
:101C800088231CF460E070E036C068817981882781
:101C900077FD8095982F0E9431202DEC3CEC4CEC88
:101CA0005FE30E94E52020E030E040EB54E40E9436
:101CB0009A1F20E030EE4FEF54E40E94E120181606
:101CC0001CF46FEF77E017C068817981882777FD72
:101CD0008095982F0E9431202DEC3CEC4CEC5FE37A
:101CE0000E94E52020E030E040EB54E40E949A1F7F
:101CF0000E9403207770962F990F809105038170C1
:101D0000892B80930503262F221F2227221F8091D3
:101D10000603807F972F9770990F822B892B8093D2
:101D20000603C091A502D091A602209709F46CC0C9
:101D300068817981882777FD8095982F0E943120CE
:101D40002DEC3CEC4CEC5FE30E94E52020E030E021
:101D500040EB54E40E949A1F20E030E040E050E065
:101D60000E94FF1F88231CF460E070E036C0688189
:101D70007981882777FD8095982F0E9431202DEC5E
:101D80003CEC4CEC5FE30E94E52020E030E040EBCF
:101D900054E40E949A1F20E030EE4FEF54E40E947A
:101DA000E12018161CF46FEF77E017C06881798185
:101DB000882777FD8095982F0E9431202DEC3CECF0
:101DC0004CEC5FE30E94E52020E030E040EB54E47F
:101DD0000E949A1F0E9403207770962F9295907F01
:101DE000809106038F70892B80930603262F2295FE
:101DF0002F70809107038078972F97709295907F2E
:101E0000822B892B80930703C091A702D091A8024F
:101E1000209709F471C068817981882777FD8095C2
:101E2000982F0E9431202DEC3CEC4CEC5FE30E949B
:101E3000E52020E030E040EB54E40E949A1F20E0CF
:101E400030E040E050E00E94FF1F88231CF460E077
:101E500070E036C068817981882777FD8095982F5A
:101E60000E9431202DEC3CEC4CEC5FE30E94E5201D
:101E700020E030E040EB54E40E949A1F20E030EE76
:101E80004FEF54E40E94E12018161CF46FEF77E046
:101E900017C068817981882777FD8095982F0E94E7
:101EA00031202DEC3CEC4CEC5FE30E94E52020E07F
:101EB00030E040EB54E40E949A1F0E9403207770A8
:101EC000962F979599279795809107038F77892B60
:101ED00080930703972F979599279795862F869537
:101EE000892B80930803972F96959370809109030F
:101EF0008C7F892B80930903C091A902D091AA02FB
:101F0000209709F46EC068817981882777FD8095D4
:101F1000982F0E9431202DEC3CEC4CEC5FE30E94AA
:101F2000E52020E030E040EB54E40E949A1F20E0DE
:101F300030E040E050E00E94FF1F88231CF460E086
:101F400070E036C068817981882777FD8095982F69
:101F50000E9431202DEC3CEC4CEC5FE30E94E5202C
:101F600020E030E040EB54E40E949A1F20E030EE85
:101F70004FEF54E40E94E12018161CF46FEF77E055
:101F800017C068817981882777FD8095982F0E94F6
:101F900031202DEC3CEC4CEC5FE30E94E52020E08E
:101FA00030E040EB54E40E949A1F0E9403207770B7
:101FB000962F990F990F809109038370892B809335
:101FC0000903262F229526952695237080910A03D2
:101FD000807E972F9770990F990F822B892B809372
:101FE0000A03C091AB02D091AC02209709F46AC0F9
:101FF00068817981882777FD8095982F0E9431200C
:102000002DEC3CEC4CEC5FE30E94E52020E030E05E
:1020100040EB54E40E949A1F20E030E040E050E0A2
:102020000E94FF1F88231CF460E070E036C06881C6
:102030007981882777FD8095982F0E9431202DEC9B
:102040003CEC4CEC5FE30E94E52020E030E040EB0C
:1020500054E40E949A1F20E030EE4FEF54E40E94B7
:10206000E12018161CF46FEF77E017C068817981C2
:10207000882777FD8095982F0E9431202DEC3CEC2D
:102080004CEC5FE30E94E52020E030E040EB54E4BC
:102090000E949A1F0E9403207770962F9295990FA5
:1020A000907E80910A038F71892B80930A03972F6A
:1020B0009295990F907E862F869586958695892B89
:1020C00080930B0385EC93E060E073E049E150E01E
:1020D0000E940A1EDF91CF91089580918201909114
:1020E000830140EA56E861E070E02EE20E94791C2C
:1020F00008951F93CF93DF93EC01142F45E450E034
:102100000E94E1218881811711F08FEF12C090E0C9
:1021100020E030E0FE01E20FF31F8081980F2F5F77
:102120003F4F25343105B1F7992311F480E001C008
:102130008EEFDF91CF911F910895DC0190E020E0B8
:1021400030E0FD01E20FF31F8081980F2F5F3F4FBA
:1021500024343105B1F7AC5BBF4F91959C93A454E7
:10216000B040CD0145E450E00E94F1210895A1E185
:10217000B0E0EDEBF0E10C94A4211C0181E0898337
:1021800087E492E09B838A8302969D838C830D96DD
:102190009F838E8302969987888702969B878A877A
:1021A00002969D878C8702969F878E87CE01019627
:1021B000998B888BD0904702DD0CCC246624EE24CA
:1021C000FF248701F0E88F2EFAE19F2EF6E0AF2E74
:1021D000B12CE2E07E2E2C010E94BE009B01AC01DE
:1021E000DC01CB018E199F09A00BB10B8816990653
:1021F000AA06BB060CF051C0171424F5872D9927A9
:1022000087FD9095FC01E170F07080FD03C088E0CF
:1022100097E002C08CED95E0909315028093140234
:102220008CED95E09093130280931202EE0FFF1F46
:10223000EE0FFF1FED54FE4F80809180A280B3808F
:102240007A9429C0DD2039F11D1424F46CE271E088
:10225000A1E003C064ED7EEFAFEF8D2D992787FDE0
:102260009095FC01E170F07080FF03C08CED95E06B
:1022700003C0CB0184529A4F9093130280931202B1
:10228000EE0FFF1FEE0FFF1FED54FE4F8080918079
:10229000A280B380DA1A79018A010E94350B882363
:1022A00019F091E09093C4028091C402882329F030
:1022B0001092C4020E94750602C0662041F080910F
:1022C000C602882309F08CC00E9477096624772013
:1022D00009F082CFC1010E94F309882309F47CCF61
:1022E000F1018481843561F0853520F4823509F06F
:1022F00063C013C0863559F0883509F05DC02AC027
:10230000F1E0FC1514F0CC2470C0CA946EC085E0D6
:102310008C150CF468C0C39468C0AC2DBB27A7FD16
:10232000B095FD01EE0FFF1FE40DF51D0180F28158
:10233000E02D8081282F332727FD30952F5F3F4FD9
:10234000A554BE4F8C91992787FD909582179307CE
:10235000F4F41CC0AC2DBB27A7FDB095FD01EE0F1A
:10236000FF1FE40DF51D0180F281E02D8081282FF3
:10237000332727FD309521503040AD53BE4F8C910F
:10238000992787FD9095281739070CF49C01208325
:1023900020E08C2D992787FD9095FC01EE0FFF1F03
:1023A000E40DF51D0180F281E02DD080DD0C2223AB
:1023B00019F00196782E770C8981823009F00CCFC4
:1023C00086E492E060E070E00E949D1086E492E076
:1023D00060E071E00E949D106196E2E10C94C021E2
:1023E0006624639474CFB7E0CB2E21E0D2CFA2E96C
:1023F000B0E0EDEFF1E10C94A4210E94BE001B01BE
:102400002C01DE011196E5E9F1E086E001900D92E4
:102410008150E1F78E010D5E1F4FC8010E94CD096A
:102420004CE1E42EF12CEC0EFD1EC70164E00E948D
:10243000E80439E4C32ED12CCC0EDD1EC60163E0C6
:102440000E94E8042092F8023092F9024092FA02C7
:102450005092FB02C557DF4F288239824A825B8245
:10246000CB58D040C957DF4F288239824A825B82DD
:10247000C758D040CD57DF4F288239824A825B82CD
:10248000C358D04042013101C158DF4F2882398200
:102490004A825B82CF57D040EB962CAE3DAE4EAE1B
:1024A0005FAEEB97EF961FAEEF97EE961FAEEE97EF
:1024B000ED961FAEED9721E0EC962FAFEC97C1574C
:1024C000DF4FE882CF58D040C057DF4FF882C05965
:1024D000D040CF56DF4F0883C159D040CE56DF4F92
:1024E0001883C259D0400E94BE005B016C010E945B
:1024F00033010E94350B8823B9F18091AF0290918E
:10250000B002A091B102B091B202883E33E09307CD
:1025100030E0A30730E0B30731F0805D9740A04082
:10252000B040F9F40EC0EE965FADEE97552329F456
:1025300061E0EE966FAFEE9717C071E07093C40242
:102540000CC0EE968FADEE978F5FEE968FAFEE9745
:10255000833054F091E09093C402EE961FAEEE9754
:1025600003C0A1E0A093C4028091C4028823A1F417
:10257000D601C501C557DF4F288139814A815B816A
:10258000CB58D040821B930BA40BB50B81539547BE
:10259000A040B0400CF442C01092C4020E947506E4
:1025A0008C8D882369F0C557DF4FA882B982CA8213
:1025B000DB82CB58D04041E0EF964FAFEF972EC073
:1025C000C157DF4F8881CF58D040C057DF4F988127
:1025D000C059D0400E94BD052A968FAD2A97882306
:1025E00011F492E001C090E020E08C8D882309F482
:1025F00021E0920F9093B70268EC70E07093BD02F7
:102600006093BC02C557DF4FA882B982CA82DB82C1
:10261000CB58D04071E0EF967FAFEF978091C60224
:10262000882379F5EF968FADEF97882351F1A601B6
:102630009501C957DF4F688179818A819B81C7588D
:10264000D040261B370B480B590B8091AF0290915D
:10265000B002A091B102B091B20282179307A40711
:10266000B5077CF40E9401090E94C50CC957DF4FD1
:10267000A882B982CA82DB82C758D040EF961FAECB
:10268000EF97D601C501CD57DF4F288139814A81A7
:102690005B81C358D040821B930BA40BB50B8151B7
:1026A0009742A040B04054F10E9467042A968FAD33
:1026B0002A978823D9F4CE01875B9F4F0E94250675
:1026C0002A968FAD2A97882311F492E001C090E0FA
:1026D00020E08C8D882309F421E0920F9093B702BB
:1026E00048EC50E05093BD024093BC02CD57DF4F01
:1026F000A882B982CA82DB82C358D040EC965FAD13
:10270000EC97552309F456C0CF56DF4F8881C15945
:10271000D040CE56DF4F9881C259D0400E94F30975
:10272000882309F447C0ED966FADED97E62FFF279C
:10273000E7FDF095E457FE4F9F898081981721F0BF
:10274000ED961FAEED9707C0ED967FADED977F5FDD
:10275000ED967FAFED97ED968FADED97E82FFF27C4
:10276000E7FDF095E457FE4F80818F3F81F4CE0165
:1027700043960E94B7102EE088E190E00FB6F894DF
:10278000A895809360000FBE20936000FFCFD60114
:10279000C50182199309A409B509815C914EA44E23
:1027A000B04024F0EC961FAEEC9704C0F1E0EC963C
:1027B000FFAFEC978C8D882329F02A968FAD2A974E
:1027C0008823C9F58091E8019091E9012091E60103
:1027D0003091E701820F931F2091190130911A0166
:1027E000821B930B2091130130911401821B930BD8
:1027F000959587959093F7018093F6018091EA0172
:102800009091EB012091150130911601821B930BE1
:102810009093F9018093F8018091EC019091ED0182
:102820002091170130911801821B930B9093FB01AB
:102830008093FA0158CED601C50186199709A809D7
:10284000B90981519742A040B0400CF434C3809143
:10285000AD029091AE028130910559F48091EE0164
:102860009091EF01865F95400CF0A3C080E090E06E
:102870000DC0892B09F09DC08091EE019091EF0170
:10288000875296400CF495C081E090E09093AE02A0
:102890008093AD02892B11F084E001C080E0809329
:1028A000B70268EC70E07093BD026093BC021092B6
:1028B000D9021092DA021092DB021092DC0210921E
:1028C000E5021092E6021092E7021092E8021092DE
:1028D000DD021092DE021092DF021092E0021092EE
:1028E000E9021092EA021092EB021092EC021092AE
:1028F000E1021092E2021092E3021092E4021092BE
:10290000ED021092EE021092EF021092F00280910E
:102910005E0290915F02029709F04BC0D601C5019B
:10292000EB962CAD3DAD4EAD5FADEB97821B930B9F
:10293000A40BB50B8152914AA740B0401CF0E7961A
:102940001FAEE797E7964FADE7974F5FE7964FAF1C
:10295000E797433044F18091E6019091E70190932D
:102960001401809313018091EA019091EB019093FF
:102970001601809315018091EC019091ED019093E7
:102980001801809317018091E8019091E9019093DB
:102990001A01809319018091F4019091F5019093AF
:1029A0001C0180931B01EB96ACAEBDAECEAEDFAE8C
:1029B000EB974091E8015091E9018091E6019091F7
:1029C000E701480F591F8091190190911A01481B86
:1029D000590B8091130190911401481B590B559587
:1029E00047955093F7014093F601E091EA01F09189
:1029F000EB018091150190911601E81BF90BF09302
:102A0000F901E093F801A091EC01B091ED01809102
:102A1000170190911801A81BB90BB093FB01A0936B
:102A2000FA018091F4019091F50120911B01309100
:102A30001C01821B930B9093FD018093FC018091FC
:102A400058028150282F332727FD3095CA0157FFA0
:102A500004C088279927841B950B022E02C0880F7B
:102A6000991F0A94E2F761E08139960714F080E932
:102A700091E060E971E0681B790B78876F83CF0183
:102A8000F7FF04C0882799278E1B9F0B022E02C0D8
:102A9000880F991F0A94E2F771E08139970714F0C3
:102AA00080E991E060E971E0681B790B7A876987BA
:102AB000CD01B7FF04C0882799278A1B9B0BBC0157
:102AC00002C0660F771F2A95E2F781E06139780727
:102AD00014F060E971E010E9612E11E0712E661AC0
:102AE000770A7C866B868091EE019091EF0125E05C
:102AF000833C92074CF403EC15E0081B190B31E002
:102B00000139130794F00BC066E0883296071CF475
:102B100000E010E00AC077E0863897071CF000E973
:102B200011E003C08C01055F15408090AD029090CC
:102B3000AE0281E08816910459F08114910409F0E5
:102B400050C080915C0290915D02029709F049C0EB
:102B500080915A029A01082E02C0220F331F0A9454
:102B6000E2F73E872D87082E02C0EE0FFF1F0A9462
:102B7000E2F7F88BEF87AD0102C0440F551F8A952D
:102B8000E2F75A8B498B89819A8197FD05C0882786
:102B90009927821B930B01C0C9019093C8028093AF
:102BA000C7028B819C812F85388997FD05C08827B6
:102BB0009927821B930B01C0C9019093CA0280938D
:102BC000C9028D819E8197FD03C0509541955F4F4D
:102BD0005093CC024093CB0291E08916910471F09E
:102BE00055C01092C8021092C7021092CA021092E9
:102BF000C9021092CC021092CB0248C06F81788536
:102C0000882777FD8095982F24EF3FEB40E050E038
:102C10000E944821F9E09595879577956795FA95F3
:102C2000D1F76093E5027093E6028093E7029093F8
:102C3000E80269857A85882777FD8095982F0E941C
:102C40004821E9E09595879577956795EA95D1F7BD
:102C50006093E9027093EA028093EB029093EC0296
:102C6000B301882777FD8095982F0E94482139E08D
:102C700095958795779567953A95D1F76093ED028D
:102C80007093EE028093EF029093F002209126025F
:102C9000309127028091200290912102281B390B4C
:102CA000A0E220303A0714F02FEF3FE1C901B0EE67
:102CB00020303B0714F480E090EE9093CE02809396
:102CC000CD02209128023091290280912202909118
:102CD0002302281B390BE0E220303E0714F02FEFCF
:102CE0003FE1C901F0EE20303F0714F480E090EEA0
:102CF0009093D0028093CF0220912A0230912B0230
:102D00008091240290912502281B390B40E220304B
:102D1000340714F02FEF3FE1C90150EE20303507A2
:102D200014F480E090EE9093D2028093D10289282F
:102D300019F066E772E002C063E672E087EC92E0A9
:102D40000E94AF03EE24FF243801882477FC80948E
:102D5000982C8701045D1D4FE1E0F0E0EC0FFD1FB2
:102D6000EE0DFF1D60817181882777FD8095982F7A
:102D7000F701E953FD4F22A533A5442737FD4095C0
:102D8000542F0E94482127E0959587957795679560
:102D90002A95D1F7E7E0F0E0EC0FFD1FEE0DFF1DE7
:102DA00020813181442737FD4095542F0E944821CE
:102DB0009B01AC01B9E05595479537952795BA9594
:102DC000D1F7C401B3010E944821A9E095958795E8
:102DD00077956795AA95D1F7D8016D937C93E2E03A
:102DE000F0E0EE0EFF1EF6E0EF16F10409F0B1CFB1
:102DF0002091F70212160CF05CC08091F8029091BD
:102E0000F902A091FA02B091FB02B601A501481B9C
:102E1000590B6A0B7B0BDB01CA0181549D40A34017
:102E2000B0405CF021502093F702A092F802B092DB
:102E3000F902C092FA02D092FB028091F702992720
:102E400087FD909540912C0250912D02BC0161703C
:102E5000707080FF03C026E930E002C02AE63FEF31
:102E6000240F351F30932D0220932C0240912E0207
:102E700050912F026115710519F026E930E002C06A
:102E80002AE63FEF240F351F30932F0220932E02A6
:102E90002091300230913102672B19F48AE69FEFBE
:102EA00002C086E990E0820F931F909331028093D5
:102EB000300235014601D601C501C158DF4F2881D6
:102EC00039814A815B81CF57D040821B930BA40B81
:102ED000B50B8C59914AA740B0400CF404CB8091BB
:102EE0006002803839F480910001282F30E02058AA
:102EF000304004C0282F332727FD30958091610290
:102F0000803839F480910101482F50E040585040FA
:102F100004C0482F552747FD5095809162028038A4
:102F200031F48091020190E08058904003C09927CD
:102F300087FD90953A8329835C834B839E838D83A1
:102F4000295F3F4F2F30310510F41A8219828B818F
:102F50009C8107960F9710F41C821B828D819E81A5
:102F600007960F9710F41E821D8280E00E94B20225
:102F7000C158DF4FA882B982CA82DB82CF57D040C6
:102F8000B2CAA6E6B0E0E7ECF7E10C94AE211092ED
:102F9000800081E08093810057985F9848E552E077
:102FA00000E06E010894C11CD11C62E0E62EF12CF9
:102FB000EC0EFD1EC60166E60E94DD0A882309F4B8
:102FC00041C089818230A9F0833018F4813029F41E
:102FD00006C08330B1F08430E9F010E026C0C701AC
:102FE00060E870E048E050E00E94E12110E069E014
:102FF0001DC0C70160E870E048E050E00E94F12188
:1030000013C0C70160E070E04CE00E94791010E04E
:1030100066E40CC0C70160E070E00E949D10C7012B
:1030200060E071E00E949D1011E061E0898180689C
:103030008983C6010E94B70A01E044EF51E01123E1
:1030400009F4B8CF802FCA59DF4FE8E00C94CA21A9
:103050001F920F920FB60F9211240F931F932F936D
:103060003F934F935F936F937F938F939F93AF9310
:10307000BF93EF93FF938091C50287FD42C0E0911B
:10308000C502FF27E7FDF095E658FE4F808160E01E
:103090000E94671F36C08091C5028F5F8093C50272
:1030A000E091C502FF27E7FDF095E658FE4F8081CD
:1030B00087FD27C00091840010918500E091C50232
:1030C000FF27E7FDF095E658FE4F808161E00E9402
:1030D000671FE091C502FF27E7FDF095EE0FFF1F88
:1030E000E25DFE4F0190F081E02D80819181029799
:1030F000880F991F800F911F9093890080938800FB
:103100000BC08091C502873034F21092C6028091C4
:103110006F008D7F80936F00FF91EF91BF91AF9112
:103120009F918F917F916F915F914F913F912F91DF
:103130001F910F910F900FBE0F901F9018950F9336
:103140001F93CF93DF9300E010E0E801C658DE4FF5
:10315000888187FD08C0888160E00E94671F8881A0
:1031600061E00E94FB1E0F5F1F4F0830110569F7D9
:10317000DF91CF911F910F910895A0E0B0E0E3ECB3
:10318000F8E10C94AE21182F062F862F61E00E94E3
:10319000FB1E812F60E00E94FB1E812F61E00E94D8
:1031A000671F6AE070E080E090E00E94FE00C0E0EF
:1031B000D0E0812F992787FD9095FC01EA55FF4FBC
:1031C000E491F0E0EE0FFF1FE456FF4FC590D4905E
:1031D00086549F4FFC018491E82EFF24CE0181701C
:1031E000182F802F612F0E94671FF601808120E039
:1031F00030E090E08E219F21892B11F021E030E01A
:10320000812F992787FD90952817390711F010E035
:1032100005C02196C830D10509F711E0802F60E084
:103220000E94FB1E812FCDB7DEB7E8E00C94CA21C7
:10323000A4E9B0E0EEE1F9E10C94A821259A80918F
:10324000F0039091F103009711F09C0102C024EF6C
:1032500033E0CE010196821B930B803891054CF42C
:1032600084E18093B8028EE190E09093BF02809356
:10327000BE0284B7877F84BF88E10FB6F89480933D
:103280006000109260000FBE21E030E030934802F1
:103290002093470280E880936002809361028093CC
:1032A000620230934A022093490287E080938902A8
:1032B00010924B02EBE9F1E06CE4C62E62E0D62EF0
:1032C000D60181918D9321E0E33AF207D1F742E0F4
:1032D00050E0509355024093540221E030E0309387
:1032E000570220935602309359022093580283E0EC
:1032F00090E090935B0280935A0230935D0220939A
:103300005C0250935F0240935E0284EF91E09093E1
:1033100064028093630210926A0210926902909391
:10332000700280936F029093660280936502109200
:103330006C0210926B0290937202809371029093D0
:1033400068028093670210926E0210926D02909351
:1033500074028093730228E02093750290937702A1
:103360008093760290937D0280937C0290938302F7
:1033700080938202909379028093780290937F02E7
:1033800080937E02909385028093840290937B02C7
:1033900080937A02909381028093800290938702B7
:1033A000809386022093880285E064E00E94BD1825
:1033B000882311F400E001C007E0CE01039660E825
:1033C00070E048E050E00E94E121002361F48B812D
:1033D000823049F48C819D81AE81BF818E549146AB
:1033E000AC4BB04071F082E08B838EE491E6ACEBA5
:1033F000B0E08C839D83AE83BF83188619861A86BE
:103400000860CE010B9660E070E04CE00E947910FD
:1034100087FD0260CE01805B9F4F60E071E04CE071
:103420000E94791087FD046083E08093F702E02E0C
:10343000FF24C701867090708230910531F084308E
:10344000910579F0892B81F119C08E01005B1F4F26
:10345000C80160E070E00E949D1088858F5F8887BA
:103460000BC08E01055F1F4FC80160E071E00E9434
:103470009D1089858F5F8987C80118C08CE0809373
:10348000460286E492E060E070E00E949D1086E4CF
:1034900092E060E071E00E949D108A858F5F8A87CC
:1034A00089E08093F7020AC0CE010B96A6E4B2E051
:1034B000FC0185E401900D928150E1F7C7018E7007
:1034C0009070892B41F0CE01039660E870E048E0EF
:1034D00050E00E94F121E0FE0AC082E00E94260135
:1034E00064E670E080E090E00E949C1EF6CF0E94AF
:1034F000C117882361F02EE088E190E00FB6F894C0
:10350000A895809360000FBE20936000FFCF1092BB
:10351000800082E08093810081E080936F0085B518
:10352000887F85BD0E946D108091490290914A026A
:103530008230910519F18330910524F4019709F047
:103540005BC007C08330910571F1049709F054C046
:103550003FC080E090E048EE53E020ED37E0FC0112
:10356000EE5CFD4F51834083FC01E45CFD4F3183F1
:10357000208302968A30910591F73EC080E090E06A
:103580004CE454E02CE637E0FC01EE5CFD4F518347
:103590004083FC01E45CFD4F3183208302968A3036
:1035A000910591F729C080E090E042EE54E026EDCD
:1035B00036E0FC01EE5CFD4F51834083FC01E45C8E
:1035C000FD4F3183208302968A30910591F714C014
:1035D00080E090E044E853E024E338E0FC01EE5C56
:1035E000FD4F51834083FC01E45CFD4F3183208318
:1035F00002968A30910591F780914B02992787FDB9
:10360000909528EE33E0FC01E29FC001E39F900D0E
:10361000F29F900D1124AA2797FDA095BA2F8093B1
:10362000AF029093B002A093B102B093B202809126
:103630008902877080931D012DE832E0ACE4B2E08E
:10364000ED91FF27E7FDF095EE0FFF1FE25EFE4FC5
:1036500080819181F901819391939F01F2E0A435DA
:10366000BF0771F720E030E0F901EC57FE4F808191
:10367000F901E658FE4F80832F5F3F4F2830310518
:1036800099F7ADE9B2E04CE1642E42E0742E3EE1E0
:10369000832E32E0932E28E1A22E22E0B22E9EEE5F
:1036A000E92E91E0F92E02E112E06AE172E044E1D4
:1036B00052E026E132E0F6018081E82FFF27E7FDA6
:1036C000F095E830F10520F5E45CFF4F0C94DB2128
:1036D00011963C932E931FC011965C934E931BC082
:1036E00011967C936E9317C011961C930E9313C082
:1036F0001196FC92EE920FC01196BC92AE920BC046
:1037000011969C928E9207C011967C926E9203C085
:1037100011961C921E920894C11CD11C1296F4E5BD
:10372000CF16F2E0DF0639F60E9452030E946B03C7
:10373000809147029091480290938C0280938B0273
:10374000019741F58091FF01882319F4E4E0F0E04E
:1037500002C0E0E0F0E080910102882319F442E029
:1037600050E002C040E050E020E030E080910202F2
:10377000882311F421E030E0E22BF32BE42BF52B2E
:10378000EE0FFF1FED55FE4F8081918190938C02CB
:1037900080938B0280918B0290918C02019731F47F
:1037A00082E090E090938C0280938B0280918B0258
:1037B0008093B60288E592E09093BB028093BA02B0
:1037C0000E9402030E949F180E94D3040E94750663
:1037D0000E940109CC56DF4FEEE00C94C4210895FD
:1037E0001F920F920FB60F9211242F933F934F9376
:1037F0008F939F93EF93FF938091C00082FD1DC034
:103800004091C60020917D0330917E032F5F3F4F92
:103810002F73307080917F039091800328173907B0
:1038200071F0E0917D03F0917E03E35CFC4F4083F7
:1038300030937E0320937D0302C08091C600FF91E8
:10384000EF919F918F914F913F912F910F900FBECC
:103850000F901F901895E091D103F091D203E05C96
:10386000FF4F8191919120813181821B930B8F7346
:103870009070892B11F00E94EF1B08951F920F92F8
:103880000FB60F9211242F933F938F939F93EF9333
:10389000FF932091C1033091C2038091C3039091A3
:1038A000C4032817390731F48091C1008F7D8093BC
:1038B000C10014C0E091C303F091C403EF57FC4F63
:1038C00020818091C3039091C40301968F739070FF
:1038D0009093C4038093C3032093C600FF91EF919C
:1038E0009F918F913F912F910F900FBE0F901F903E
:1038F0001895A0E0B0E0EFE7FCE10C94AC21EC01FE
:103900007A018B01C22EDD24403081EE580780E021
:10391000680780E0780711F0DD24D39471E0A72ECA
:10392000B12CEC89FD89DD2069F0C50108A002C039
:10393000880F991F0A94E2F7808360E079E08DE3B5
:1039400090E005C0108260E874E88EE190E0A80184
:1039500097010E94672121503040404050405695C9
:1039600047953795279580E12030380720F0DD20F6
:1039700011F0DD24D6CFE889F9893083EA89FB8903
:103980002083E88DF98DC082EE89FF89408121E096
:1039900030E0C9010C8C02C0880F991F0A94E2F72D
:1039A000482B4083EE89FF894081C9010D8C02C0FC
:1039B000880F991F0A94E2F7482B4083EE89FF890C
:1039C0004081C9010E8C02C0880F991F0A94E2F74A
:1039D000482B4083EE89FF8980810F8C02C0220F23
:1039E000331F0A94E2F7209528232083CDB7DEB752
:1039F000EAE00C94C821DC011C96ED91FC911D9726
:103A0000E05CFF4F2191319180819181281B390B1E
:103A10002F733070C9010895DC011C96ED91FC9163
:103A20001D97E05CFF4F20813181E054F040DF01C1
:103A3000AE5BBF4F8D919C9111972817390719F4F0
:103A40002FEF3FEF07C08D919C91E80FF91F808108
:103A5000282F30E0C9010895DC011C96ED91FC91FE
:103A60001D97E05CFF4F20813181E054F040DF0181
:103A7000AE5BBF4F8D919C9111972817390719F4B0
:103A80002FEF3FEF10C08D919C911197E80FF91F18
:103A900020818D919C91119701968F739070119652
:103AA0009C938E9330E0C9010895DC0191968C912E
:103AB0009197882339F05496ED91FC915597808128
:103AC00086FFF9CF91961C920895CF93DF93EC0176
:103AD000EE85FF85E05CFF4F20813181E054F040AE
:103AE0002F5F3F4F2F733070DF01AE5BBF4F8D9163
:103AF0009C91119728173907D1F3E05CFF4F808123
:103B00009181E054F040E80FF91F6083EE85FF8556
:103B1000E05CFF4F31832083EE89FF89208181E0C3
:103B200090E00F8C02C0880F991F0A94E2F7282BAF
:103B3000208381E089A3EC89FD8980818064808372
:103B400081E090E0DF91CF9108951092C803109228
:103B5000C70388EE93E0A0E0B0E08093C9039093A0
:103B6000CA03A093CB03B093CC0389ED91E090936B
:103B7000C6038093C5038DE393E09093D2038093B3
:103B8000D10381E893E09093D4038093D30385EC31
:103B900090E09093D6038093D50384EC90E09093CB
:103BA000D8038093D70380EC90E09093DA0380935E
:103BB000D90381EC90E09093DC038093DB0382ECEB
:103BC00090E09093DE038093DD0386EC90E0909389
:103BD000E0038093DF0384E08093E10383E080933C
:103BE000E20387E08093E30385E08093E40381E0D0
:103BF0008093E5030895CF93DF930E94C01E0E9437
:103C00001819CBE2DCE10E94F7112097E1F30E9442
:103C10002B1CF9CFA0E0B0E0E0E1FEE10C94AE2176
:103C20007C016B018A01C0E0D0E00FC0D6016D912C
:103C30006D01D701ED91FC910190F081E02DC7015C
:103C40000995C80FD91F015010400115110571F7D2
:103C5000CE01CDB7DEB7E8E00C94CA211F920F92D7
:103C60000FB60F9211242F933F938F939F93AF938F
:103C7000BF938091EB039091EC03A091ED03B09181
:103C8000EE033091EF030196A11DB11D232F2D5F8F
:103C90002D3720F02D570196A11DB11D2093EF0364
:103CA0008093EB039093EC03A093ED03B093EE03AA
:103CB0008091E7039091E803A091E903B091EA03B2
:103CC0000196A11DB11D8093E7039093E803A09393
:103CD000E903B093EA03BF91AF919F918F913F9118
:103CE0002F910F900FBE0F901F9018959FB7F894CB
:103CF0002091E7033091E8034091E9035091EA03F2
:103D000086B5A89B06C08F3F21F02F5F3F4F4F4FD6
:103D10005F4F9FBF542F432F322F2227280F311D73
:103D2000411D511D82E0220F331F441F551F8A95EC
:103D3000D1F7B901CA010895EF92FF920F931F9333
:103D4000CF93DF937B018C010E94761EEB010EC0A6
:103D50000E94761E6C1B7D0B685E7340C8F308944E
:103D6000E108F10801091109C851DC4FE114F1041F
:103D70000105110569F7CDB7DEB7E6E00C94CC215B
:103D8000789484B5826084BD84B5816084BD85B536
:103D9000826085BD85B5816085BDEEE6F0E08081FD
:103DA00081608083E1E8F0E010828081826080831E
:103DB000808181608083E0E8F0E0808181608083A1
:103DC000E1EBF0E0808184608083E0EBF0E08081D3
:103DD00081608083EAE7F0E0808184608083808175
:103DE000826080838081816080838081806880831D
:103DF0001092C1000895CF93DF93482F50E0CA017D
:103E000086549F4FFC0134914A555F4FFA018491CB
:103E1000882369F190E0880F991FFC01E857FF4F54
:103E2000A591B491FC01EE56FF4FC591D491662344
:103E300051F42FB7F8948C91932F909589238C93FC
:103E4000888189230BC0623061F42FB7F8948C917C
:103E5000932F909589238C938881832B88832FBF00
:103E600006C09FB7F8948C91832B8C939FBFDF91F2
:103E7000CF910895833071F0843028F48130A1F01F
:103E8000823021F514C08630B1F08730D1F0843013
:103E9000E9F404C0809180008F7703C08091800096
:103EA0008F7D80938000089584B58F7702C084B59C
:103EB0008F7D84BD08958091B0008F778093B0008E
:103EC00008958091B0008F7D8093B0000895FF9297
:103ED0000F931F93F62E482F50E0CA0182539F4F35
:103EE000FC012491CA0186549F4FFC0114914A554C
:103EF0005F4FFA0104910023C9F0222319F0822FA9
:103F00000E943A1FE02FF0E0EE0FFF1FEE56FF4F2A
:103F1000A591B4919FB7F894FF2021F48C9110954E
:103F2000812302C08C91812B8C939FBF1F910F9195
:103F3000FF9008955058BB27AA270ED008C1F9D08A
:103F400030F0FED020F031F49F3F11F41EF4EEC0AB
:103F50000EF4E095E7FBE4C0E92F0AD180F3BA172D
:103F6000620773078407950718F071F49EF522C164
:103F70000EF4E0950B2EBA2FA02D0B01B901900184
:103F80000C01CA01A0011124FF27591B99F0593FC8
:103F900050F4503E68F11A16F040A22F232F342F10
:103FA0004427585FF3CF469537952795A795F0405E
:103FB0005395C9F77EF41F16BA0B620B730B840B73
:103FC000BAF09150A1F0FF0FBB1F661F771F881F2B
:103FD000C2F70EC0BA0F621F731F841F48F4879583
:103FE00077956795B795F7959E3F08F0B3CF939572
:103FF000880F08F09927EE0F9795879508956CD054
:1040000008F481E00895BCD088F09F5790F0B92F54
:104010009927B751A0F0D1F0660F771F881F991F1D
:104020001AF0BA95C9F712C0B13081F0C3D0B1E02F
:104030000895C0C0672F782F8827B85F39F0B93F3F
:10404000CCF3869577956795B395D9F73EF490951F
:104050008095709561957F4F8F4F9F4F0895E8949D
:1040600009C097FB3EF490958095709561957F4FC0
:104070008F4F9F4F9923A9F0F92F96E9BB2793956E
:10408000F695879577956795B795F111F8CFFAF47E
:10409000BB0F11F460FF1BC06F5F7F4F8F4F9F4FAF
:1040A00016C0882311F096E911C0772321F09EE80D
:1040B000872F762F05C0662371F096E8862F70E073
:1040C00060E02AF09A95660F771F881FDAF7880F4D
:1040D0009695879597F90895990F0008550FAA0BA3
:1040E000E0E8FEEF16161706E807F907C0F012160B
:1040F0001306E407F50798F0621B730B840B950B0E
:1041000039F40A2661F0232B242B252B21F4089562
:104110000A2609F4A140A6958FEF811D811D0895FF
:1041200097F99F6780E870E060E008959FEF80EC6A
:10413000089500240A94161617061806090608950D
:1041400000240A9412161306140605060895092E73
:104150000394000C11F4882352F0BB0F40F4BF2BE2
:1041600011F460FF04C06F5F7F4F8F4F9F4F089522
:1041700057FD9058440F551F59F05F3F71F0479518
:10418000880F97FB991F61F09F3F79F087950895FD
:10419000121613061406551FF2CF4695F1DF08C01C
:1041A000161617061806991FF1CF86957105610539
:1041B00008940895E894BB2766277727CB0197F9E1
:1041C00008958ADF08F48FEF08950BD0C0CFB1DFD8
:1041D00028F0B6DF18F0952309F0A2CFA7CF11245D
:1041E000EACFC6DFA0F3959FD1F3950F50E0551F9E
:1041F000629FF001729FBB27F00DB11D639FAA273C
:10420000F00DB11DAA1F649F6627B00DA11D661F8A
:10421000829F2227B00DA11D621F739FB00DA11DAB
:10422000621F839FA00D611D221F749F3327A00D65
:10423000611D231F849F600D211D822F762F6A2F01
:1042400011249F5750408AF0E1F088234AF0EE0F86
:10425000FF1FBB1F661F771F881F91505040A9F793
:104260009E3F510570F05CCFA6CF5F3FECF3983EC8
:10427000DCF3869577956795B795F795E7959F5FFA
:10428000C1F7FE2B880F911D9695879597F9089594
:10429000629FD001739FF001829FE00DF11D649F2A
:1042A000E00DF11D929FF00D839FF00D749FF00DB6
:1042B000659FF00D9927729FB00DE11DF91F639F57
:1042C000B00DE11DF91FBD01CF0111240895A1E238
:1042D0001A2EAA1BBB1BFD010DC0AA1FBB1FEE1F80
:1042E000FF1FA217B307E407F50720F0A21BB30BCB
:1042F000E40BF50B661F771F881F991F1A9469F747
:1043000060957095809590959B01AC01BD01CF01A2
:10431000089597FB092E05260ED057FD04D0D7DF50
:104320000AD0001C38F450954095309521953F4FA8
:104330004F4F5F4F0895F6F7909580957095619572
:104340007F4F8F4F9F4F08952F923F924F925F92D2
:104350006F927F928F929F92AF92BF92CF92DF9295
:10436000EF92FF920F931F93CF93DF93CDB7DEB7FA
:10437000CA1BDB0B0FB6F894DEBF0FBECDBF09948E
:104380002A88398848885F846E847D848C849B84E5
:10439000AA84B984C884DF80EE80FD800C811B81F3
:1043A000AA81B981CE0FD11D0FB6F894DEBF0FBE22
:1043B000CDBFED010895EE0FFF1F0590F491E02DA4
:1043C0000994DC01CB01FC01F999FECF06C0F2BDD6
:1043D000E1BDF89A319600B40D9241505040B8F7C3
:1043E0000895DC01CB0103C02D910E94FC214150B6
:1043F0005040D0F70895262FF999FECF1FBA92BDED
:1044000081BD20BD0FB6F894FA9AF99A0FBE0196B5
:064410000895F894FFCFAF
:10441600FFFFFFDC05DC05DC05DC05E803DC05E861
:1044260003DC05DC05DC05DC05DC05DC050607012F
:1044360005010F0103010B0109010D011101040220
:104446000A0206020E0208020C0210020000000018
:104456000001010102010000000000000000000050
:10446600000001020000000000000202000000003F
:10447600000000000000000000000302FE01FF0132
:10448600000200000000000000000407050906FF06
:10449600FFFFC50304070509060AFFFF7889988709
:1044A60078899887FF0000000000000301020004DD
:1044B60005060702000300040005000800060007C1
:1044C600000200A0860100801A0600050305030409
:1044D6000202020101010101010101120214021688
:1044E6000218021C0200000000651D0A1EFB1C2C9F
:0644F6001D0C1D551D0008
:00000001FF
